{
  "address": "0x5F051eb3462fEf4b8D020996D80519e3D727b6dB",
  "abi": [
    {
      "inputs": [
        {
          "internalType": "address",
          "name": "_aavePoolProvider",
          "type": "address"
        },
        {
          "internalType": "address",
          "name": "_aaveData",
          "type": "address"
        },
        {
          "internalType": "address",
          "name": "_aaveIncentives",
          "type": "address"
        }
      ],
      "stateMutability": "nonpayable",
      "type": "constructor"
    },
    {
      "inputs": [],
      "name": "DataProvider",
      "outputs": [
        {
          "internalType": "address",
          "name": "",
          "type": "address"
        }
      ],
      "stateMutability": "view",
      "type": "function"
    },
    {
      "inputs": [],
      "name": "Incentives",
      "outputs": [
        {
          "internalType": "address",
          "name": "",
          "type": "address"
        }
      ],
      "stateMutability": "view",
      "type": "function"
    },
    {
      "inputs": [],
      "name": "LIQUIDITY_BUFFER",
      "outputs": [
        {
          "internalType": "uint256",
          "name": "",
          "type": "uint256"
        }
      ],
      "stateMutability": "view",
      "type": "function"
    },
    {
      "inputs": [],
      "name": "PoolProvider",
      "outputs": [
        {
          "internalType": "address",
          "name": "",
          "type": "address"
        }
      ],
      "stateMutability": "view",
      "type": "function"
    },
    {
      "inputs": [
        {
          "internalType": "address",
          "name": "",
          "type": "address"
        },
        {
          "internalType": "address",
          "name": "token",
          "type": "address"
        },
        {
          "internalType": "uint256",
          "name": "amount",
          "type": "uint256"
        }
      ],
      "name": "borrow",
      "outputs": [],
      "stateMutability": "nonpayable",
      "type": "function"
    },
    {
      "inputs": [
        {
          "internalType": "address",
          "name": "",
          "type": "address"
        }
      ],
      "name": "claimRewards",
      "outputs": [
        {
          "internalType": "address",
          "name": "rewardsToken",
          "type": "address"
        },
        {
          "internalType": "uint256",
          "name": "rewardsAmount",
          "type": "uint256"
        }
      ],
      "stateMutability": "nonpayable",
      "type": "function"
    },
    {
      "inputs": [
        {
          "internalType": "address",
          "name": "",
          "type": "address"
        },
        {
          "internalType": "address[]",
          "name": "markets",
          "type": "address[]"
        }
      ],
      "name": "enterMarkets",
      "outputs": [],
      "stateMutability": "nonpayable",
      "type": "function"
    },
    {
      "inputs": [
        {
          "internalType": "address",
          "name": "",
          "type": "address"
        },
        {
          "internalType": "address",
          "name": "asset",
          "type": "address"
        }
      ],
      "name": "getAssetMetadata",
      "outputs": [
        {
          "components": [
            {
              "internalType": "address",
              "name": "assetAddress",
              "type": "address"
            },
            {
              "internalType": "string",
              "name": "assetSymbol",
              "type": "string"
            },
            {
              "internalType": "uint8",
              "name": "assetDecimals",
              "type": "uint8"
            },
            {
              "internalType": "uint256",
              "name": "referencePrice",
              "type": "uint256"
            },
            {
              "internalType": "uint256",
              "name": "totalLiquidity",
              "type": "uint256"
            },
            {
              "internalType": "uint256",
              "name": "totalSupply",
              "type": "uint256"
            },
            {
              "internalType": "uint256",
              "name": "totalBorrow",
              "type": "uint256"
            },
            {
              "internalType": "uint256",
              "name": "totalReserves",
              "type": "uint256"
            },
            {
              "internalType": "uint256",
              "name": "supplyAPR",
              "type": "uint256"
            },
            {
              "internalType": "uint256",
              "name": "borrowAPR",
              "type": "uint256"
            },
            {
              "internalType": "address",
              "name": "rewardTokenAddress",
              "type": "address"
            },
            {
              "internalType": "string",
              "name": "rewardTokenSymbol",
              "type": "string"
            },
            {
              "internalType": "uint8",
              "name": "rewardTokenDecimals",
              "type": "uint8"
            },
            {
              "internalType": "uint256",
              "name": "estimatedSupplyRewardsPerYear",
              "type": "uint256"
            },
            {
              "internalType": "uint256",
              "name": "estimatedBorrowRewardsPerYear",
              "type": "uint256"
            },
            {
              "internalType": "uint256",
              "name": "collateralFactor",
              "type": "uint256"
            },
            {
              "internalType": "uint256",
              "name": "liquidationFactor",
              "type": "uint256"
            },
            {
              "internalType": "bool",
              "name": "canSupply",
              "type": "bool"
            },
            {
              "internalType": "bool",
              "name": "canBorrow",
              "type": "bool"
            }
          ],
          "internalType": "struct AssetMetadata",
          "name": "assetMetadata",
          "type": "tuple"
        }
      ],
      "stateMutability": "nonpayable",
      "type": "function"
    },
    {
      "inputs": [
        {
          "internalType": "address",
          "name": "",
          "type": "address"
        },
        {
          "internalType": "address",
          "name": "token",
          "type": "address"
        }
      ],
      "name": "getBorrowBalance",
      "outputs": [
        {
          "internalType": "uint256",
          "name": "borrowBalance",
          "type": "uint256"
        }
      ],
      "stateMutability": "nonpayable",
      "type": "function"
    },
    {
      "inputs": [
        {
          "internalType": "address",
          "name": "",
          "type": "address"
        },
        {
          "internalType": "address",
          "name": "asset",
          "type": "address"
        }
      ],
      "name": "getCollateralFactorForAsset",
      "outputs": [
        {
          "internalType": "uint256",
          "name": "collateralFactor",
          "type": "uint256"
        }
      ],
      "stateMutability": "nonpayable",
      "type": "function"
    },
    {
      "inputs": [
        {
          "internalType": "address",
          "name": "",
          "type": "address"
        }
      ],
      "name": "getCollateralUsageFactor",
      "outputs": [
        {
          "internalType": "uint256",
          "name": "",
          "type": "uint256"
        }
      ],
      "stateMutability": "nonpayable",
      "type": "function"
    },
    {
      "inputs": [
        {
          "internalType": "address",
          "name": "",
          "type": "address"
        },
        {
          "internalType": "address",
          "name": "token",
          "type": "address"
        }
      ],
      "name": "getLiquidity",
      "outputs": [
        {
          "internalType": "uint256",
          "name": "",
          "type": "uint256"
        }
      ],
      "stateMutability": "nonpayable",
      "type": "function"
    },
    {
      "inputs": [
        {
          "internalType": "address",
          "name": "",
          "type": "address"
        },
        {
          "internalType": "address",
          "name": "token",
          "type": "address"
        }
      ],
      "name": "getReferencePrice",
      "outputs": [
        {
          "internalType": "uint256",
          "name": "",
          "type": "uint256"
        }
      ],
      "stateMutability": "nonpayable",
      "type": "function"
    },
    {
      "inputs": [
        {
          "internalType": "address",
          "name": "",
          "type": "address"
        },
        {
          "internalType": "address",
          "name": "token",
          "type": "address"
        }
      ],
      "name": "getSupplyBalance",
      "outputs": [
        {
          "internalType": "uint256",
          "name": "supplyBalance",
          "type": "uint256"
        }
      ],
      "stateMutability": "nonpayable",
      "type": "function"
    },
    {
      "inputs": [
        {
          "internalType": "address",
          "name": "",
          "type": "address"
        },
        {
          "internalType": "address",
          "name": "token",
          "type": "address"
        }
      ],
      "name": "redeemAll",
      "outputs": [],
      "stateMutability": "nonpayable",
      "type": "function"
    },
    {
      "inputs": [
        {
          "internalType": "address",
          "name": "",
          "type": "address"
        },
        {
          "internalType": "address",
          "name": "token",
          "type": "address"
        },
        {
          "internalType": "uint256",
          "name": "amount",
          "type": "uint256"
        }
      ],
      "name": "redeemSupply",
      "outputs": [],
      "stateMutability": "nonpayable",
      "type": "function"
    },
    {
      "inputs": [
        {
          "internalType": "address",
          "name": "",
          "type": "address"
        },
        {
          "internalType": "address",
          "name": "token",
          "type": "address"
        },
        {
          "internalType": "uint256",
          "name": "amount",
          "type": "uint256"
        }
      ],
      "name": "repayBorrow",
      "outputs": [],
      "stateMutability": "nonpayable",
      "type": "function"
    },
    {
      "inputs": [
        {
          "internalType": "address",
          "name": "",
          "type": "address"
        },
        {
          "internalType": "address",
          "name": "token",
          "type": "address"
        },
        {
          "internalType": "uint256",
          "name": "amount",
          "type": "uint256"
        }
      ],
      "name": "supply",
      "outputs": [],
      "stateMutability": "nonpayable",
      "type": "function"
    }
  ],
  "transactionHash": "0xce31c858f2afd465cd3a02dbd1f27c5b76a62ba0b93e8d4b528d1ad636918c61",
  "args": [
    "0xd05e3E715d945B59290df0ae8eF85c1BdB684744",
    "0x7551b5D2763519d4e37e8B81929D336De671d46d",
    "0x357D51124f59836DeD84c8a1730D72B749d8BC23"
  ],
  "numDeployments": 1,
  "solcInputHash": "0c2605f0b7387ba49aa77862d1bfc021",
  "bytecode": "0x60e06040523480156200001157600080fd5b506040516200405a3803806200405a83398181016040528101906200003791906200025b565b828282600073ffffffffffffffffffffffffffffffffffffffff168373ffffffffffffffffffffffffffffffffffffffff161415620000ad576040517f08c379a0000000000000000000000000000000000000000000000000000000008152600401620000a490620002f3565b60405180910390fd5b600073ffffffffffffffffffffffffffffffffffffffff168273ffffffffffffffffffffffffffffffffffffffff16141562000120576040517f08c379a00000000000000000000000000000000000000000000000000000000081526004016200011790620002f3565b60405180910390fd5b600073ffffffffffffffffffffffffffffffffffffffff168173ffffffffffffffffffffffffffffffffffffffff16141562000193576040517f08c379a00000000000000000000000000000000000000000000000000000000081526004016200018a90620002f3565b60405180910390fd5b8273ffffffffffffffffffffffffffffffffffffffff1660808173ffffffffffffffffffffffffffffffffffffffff1660601b815250508173ffffffffffffffffffffffffffffffffffffffff1660a08173ffffffffffffffffffffffffffffffffffffffff1660601b815250508073ffffffffffffffffffffffffffffffffffffffff1660c08173ffffffffffffffffffffffffffffffffffffffff1660601b8152505050505050505062000374565b60008151905062000255816200035a565b92915050565b6000806000606084860312156200027157600080fd5b6000620002818682870162000244565b9350506020620002948682870162000244565b9250506040620002a78682870162000244565b9150509250925092565b6000620002c060048362000315565b91507f49435030000000000000000000000000000000000000000000000000000000006000830152602082019050919050565b600060208201905081810360008301526200030e81620002b1565b9050919050565b600082825260208201905092915050565b600062000333826200033a565b9050919050565b600073ffffffffffffffffffffffffffffffffffffffff82169050919050565b620003658162000326565b81146200037157600080fd5b50565b60805160601c60a05160601c60c05160601c613c4262000418600039806108835280610bfc52806117815280611b3452806121cb528061228052508061066f52806110a2528061117c52806118fa5280611a165280611f2f5280612034528061211d5250806103bf528061052a528061074d52806108a752806108d15280610f5652806111a252806112fa528061139c528061163c5280611cab5250613c426000f3fe608060405234801561001057600080fd5b50600436106101155760003560e01c8063b29d57d8116100a2578063c143ffbb11610071578063c143ffbb146102de578063ea526de7146102fa578063eed1a08c1461032a578063ef5cfb8c1461035a578063ef8486701461038b57610115565b8063b29d57d814610230578063b84c743b14610260578063ba37773114610290578063bee9ec8d146102c057610115565b80631c009d71116100e95780631c009d71146101a05780633237cf07146101bc5780633c81f56f146101da5780634883400d146101f85780635224372c1461021457610115565b806220311b1461011a578063013cb421146101365780630c0a769b14610154578063118e31b714610170575b600080fd5b610134600480360381019061012f9190612c5b565b6103bb565b005b61013e610521565b60405161014b9190613984565b60405180910390f35b61016e60048036038101906101699190612c5b565b610526565b005b61018a60048036038101906101859190612bd0565b61066b565b6040516101979190613984565b60405180910390f35b6101ba60048036038101906101b59190612c5b565b610749565b005b6101c4610881565b6040516101d191906136a1565b60405180910390f35b6101e26108a5565b6040516101ef91906136a1565b60405180910390f35b610212600480360381019061020d9190612caa565b6108c9565b005b61022e60048036038101906102299190612c5b565b6108cd565b005b61024a60048036038101906102459190612bd0565b6109ea565b6040516102579190613962565b60405180910390f35b61027a60048036038101906102759190612bd0565b610ebf565b6040516102879190613984565b60405180910390f35b6102aa60048036038101906102a59190612bd0565b61109e565b6040516102b79190613984565b60405180910390f35b6102c861117a565b6040516102d591906136a1565b60405180910390f35b6102f860048036038101906102f39190612bd0565b61119e565b005b610314600480360381019061030f9190612bd0565b6112f5565b6040516103219190613984565b60405180910390f35b610344600480360381019061033f9190612bd0565b61162b565b6040516103519190613984565b60405180910390f35b610374600480360381019061036f9190612b7e565b61177c565b6040516103829291906136e5565b60405180910390f35b6103a560048036038101906103a09190612b7e565b611ca6565b6040516103b29190613984565b60405180910390f35b60007f000000000000000000000000000000000000000000000000000000000000000073ffffffffffffffffffffffffffffffffffffffff16630261bf8b6040518163ffffffff1660e01b815260040160206040518083038186803b15801561042357600080fd5b505afa158015610437573d6000803e3d6000fd5b505050506040513d601f19601f8201168201806040525081019061045b9190612ba7565b905061048881838573ffffffffffffffffffffffffffffffffffffffff16611dfd9092919063ffffffff16565b8073ffffffffffffffffffffffffffffffffffffffff1663573ade8184846002306040518563ffffffff1660e01b81526004016104c8949392919061378a565b602060405180830381600087803b1580156104e257600080fd5b505af11580156104f6573d6000803e3d6000fd5b505050506040513d601f19601f8201168201806040525081019061051a9190612d92565b5050505050565b600a81565b60007f000000000000000000000000000000000000000000000000000000000000000073ffffffffffffffffffffffffffffffffffffffff16630261bf8b6040518163ffffffff1660e01b815260040160206040518083038186803b15801561058e57600080fd5b505afa1580156105a2573d6000803e3d6000fd5b505050506040513d601f19601f820116820180604052508101906105c69190612ba7565b90506105f381838573ffffffffffffffffffffffffffffffffffffffff16611dfd9092919063ffffffff16565b8073ffffffffffffffffffffffffffffffffffffffff1663e8eda9df84843060006040518563ffffffff1660e01b81526004016106339493929190613745565b600060405180830381600087803b15801561064d57600080fd5b505af1158015610661573d6000803e3d6000fd5b5050505050505050565b60007f000000000000000000000000000000000000000000000000000000000000000073ffffffffffffffffffffffffffffffffffffffff166328dd2d0183306040518363ffffffff1660e01b81526004016106c89291906136bc565b6101206040518083038186803b1580156106e157600080fd5b505afa1580156106f5573d6000803e3d6000fd5b505050506040513d601f19601f820116820180604052508101906107199190613049565b90919293949596975090919293949596509091929394509091929350909192509091509050508091505092915050565b60007f000000000000000000000000000000000000000000000000000000000000000073ffffffffffffffffffffffffffffffffffffffff16630261bf8b6040518163ffffffff1660e01b815260040160206040518083038186803b1580156107b157600080fd5b505afa1580156107c5573d6000803e3d6000fd5b505050506040513d601f19601f820116820180604052508101906107e99190612ba7565b90508073ffffffffffffffffffffffffffffffffffffffff166369328dec8484306040518463ffffffff1660e01b81526004016108289392919061370e565b602060405180830381600087803b15801561084257600080fd5b505af1158015610856573d6000803e3d6000fd5b505050506040513d601f19601f8201168201806040525081019061087a9190612d92565b5050505050565b7f000000000000000000000000000000000000000000000000000000000000000081565b7f000000000000000000000000000000000000000000000000000000000000000081565b5050565b60007f000000000000000000000000000000000000000000000000000000000000000073ffffffffffffffffffffffffffffffffffffffff16630261bf8b6040518163ffffffff1660e01b815260040160206040518083038186803b15801561093557600080fd5b505afa158015610949573d6000803e3d6000fd5b505050506040513d601f19601f8201168201806040525081019061096d9190612ba7565b90508073ffffffffffffffffffffffffffffffffffffffff1663a415bcad848460026000306040518663ffffffff1660e01b81526004016109b29594939291906137cf565b600060405180830381600087803b1580156109cc57600080fd5b505af11580156109e0573d6000803e3d6000fd5b5050505050505050565b6109f261277a565b6109fa612842565b610a0383611f25565b905082826000019073ffffffffffffffffffffffffffffffffffffffff16908173ffffffffffffffffffffffffffffffffffffffff16815250508273ffffffffffffffffffffffffffffffffffffffff166395d89b416040518163ffffffff1660e01b815260040160006040518083038186803b158015610a8357600080fd5b505afa158015610a97573d6000803e3d6000fd5b505050506040513d6000823e3d601f19601f82011682018060405250810190610ac09190612d27565b82602001819052508273ffffffffffffffffffffffffffffffffffffffff1663313ce5676040518163ffffffff1660e01b815260040160206040518083038186803b158015610b0e57600080fd5b505afa158015610b22573d6000803e3d6000fd5b505050506040513d601f19601f82011682018060405250810190610b46919061310f565b826040019060ff16908160ff1681525050610b62600084610ebf565b8260600181815250508060400151826080018181525050610b948160800151826060015161233b90919063ffffffff16565b8260c0018181525050610bb882608001518360c0015161233b90919063ffffffff16565b8260a001818152505060008260e0018181525050610bd98160a00151612390565b82610100018181525050610bf08160c00151612390565b826101200181815250507f000000000000000000000000000000000000000000000000000000000000000073ffffffffffffffffffffffffffffffffffffffff166399248ea76040518163ffffffff1660e01b815260040160206040518083038186803b158015610c6057600080fd5b505afa158015610c74573d6000803e3d6000fd5b505050506040513d601f19601f82011682018060405250810190610c989190612ba7565b82610140019073ffffffffffffffffffffffffffffffffffffffff16908173ffffffffffffffffffffffffffffffffffffffff168152505081610140015173ffffffffffffffffffffffffffffffffffffffff1663313ce5676040518163ffffffff1660e01b815260040160206040518083038186803b158015610d1b57600080fd5b505afa158015610d2f573d6000803e3d6000fd5b505050506040513d601f19601f82011682018060405250810190610d53919061310f565b82610180019060ff16908160ff168152505081610140015173ffffffffffffffffffffffffffffffffffffffff166395d89b416040518163ffffffff1660e01b815260040160006040518083038186803b158015610db057600080fd5b505afa158015610dc4573d6000803e3d6000fd5b505050506040513d6000823e3d601f19601f82011682018060405250810190610ded9190612d27565b826101600181905250610e116301e133808260e001516123a790919063ffffffff16565b826101a0018181525050610e376301e133808261010001516123a790919063ffffffff16565b826101c0018181525050610e4e8160000151612417565b826101e0018181525050610e658160200151612417565b826102000181815250508061014001518015610e845750806101600151155b826102200190151590811515815250508061014001518015610ea857508061012001515b826102400190151590811515815250505092915050565b60006110968273ffffffffffffffffffffffffffffffffffffffff1663313ce5676040518163ffffffff1660e01b815260040160206040518083038186803b158015610f0a57600080fd5b505afa158015610f1e573d6000803e3d6000fd5b505050506040513d601f19601f82011682018060405250810190610f42919061310f565b60ff16600a0a611088670de0b6b3a76400007f000000000000000000000000000000000000000000000000000000000000000073ffffffffffffffffffffffffffffffffffffffff1663fca513a86040518163ffffffff1660e01b815260040160206040518083038186803b158015610fba57600080fd5b505afa158015610fce573d6000803e3d6000fd5b505050506040513d601f19601f82011682018060405250810190610ff29190612ba7565b73ffffffffffffffffffffffffffffffffffffffff1663b3596f07876040518263ffffffff1660e01b815260040161102a91906136a1565b60206040518083038186803b15801561104257600080fd5b505afa158015611056573d6000803e3d6000fd5b505050506040513d601f19601f8201168201806040525081019061107a9190612d92565b6123a790919063ffffffff16565b61243990919063ffffffff16565b905092915050565b60007f000000000000000000000000000000000000000000000000000000000000000073ffffffffffffffffffffffffffffffffffffffff166328dd2d0183306040518363ffffffff1660e01b81526004016110fb9291906136bc565b6101206040518083038186803b15801561111457600080fd5b505afa158015611128573d6000803e3d6000fd5b505050506040513d601f19601f8201168201806040525081019061114c9190613049565b9091929394959650909192939495509091929394509091929350909192509091509050508091505092915050565b7f000000000000000000000000000000000000000000000000000000000000000081565b60007f000000000000000000000000000000000000000000000000000000000000000073ffffffffffffffffffffffffffffffffffffffff16630261bf8b6040518163ffffffff1660e01b815260040160206040518083038186803b15801561120657600080fd5b505afa15801561121a573d6000803e3d6000fd5b505050506040513d601f19601f8201168201806040525081019061123e9190612ba7565b90508073ffffffffffffffffffffffffffffffffffffffff166369328dec837fffffffffffffffffffffffffffffffffffffffffffffffffffffffffffffffff306040518463ffffffff1660e01b815260040161129d9392919061370e565b602060405180830381600087803b1580156112b757600080fd5b505af11580156112cb573d6000803e3d6000fd5b505050506040513d601f19601f820116820180604052508101906112ef9190612d92565b50505050565b6000807f000000000000000000000000000000000000000000000000000000000000000073ffffffffffffffffffffffffffffffffffffffff16630261bf8b6040518163ffffffff1660e01b815260040160206040518083038186803b15801561135e57600080fd5b505afa158015611372573d6000803e3d6000fd5b505050506040513d601f19601f820116820180604052508101906113969190612ba7565b905060007f000000000000000000000000000000000000000000000000000000000000000073ffffffffffffffffffffffffffffffffffffffff1663fca513a86040518163ffffffff1660e01b815260040160206040518083038186803b15801561140057600080fd5b505afa158015611414573d6000803e3d6000fd5b505050506040513d601f19601f820116820180604052508101906114389190612ba7565b905060008273ffffffffffffffffffffffffffffffffffffffff1663bf92857c306040518263ffffffff1660e01b815260040161147591906136a1565b60c06040518083038186803b15801561148d57600080fd5b505afa1580156114a1573d6000803e3d6000fd5b505050506040513d601f19601f820116820180604052508101906114c59190612ee5565b5050509250505060008273ffffffffffffffffffffffffffffffffffffffff1663b3596f07876040518263ffffffff1660e01b815260040161150791906136a1565b60206040518083038186803b15801561151f57600080fd5b505afa158015611533573d6000803e3d6000fd5b505050506040513d601f19601f820116820180604052508101906115579190612d92565b905060008673ffffffffffffffffffffffffffffffffffffffff1663313ce5676040518163ffffffff1660e01b815260040160206040518083038186803b1580156115a157600080fd5b505afa1580156115b5573d6000803e3d6000fd5b505050506040513d601f19601f820116820180604052508101906115d9919061310f565b60ff1690506000611608836115fa84600a0a876123a790919063ffffffff16565b61243990919063ffffffff16565b9050600a8111611618578061161d565b600a81035b965050505050505092915050565b6000655af3107a40006201000060107f000000000000000000000000000000000000000000000000000000000000000073ffffffffffffffffffffffffffffffffffffffff16630261bf8b6040518163ffffffff1660e01b815260040160206040518083038186803b1580156116a057600080fd5b505afa1580156116b4573d6000803e3d6000fd5b505050506040513d601f19601f820116820180604052508101906116d89190612ba7565b73ffffffffffffffffffffffffffffffffffffffff166335ea6a75866040518263ffffffff1660e01b815260040161171091906136a1565b6101806040518083038186803b15801561172957600080fd5b505afa15801561173d573d6000803e3d6000fd5b505050506040513d601f19601f820116820180604052508101906117619190612d68565b6000015160000151901c8161177257fe5b0602905092915050565b6000807f000000000000000000000000000000000000000000000000000000000000000073ffffffffffffffffffffffffffffffffffffffff166399248ea76040518163ffffffff1660e01b815260040160206040518083038186803b1580156117e557600080fd5b505afa1580156117f9573d6000803e3d6000fd5b505050506040513d601f19601f8201168201806040525081019061181d9190612ba7565b915060008273ffffffffffffffffffffffffffffffffffffffff166370a08231306040518263ffffffff1660e01b815260040161185a91906136a1565b60206040518083038186803b15801561187257600080fd5b505afa158015611886573d6000803e3d6000fd5b505050506040513d601f19601f820116820180604052508101906118aa9190612d92565b90506060600267ffffffffffffffff811180156118c657600080fd5b506040519080825280602002602001820160405280156118f55781602001602082028036833780820191505090505b5090507f000000000000000000000000000000000000000000000000000000000000000073ffffffffffffffffffffffffffffffffffffffff1663d2493b6c61193c61248f565b60010160009054906101000a900473ffffffffffffffffffffffffffffffffffffffff166040518263ffffffff1660e01b815260040161197c91906136a1565b60606040518083038186803b15801561199457600080fd5b505afa1580156119a8573d6000803e3d6000fd5b505050506040513d601f19601f820116820180604052508101906119cc9190612c0c565b905050816000815181106119dc57fe5b602002602001018173ffffffffffffffffffffffffffffffffffffffff1673ffffffffffffffffffffffffffffffffffffffff16815250507f000000000000000000000000000000000000000000000000000000000000000073ffffffffffffffffffffffffffffffffffffffff1663d2493b6c611a5861248f565b60020160009054906101000a900473ffffffffffffffffffffffffffffffffffffffff166040518263ffffffff1660e01b8152600401611a9891906136a1565b60606040518083038186803b158015611ab057600080fd5b505afa158015611ac4573d6000803e3d6000fd5b505050506040513d601f19601f82011682018060405250810190611ae89190612c0c565b909150905081600181518110611afa57fe5b602002602001018173ffffffffffffffffffffffffffffffffffffffff1673ffffffffffffffffffffffffffffffffffffffff16815250507f000000000000000000000000000000000000000000000000000000000000000073ffffffffffffffffffffffffffffffffffffffff16633111e7b3827fffffffffffffffffffffffffffffffffffffffffffffffffffffffffffffffff306040518463ffffffff1660e01b8152600401611baf93929190613822565b602060405180830381600087803b158015611bc957600080fd5b505af1158015611bdd573d6000803e3d6000fd5b505050506040513d601f19601f82011682018060405250810190611c019190612d92565b50611c9d828573ffffffffffffffffffffffffffffffffffffffff166370a08231306040518263ffffffff1660e01b8152600401611c3f91906136a1565b60206040518083038186803b158015611c5757600080fd5b505afa158015611c6b573d6000803e3d6000fd5b505050506040513d601f19601f82011682018060405250810190611c8f9190612d92565b6124bc90919063ffffffff16565b92505050915091565b6000807f000000000000000000000000000000000000000000000000000000000000000073ffffffffffffffffffffffffffffffffffffffff16630261bf8b6040518163ffffffff1660e01b815260040160206040518083038186803b158015611d0f57600080fd5b505afa158015611d23573d6000803e3d6000fd5b505050506040513d601f19601f82011682018060405250810190611d479190612ba7565b905060008173ffffffffffffffffffffffffffffffffffffffff1663bf92857c306040518263ffffffff1660e01b8152600401611d8491906136a1565b60c06040518083038186803b158015611d9c57600080fd5b505afa158015611db0573d6000803e3d6000fd5b505050506040513d601f19601f82011682018060405250810190611dd49190612ee5565b95505050505050806ec097ce7bc90715b34b9f100000000081611df357fe5b0492505050919050565b6000611e9c828573ffffffffffffffffffffffffffffffffffffffff1663dd62ed3e30876040518363ffffffff1660e01b8152600401611e3e9291906136bc565b60206040518083038186803b158015611e5657600080fd5b505afa158015611e6a573d6000803e3d6000fd5b505050506040513d601f19601f82011682018060405250810190611e8e9190612d92565b61233b90919063ffffffff16565b9050611f1f8463095ea7b360e01b8584604051602401611ebd9291906136e5565b604051602081830303815290604052907bffffffffffffffffffffffffffffffffffffffffffffffffffffffff19166020820180517bffffffffffffffffffffffffffffffffffffffffffffffffffffffff838183161783525050505061250c565b50505050565b611f2d612842565b7f000000000000000000000000000000000000000000000000000000000000000073ffffffffffffffffffffffffffffffffffffffff16633e150141836040518263ffffffff1660e01b8152600401611f8691906136a1565b6101406040518083038186803b158015611f9f57600080fd5b505afa158015611fb3573d6000803e3d6000fd5b505050506040513d601f19601f82011682018060405250810190611fd79190612e0a565b909192939495969798509091929394955090919293945090919293509091508560000186602001876101200188610140018961016001851515151581525085151515158152508515151515815250858152508581525050505050507f000000000000000000000000000000000000000000000000000000000000000073ffffffffffffffffffffffffffffffffffffffff166335ea6a75836040518263ffffffff1660e01b815260040161208b91906136a1565b6101406040518083038186803b1580156120a457600080fd5b505afa1580156120b8573d6000803e3d6000fd5b505050506040513d601f19601f820116820180604052508101906120dc9190612f6e565b9091929350909192509091509050508560400186606001876080018860a0018960c001858152508581525085815250858152508581525050505050506000807f000000000000000000000000000000000000000000000000000000000000000073ffffffffffffffffffffffffffffffffffffffff1663d2493b6c856040518263ffffffff1660e01b815260040161217491906136a1565b60606040518083038186803b15801561218c57600080fd5b505afa1580156121a0573d6000803e3d6000fd5b505050506040513d601f19601f820116820180604052508101906121c49190612c0c565b92505091507f000000000000000000000000000000000000000000000000000000000000000073ffffffffffffffffffffffffffffffffffffffff1663f11b8188836040518263ffffffff1660e01b815260040161222291906136a1565b60606040518083038186803b15801561223a57600080fd5b505afa15801561224e573d6000803e3d6000fd5b505050506040513d601f19601f820116820180604052508101906122729190612dbb565b9050508360e00181815250507f000000000000000000000000000000000000000000000000000000000000000073ffffffffffffffffffffffffffffffffffffffff1663f11b8188826040518263ffffffff1660e01b81526004016122d791906136a1565b60606040518083038186803b1580156122ef57600080fd5b505afa158015612303573d6000803e3d6000fd5b505050506040513d601f19601f820116820180604052508101906123279190612dbb565b905050836101000181815250505050919050565b600080828401905083811015612386576040517f08c379a000000000000000000000000000000000000000000000000000000000815260040161237d90613882565b60405180910390fd5b8091505092915050565b6000633b9aca00828161239f57fe5b049050919050565b6000808314156123ba5760009050612411565b60008284029050828482816123cb57fe5b041461240c576040517f08c379a000000000000000000000000000000000000000000000000000000000815260040161240390613902565b60405180910390fd5b809150505b92915050565b6000612432655af3107a4000836123a790919063ffffffff16565b9050919050565b600080821161247d576040517f08c379a0000000000000000000000000000000000000000000000000000000008152600401612474906138e2565b60405180910390fd5b81838161248657fe5b04905092915050565b6000807f8278faaeed8149083abb50630b1bee29cf32152ad9a9c9145fe4b38fa3f9c4e890508091505090565b600082821115612501576040517f08c379a00000000000000000000000000000000000000000000000000000000081526004016124f8906138a2565b60405180910390fd5b818303905092915050565b606061256e826040518060400160405280602081526020017f5361666545524332303a206c6f772d6c6576656c2063616c6c206661696c65648152508573ffffffffffffffffffffffffffffffffffffffff166125d39092919063ffffffff16565b90506000815111156125ce578080602001905181019061258e9190612cfe565b6125cd576040517f08c379a00000000000000000000000000000000000000000000000000000000081526004016125c490613942565b60405180910390fd5b5b505050565b60606125e284846000856125eb565b90509392505050565b606082471015612630576040517f08c379a0000000000000000000000000000000000000000000000000000000008152600401612627906138c2565b60405180910390fd5b61263985612700565b612678576040517f08c379a000000000000000000000000000000000000000000000000000000000815260040161266f90613922565b60405180910390fd5b600060608673ffffffffffffffffffffffffffffffffffffffff1685876040516126a2919061368a565b60006040518083038185875af1925050503d80600081146126df576040519150601f19603f3d011682016040523d82523d6000602084013e6126e4565b606091505b50915091506126f4828286612713565b92505050949350505050565b600080823b905060008111915050919050565b6060831561272357829050612773565b6000835111156127365782518084602001fd5b816040517f08c379a000000000000000000000000000000000000000000000000000000000815260040161276a9190613860565b60405180910390fd5b9392505050565b604051806102600160405280600073ffffffffffffffffffffffffffffffffffffffff16815260200160608152602001600060ff16815260200160008152602001600081526020016000815260200160008152602001600081526020016000815260200160008152602001600073ffffffffffffffffffffffffffffffffffffffff16815260200160608152602001600060ff168152602001600081526020016000815260200160008152602001600081526020016000151581526020016000151581525090565b6040518061018001604052806000815260200160008152602001600081526020016000815260200160008152602001600081526020016000815260200160008152602001600081526020016000151581526020016000151581526020016000151581525090565b6000813590506128b881613b82565b92915050565b6000815190506128cd81613b82565b92915050565b600082601f8301126128e457600080fd5b81356128f76128f2826139cc565b61399f565b9150818183526020840193506020810190508385602084028201111561291c57600080fd5b60005b8381101561294c578161293288826128a9565b84526020840193506020830192505060018101905061291f565b5050505092915050565b60008151905061296581613b99565b92915050565b600082601f83011261297c57600080fd5b815161298f61298a826139f4565b61399f565b915080825260208301602083018583830111156129ab57600080fd5b6129b6838284613b3e565b50505092915050565b6000602082840312156129d157600080fd5b6129db602061399f565b905060006129eb84828501612b3f565b60008301525092915050565b60006101808284031215612a0a57600080fd5b612a1561018061399f565b90506000612a25848285016129bf565b6000830152506020612a3984828501612b15565b6020830152506040612a4d84828501612b15565b6040830152506060612a6184828501612b15565b6060830152506080612a7584828501612b15565b60808301525060a0612a8984828501612b15565b60a08301525060c0612a9d84828501612b54565b60c08301525060e0612ab1848285016128be565b60e083015250610100612ac6848285016128be565b61010083015250610120612adc848285016128be565b61012083015250610140612af2848285016128be565b61014083015250610160612b0884828501612b69565b6101608301525092915050565b600081519050612b2481613bb0565b92915050565b600081359050612b3981613bc7565b92915050565b600081519050612b4e81613bc7565b92915050565b600081519050612b6381613bde565b92915050565b600081519050612b7881613bf5565b92915050565b600060208284031215612b9057600080fd5b6000612b9e848285016128a9565b91505092915050565b600060208284031215612bb957600080fd5b6000612bc7848285016128be565b91505092915050565b60008060408385031215612be357600080fd5b6000612bf1858286016128a9565b9250506020612c02858286016128a9565b9150509250929050565b600080600060608486031215612c2157600080fd5b6000612c2f868287016128be565b9350506020612c40868287016128be565b9250506040612c51868287016128be565b9150509250925092565b600080600060608486031215612c7057600080fd5b6000612c7e868287016128a9565b9350506020612c8f868287016128a9565b9250506040612ca086828701612b2a565b9150509250925092565b60008060408385031215612cbd57600080fd5b6000612ccb858286016128a9565b925050602083013567ffffffffffffffff811115612ce857600080fd5b612cf4858286016128d3565b9150509250929050565b600060208284031215612d1057600080fd5b6000612d1e84828501612956565b91505092915050565b600060208284031215612d3957600080fd5b600082015167ffffffffffffffff811115612d5357600080fd5b612d5f8482850161296b565b91505092915050565b60006101808284031215612d7b57600080fd5b6000612d89848285016129f7565b91505092915050565b600060208284031215612da457600080fd5b6000612db284828501612b3f565b91505092915050565b600080600060608486031215612dd057600080fd5b6000612dde86828701612b3f565b9350506020612def86828701612b3f565b9250506040612e0086828701612b3f565b9150509250925092565b6000806000806000806000806000806101408b8d031215612e2a57600080fd5b6000612e388d828e01612b3f565b9a50506020612e498d828e01612b3f565b9950506040612e5a8d828e01612b3f565b9850506060612e6b8d828e01612b3f565b9750506080612e7c8d828e01612b3f565b96505060a0612e8d8d828e01612956565b95505060c0612e9e8d828e01612956565b94505060e0612eaf8d828e01612956565b935050610100612ec18d828e01612956565b925050610120612ed38d828e01612956565b9150509295989b9194979a5092959850565b60008060008060008060c08789031215612efe57600080fd5b6000612f0c89828a01612b3f565b9650506020612f1d89828a01612b3f565b9550506040612f2e89828a01612b3f565b9450506060612f3f89828a01612b3f565b9350506080612f5089828a01612b3f565b92505060a0612f6189828a01612b3f565b9150509295509295509295565b6000806000806000806000806000806101408b8d031215612f8e57600080fd5b6000612f9c8d828e01612b3f565b9a50506020612fad8d828e01612b3f565b9950506040612fbe8d828e01612b3f565b9850506060612fcf8d828e01612b3f565b9750506080612fe08d828e01612b3f565b96505060a0612ff18d828e01612b3f565b95505060c06130028d828e01612b3f565b94505060e06130138d828e01612b3f565b9350506101006130258d828e01612b3f565b9250506101206130378d828e01612b54565b9150509295989b9194979a5092959850565b60008060008060008060008060006101208a8c03121561306857600080fd5b60006130768c828d01612b3f565b99505060206130878c828d01612b3f565b98505060406130988c828d01612b3f565b97505060606130a98c828d01612b3f565b96505060806130ba8c828d01612b3f565b95505060a06130cb8c828d01612b3f565b94505060c06130dc8c828d01612b3f565b93505060e06130ed8c828d01612b54565b9250506101006130ff8c828d01612956565b9150509295985092959850929598565b60006020828403121561312157600080fd5b600061312f84828501612b69565b91505092915050565b60006131448383613150565b60208301905092915050565b61315981613a9c565b82525050565b61316881613a9c565b82525050565b600061317982613a30565b6131838185613a5e565b935061318e83613a20565b8060005b838110156131bf5781516131a68882613138565b97506131b183613a51565b925050600181019050613192565b5085935050505092915050565b6131d581613aae565b82525050565b60006131e682613a3b565b6131f08185613a6f565b9350613200818560208601613b3e565b80840191505092915050565b61321581613b2c565b82525050565b600061322682613a46565b6132308185613a7a565b9350613240818560208601613b3e565b61324981613b71565b840191505092915050565b600061325f82613a46565b6132698185613a8b565b9350613279818560208601613b3e565b61328281613b71565b840191505092915050565b600061329a601b83613a8b565b91507f536166654d6174683a206164646974696f6e206f766572666c6f7700000000006000830152602082019050919050565b60006132da601e83613a8b565b91507f536166654d6174683a207375627472616374696f6e206f766572666c6f7700006000830152602082019050919050565b600061331a602683613a8b565b91507f416464726573733a20696e73756666696369656e742062616c616e636520666f60008301527f722063616c6c00000000000000000000000000000000000000000000000000006020830152604082019050919050565b6000613380601a83613a8b565b91507f536166654d6174683a206469766973696f6e206279207a65726f0000000000006000830152602082019050919050565b60006133c0602183613a8b565b91507f536166654d6174683a206d756c7469706c69636174696f6e206f766572666c6f60008301527f77000000000000000000000000000000000000000000000000000000000000006020830152604082019050919050565b6000613426601d83613a8b565b91507f416464726573733a2063616c6c20746f206e6f6e2d636f6e74726163740000006000830152602082019050919050565b6000613466602a83613a8b565b91507f5361666545524332303a204552433230206f7065726174696f6e20646964206e60008301527f6f742073756363656564000000000000000000000000000000000000000000006020830152604082019050919050565b6000610260830160008301516134d86000860182613150565b50602083015184820360208601526134f0828261321b565b9150506040830151613505604086018261367b565b506060830151613518606086018261365d565b50608083015161352b608086018261365d565b5060a083015161353e60a086018261365d565b5060c083015161355160c086018261365d565b5060e083015161356460e086018261365d565b5061010083015161357961010086018261365d565b5061012083015161358e61012086018261365d565b506101408301516135a3610140860182613150565b506101608301518482036101608601526135bd828261321b565b9150506101808301516135d461018086018261367b565b506101a08301516135e96101a086018261365d565b506101c08301516135fe6101c086018261365d565b506101e08301516136136101e086018261365d565b5061020083015161362861020086018261365d565b5061022083015161363d6102208601826131cc565b506102408301516136526102408601826131cc565b508091505092915050565b61366681613b04565b82525050565b61367581613b04565b82525050565b61368481613b1f565b82525050565b600061369682846131db565b915081905092915050565b60006020820190506136b6600083018461315f565b92915050565b60006040820190506136d1600083018561315f565b6136de602083018461315f565b9392505050565b60006040820190506136fa600083018561315f565b613707602083018461366c565b9392505050565b6000606082019050613723600083018661315f565b613730602083018561366c565b61373d604083018461315f565b949350505050565b600060808201905061375a600083018761315f565b613767602083018661366c565b613774604083018561315f565b613781606083018461320c565b95945050505050565b600060808201905061379f600083018761315f565b6137ac602083018661366c565b6137b9604083018561366c565b6137c6606083018461315f565b95945050505050565b600060a0820190506137e4600083018861315f565b6137f1602083018761366c565b6137fe604083018661366c565b61380b606083018561320c565b613818608083018461315f565b9695505050505050565b6000606082019050818103600083015261383c818661316e565b905061384b602083018561366c565b613858604083018461315f565b949350505050565b6000602082019050818103600083015261387a8184613254565b905092915050565b6000602082019050818103600083015261389b8161328d565b9050919050565b600060208201905081810360008301526138bb816132cd565b9050919050565b600060208201905081810360008301526138db8161330d565b9050919050565b600060208201905081810360008301526138fb81613373565b9050919050565b6000602082019050818103600083015261391b816133b3565b9050919050565b6000602082019050818103600083015261393b81613419565b9050919050565b6000602082019050818103600083015261395b81613459565b9050919050565b6000602082019050818103600083015261397c81846134bf565b905092915050565b6000602082019050613999600083018461366c565b92915050565b6000604051905081810181811067ffffffffffffffff821117156139c257600080fd5b8060405250919050565b600067ffffffffffffffff8211156139e357600080fd5b602082029050602081019050919050565b600067ffffffffffffffff821115613a0b57600080fd5b601f19601f8301169050602081019050919050565b6000819050602082019050919050565b600081519050919050565b600081519050919050565b600081519050919050565b6000602082019050919050565b600082825260208201905092915050565b600081905092915050565b600082825260208201905092915050565b600082825260208201905092915050565b6000613aa782613ae4565b9050919050565b60008115159050919050565b60006fffffffffffffffffffffffffffffffff82169050919050565b600061ffff82169050919050565b600073ffffffffffffffffffffffffffffffffffffffff82169050919050565b6000819050919050565b600064ffffffffff82169050919050565b600060ff82169050919050565b6000613b3782613ad6565b9050919050565b60005b83811015613b5c578082015181840152602081019050613b41565b83811115613b6b576000848401525b50505050565b6000601f19601f8301169050919050565b613b8b81613a9c565b8114613b9657600080fd5b50565b613ba281613aae565b8114613bad57600080fd5b50565b613bb981613aba565b8114613bc457600080fd5b50565b613bd081613b04565b8114613bdb57600080fd5b50565b613be781613b0e565b8114613bf257600080fd5b50565b613bfe81613b1f565b8114613c0957600080fd5b5056fea26469706673582212205930ce3ba8027b20f09fd6c94ccfd1a4208b84f9674aec5e19315eb9a6fbe44764736f6c634300060c0033",
  "devdoc": {
    "kind": "dev",
    "methods": {
      "enterMarkets(address,address[])": {
        "details": "Empty because this is done by default in Aave"
      },
      "getCollateralFactorForAsset(address,address)": {
        "details": "reasoning: 1) get asset reserve data, which has liquidation threshold encoded in bits 16-31 2) right shift the number so that we remove bits 0-15 3) now with modulo 2**16, the retrieved value is the first 16 bits of the data, which is the liquiditation threshold for the asset according to \"struct ReserveConfigurationMap\" (see Interfaces.sol). This number goes from 0 (0%) to 10000 (100%). To transform it to mantissa 18, this number is multiplied by 1e14.*"
      },
      "getLiquidity(address,address)": {
        "returns": {
          "_0": "available borrow amount in token"
        }
      },
      "getReferencePrice(address,address)": {
        "details": "reasoning: Aave reference prices do not take into account the number of decimals of the token, but our system does. To take them into account, we multiply by ETH's decimals (1e18) and divide by the token 's decimals.*"
      }
    },
    "version": 1
  },
  "userdoc": {
    "kind": "user",
    "methods": {
      "redeemAll(address,address)": {
        "notice": "redeem all token supplied"
      }
    },
    "version": 1
  },
  "storageLayout": {
    "storage": [],
    "types": null
  }
}