{
  "address": "0x7158025eC1Ade29339717Afb53aB75039Fd50279",
  "abi": [
    {
      "anonymous": false,
      "inputs": [
        {
          "indexed": false,
          "internalType": "bytes1",
          "name": "flag",
          "type": "bytes1"
        },
        {
          "indexed": false,
          "internalType": "address",
          "name": "adapter",
          "type": "address"
        }
      ],
      "name": "ExchangerAdapterLinkUpdated",
      "type": "event"
    },
    {
      "anonymous": false,
      "inputs": [
        {
          "indexed": false,
          "internalType": "address",
          "name": "implementation",
          "type": "address"
        },
        {
          "indexed": false,
          "internalType": "bytes4[]",
          "name": "signatures",
          "type": "bytes4[]"
        }
      ],
      "name": "ImplementationAdded",
      "type": "event"
    },
    {
      "anonymous": false,
      "inputs": [
        {
          "indexed": false,
          "internalType": "bytes4[]",
          "name": "signatures",
          "type": "bytes4[]"
        }
      ],
      "name": "ImplementationRemoved",
      "type": "event"
    },
    {
      "anonymous": false,
      "inputs": [
        {
          "indexed": true,
          "internalType": "address",
          "name": "previousOwner",
          "type": "address"
        },
        {
          "indexed": true,
          "internalType": "address",
          "name": "newOwner",
          "type": "address"
        }
      ],
      "name": "OwnershipTransferred",
      "type": "event"
    },
    {
      "anonymous": false,
      "inputs": [
        {
          "indexed": false,
          "internalType": "address",
          "name": "platform",
          "type": "address"
        },
        {
          "indexed": false,
          "internalType": "address",
          "name": "adapter",
          "type": "address"
        }
      ],
      "name": "PlatformAdapterLinkUpdated",
      "type": "event"
    },
    {
      "anonymous": false,
      "inputs": [
        {
          "indexed": false,
          "internalType": "address",
          "name": "platform",
          "type": "address"
        },
        {
          "indexed": false,
          "internalType": "address",
          "name": "token",
          "type": "address"
        },
        {
          "indexed": false,
          "internalType": "address",
          "name": "syntheticToken",
          "type": "address"
        }
      ],
      "name": "TokenOnPlatformUpdated",
      "type": "event"
    },
    {
      "stateMutability": "payable",
      "type": "fallback"
    },
    {
      "inputs": [
        {
          "internalType": "address",
          "name": "account",
          "type": "address"
        }
      ],
      "name": "accountOwner",
      "outputs": [
        {
          "internalType": "address",
          "name": "",
          "type": "address"
        }
      ],
      "stateMutability": "view",
      "type": "function"
    },
    {
      "inputs": [
        {
          "internalType": "address[]",
          "name": "platforms",
          "type": "address[]"
        },
        {
          "internalType": "address",
          "name": "adapter",
          "type": "address"
        }
      ],
      "name": "addBatchPlatformsWithAdapter",
      "outputs": [],
      "stateMutability": "nonpayable",
      "type": "function"
    },
    {
      "inputs": [
        {
          "internalType": "address",
          "name": "platform",
          "type": "address"
        },
        {
          "internalType": "address",
          "name": "token",
          "type": "address"
        },
        {
          "internalType": "address",
          "name": "synthToken",
          "type": "address"
        }
      ],
      "name": "addCTokenOnPlatform",
      "outputs": [],
      "stateMutability": "nonpayable",
      "type": "function"
    },
    {
      "inputs": [
        {
          "internalType": "bytes1",
          "name": "flag",
          "type": "bytes1"
        },
        {
          "internalType": "address",
          "name": "adapter",
          "type": "address"
        }
      ],
      "name": "addExchangerWithAdapter",
      "outputs": [],
      "stateMutability": "nonpayable",
      "type": "function"
    },
    {
      "inputs": [
        {
          "internalType": "address",
          "name": "_implementation",
          "type": "address"
        },
        {
          "internalType": "bytes4[]",
          "name": "_sigs",
          "type": "bytes4[]"
        }
      ],
      "name": "addImplementation",
      "outputs": [],
      "stateMutability": "nonpayable",
      "type": "function"
    },
    {
      "inputs": [
        {
          "internalType": "address",
          "name": "platform",
          "type": "address"
        },
        {
          "internalType": "address",
          "name": "adapter",
          "type": "address"
        }
      ],
      "name": "addPlatformWithAdapter",
      "outputs": [],
      "stateMutability": "nonpayable",
      "type": "function"
    },
    {
      "inputs": [
        {
          "internalType": "bytes1",
          "name": "flag",
          "type": "bytes1"
        },
        {
          "internalType": "address",
          "name": "newAdapter",
          "type": "address"
        }
      ],
      "name": "changeExchangerAdapter",
      "outputs": [],
      "stateMutability": "nonpayable",
      "type": "function"
    },
    {
      "inputs": [
        {
          "internalType": "address",
          "name": "platform",
          "type": "address"
        },
        {
          "internalType": "address",
          "name": "newAdapter",
          "type": "address"
        }
      ],
      "name": "changePlatformAdapter",
      "outputs": [],
      "stateMutability": "nonpayable",
      "type": "function"
    },
    {
      "inputs": [],
      "name": "createAccount",
      "outputs": [
        {
          "internalType": "address",
          "name": "",
          "type": "address"
        }
      ],
      "stateMutability": "nonpayable",
      "type": "function"
    },
    {
      "inputs": [],
      "name": "fodlNFT",
      "outputs": [
        {
          "internalType": "contract FodlNFT",
          "name": "",
          "type": "address"
        }
      ],
      "stateMutability": "view",
      "type": "function"
    },
    {
      "inputs": [
        {
          "internalType": "address",
          "name": "platform",
          "type": "address"
        },
        {
          "internalType": "address",
          "name": "token",
          "type": "address"
        }
      ],
      "name": "getCToken",
      "outputs": [
        {
          "internalType": "address",
          "name": "cToken",
          "type": "address"
        }
      ],
      "stateMutability": "view",
      "type": "function"
    },
    {
      "inputs": [
        {
          "internalType": "bytes1",
          "name": "flag",
          "type": "bytes1"
        }
      ],
      "name": "getExchangerAdapter",
      "outputs": [
        {
          "internalType": "address",
          "name": "adapter",
          "type": "address"
        }
      ],
      "stateMutability": "view",
      "type": "function"
    },
    {
      "inputs": [
        {
          "internalType": "bytes4",
          "name": "_sig",
          "type": "bytes4"
        }
      ],
      "name": "getImplementation",
      "outputs": [
        {
          "internalType": "address",
          "name": "implementation",
          "type": "address"
        }
      ],
      "stateMutability": "view",
      "type": "function"
    },
    {
      "inputs": [
        {
          "internalType": "address",
          "name": "platform",
          "type": "address"
        }
      ],
      "name": "getPlatformAdapter",
      "outputs": [
        {
          "internalType": "address",
          "name": "adapter",
          "type": "address"
        }
      ],
      "stateMutability": "view",
      "type": "function"
    },
    {
      "inputs": [
        {
          "internalType": "address",
          "name": "fodlNFT_",
          "type": "address"
        }
      ],
      "name": "initialize",
      "outputs": [],
      "stateMutability": "nonpayable",
      "type": "function"
    },
    {
      "inputs": [],
      "name": "owner",
      "outputs": [
        {
          "internalType": "address",
          "name": "",
          "type": "address"
        }
      ],
      "stateMutability": "view",
      "type": "function"
    },
    {
      "inputs": [
        {
          "internalType": "address",
          "name": "platform",
          "type": "address"
        },
        {
          "internalType": "address",
          "name": "token",
          "type": "address"
        }
      ],
      "name": "removeCTokenFromPlatform",
      "outputs": [],
      "stateMutability": "nonpayable",
      "type": "function"
    },
    {
      "inputs": [
        {
          "internalType": "bytes1",
          "name": "flag",
          "type": "bytes1"
        }
      ],
      "name": "removeExchanger",
      "outputs": [],
      "stateMutability": "nonpayable",
      "type": "function"
    },
    {
      "inputs": [
        {
          "internalType": "bytes4[]",
          "name": "sigs",
          "type": "bytes4[]"
        }
      ],
      "name": "removeImplementation",
      "outputs": [],
      "stateMutability": "nonpayable",
      "type": "function"
    },
    {
      "inputs": [
        {
          "internalType": "address",
          "name": "platform",
          "type": "address"
        }
      ],
      "name": "removePlatform",
      "outputs": [],
      "stateMutability": "nonpayable",
      "type": "function"
    },
    {
      "inputs": [],
      "name": "renounceOwnership",
      "outputs": [],
      "stateMutability": "nonpayable",
      "type": "function"
    },
    {
      "inputs": [
        {
          "internalType": "address",
          "name": "fodlNFTV2_",
          "type": "address"
        }
      ],
      "name": "setNFT",
      "outputs": [],
      "stateMutability": "nonpayable",
      "type": "function"
    },
    {
      "inputs": [
        {
          "internalType": "address",
          "name": "newOwner",
          "type": "address"
        }
      ],
      "name": "transferOwnership",
      "outputs": [],
      "stateMutability": "nonpayable",
      "type": "function"
    },
    {
      "inputs": [],
      "name": "version",
      "outputs": [
        {
          "internalType": "uint8",
          "name": "",
          "type": "uint8"
        }
      ],
      "stateMutability": "pure",
      "type": "function"
    },
    {
      "stateMutability": "payable",
      "type": "receive"
    }
  ],
  "transactionHash": "0x847dff3c94f6d9bd3ad0c7a15936f7d0a97a582b6c548409e24d18a927e13047",
  "args": [],
  "numDeployments": 1,
  "solcInputHash": "42b88aea6e8b656d037b75889f7173ff",
  "bytecode": "0x608060405234801561001057600080fd5b506129fb806100206000396000f3fe60806040526004361061018f5760003560e01c80639cad82d1116100d6578063e57567601161007f578063f2fde38b11610059578063f2fde38b1461079d578063f37d238f146107d0578063f56e9c66146108035761019e565b8063e57567601461061a578063ec56cb9f14610655578063f0c01b42146107105761019e565b8063b89f45ea116100b0578063b89f45ea14610540578063c4d66de81461059b578063dc9cc645146105ce5761019e565b80639cad82d1146104a45780639dca362f146104f0578063a99fd67c146105055761019e565b80634da1caef116101385780638d37d8c9116101125780638d37d8c9146103fe5780638da5cb5b1461044a57806396d16eb41461045f5761019e565b80634da1caef146103a957806354fd4d50146103be578063715018a6146103e95761019e565b806323526ab61161016957806323526ab6146102e057806326a986de1461031b57806342dfa789146103765761019e565b806302b14194146101a6578063183303c9146102565780631cd3c998146102a55761019e565b3661019e5761019c610836565b005b61019c610885565b3480156101b257600080fd5b5061019c600480360360208110156101c957600080fd5b8101906020810181356401000000008111156101e457600080fd5b8201836020820111156101f657600080fd5b8035906020019184602083028401116401000000008311171561021857600080fd5b9190808060200260200160405190810160405280939291908181526020018383602002808284376000920191909152509295506108bb945050505050565b34801561026257600080fd5b506102896004803603602081101561027957600080fd5b50356001600160a01b0316610a2d565b604080516001600160a01b039092168252519081900360200190f35b3480156102b157600080fd5b50610289600480360360408110156102c857600080fd5b506001600160a01b0381358116916020013516610acb565b3480156102ec57600080fd5b5061019c6004803603604081101561030357600080fd5b506001600160a01b0381358116916020013516610b4b565b34801561032757600080fd5b5061019c6004803603604081101561033e57600080fd5b5080357fff000000000000000000000000000000000000000000000000000000000000001690602001356001600160a01b0316610cc6565b34801561038257600080fd5b506102896004803603602081101561039957600080fd5b50356001600160a01b0316610ec8565b3480156103b557600080fd5b50610289610f35565b3480156103ca57600080fd5b506103d3610f44565b6040805160ff9092168252519081900360200190f35b3480156103f557600080fd5b5061019c610f49565b34801561040a57600080fd5b5061019c6004803603602081101561042157600080fd5b50357fff000000000000000000000000000000000000000000000000000000000000001661101f565b34801561045657600080fd5b506102896111b6565b34801561046b57600080fd5b5061019c6004803603606081101561048257600080fd5b506001600160a01b0381358116916020810135821691604090910135166111c5565b3480156104b057600080fd5b50610289600480360360208110156104c757600080fd5b50357fff0000000000000000000000000000000000000000000000000000000000000016611407565b3480156104fc57600080fd5b50610289611496565b34801561051157600080fd5b5061019c6004803603604081101561052857600080fd5b506001600160a01b0381358116916020013516611703565b34801561054c57600080fd5b5061019c6004803603604081101561056357600080fd5b5080357fff000000000000000000000000000000000000000000000000000000000000001690602001356001600160a01b03166118c6565b3480156105a757600080fd5b5061019c600480360360208110156105be57600080fd5b50356001600160a01b0316611a25565b3480156105da57600080fd5b50610289600480360360208110156105f157600080fd5b50357fffffffff0000000000000000000000000000000000000000000000000000000016611bb7565b34801561062657600080fd5b5061019c6004803603604081101561063d57600080fd5b506001600160a01b0381358116916020013516611c44565b34801561066157600080fd5b5061019c6004803603604081101561067857600080fd5b81019060208101813564010000000081111561069357600080fd5b8201836020820111156106a557600080fd5b803590602001918460208302840111640100000000831117156106c757600080fd5b919080806020026020016040519081016040528093929190818152602001838360200280828437600092019190915250929550505090356001600160a01b03169150611d819050565b34801561071c57600080fd5b5061019c6004803603604081101561073357600080fd5b6001600160a01b03823516919081019060408101602082013564010000000081111561075e57600080fd5b82018360208201111561077057600080fd5b8035906020019184602083028401116401000000008311171561079257600080fd5b509092509050611e7c565b3480156107a957600080fd5b5061019c600480360360208110156107c057600080fd5b50356001600160a01b0316612055565b3480156107dc57600080fd5b5061019c600480360360208110156107f357600080fd5b50356001600160a01b0316612182565b34801561080f57600080fd5b5061019c6004803603602081101561082657600080fd5b50356001600160a01b03166122de565b6040805162461bcd60e51b8152602060048083019190915260248201527f4652313300000000000000000000000000000000000000000000000000000000604482015290519081900360640190fd5b600061088f611496565b9050366000803760008036600034855af13d6000803e8080156108b1573d6000f35b3d6000fd5b505050565b6108c36123e9565b6001600160a01b03166108d46111b6565b6001600160a01b03161461092f576040805162461bcd60e51b815260206004820181905260248201527f4f776e61626c653a2063616c6c6572206973206e6f7420746865206f776e6572604482015290519081900360640190fd5b7fc14e5129950673a9ed1b1fe5617e26936d59dcc2400cdc4540c45db94e5e6805816040518080602001828103825283818151815260200191508051906020019060200280838360005b83811015610991578181015183820152602001610979565b505050509050019250505060405180910390a160005b8151811015610a295760008282815181106109be57fe5b6020908102919091018101517fffffffff0000000000000000000000000000000000000000000000000000000016600090815260679091526040902080547fffffffffffffffffffffffff0000000000000000000000000000000000000000169055506001016109a7565b5050565b606554604080517f6352211e0000000000000000000000000000000000000000000000000000000081526001600160a01b03848116600483015291516000939290921691636352211e91602480820192602092909190829003018186803b158015610a9757600080fd5b505afa158015610aab573d6000803e3d6000fd5b505050506040513d6020811015610ac157600080fd5b505190505b919050565b6001600160a01b03808316600090815260696020908152604080832085851684529091529020541680610b45576040805162461bcd60e51b815260206004820152600360248201527f4652390000000000000000000000000000000000000000000000000000000000604482015290519081900360640190fd5b92915050565b610b536123e9565b6001600160a01b0316610b646111b6565b6001600160a01b031614610bbf576040805162461bcd60e51b815260206004820181905260248201527f4f776e61626c653a2063616c6c6572206973206e6f7420746865206f776e6572604482015290519081900360640190fd5b6001600160a01b038281166000908152606960209081526040808320858516845290915290205416610c38576040805162461bcd60e51b815260206004820152600360248201527f4652380000000000000000000000000000000000000000000000000000000000604482015290519081900360640190fd5b6001600160a01b03808316600081815260696020908152604080832094861680845294825280832080547fffffffffffffffffffffffff00000000000000000000000000000000000000001690558051938452908301939093528183015290517f040eacc89f580f7655c9a24ee9f5bd885d08cd2e6d0161f13e74b3dc402f853a9181900360600190a15050565b610cce6123e9565b6001600160a01b0316610cdf6111b6565b6001600160a01b031614610d3a576040805162461bcd60e51b815260206004820181905260248201527f4f776e61626c653a2063616c6c6572206973206e6f7420746865206f776e6572604482015290519081900360640190fd5b6001600160a01b038116610d97576040805162461bcd60e51b8152602060048083019190915260248201527f4652313400000000000000000000000000000000000000000000000000000000604482015290519081900360640190fd5b7fff0000000000000000000000000000000000000000000000000000000000000082166000908152606a60205260409020546001600160a01b031615610e26576040805162461bcd60e51b8152602060048083019190915260248201527f4652313000000000000000000000000000000000000000000000000000000000604482015290519081900360640190fd5b7fff0000000000000000000000000000000000000000000000000000000000000082166000818152606a602090815260409182902080547fffffffffffffffffffffffff0000000000000000000000000000000000000000166001600160a01b03861690811790915582519384529083015280517f41177bc72dad2db6ad8411291b085bab152c93a69166e3af33f5b66a932bda929281900390910190a15050565b6001600160a01b038082166000908152606860205260409020541680610ac6576040805162461bcd60e51b815260206004820152600360248201527f4652360000000000000000000000000000000000000000000000000000000000604482015290519081900360640190fd5b6065546001600160a01b031681565b600290565b610f516123e9565b6001600160a01b0316610f626111b6565b6001600160a01b031614610fbd576040805162461bcd60e51b815260206004820181905260248201527f4f776e61626c653a2063616c6c6572206973206e6f7420746865206f776e6572604482015290519081900360640190fd5b6033546040516000916001600160a01b0316907f8be0079c531659141344cd1fd0a4f28419497f9722a3daafe3b4186f6b6457e0908390a3603380547fffffffffffffffffffffffff0000000000000000000000000000000000000000169055565b6110276123e9565b6001600160a01b03166110386111b6565b6001600160a01b031614611093576040805162461bcd60e51b815260206004820181905260248201527f4f776e61626c653a2063616c6c6572206973206e6f7420746865206f776e6572604482015290519081900360640190fd5b7fff0000000000000000000000000000000000000000000000000000000000000081166000908152606a60205260409020546001600160a01b0316611121576040805162461bcd60e51b8152602060048083019190915260248201527f4652313100000000000000000000000000000000000000000000000000000000604482015290519081900360640190fd5b7fff0000000000000000000000000000000000000000000000000000000000000081166000818152606a6020908152604080832080547fffffffffffffffffffffffff000000000000000000000000000000000000000016905580519384529083019190915280517f41177bc72dad2db6ad8411291b085bab152c93a69166e3af33f5b66a932bda929281900390910190a150565b6033546001600160a01b031690565b6111cd6123e9565b6001600160a01b03166111de6111b6565b6001600160a01b031614611239576040805162461bcd60e51b815260206004820181905260248201527f4f776e61626c653a2063616c6c6572206973206e6f7420746865206f776e6572604482015290519081900360640190fd5b6001600160a01b038316611296576040805162461bcd60e51b8152602060048083019190915260248201527f4652313400000000000000000000000000000000000000000000000000000000604482015290519081900360640190fd5b6001600160a01b0382166112f3576040805162461bcd60e51b8152602060048083019190915260248201527f4652313400000000000000000000000000000000000000000000000000000000604482015290519081900360640190fd5b6001600160a01b0383811660009081526069602090815260408083208685168452909152902054161561136d576040805162461bcd60e51b815260206004820152600360248201527f4652370000000000000000000000000000000000000000000000000000000000604482015290519081900360640190fd5b6001600160a01b0380841660008181526069602090815260408083208786168085529083529281902080549587167fffffffffffffffffffffffff0000000000000000000000000000000000000000909616861790558051938452908301919091528181019290925290517f040eacc89f580f7655c9a24ee9f5bd885d08cd2e6d0161f13e74b3dc402f853a9181900360600190a1505050565b7fff0000000000000000000000000000000000000000000000000000000000000081166000908152606a60205260409020546001600160a01b031680610ac6576040805162461bcd60e51b8152602060048083019190915260248201527f4652313200000000000000000000000000000000000000000000000000000000604482015290519081900360640190fd5b60006060604051806020016114aa9061256e565b601f1982820381018352601f909101166040818152306020838101919091528151808403820181528284019092528351939450849391926060019182918501908083835b6020831061150d5780518252601f1990920191602091820191016114ee565b51815160209384036101000a7fffffffffffffffffffffffffffffffffffffffffffffffffffffffffffffffff018019909216911617905285519190930192850191508083835b602083106115735780518252601f199092019160209182019101611554565b51815160209384036101000a7fffffffffffffffffffffffffffffffffffffffffffffffffffffffffffffffff01801990921691161790526040805192909401828103601f1901835280855233600081815260668085528782208054606085901b8688015260348087018290528a518088039091018152605490960190995284519486019490942092825284526001909601909155825192985096509294508493508592909150860183f5915050803b80611675576040805162461bcd60e51b815260206004820152600360248201527f4652310000000000000000000000000000000000000000000000000000000000604482015290519081900360640190fd5b606554604080517f40c10f190000000000000000000000000000000000000000000000000000000081523360048201526001600160a01b038581166024830152915191909216916340c10f1991604480830192600092919082900301818387803b1580156116e257600080fd5b505af11580156116f6573d6000803e3d6000fd5b5093965050505050505090565b61170b6123e9565b6001600160a01b031661171c6111b6565b6001600160a01b031614611777576040805162461bcd60e51b815260206004820181905260248201527f4f776e61626c653a2063616c6c6572206973206e6f7420746865206f776e6572604482015290519081900360640190fd5b6001600160a01b0382166117d4576040805162461bcd60e51b8152602060048083019190915260248201527f4652313400000000000000000000000000000000000000000000000000000000604482015290519081900360640190fd5b6001600160a01b038281166000908152606860205260409020541615611841576040805162461bcd60e51b815260206004820152600360248201527f4652330000000000000000000000000000000000000000000000000000000000604482015290519081900360640190fd5b6001600160a01b0382811660008181526068602090815260409182902080547fffffffffffffffffffffffff0000000000000000000000000000000000000000169486169485179055815192835282019290925281517ff6d1d5e85111e2b71e00ce22a2500ba985c2b21b34b8760c72c213133da47db3929181900390910190a15050565b6118ce6123e9565b6001600160a01b03166118df6111b6565b6001600160a01b03161461193a576040805162461bcd60e51b815260206004820181905260248201527f4f776e61626c653a2063616c6c6572206973206e6f7420746865206f776e6572604482015290519081900360640190fd5b6001600160a01b038116611997576040805162461bcd60e51b8152602060048083019190915260248201527f4652313400000000000000000000000000000000000000000000000000000000604482015290519081900360640190fd5b7fff0000000000000000000000000000000000000000000000000000000000000082166000908152606a60205260409020546001600160a01b0316610e26576040805162461bcd60e51b8152602060048083019190915260248201527f4652313100000000000000000000000000000000000000000000000000000000604482015290519081900360640190fd5b600054610100900460ff1680611a3e5750611a3e6123ed565b80611a4c575060005460ff16155b611a875760405162461bcd60e51b815260040180806020018281038252602e815260200180612998602e913960400191505060405180910390fd5b600054610100900460ff16158015611aed57600080547fffffffffffffffffffffffffffffffffffffffffffffffffffffffffffffff007fffffffffffffffffffffffffffffffffffffffffffffffffffffffffffff00ff909116610100171660011790555b6001600160a01b038216611b4a576040805162461bcd60e51b8152602060048083019190915260248201527f4943503000000000000000000000000000000000000000000000000000000000604482015290519081900360640190fd5b611b526123fe565b606580547fffffffffffffffffffffffff0000000000000000000000000000000000000000166001600160a01b0384161790558015610a2957600080547fffffffffffffffffffffffffffffffffffffffffffffffffffffffffffff00ff1690555050565b7fffffffff0000000000000000000000000000000000000000000000000000000081166000908152606760205260409020546001600160a01b031680610ac6576040805162461bcd60e51b815260206004820152600360248201527f4652320000000000000000000000000000000000000000000000000000000000604482015290519081900360640190fd5b611c4c6123e9565b6001600160a01b0316611c5d6111b6565b6001600160a01b031614611cb8576040805162461bcd60e51b815260206004820181905260248201527f4f776e61626c653a2063616c6c6572206973206e6f7420746865206f776e6572604482015290519081900360640190fd5b6001600160a01b038216611d15576040805162461bcd60e51b8152602060048083019190915260248201527f4652313400000000000000000000000000000000000000000000000000000000604482015290519081900360640190fd5b6001600160a01b0382811660009081526068602052604090205416611841576040805162461bcd60e51b815260206004820152600360248201527f4652350000000000000000000000000000000000000000000000000000000000604482015290519081900360640190fd5b611d896123e9565b6001600160a01b0316611d9a6111b6565b6001600160a01b031614611df5576040805162461bcd60e51b815260206004820181905260248201527f4f776e61626c653a2063616c6c6572206973206e6f7420746865206f776e6572604482015290519081900360640190fd5b6000825111611e4b576040805162461bcd60e51b815260206004820152600360248201527f4652340000000000000000000000000000000000000000000000000000000000604482015290519081900360640190fd5b60005b82518110156108b657611e74838281518110611e6657fe5b602002602001015183611703565b600101611e4e565b611e846123e9565b6001600160a01b0316611e956111b6565b6001600160a01b031614611ef0576040805162461bcd60e51b815260206004820181905260248201527f4f776e61626c653a2063616c6c6572206973206e6f7420746865206f776e6572604482015290519081900360640190fd5b6001600160a01b038316611f4d576040805162461bcd60e51b8152602060048083019190915260248201527f4652313400000000000000000000000000000000000000000000000000000000604482015290519081900360640190fd5b60005b81811015611fdb576000838383818110611f6657fe5b602090810292909201357fffffffff000000000000000000000000000000000000000000000000000000001660009081526067909252506040902080547fffffffffffffffffffffffff0000000000000000000000000000000000000000166001600160a01b03871617905550600101611f50565b507fcdda72477de570b29e164c9498a3891f8f82c64aa5bbc288455494aa20f923ce83838360405180846001600160a01b03168152602001806020018281038252848482818152602001925060200280828437600083820152604051601f909101601f1916909201829003965090945050505050a1505050565b61205d6123e9565b6001600160a01b031661206e6111b6565b6001600160a01b0316146120c9576040805162461bcd60e51b815260206004820181905260248201527f4f776e61626c653a2063616c6c6572206973206e6f7420746865206f776e6572604482015290519081900360640190fd5b6001600160a01b03811661210e5760405162461bcd60e51b81526004018080602001828103825260268152602001806129726026913960400191505060405180910390fd5b6033546040516001600160a01b038084169216907f8be0079c531659141344cd1fd0a4f28419497f9722a3daafe3b4186f6b6457e090600090a3603380547fffffffffffffffffffffffff0000000000000000000000000000000000000000166001600160a01b0392909216919091179055565b61218a6123e9565b6001600160a01b031661219b6111b6565b6001600160a01b0316146121f6576040805162461bcd60e51b815260206004820181905260248201527f4f776e61626c653a2063616c6c6572206973206e6f7420746865206f776e6572604482015290519081900360640190fd5b6001600160a01b0381811660009081526068602052604090205416612262576040805162461bcd60e51b815260206004820152600360248201527f4652350000000000000000000000000000000000000000000000000000000000604482015290519081900360640190fd5b6001600160a01b038116600081815260686020908152604080832080547fffffffffffffffffffffffff000000000000000000000000000000000000000016905580519384529083019190915280517ff6d1d5e85111e2b71e00ce22a2500ba985c2b21b34b8760c72c213133da47db39281900390910190a150565b6122e66123e9565b6001600160a01b03166122f76111b6565b6001600160a01b031614612352576040805162461bcd60e51b815260206004820181905260248201527f4f776e61626c653a2063616c6c6572206973206e6f7420746865206f776e6572604482015290519081900360640190fd5b6001600160a01b0381166123af576040805162461bcd60e51b8152602060048083019190915260248201527f4943503000000000000000000000000000000000000000000000000000000000604482015290519081900360640190fd5b606580547fffffffffffffffffffffffff0000000000000000000000000000000000000000166001600160a01b0392909216919091179055565b3390565b60006123f830612568565b15905090565b600054610100900460ff168061241757506124176123ed565b80612425575060005460ff16155b6124605760405162461bcd60e51b815260040180806020018281038252602e815260200180612998602e913960400191505060405180910390fd5b600054610100900460ff161580156124c657600080547fffffffffffffffffffffffffffffffffffffffffffffffffffffffffffffff007fffffffffffffffffffffffffffffffffffffffffffffffffffffffffffff00ff909116610100171660011790555b60006124d06123e9565b603380547fffffffffffffffffffffffff0000000000000000000000000000000000000000166001600160a01b038316908117909155604051919250906000907f8be0079c531659141344cd1fd0a4f28419497f9722a3daafe3b4186f6b6457e0908290a350801561256557600080547fffffffffffffffffffffffffffffffffffffffffffffffffffffffffffff00ff1690555b50565b3b151590565b6103f68061257c8339019056fe608060405234801561001057600080fd5b506040516103f63803806103f683398101604081905261002f91610083565b8061003861005f565b60020180546001600160a01b0319166001600160a01b0392909216919091179055506100b1565b7fadbb89e904f74d44d0d104c851da4f2fa24de8f1dee64f038923bb940f37d53a90565b600060208284031215610094578081fd5b81516001600160a01b03811681146100aa578182fd5b9392505050565b610336806100c06000396000f3fe60806040526000357fffffffff00000000000000000000000000000000000000000000000000000000161561003657610036610038565b005b60008061004361023d565b805490915073ffffffffffffffffffffffffffffffffffffffff1661008f5780547fffffffffffffffffffffffff00000000000000000000000000000000000000001633178155600191505b600181015473ffffffffffffffffffffffffffffffffffffffff16801561013e5760018201546000357fffffffff000000000000000000000000000000000000000000000000000000009081167401000000000000000000000000000000000000000090920460e01b1614610139576040517f08c379a0000000000000000000000000000000000000000000000000000000008152600401610130906102c9565b60405180910390fd5b61020d565b60028201546040517fdc9cc64500000000000000000000000000000000000000000000000000000000815273ffffffffffffffffffffffffffffffffffffffff9091169063dc9cc645906101ba907fffffffff00000000000000000000000000000000000000000000000000000000600035169060040161029c565b60206040518083038186803b1580156101d257600080fd5b505afa1580156101e6573d6000803e3d6000fd5b505050506040513d601f19601f8201168201806040525081019061020a9190610261565b90505b3660008037600080366000845af43d806000803e81801561023857851561023357600085555b816000f35b816000fd5b7fadbb89e904f74d44d0d104c851da4f2fa24de8f1dee64f038923bb940f37d53a90565b600060208284031215610272578081fd5b815173ffffffffffffffffffffffffffffffffffffffff81168114610295578182fd5b9392505050565b7fffffffff0000000000000000000000000000000000000000000000000000000091909116815260200190565b60208082526003908201527f464131000000000000000000000000000000000000000000000000000000000060408201526060019056fea264697066735822122024923cd795b5543a38f56fe39c7b6ead92248d6b1e0a30cc07b17c8087c8a18264736f6c634300060c00334f776e61626c653a206e6577206f776e657220697320746865207a65726f2061646472657373496e697469616c697a61626c653a20636f6e747261637420697320616c726561647920696e697469616c697a6564a26469706673582212209abcf56b6331842344e436972937c27d35bb00f7d8d99e9895b9e2d2df30a72964736f6c634300060c0033"
}