{
  "address": "0x166A1e60717A6D23D903F874B5fae69f1604B259",
  "abi": [
    {
      "inputs": [
        {
          "internalType": "uint256",
          "name": "unwindFactor",
          "type": "uint256"
        },
        {
          "internalType": "uint256",
          "name": "slippageIncentive",
          "type": "uint256"
        },
        {
          "internalType": "uint256",
          "name": "collateralUsageLimit",
          "type": "uint256"
        }
      ],
      "name": "configureStopLoss",
      "outputs": [
        {
          "internalType": "bool",
          "name": "",
          "type": "bool"
        }
      ],
      "stateMutability": "nonpayable",
      "type": "function"
    },
    {
      "inputs": [],
      "name": "executeStopLoss",
      "outputs": [
        {
          "internalType": "uint256",
          "name": "redeemAmount",
          "type": "uint256"
        }
      ],
      "stateMutability": "nonpayable",
      "type": "function"
    },
    {
      "inputs": [],
      "name": "getBorrowBalance",
      "outputs": [
        {
          "internalType": "uint256",
          "name": "",
          "type": "uint256"
        }
      ],
      "stateMutability": "nonpayable",
      "type": "function"
    },
    {
      "inputs": [],
      "name": "getCollateralUsageFactor",
      "outputs": [
        {
          "internalType": "uint256",
          "name": "",
          "type": "uint256"
        }
      ],
      "stateMutability": "nonpayable",
      "type": "function"
    },
    {
      "inputs": [],
      "name": "getPositionMetadata",
      "outputs": [
        {
          "components": [
            {
              "internalType": "uint256",
              "name": "supplyAmount",
              "type": "uint256"
            },
            {
              "internalType": "uint256",
              "name": "borrowAmount",
              "type": "uint256"
            },
            {
              "internalType": "uint256",
              "name": "collateralUsageFactor",
              "type": "uint256"
            },
            {
              "internalType": "uint256",
              "name": "principalValue",
              "type": "uint256"
            },
            {
              "internalType": "uint256",
              "name": "positionValue",
              "type": "uint256"
            },
            {
              "internalType": "address",
              "name": "positionAddress",
              "type": "address"
            },
            {
              "internalType": "address",
              "name": "platformAddress",
              "type": "address"
            },
            {
              "internalType": "address",
              "name": "supplyTokenAddress",
              "type": "address"
            },
            {
              "internalType": "address",
              "name": "borrowTokenAddress",
              "type": "address"
            }
          ],
          "internalType": "struct SimplePositionMetadata",
          "name": "metadata",
          "type": "tuple"
        }
      ],
      "stateMutability": "nonpayable",
      "type": "function"
    },
    {
      "inputs": [],
      "name": "getPositionValue",
      "outputs": [
        {
          "internalType": "uint256",
          "name": "positionValue",
          "type": "uint256"
        }
      ],
      "stateMutability": "nonpayable",
      "type": "function"
    },
    {
      "inputs": [],
      "name": "getPrincipalValue",
      "outputs": [
        {
          "internalType": "uint256",
          "name": "",
          "type": "uint256"
        }
      ],
      "stateMutability": "nonpayable",
      "type": "function"
    },
    {
      "inputs": [],
      "name": "getSimplePositionDetails",
      "outputs": [
        {
          "internalType": "address",
          "name": "",
          "type": "address"
        },
        {
          "internalType": "address",
          "name": "",
          "type": "address"
        },
        {
          "internalType": "address",
          "name": "",
          "type": "address"
        }
      ],
      "stateMutability": "view",
      "type": "function"
    },
    {
      "inputs": [],
      "name": "getStopLossConfiguration",
      "outputs": [
        {
          "internalType": "uint256",
          "name": "slippageIncentive",
          "type": "uint256"
        },
        {
          "internalType": "uint256",
          "name": "collateralUsageLimit",
          "type": "uint256"
        },
        {
          "internalType": "uint256",
          "name": "unwindFactor",
          "type": "uint256"
        }
      ],
      "stateMutability": "view",
      "type": "function"
    },
    {
      "inputs": [],
      "name": "getStopLossState",
      "outputs": [
        {
          "internalType": "bool",
          "name": "canTriggerStopLoss",
          "type": "bool"
        },
        {
          "internalType": "uint256",
          "name": "supplyBalance",
          "type": "uint256"
        },
        {
          "internalType": "uint256",
          "name": "borrowBalance",
          "type": "uint256"
        },
        {
          "internalType": "uint256",
          "name": "slippageIncentive",
          "type": "uint256"
        },
        {
          "internalType": "uint256",
          "name": "collateralUsageLimit",
          "type": "uint256"
        },
        {
          "internalType": "uint256",
          "name": "unwindFactor",
          "type": "uint256"
        }
      ],
      "stateMutability": "nonpayable",
      "type": "function"
    },
    {
      "inputs": [],
      "name": "getSupplyBalance",
      "outputs": [
        {
          "internalType": "uint256",
          "name": "",
          "type": "uint256"
        }
      ],
      "stateMutability": "nonpayable",
      "type": "function"
    }
  ],
  "transactionHash": "0x237c7b293926ed10cd2410f73490c52018311533e2f259102897002b23ba1227",
  "args": [],
  "numDeployments": 1,
  "solcInputHash": "0c2605f0b7387ba49aa77862d1bfc021",
  "bytecode": "0x608060405234801561001057600080fd5b5061292d806100206000396000f3fe608060405234801561001057600080fd5b50600436106100a95760003560e01c8063ca20659111610071578063ca2065911461014d578063ce2576b21461016b578063d71f89ac14610189578063e0fe664d146101a7578063e8c944e6146101d7578063fca061cd146101f5576100a9565b806302fa5a02146100ae578063040e6b67146100ce5780633cf34dab146100ec5780637afc3e8d1461010f578063b44b3a8f1461012f575b600080fd5b6100b6610213565b6040516100c59392919061244a565b60405180910390f35b6100d661029e565b6040516100e3919061277b565b60405180910390f35b6100f46102b1565b604051610106969594939291906124fc565b60405180910390f35b610117610302565b60405161012693929190612796565b60405180910390f35b610137610333565b604051610144919061277b565b60405180910390f35b610155610505565b604051610162919061277b565b60405180910390f35b6101736105a0565b604051610180919061275f565b60405180910390f35b610191610762565b60405161019e919061277b565b60405180910390f35b6101c160048036038101906101bc9190611ddc565b6107d1565b6040516101ce91906124e1565b60405180910390f35b6101df610a02565b6040516101ec919061277b565b60405180910390f35b6101fd610a9d565b60405161020a919061277b565b60405180910390f35b600080600080610221610edd565b90508060000160009054906101000a900473ffffffffffffffffffffffffffffffffffffffff168160010160009054906101000a900473ffffffffffffffffffffffffffffffffffffffff168260020160009054906101000a900473ffffffffffffffffffffffffffffffffffffffff1693509350935050909192565b60006102a8610edd565b60030154905090565b6000806000806000806102c2610302565b8093508194508295505050506102d6610a02565b94506102e0610505565b9350816102eb610762565b1180156102f85750600081115b9550909192939495565b600080600080610310610f0a565b905080600101548160000154826002015480945081955082965050505050909192565b600061033d611bde565b610345610edd565b6040518060800160405290816000820160009054906101000a900473ffffffffffffffffffffffffffffffffffffffff1673ffffffffffffffffffffffffffffffffffffffff1673ffffffffffffffffffffffffffffffffffffffff1681526020016001820160009054906101000a900473ffffffffffffffffffffffffffffffffffffffff1673ffffffffffffffffffffffffffffffffffffffff1673ffffffffffffffffffffffffffffffffffffffff1681526020016002820160009054906101000a900473ffffffffffffffffffffffffffffffffffffffff1673ffffffffffffffffffffffffffffffffffffffff1673ffffffffffffffffffffffffffffffffffffffff1681526020016003820154815250509050600061046d8260000151610f37565b905060006104848284600001518560400151610ff4565b9050600061049b83856000015186602001516110b8565b90506104e66104b3848660000151876020015161117c565b6104d86104c9868860000151896040015161117c565b8561124090919063ffffffff16565b6112b090919063ffffffff16565b91508181106104f95781810394506104fe565b600094505b5050505090565b600061059b61053e610515610edd565b60000160009054906101000a900473ffffffffffffffffffffffffffffffffffffffff16610f37565b610546610edd565b60000160009054906101000a900473ffffffffffffffffffffffffffffffffffffffff16610572610edd565b60020160009054906101000a900473ffffffffffffffffffffffffffffffffffffffff16610ff4565b905090565b6105a8611c48565b308160a0019073ffffffffffffffffffffffffffffffffffffffff16908173ffffffffffffffffffffffffffffffffffffffff16815250506105e8610edd565b60000160009054906101000a900473ffffffffffffffffffffffffffffffffffffffff168160c0019073ffffffffffffffffffffffffffffffffffffffff16908173ffffffffffffffffffffffffffffffffffffffff168152505061064b610edd565b60010160009054906101000a900473ffffffffffffffffffffffffffffffffffffffff168160e0019073ffffffffffffffffffffffffffffffffffffffff16908173ffffffffffffffffffffffffffffffffffffffff16815250506106ae610edd565b60020160009054906101000a900473ffffffffffffffffffffffffffffffffffffffff1681610100019073ffffffffffffffffffffffffffffffffffffffff16908173ffffffffffffffffffffffffffffffffffffffff1681525050610712610a02565b816000018181525050610723610505565b816020018181525050610734610762565b81604001818152505061074561029e565b816060018181525050610756610333565b81608001818152505090565b60006107cc61079b610772610edd565b60000160009054906101000a900473ffffffffffffffffffffffffffffffffffffffff16610f37565b6107a3610edd565b60000160009054906101000a900473ffffffffffffffffffffffffffffffffffffffff16611306565b905090565b6000806107dc6113c7565b90508060040160009054906101000a900473ffffffffffffffffffffffffffffffffffffffff1673ffffffffffffffffffffffffffffffffffffffff168160000160009054906101000a900473ffffffffffffffffffffffffffffffffffffffff1673ffffffffffffffffffffffffffffffffffffffff1614610894576040517f08c379a000000000000000000000000000000000000000000000000000000000815260040161088b9061259f565b60405180910390fd5b61089c6113f4565b6108db576040517f08c379a00000000000000000000000000000000000000000000000000000000081526004016108d2906126ff565b60405180910390fd5b670de0b6b3a7640000851115610926576040517f08c379a000000000000000000000000000000000000000000000000000000000815260040161091d9061263f565b60405180910390fd5b670de0b6b3a7640000841115610971576040517f08c379a0000000000000000000000000000000000000000000000000000000008152600401610968906125bf565b60405180910390fd5b610979610762565b8311801561098f5750670de0b6b3a76400008311155b6109ce576040517f08c379a00000000000000000000000000000000000000000000000000000000081526004016109c5906125df565b60405180910390fd5b60006109d8610f0a565b90508581600201819055508481600101819055508381600001819055506001925050509392505050565b6000610a98610a3b610a12610edd565b60000160009054906101000a900473ffffffffffffffffffffffffffffffffffffffff16610f37565b610a43610edd565b60000160009054906101000a900473ffffffffffffffffffffffffffffffffffffffff16610a6f610edd565b60010160009054906101000a900473ffffffffffffffffffffffffffffffffffffffff166110b8565b905090565b6000610aa76113f4565b610ae6576040517f08c379a0000000000000000000000000000000000000000000000000000000008152600401610add906126bf565b60405180910390fd5b610aee611cec565b610af6610f0a565b604051806060016040529081600082015481526020016001820154815260200160028201548152505090506000816040015111610b68576040517f08c379a0000000000000000000000000000000000000000000000000000000008152600401610b5f9061257f565b60405180910390fd5b8060000151610b75610762565b11610bb5576040517f08c379a0000000000000000000000000000000000000000000000000000000008152600401610bac9061267f565b60405180910390fd5b610bbd611bde565b610bc5610edd565b6040518060800160405290816000820160009054906101000a900473ffffffffffffffffffffffffffffffffffffffff1673ffffffffffffffffffffffffffffffffffffffff1673ffffffffffffffffffffffffffffffffffffffff1681526020016001820160009054906101000a900473ffffffffffffffffffffffffffffffffffffffff1673ffffffffffffffffffffffffffffffffffffffff1673ffffffffffffffffffffffffffffffffffffffff1681526020016002820160009054906101000a900473ffffffffffffffffffffffffffffffffffffffff1673ffffffffffffffffffffffffffffffffffffffff1673ffffffffffffffffffffffffffffffffffffffff16815260200160038201548152505090506000610ced8260000151610f37565b90506000670de0b6b3a764000084604001511490506000610d0c610505565b9050600082610d3b57610d368660400151670de0b6b3a7640000846114569092919063ffffffff16565b610d3d565b815b90506000610d54858760000151886040015161117c565b90506000610d6b868860000151896020015161117c565b9050600085610de757610de2610d9e8484610d8f888a61153790919063ffffffff16565b6114569092919063ffffffff16565b610dd4610db48a8c600001518d60200151611587565b670de0b6b3a7640000610dc5610a02565b6114569092919063ffffffff16565b61153790919063ffffffff16565b610df0565b610def610a02565b5b9050610e41610e1684670de0b6b3a76400008c602001510161124090919063ffffffff16565b610e3184670de0b6b3a764000061124090919063ffffffff16565b866114569092919063ffffffff16565b9950808a1115610e4f578099505b610e638789600001518a604001518761164b565b505050505050610e7d8183600001518460200151876116f3565b610ed7610e886113c7565b60000160009054906101000a900473ffffffffffffffffffffffffffffffffffffffff1685846020015173ffffffffffffffffffffffffffffffffffffffff1661179c9092919063ffffffff16565b50505090565b6000807f8278faaeed8149083abb50630b1bee29cf32152ad9a9c9145fe4b38fa3f9c4e890508091505090565b6000807f71e33351f6c2f31004e68ac32dd5a4884e99e8c3aa8dcf1997909021899a861490508091505090565b6000610f416113c7565b60020160009054906101000a900473ffffffffffffffffffffffffffffffffffffffff1673ffffffffffffffffffffffffffffffffffffffff166342dfa789836040518263ffffffff1660e01b8152600401610f9d9190612406565b60206040518083038186803b158015610fb557600080fd5b505afa158015610fc9573d6000803e3d6000fd5b505050506040513d601f19601f82011682018060405250810190610fed9190611d61565b9050919050565b6000606061109863118e31b760e01b8585604051602401611016929190612421565b604051602081830303815290604052907bffffffffffffffffffffffffffffffffffffffffffffffffffffffff19166020820180517bffffffffffffffffffffffffffffffffffffffffffffffffffffffff83818316178352505050508673ffffffffffffffffffffffffffffffffffffffff1661182290919063ffffffff16565b9050808060200190518101906110ae9190611db3565b9150509392505050565b6000606061115c63ba37773160e01b85856040516024016110da929190612421565b604051602081830303815290604052907bffffffffffffffffffffffffffffffffffffffffffffffffffffffff19166020820180517bffffffffffffffffffffffffffffffffffffffffffffffffffffffff83818316178352505050508673ffffffffffffffffffffffffffffffffffffffff1661182290919063ffffffff16565b9050808060200190518101906111729190611db3565b9150509392505050565b6000606061122063b84c743b60e01b858560405160240161119e929190612421565b604051602081830303815290604052907bffffffffffffffffffffffffffffffffffffffffffffffffffffffff19166020820180517bffffffffffffffffffffffffffffffffffffffffffffffffffffffff83818316178352505050508673ffffffffffffffffffffffffffffffffffffffff1661182290919063ffffffff16565b9050808060200190518101906112369190611db3565b9150509392505050565b60008083141561125357600090506112aa565b600082840290508284828161126457fe5b04146112a5576040517f08c379a000000000000000000000000000000000000000000000000000000000815260040161129c9061269f565b60405180910390fd5b809150505b92915050565b60008082116112f4576040517f08c379a00000000000000000000000000000000000000000000000000000000081526004016112eb9061265f565b60405180910390fd5b8183816112fd57fe5b04905092915050565b600060606113a863ef84867060e01b846040516024016113269190612406565b604051602081830303815290604052907bffffffffffffffffffffffffffffffffffffffffffffffffffffffff19166020820180517bffffffffffffffffffffffffffffffffffffffffffffffffffffffff83818316178352505050508573ffffffffffffffffffffffffffffffffffffffff1661182290919063ffffffff16565b9050808060200190518101906113be9190611db3565b91505092915050565b6000807fadbb89e904f74d44d0d104c851da4f2fa24de8f1dee64f038923bb940f37d53a90508091505090565b60008073ffffffffffffffffffffffffffffffffffffffff16611415610edd565b60000160009054906101000a900473ffffffffffffffffffffffffffffffffffffffff1673ffffffffffffffffffffffffffffffffffffffff161415905090565b6000806000611465868661184f565b9150915083811061147557600080fd5b6000848061147f57fe5b868809905082811115611493576001820391505b8083039250600085600003861690508086816114ab57fe5b0495508084816114b757fe5b04935060018182600003816114c857fe5b04018302840193506000600190508087026002038102905080870260020381029050808702600203810290508087026002038102905080870260020381029050808702600203810290508087026002038102905080870260020381029050808502955050505050509392505050565b60008282111561157c576040517f08c379a0000000000000000000000000000000000000000000000000000000008152600401611573906125ff565b60405180910390fd5b818303905092915050565b6000606061162b63eed1a08c60e01b85856040516024016115a9929190612421565b604051602081830303815290604052907bffffffffffffffffffffffffffffffffffffffffffffffffffffffff19166020820180517bffffffffffffffffffffffffffffffffffffffffffffffffffffffff83818316178352505050508673ffffffffffffffffffffffffffffffffffffffff1661182290919063ffffffff16565b9050808060200190518101906116419190611db3565b9150509392505050565b6116ec6220311b60e01b84848460405160240161166a93929190612481565b604051602081830303815290604052907bffffffffffffffffffffffffffffffffffffffffffffffffffffffff19166020820180517bffffffffffffffffffffffffffffffffffffffffffffffffffffffff83818316178352505050508573ffffffffffffffffffffffffffffffffffffffff1661182290919063ffffffff16565b5050505050565b611795631c009d7160e01b84848460405160240161171393929190612481565b604051602081830303815290604052907bffffffffffffffffffffffffffffffffffffffffffffffffffffffff19166020820180517bffffffffffffffffffffffffffffffffffffffffffffffffffffffff83818316178352505050508573ffffffffffffffffffffffffffffffffffffffff1661182290919063ffffffff16565b5050505050565b61181d8363a9059cbb60e01b84846040516024016117bb9291906124b8565b604051602081830303815290604052907bffffffffffffffffffffffffffffffffffffffffffffffffffffffff19166020820180517bffffffffffffffffffffffffffffffffffffffffffffffffffffffff83818316178352505050506118a2565b505050565b606061184783836040518060600160405280602781526020016128d160279139611969565b905092915050565b60008060007fffffffffffffffffffffffffffffffffffffffffffffffffffffffffffffffff8061187c57fe5b8486099050838502925082810391508281101561189a576001820391505b509250929050565b6060611904826040518060400160405280602081526020017f5361666545524332303a206c6f772d6c6576656c2063616c6c206661696c65648152508573ffffffffffffffffffffffffffffffffffffffff16611a379092919063ffffffff16565b905060008151111561196457808060200190518101906119249190611d8a565b611963576040517f08c379a000000000000000000000000000000000000000000000000000000000815260040161195a9061273f565b60405180910390fd5b5b505050565b606061197484611a4f565b6119b3576040517f08c379a00000000000000000000000000000000000000000000000000000000081526004016119aa906126df565b60405180910390fd5b600060608573ffffffffffffffffffffffffffffffffffffffff16856040516119dc91906123ef565b600060405180830381855af49150503d8060008114611a17576040519150601f19603f3d011682016040523d82523d6000602084013e611a1c565b606091505b5091509150611a2c828286611a62565b925050509392505050565b6060611a468484600085611ac9565b90509392505050565b600080823b905060008111915050919050565b60608315611a7257829050611ac2565b600083511115611a855782518084602001fd5b816040517f08c379a0000000000000000000000000000000000000000000000000000000008152600401611ab9919061255d565b60405180910390fd5b9392505050565b606082471015611b0e576040517f08c379a0000000000000000000000000000000000000000000000000000000008152600401611b059061261f565b60405180910390fd5b611b1785611a4f565b611b56576040517f08c379a0000000000000000000000000000000000000000000000000000000008152600401611b4d9061271f565b60405180910390fd5b600060608673ffffffffffffffffffffffffffffffffffffffff168587604051611b8091906123ef565b60006040518083038185875af1925050503d8060008114611bbd576040519150601f19603f3d011682016040523d82523d6000602084013e611bc2565b606091505b5091509150611bd2828286611a62565b92505050949350505050565b6040518060800160405280600073ffffffffffffffffffffffffffffffffffffffff168152602001600073ffffffffffffffffffffffffffffffffffffffff168152602001600073ffffffffffffffffffffffffffffffffffffffff168152602001600081525090565b6040518061012001604052806000815260200160008152602001600081526020016000815260200160008152602001600073ffffffffffffffffffffffffffffffffffffffff168152602001600073ffffffffffffffffffffffffffffffffffffffff168152602001600073ffffffffffffffffffffffffffffffffffffffff168152602001600073ffffffffffffffffffffffffffffffffffffffff1681525090565b60405180606001604052806000815260200160008152602001600081525090565b600081519050611d1c8161288b565b92915050565b600081519050611d31816128a2565b92915050565b600081359050611d46816128b9565b92915050565b600081519050611d5b816128b9565b92915050565b600060208284031215611d7357600080fd5b6000611d8184828501611d0d565b91505092915050565b600060208284031215611d9c57600080fd5b6000611daa84828501611d22565b91505092915050565b600060208284031215611dc557600080fd5b6000611dd384828501611d4c565b91505092915050565b600080600060608486031215611df157600080fd5b6000611dff86828701611d37565b9350506020611e1086828701611d37565b9250506040611e2186828701611d37565b9150509250925092565b611e34816127ff565b82525050565b611e43816127ff565b82525050565b611e5281612811565b82525050565b6000611e63826127cd565b611e6d81856127e3565b9350611e7d818560208601612847565b80840191505092915050565b6000611e94826127d8565b611e9e81856127ee565b9350611eae818560208601612847565b611eb78161287a565b840191505092915050565b6000611ecf6004836127ee565b91507f534c4337000000000000000000000000000000000000000000000000000000006000830152602082019050919050565b6000611f0f6003836127ee565b91507f46413200000000000000000000000000000000000000000000000000000000006000830152602082019050919050565b6000611f4f6004836127ee565b91507f534c4332000000000000000000000000000000000000000000000000000000006000830152602082019050919050565b6000611f8f6004836127ee565b91507f534c4333000000000000000000000000000000000000000000000000000000006000830152602082019050919050565b6000611fcf601e836127ee565b91507f536166654d6174683a207375627472616374696f6e206f766572666c6f7700006000830152602082019050919050565b600061200f6026836127ee565b91507f416464726573733a20696e73756666696369656e742062616c616e636520666f60008301527f722063616c6c00000000000000000000000000000000000000000000000000006020830152604082019050919050565b60006120756004836127ee565b91507f534c4331000000000000000000000000000000000000000000000000000000006000830152602082019050919050565b60006120b5601a836127ee565b91507f536166654d6174683a206469766973696f6e206279207a65726f0000000000006000830152602082019050919050565b60006120f56004836127ee565b91507f534c4335000000000000000000000000000000000000000000000000000000006000830152602082019050919050565b60006121356021836127ee565b91507f536166654d6174683a206d756c7469706c69636174696f6e206f766572666c6f60008301527f77000000000000000000000000000000000000000000000000000000000000006020830152604082019050919050565b600061219b6004836127ee565b91507f534c4338000000000000000000000000000000000000000000000000000000006000830152602082019050919050565b60006121db6026836127ee565b91507f416464726573733a2064656c65676174652063616c6c20746f206e6f6e2d636f60008301527f6e747261637400000000000000000000000000000000000000000000000000006020830152604082019050919050565b60006122416003836127ee565b91507f53503100000000000000000000000000000000000000000000000000000000006000830152602082019050919050565b6000612281601d836127ee565b91507f416464726573733a2063616c6c20746f206e6f6e2d636f6e74726163740000006000830152602082019050919050565b60006122c1602a836127ee565b91507f5361666545524332303a204552433230206f7065726174696f6e20646964206e60008301527f6f742073756363656564000000000000000000000000000000000000000000006020830152604082019050919050565b6101208201600082015161233160008501826123d1565b50602082015161234460208501826123d1565b50604082015161235760408501826123d1565b50606082015161236a60608501826123d1565b50608082015161237d60808501826123d1565b5060a082015161239060a0850182611e2b565b5060c08201516123a360c0850182611e2b565b5060e08201516123b660e0850182611e2b565b506101008201516123cb610100850182611e2b565b50505050565b6123da8161283d565b82525050565b6123e98161283d565b82525050565b60006123fb8284611e58565b915081905092915050565b600060208201905061241b6000830184611e3a565b92915050565b60006040820190506124366000830185611e3a565b6124436020830184611e3a565b9392505050565b600060608201905061245f6000830186611e3a565b61246c6020830185611e3a565b6124796040830184611e3a565b949350505050565b60006060820190506124966000830186611e3a565b6124a36020830185611e3a565b6124b060408301846123e0565b949350505050565b60006040820190506124cd6000830185611e3a565b6124da60208301846123e0565b9392505050565b60006020820190506124f66000830184611e49565b92915050565b600060c0820190506125116000830189611e49565b61251e60208301886123e0565b61252b60408301876123e0565b61253860608301866123e0565b61254560808301856123e0565b61255260a08301846123e0565b979650505050505050565b600060208201905081810360008301526125778184611e89565b905092915050565b6000602082019050818103600083015261259881611ec2565b9050919050565b600060208201905081810360008301526125b881611f02565b9050919050565b600060208201905081810360008301526125d881611f42565b9050919050565b600060208201905081810360008301526125f881611f82565b9050919050565b6000602082019050818103600083015261261881611fc2565b9050919050565b6000602082019050818103600083015261263881612002565b9050919050565b6000602082019050818103600083015261265881612068565b9050919050565b60006020820190508181036000830152612678816120a8565b9050919050565b60006020820190508181036000830152612698816120e8565b9050919050565b600060208201905081810360008301526126b881612128565b9050919050565b600060208201905081810360008301526126d88161218e565b9050919050565b600060208201905081810360008301526126f8816121ce565b9050919050565b6000602082019050818103600083015261271881612234565b9050919050565b6000602082019050818103600083015261273881612274565b9050919050565b60006020820190508181036000830152612758816122b4565b9050919050565b600061012082019050612775600083018461231a565b92915050565b600060208201905061279060008301846123e0565b92915050565b60006060820190506127ab60008301866123e0565b6127b860208301856123e0565b6127c560408301846123e0565b949350505050565b600081519050919050565b600081519050919050565b600081905092915050565b600082825260208201905092915050565b600061280a8261281d565b9050919050565b60008115159050919050565b600073ffffffffffffffffffffffffffffffffffffffff82169050919050565b6000819050919050565b60005b8381101561286557808201518184015260208101905061284a565b83811115612874576000848401525b50505050565b6000601f19601f8301169050919050565b612894816127ff565b811461289f57600080fd5b50565b6128ab81612811565b81146128b657600080fd5b50565b6128c28161283d565b81146128cd57600080fd5b5056fe416464726573733a206c6f772d6c6576656c2064656c65676174652063616c6c206661696c6564a26469706673582212202316dabda1a0a35f5a1be73f06bec8d1663955c9bd473e28e3d3108ded46c67a64736f6c634300060c0033",
  "devdoc": {
    "kind": "dev",
    "methods": {},
    "version": 1
  },
  "userdoc": {
    "kind": "user",
    "methods": {},
    "version": 1
  },
  "storageLayout": {
    "storage": [],
    "types": null
  }
}