{
  "address": "0x92e782BaDab8D21dde8CC2aaE06e5cEB61d23139",
  "abi": [
    {
      "inputs": [
        {
          "internalType": "uint256",
          "name": "priceTarget",
          "type": "uint256"
        },
        {
          "internalType": "uint256",
          "name": "fixedReward",
          "type": "uint256"
        },
        {
          "internalType": "uint256",
          "name": "percentageReward",
          "type": "uint256"
        },
        {
          "internalType": "uint256",
          "name": "unwindFactor",
          "type": "uint256"
        },
        {
          "internalType": "address",
          "name": "permittedBot",
          "type": "address"
        },
        {
          "internalType": "bool",
          "name": "isTakeProfit",
          "type": "bool"
        }
      ],
      "name": "configurePNL",
      "outputs": [],
      "stateMutability": "nonpayable",
      "type": "function"
    },
    {
      "inputs": [
        {
          "internalType": "uint256",
          "name": "index",
          "type": "uint256"
        },
        {
          "internalType": "bool",
          "name": "withApproval",
          "type": "bool"
        }
      ],
      "name": "executePNL",
      "outputs": [
        {
          "internalType": "uint256",
          "name": "",
          "type": "uint256"
        }
      ],
      "stateMutability": "nonpayable",
      "type": "function"
    },
    {
      "inputs": [],
      "name": "getAllPNLSettings",
      "outputs": [
        {
          "components": [
            {
              "internalType": "uint256",
              "name": "priceTarget",
              "type": "uint256"
            },
            {
              "internalType": "uint256",
              "name": "fixedReward",
              "type": "uint256"
            },
            {
              "internalType": "uint256",
              "name": "percentageReward",
              "type": "uint256"
            },
            {
              "internalType": "uint256",
              "name": "unwindFactor",
              "type": "uint256"
            },
            {
              "internalType": "bool",
              "name": "isTakeProfit",
              "type": "bool"
            }
          ],
          "internalType": "struct PNLSettings[]",
          "name": "",
          "type": "tuple[]"
        }
      ],
      "stateMutability": "nonpayable",
      "type": "function"
    },
    {
      "inputs": [
        {
          "internalType": "uint256",
          "name": "index",
          "type": "uint256"
        }
      ],
      "name": "getPNLSettingsAt",
      "outputs": [
        {
          "components": [
            {
              "internalType": "uint256",
              "name": "priceTarget",
              "type": "uint256"
            },
            {
              "internalType": "uint256",
              "name": "fixedReward",
              "type": "uint256"
            },
            {
              "internalType": "uint256",
              "name": "percentageReward",
              "type": "uint256"
            },
            {
              "internalType": "uint256",
              "name": "unwindFactor",
              "type": "uint256"
            },
            {
              "internalType": "bool",
              "name": "isTakeProfit",
              "type": "bool"
            }
          ],
          "internalType": "struct PNLSettings",
          "name": "",
          "type": "tuple"
        }
      ],
      "stateMutability": "nonpayable",
      "type": "function"
    },
    {
      "inputs": [],
      "name": "getPNLState",
      "outputs": [
        {
          "components": [
            {
              "internalType": "uint256",
              "name": "priceOfBorrowToken",
              "type": "uint256"
            },
            {
              "internalType": "uint256",
              "name": "priceOfSupplyToken",
              "type": "uint256"
            },
            {
              "internalType": "uint256",
              "name": "supplyBalance",
              "type": "uint256"
            },
            {
              "internalType": "uint256",
              "name": "borrowBalance",
              "type": "uint256"
            },
            {
              "internalType": "address",
              "name": "platform",
              "type": "address"
            },
            {
              "internalType": "address",
              "name": "borrowToken",
              "type": "address"
            },
            {
              "internalType": "address",
              "name": "supplyToken",
              "type": "address"
            },
            {
              "components": [
                {
                  "internalType": "bool",
                  "name": "canBeTriggered",
                  "type": "bool"
                },
                {
                  "internalType": "string",
                  "name": "reason",
                  "type": "string"
                },
                {
                  "components": [
                    {
                      "internalType": "uint256",
                      "name": "priceTarget",
                      "type": "uint256"
                    },
                    {
                      "internalType": "uint256",
                      "name": "fixedReward",
                      "type": "uint256"
                    },
                    {
                      "internalType": "uint256",
                      "name": "percentageReward",
                      "type": "uint256"
                    },
                    {
                      "internalType": "uint256",
                      "name": "unwindFactor",
                      "type": "uint256"
                    },
                    {
                      "internalType": "bool",
                      "name": "isTakeProfit",
                      "type": "bool"
                    }
                  ],
                  "internalType": "struct PNLSettings",
                  "name": "settings",
                  "type": "tuple"
                }
              ],
              "internalType": "struct IWhitelistPNLConnector.PNLSimulations[]",
              "name": "simulations",
              "type": "tuple[]"
            }
          ],
          "internalType": "struct IWhitelistPNLConnector.PNLState",
          "name": "state",
          "type": "tuple"
        }
      ],
      "stateMutability": "nonpayable",
      "type": "function"
    },
    {
      "inputs": [
        {
          "internalType": "address",
          "name": "addr",
          "type": "address"
        }
      ],
      "name": "getPNLWhitelistPermission",
      "outputs": [
        {
          "internalType": "bool",
          "name": "",
          "type": "bool"
        }
      ],
      "stateMutability": "nonpayable",
      "type": "function"
    },
    {
      "inputs": [],
      "name": "removeAllPNLSettings",
      "outputs": [],
      "stateMutability": "nonpayable",
      "type": "function"
    },
    {
      "inputs": [
        {
          "internalType": "uint256",
          "name": "index",
          "type": "uint256"
        }
      ],
      "name": "removePNLSetting",
      "outputs": [],
      "stateMutability": "nonpayable",
      "type": "function"
    },
    {
      "inputs": [
        {
          "internalType": "address",
          "name": "addr",
          "type": "address"
        },
        {
          "internalType": "bool",
          "name": "permission",
          "type": "bool"
        }
      ],
      "name": "setPNLWhitelistPermission",
      "outputs": [],
      "stateMutability": "nonpayable",
      "type": "function"
    }
  ],
  "transactionHash": "0xe5e458b14d7564beccb7caffbed85ba0df0a8b7f08deb16e06179d308804129f",
  "args": [],
  "numDeployments": 1,
  "solcInputHash": "43745c396b5c42c55276228defd5e11b",
  "bytecode": "0x608060405234801561001057600080fd5b50613343806100206000396000f3fe608060405234801561001057600080fd5b50600436106100935760003560e01c806386519a821161006657806386519a821461010a578063b0836f6e1461013a578063b4e8eaf314610158578063df307da814610162578063f64b13501461019257610093565b80634d812a5a1461009857806351d6fe58146100b457806354e87c20146100d057806385d04714146100ee575b600080fd5b6100b260048036038101906100ad91906124ce565b6101c2565b005b6100ce60048036038101906100c99190612533565b6102e9565b005b6100d86103b8565b6040516100e59190612ee9565b60405180910390f35b610108600480360381019061010391906125c1565b610463565b005b610124600480360381019061011f919061247c565b6109a2565b6040516101319190612f0b565b60405180910390f35b610142610a01565b60405161014f9190613123565b60405180910390f35b61016061100a565b005b61017c60048036038101906101779190612533565b6110e6565b6040516101899190613108565b60405180910390f35b6101ac60048036038101906101a79190612585565b611167565b6040516101b99190613145565b60405180910390f35b60006101cc61163e565b90508060040160009054906101000a900473ffffffffffffffffffffffffffffffffffffffff1673ffffffffffffffffffffffffffffffffffffffff168160000160009054906101000a900473ffffffffffffffffffffffffffffffffffffffff1673ffffffffffffffffffffffffffffffffffffffff1614610284576040517f08c379a000000000000000000000000000000000000000000000000000000000815260040161027b90612f68565b60405180910390fd5b8161028d61166b565b60000160008573ffffffffffffffffffffffffffffffffffffffff1673ffffffffffffffffffffffffffffffffffffffff16815260200190815260200160002060006101000a81548160ff021916908315150217905550505050565b60006102f361163e565b90508060040160009054906101000a900473ffffffffffffffffffffffffffffffffffffffff1673ffffffffffffffffffffffffffffffffffffffff168160000160009054906101000a900473ffffffffffffffffffffffffffffffffffffffff1673ffffffffffffffffffffffffffffffffffffffff16146103ab576040517f08c379a00000000000000000000000000000000000000000000000000000000081526004016103a290612f68565b60405180910390fd5b6103b482611698565b5050565b60606103c26117f1565b600001805480602002602001604051908101604052809291908181526020016000905b8282101561045a57838290600052602060002090600502016040518060a0016040529081600082015481526020016001820154815260200160028201548152602001600382015481526020016004820160009054906101000a900460ff161515151581525050815260200190600101906103e5565b50505050905090565b600061046d61163e565b90508060040160009054906101000a900473ffffffffffffffffffffffffffffffffffffffff1673ffffffffffffffffffffffffffffffffffffffff168160000160009054906101000a900473ffffffffffffffffffffffffffffffffffffffff1673ffffffffffffffffffffffffffffffffffffffff1614610525576040517f08c379a000000000000000000000000000000000000000000000000000000000815260040161051c90612f68565b60405180910390fd5b61052d61181e565b61056c576040517f08c379a000000000000000000000000000000000000000000000000000000000815260040161056390613088565b60405180910390fd5b670de0b6b3a76400008411156105b7576040517f08c379a00000000000000000000000000000000000000000000000000000000081526004016105ae90612fe8565b60405180910390fd5b670de0b6b3a7640000851115610602576040517f08c379a00000000000000000000000000000000000000000000000000000000081526004016105f990613028565b60405180910390fd5b61060a612244565b610612611880565b6040518060800160405290816000820160009054906101000a900473ffffffffffffffffffffffffffffffffffffffff1673ffffffffffffffffffffffffffffffffffffffff1673ffffffffffffffffffffffffffffffffffffffff1681526020016001820160009054906101000a900473ffffffffffffffffffffffffffffffffffffffff1673ffffffffffffffffffffffffffffffffffffffff1673ffffffffffffffffffffffffffffffffffffffff1681526020016002820160009054906101000a900473ffffffffffffffffffffffffffffffffffffffff1673ffffffffffffffffffffffffffffffffffffffff1673ffffffffffffffffffffffffffffffffffffffff1681526020016003820154815250509050600061073a82600001516118ad565b905083156107d057610755818360000151846040015161196a565b610782670de0b6b3a7640000610774848660000151876020015161196a565b611a2e90919063ffffffff16565b8161078957fe5b0489116107cb576040517f08c379a00000000000000000000000000000000000000000000000000000000081526004016107c2906130e8565b60405180910390fd5b61085a565b6107e3818360000151846040015161196a565b610810670de0b6b3a7640000610802848660000151876020015161196a565b611a2e90919063ffffffff16565b8161081757fe5b048910610859576040517f08c379a0000000000000000000000000000000000000000000000000000000008152600401610850906130e8565b60405180910390fd5b5b600073ffffffffffffffffffffffffffffffffffffffff168573ffffffffffffffffffffffffffffffffffffffff16146108f057600161089861166b565b60000160008773ffffffffffffffffffffffffffffffffffffffff1673ffffffffffffffffffffffffffffffffffffffff16815260200190815260200160002060006101000a81548160ff0219169083151502179055505b6108f86117f1565b6000016040518060a001604052808b81526020018a815260200189815260200188815260200186151581525090806001815401808255809150506001900390600052602060002090600502016000909190919091506000820151816000015560208201518160010155604082015181600201556060820151816003015560808201518160040160006101000a81548160ff0219169083151502179055505050505050505050505050565b60006109ac61166b565b60000160008373ffffffffffffffffffffffffffffffffffffffff1673ffffffffffffffffffffffffffffffffffffffff16815260200190815260200160002060009054906101000a900460ff169050919050565b610a096122ae565b610a11612244565b610a19611880565b6040518060800160405290816000820160009054906101000a900473ffffffffffffffffffffffffffffffffffffffff1673ffffffffffffffffffffffffffffffffffffffff1673ffffffffffffffffffffffffffffffffffffffff1681526020016001820160009054906101000a900473ffffffffffffffffffffffffffffffffffffffff1673ffffffffffffffffffffffffffffffffffffffff1673ffffffffffffffffffffffffffffffffffffffff1681526020016002820160009054906101000a900473ffffffffffffffffffffffffffffffffffffffff1673ffffffffffffffffffffffffffffffffffffffff1673ffffffffffffffffffffffffffffffffffffffff1681526020016003820154815250509050610b3a61181e565b610b445750611007565b6060610b4e6117f1565b600001805480602002602001604051908101604052809291908181526020016000905b82821015610be657838290600052602060002090600502016040518060a0016040529081600082015481526020016001820154815260200160028201548152602001600382015481526020016004820160009054906101000a900460ff16151515158152505081526020019060010190610b71565b5050505090508160000151836080019073ffffffffffffffffffffffffffffffffffffffff16908173ffffffffffffffffffffffffffffffffffffffff168152505081602001518360c0019073ffffffffffffffffffffffffffffffffffffffff16908173ffffffffffffffffffffffffffffffffffffffff168152505081604001518360a0019073ffffffffffffffffffffffffffffffffffffffff16908173ffffffffffffffffffffffffffffffffffffffff1681525050610cbf610cb083600001516118ad565b83600001518460200151611a9e565b836040018181525050610ce7610cd883600001516118ad565b83600001518460400151611b62565b836060018181525050610d0f610d0083600001516118ad565b8360000151846040015161196a565b836000018181525050610d37610d2883600001516118ad565b8360000151846020015161196a565b836020018181525050805167ffffffffffffffff81118015610d5857600080fd5b50604051908082528060200260200182016040528015610d9257816020015b610d7f612335565b815260200190600190039081610d775790505b508360e0018190525060008360000151610dc1670de0b6b3a76400008660200151611a2e90919063ffffffff16565b81610dc857fe5b04905060005b8251811015611002576000670de0b6b3a7640000610e108760600151868581518110610df657fe5b602002602001015160600151611a2e90919063ffffffff16565b81610e1757fe5b0490506000610eb6858481518110610e2b57fe5b602002602001015160200151610e56670de0b6b3a76400008a60200151611a2e90919063ffffffff16565b610ea0610e91898881518110610e6857fe5b602002602001015160400151670de0b6b3a7640000018c60000151611a2e90919063ffffffff16565b86611a2e90919063ffffffff16565b81610ea757fe5b04611c2690919063ffffffff16565b90506060600060019050868581518110610ecc57fe5b602002602001015160800151610efb57868581518110610ee857fe5b6020026020010151600001518611610f16565b868581518110610f0757fe5b60200260200101516000015186105b15610f5c57600090506040518060400160405280601881526020017f507269636520746172676574206e6f74207265616368656400000000000000008152509150610fa6565b8860400151831115610fa557600090506040518060400160405280602081526020017f496e63656e74697665206578636565647320737570706c792062616c616e636581525091505b5b60405180606001604052808215158152602001838152602001888781518110610fcb57fe5b60200260200101518152508960e001518681518110610fe657fe5b6020026020010181905250505050508080600101915050610dce565b505050505b90565b600061101461163e565b90508060040160009054906101000a900473ffffffffffffffffffffffffffffffffffffffff1673ffffffffffffffffffffffffffffffffffffffff168160000160009054906101000a900473ffffffffffffffffffffffffffffffffffffffff1673ffffffffffffffffffffffffffffffffffffffff16146110cc576040517f08c379a00000000000000000000000000000000000000000000000000000000081526004016110c390612f68565b60405180910390fd5b6110d46117f1565b60000160006110e3919061235e565b50565b6110ee612382565b6110f66117f1565b600001828154811061110457fe5b90600052602060002090600502016040518060a0016040529081600082015481526020016001820154815260200160028201548152602001600382015481526020016004820160009054906101000a900460ff1615151515815250509050919050565b60006001151561117561166b565b60000160003273ffffffffffffffffffffffffffffffffffffffff1673ffffffffffffffffffffffffffffffffffffffff16815260200190815260200160002060009054906101000a900460ff16151514611205576040517f08c379a00000000000000000000000000000000000000000000000000000000081526004016111fc90612f48565b60405180910390fd5b61120d612382565b6112156117f1565b600001848154811061122357fe5b90600052602060002090600502016040518060a0016040529081600082015481526020016001820154815260200160028201548152602001600382015481526020016004820160009054906101000a900460ff161515151581525050905061128a84611698565b611292612244565b61129a611880565b6040518060800160405290816000820160009054906101000a900473ffffffffffffffffffffffffffffffffffffffff1673ffffffffffffffffffffffffffffffffffffffff1673ffffffffffffffffffffffffffffffffffffffff1681526020016001820160009054906101000a900473ffffffffffffffffffffffffffffffffffffffff1673ffffffffffffffffffffffffffffffffffffffff1673ffffffffffffffffffffffffffffffffffffffff1681526020016002820160009054906101000a900473ffffffffffffffffffffffffffffffffffffffff1673ffffffffffffffffffffffffffffffffffffffff1673ffffffffffffffffffffffffffffffffffffffff168152602001600382015481525050905060008160000151905060008260200151905060008360400151905060006113d9846118ad565b905060006113e882868661196a565b905060006113f783878661196a565b905087608001511561147257876000015181611424670de0b6b3a764000085611a2e90919063ffffffff16565b8161142b57fe5b04101561146d576040517f08c379a000000000000000000000000000000000000000000000000000000000815260040161146490612f88565b60405180910390fd5b6114dd565b876000015181611493670de0b6b3a764000085611a2e90919063ffffffff16565b8161149a57fe5b0411156114dc576040517f08c379a00000000000000000000000000000000000000000000000000000000081526004016114d390612f88565b60405180910390fd5b5b6000670de0b6b3a76400006115096114f6868a89611b62565b8b60600151611a2e90919063ffffffff16565b8161151057fe5b04905060006115818a60200151611538670de0b6b3a764000087611a2e90919063ffffffff16565b61156b61155c8e60400151670de0b6b3a76400000188611a2e90919063ffffffff16565b86611a2e90919063ffffffff16565b8161157257fe5b04611c2690919063ffffffff16565b9050600061158d61163e565b60000160009054906101000a900473ffffffffffffffffffffffffffffffffffffffff1690508c156115e7576115e68130858a73ffffffffffffffffffffffffffffffffffffffff16611c7b909392919063ffffffff16565b5b6115f3868a8986611d04565b6115ff868a8a85611dac565b61162a81838a73ffffffffffffffffffffffffffffffffffffffff16611e559092919063ffffffff16565b819b50505050505050505050505092915050565b6000807fadbb89e904f74d44d0d104c851da4f2fa24de8f1dee64f038923bb940f37d53a90508091505090565b6000807f66812a03430ebb684b2380e81672842e472a0c6fd364c571be5eb22c59dbb0b790508091505090565b60006116a26117f1565b90506000816000018054905090508083106116f2576040517f08c379a00000000000000000000000000000000000000000000000000000000081526004016116e990613008565b60405180910390fd5b6001810383146117925781600001600182038154811061170e57fe5b906000526020600020906005020182600001848154811061172b57fe5b9060005260206000209060050201600082015481600001556001820154816001015560028201548160020155600382015481600301556004820160009054906101000a900460ff168160040160006101000a81548160ff0219169083151502179055509050505b8160000180548061179f57fe5b60019003818190600052602060002090600502016000808201600090556001820160009055600282016000905560038201600090556004820160006101000a81549060ff021916905550509055505050565b6000807fb51bdc7cd98f38ba50227dc2098602aa9272e97c313e50af0f3c4f4f271a50c290508091505090565b60008073ffffffffffffffffffffffffffffffffffffffff1661183f611880565b60000160009054906101000a900473ffffffffffffffffffffffffffffffffffffffff1673ffffffffffffffffffffffffffffffffffffffff161415905090565b6000807f8278faaeed8149083abb50630b1bee29cf32152ad9a9c9145fe4b38fa3f9c4e890508091505090565b60006118b761163e565b60020160009054906101000a900473ffffffffffffffffffffffffffffffffffffffff1673ffffffffffffffffffffffffffffffffffffffff166342dfa789836040518263ffffffff1660e01b81526004016119139190612e45565b60206040518083038186803b15801561192b57600080fd5b505afa15801561193f573d6000803e3d6000fd5b505050506040513d601f19601f8201168201806040525081019061196391906124a5565b9050919050565b60006060611a0e63b84c743b60e01b858560405160240161198c929190612e60565b604051602081830303815290604052907bffffffffffffffffffffffffffffffffffffffffffffffffffffffff19166020820180517bffffffffffffffffffffffffffffffffffffffffffffffffffffffff83818316178352505050508673ffffffffffffffffffffffffffffffffffffffff16611edb90919063ffffffff16565b905080806020019051810190611a24919061255c565b9150509392505050565b600080831415611a415760009050611a98565b6000828402905082848281611a5257fe5b0414611a93576040517f08c379a0000000000000000000000000000000000000000000000000000000008152600401611a8a90613048565b60405180910390fd5b809150505b92915050565b60006060611b4263ba37773160e01b8585604051602401611ac0929190612e60565b604051602081830303815290604052907bffffffffffffffffffffffffffffffffffffffffffffffffffffffff19166020820180517bffffffffffffffffffffffffffffffffffffffffffffffffffffffff83818316178352505050508673ffffffffffffffffffffffffffffffffffffffff16611edb90919063ffffffff16565b905080806020019051810190611b58919061255c565b9150509392505050565b60006060611c0663118e31b760e01b8585604051602401611b84929190612e60565b604051602081830303815290604052907bffffffffffffffffffffffffffffffffffffffffffffffffffffffff19166020820180517bffffffffffffffffffffffffffffffffffffffffffffffffffffffff83818316178352505050508673ffffffffffffffffffffffffffffffffffffffff16611edb90919063ffffffff16565b905080806020019051810190611c1c919061255c565b9150509392505050565b600080828401905083811015611c71576040517f08c379a0000000000000000000000000000000000000000000000000000000008152600401611c6890612fa8565b60405180910390fd5b8091505092915050565b611cfe846323b872dd60e01b858585604051602401611c9c93929190612e89565b604051602081830303815290604052907bffffffffffffffffffffffffffffffffffffffffffffffffffffffff19166020820180517bffffffffffffffffffffffffffffffffffffffffffffffffffffffff8381831617835250505050611f08565b50505050565b611da56220311b60e01b848484604051602401611d2393929190612e89565b604051602081830303815290604052907bffffffffffffffffffffffffffffffffffffffffffffffffffffffff19166020820180517bffffffffffffffffffffffffffffffffffffffffffffffffffffffff83818316178352505050508573ffffffffffffffffffffffffffffffffffffffff16611edb90919063ffffffff16565b5050505050565b611e4e631c009d7160e01b848484604051602401611dcc93929190612e89565b604051602081830303815290604052907bffffffffffffffffffffffffffffffffffffffffffffffffffffffff19166020820180517bffffffffffffffffffffffffffffffffffffffffffffffffffffffff83818316178352505050508573ffffffffffffffffffffffffffffffffffffffff16611edb90919063ffffffff16565b5050505050565b611ed68363a9059cbb60e01b8484604051602401611e74929190612ec0565b604051602081830303815290604052907bffffffffffffffffffffffffffffffffffffffffffffffffffffffff19166020820180517bffffffffffffffffffffffffffffffffffffffffffffffffffffffff8381831617835250505050611f08565b505050565b6060611f0083836040518060600160405280602781526020016132e760279139611fcf565b905092915050565b6060611f6a826040518060400160405280602081526020017f5361666545524332303a206c6f772d6c6576656c2063616c6c206661696c65648152508573ffffffffffffffffffffffffffffffffffffffff1661209d9092919063ffffffff16565b9050600081511115611fca5780806020019051810190611f8a919061250a565b611fc9576040517f08c379a0000000000000000000000000000000000000000000000000000000008152600401611fc0906130c8565b60405180910390fd5b5b505050565b6060611fda846120b5565b612019576040517f08c379a000000000000000000000000000000000000000000000000000000000815260040161201090613068565b60405180910390fd5b600060608573ffffffffffffffffffffffffffffffffffffffff16856040516120429190612e2e565b600060405180830381855af49150503d806000811461207d576040519150601f19603f3d011682016040523d82523d6000602084013e612082565b606091505b50915091506120928282866120c8565b925050509392505050565b60606120ac848460008561212f565b90509392505050565b600080823b905060008111915050919050565b606083156120d857829050612128565b6000835111156120eb5782518084602001fd5b816040517f08c379a000000000000000000000000000000000000000000000000000000000815260040161211f9190612f26565b60405180910390fd5b9392505050565b606082471015612174576040517f08c379a000000000000000000000000000000000000000000000000000000000815260040161216b90612fc8565b60405180910390fd5b61217d856120b5565b6121bc576040517f08c379a00000000000000000000000000000000000000000000000000000000081526004016121b3906130a8565b60405180910390fd5b600060608673ffffffffffffffffffffffffffffffffffffffff1685876040516121e69190612e2e565b60006040518083038185875af1925050503d8060008114612223576040519150601f19603f3d011682016040523d82523d6000602084013e612228565b606091505b50915091506122388282866120c8565b92505050949350505050565b6040518060800160405280600073ffffffffffffffffffffffffffffffffffffffff168152602001600073ffffffffffffffffffffffffffffffffffffffff168152602001600073ffffffffffffffffffffffffffffffffffffffff168152602001600081525090565b60405180610100016040528060008152602001600081526020016000815260200160008152602001600073ffffffffffffffffffffffffffffffffffffffff168152602001600073ffffffffffffffffffffffffffffffffffffffff168152602001600073ffffffffffffffffffffffffffffffffffffffff168152602001606081525090565b604051806060016040528060001515815260200160608152602001612358612382565b81525090565b508054600082556005029060005260206000209081019061237f91906123b3565b50565b6040518060a00160405280600081526020016000815260200160008152602001600081526020016000151581525090565b5b808211156123fa576000808201600090556001820160009055600282016000905560038201600090556004820160006101000a81549060ff0219169055506005016123b4565b5090565b60008135905061240d816132a1565b92915050565b600081519050612422816132a1565b92915050565b600081359050612437816132b8565b92915050565b60008151905061244c816132b8565b92915050565b600081359050612461816132cf565b92915050565b600081519050612476816132cf565b92915050565b60006020828403121561248e57600080fd5b600061249c848285016123fe565b91505092915050565b6000602082840312156124b757600080fd5b60006124c584828501612413565b91505092915050565b600080604083850312156124e157600080fd5b60006124ef858286016123fe565b925050602061250085828601612428565b9150509250929050565b60006020828403121561251c57600080fd5b600061252a8482850161243d565b91505092915050565b60006020828403121561254557600080fd5b600061255384828501612452565b91505092915050565b60006020828403121561256e57600080fd5b600061257c84828501612467565b91505092915050565b6000806040838503121561259857600080fd5b60006125a685828601612452565b92505060206125b785828601612428565b9150509250929050565b60008060008060008060c087890312156125da57600080fd5b60006125e889828a01612452565b96505060206125f989828a01612452565b955050604061260a89828a01612452565b945050606061261b89828a01612452565b935050608061262c89828a016123fe565b92505060a061263d89828a01612428565b9150509295509295509295565b60006126568383612c40565b60a08301905092915050565b600061266e8383612d10565b905092915050565b61267f81613215565b82525050565b61268e81613215565b82525050565b600061269f82613180565b6126a981856131c6565b93506126b483613160565b8060005b838110156126e55781516126cc888261264a565b97506126d7836131ac565b9250506001810190506126b8565b5085935050505092915050565b60006126fd8261318b565b61270781856131d7565b93508360208202850161271985613170565b8060005b8581101561275557848403895281516127368582612662565b9450612741836131b9565b925060208a0199505060018101905061271d565b50829750879550505050505092915050565b61277081613227565b82525050565b61277f81613227565b82525050565b600061279082613196565b61279a81856131e8565b93506127aa81856020860161325d565b80840191505092915050565b60006127c1826131a1565b6127cb81856131f3565b93506127db81856020860161325d565b6127e481613290565b840191505092915050565b60006127fa826131a1565b6128048185613204565b935061281481856020860161325d565b61281d81613290565b840191505092915050565b6000612835600583613204565b91507f57504e4c340000000000000000000000000000000000000000000000000000006000830152602082019050919050565b6000612875600383613204565b91507f46413200000000000000000000000000000000000000000000000000000000006000830152602082019050919050565b60006128b5600583613204565b91507f57504e4c350000000000000000000000000000000000000000000000000000006000830152602082019050919050565b60006128f5601b83613204565b91507f536166654d6174683a206164646974696f6e206f766572666c6f7700000000006000830152602082019050919050565b6000612935602683613204565b91507f416464726573733a20696e73756666696369656e742062616c616e636520666f60008301527f722063616c6c00000000000000000000000000000000000000000000000000006020830152604082019050919050565b600061299b600583613204565b91507f57504e4c310000000000000000000000000000000000000000000000000000006000830152602082019050919050565b60006129db600583613204565b91507f57504e4c360000000000000000000000000000000000000000000000000000006000830152602082019050919050565b6000612a1b600583613204565b91507f57504e4c320000000000000000000000000000000000000000000000000000006000830152602082019050919050565b6000612a5b602183613204565b91507f536166654d6174683a206d756c7469706c69636174696f6e206f766572666c6f60008301527f77000000000000000000000000000000000000000000000000000000000000006020830152604082019050919050565b6000612ac1602683613204565b91507f416464726573733a2064656c65676174652063616c6c20746f206e6f6e2d636f60008301527f6e747261637400000000000000000000000000000000000000000000000000006020830152604082019050919050565b6000612b27600383613204565b91507f53503100000000000000000000000000000000000000000000000000000000006000830152602082019050919050565b6000612b67601d83613204565b91507f416464726573733a2063616c6c20746f206e6f6e2d636f6e74726163740000006000830152602082019050919050565b6000612ba7602a83613204565b91507f5361666545524332303a204552433230206f7065726174696f6e20646964206e60008301527f6f742073756363656564000000000000000000000000000000000000000000006020830152604082019050919050565b6000612c0d600583613204565b91507f57504e4c330000000000000000000000000000000000000000000000000000006000830152602082019050919050565b60a082016000820151612c566000850182612e10565b506020820151612c696020850182612e10565b506040820151612c7c6040850182612e10565b506060820151612c8f6060850182612e10565b506080820151612ca26080850182612767565b50505050565b60a082016000820151612cbe6000850182612e10565b506020820151612cd16020850182612e10565b506040820151612ce46040850182612e10565b506060820151612cf76060850182612e10565b506080820151612d0a6080850182612767565b50505050565b600060e083016000830151612d286000860182612767565b5060208301518482036020860152612d4082826127b6565b9150506040830151612d556040860182612c40565b508091505092915050565b600061010083016000830151612d796000860182612e10565b506020830151612d8c6020860182612e10565b506040830151612d9f6040860182612e10565b506060830151612db26060860182612e10565b506080830151612dc56080860182612676565b5060a0830151612dd860a0860182612676565b5060c0830151612deb60c0860182612676565b5060e083015184820360e0860152612e0382826126f2565b9150508091505092915050565b612e1981613253565b82525050565b612e2881613253565b82525050565b6000612e3a8284612785565b915081905092915050565b6000602082019050612e5a6000830184612685565b92915050565b6000604082019050612e756000830185612685565b612e826020830184612685565b9392505050565b6000606082019050612e9e6000830186612685565b612eab6020830185612685565b612eb86040830184612e1f565b949350505050565b6000604082019050612ed56000830185612685565b612ee26020830184612e1f565b9392505050565b60006020820190508181036000830152612f038184612694565b905092915050565b6000602082019050612f206000830184612776565b92915050565b60006020820190508181036000830152612f4081846127ef565b905092915050565b60006020820190508181036000830152612f6181612828565b9050919050565b60006020820190508181036000830152612f8181612868565b9050919050565b60006020820190508181036000830152612fa1816128a8565b9050919050565b60006020820190508181036000830152612fc1816128e8565b9050919050565b60006020820190508181036000830152612fe181612928565b9050919050565b600060208201905081810360008301526130018161298e565b9050919050565b60006020820190508181036000830152613021816129ce565b9050919050565b6000602082019050818103600083015261304181612a0e565b9050919050565b6000602082019050818103600083015261306181612a4e565b9050919050565b6000602082019050818103600083015261308181612ab4565b9050919050565b600060208201905081810360008301526130a181612b1a565b9050919050565b600060208201905081810360008301526130c181612b5a565b9050919050565b600060208201905081810360008301526130e181612b9a565b9050919050565b6000602082019050818103600083015261310181612c00565b9050919050565b600060a08201905061311d6000830184612ca8565b92915050565b6000602082019050818103600083015261313d8184612d60565b905092915050565b600060208201905061315a6000830184612e1f565b92915050565b6000819050602082019050919050565b6000819050602082019050919050565b600081519050919050565b600081519050919050565b600081519050919050565b600081519050919050565b6000602082019050919050565b6000602082019050919050565b600082825260208201905092915050565b600082825260208201905092915050565b600081905092915050565b600082825260208201905092915050565b600082825260208201905092915050565b600061322082613233565b9050919050565b60008115159050919050565b600073ffffffffffffffffffffffffffffffffffffffff82169050919050565b6000819050919050565b60005b8381101561327b578082015181840152602081019050613260565b8381111561328a576000848401525b50505050565b6000601f19601f8301169050919050565b6132aa81613215565b81146132b557600080fd5b50565b6132c181613227565b81146132cc57600080fd5b50565b6132d881613253565b81146132e357600080fd5b5056fe416464726573733a206c6f772d6c6576656c2064656c65676174652063616c6c206661696c6564a2646970667358221220d9a275014ea4d7407c05942d35b33e625cc3017017318259bd2821c7978f928a64736f6c634300060c0033",
  "devdoc": {
    "kind": "dev",
    "methods": {},
    "version": 1
  },
  "userdoc": {
    "kind": "user",
    "methods": {},
    "version": 1
  },
  "storageLayout": {
    "storage": [],
    "types": null
  }
}