{
  "address": "0x50Db5a86C290fFd54f20FF15fA3505A0F94c0D3b",
  "abi": [
    {
      "inputs": [
        {
          "internalType": "address",
          "name": "_router",
          "type": "address"
        }
      ],
      "stateMutability": "nonpayable",
      "type": "constructor"
    },
    {
      "inputs": [],
      "name": "ROUTER",
      "outputs": [
        {
          "internalType": "address",
          "name": "",
          "type": "address"
        }
      ],
      "stateMutability": "view",
      "type": "function"
    },
    {
      "inputs": [
        {
          "internalType": "address",
          "name": "fromToken",
          "type": "address"
        },
        {
          "internalType": "address",
          "name": "toToken",
          "type": "address"
        },
        {
          "internalType": "uint256",
          "name": "fromAmount",
          "type": "uint256"
        },
        {
          "internalType": "uint256",
          "name": "minToAmount",
          "type": "uint256"
        },
        {
          "internalType": "bytes",
          "name": "exchangeData",
          "type": "bytes"
        }
      ],
      "name": "exchange",
      "outputs": [
        {
          "internalType": "uint256",
          "name": "",
          "type": "uint256"
        }
      ],
      "stateMutability": "nonpayable",
      "type": "function"
    },
    {
      "inputs": [
        {
          "internalType": "address",
          "name": "",
          "type": "address"
        },
        {
          "internalType": "address",
          "name": "",
          "type": "address"
        },
        {
          "internalType": "uint256",
          "name": "",
          "type": "uint256"
        }
      ],
      "name": "getAmountIn",
      "outputs": [
        {
          "internalType": "uint256",
          "name": "",
          "type": "uint256"
        }
      ],
      "stateMutability": "view",
      "type": "function"
    },
    {
      "inputs": [
        {
          "internalType": "address",
          "name": "",
          "type": "address"
        },
        {
          "internalType": "address",
          "name": "",
          "type": "address"
        },
        {
          "internalType": "uint256",
          "name": "",
          "type": "uint256"
        }
      ],
      "name": "getAmountOut",
      "outputs": [
        {
          "internalType": "uint256",
          "name": "",
          "type": "uint256"
        }
      ],
      "stateMutability": "view",
      "type": "function"
    },
    {
      "inputs": [
        {
          "internalType": "address",
          "name": "",
          "type": "address"
        },
        {
          "internalType": "address",
          "name": "",
          "type": "address"
        },
        {
          "internalType": "uint256",
          "name": "",
          "type": "uint256"
        },
        {
          "internalType": "uint256",
          "name": "",
          "type": "uint256"
        }
      ],
      "name": "swapFromExact",
      "outputs": [
        {
          "internalType": "uint256",
          "name": "",
          "type": "uint256"
        }
      ],
      "stateMutability": "nonpayable",
      "type": "function"
    },
    {
      "inputs": [
        {
          "internalType": "address",
          "name": "",
          "type": "address"
        },
        {
          "internalType": "address",
          "name": "",
          "type": "address"
        },
        {
          "internalType": "uint256",
          "name": "",
          "type": "uint256"
        },
        {
          "internalType": "uint256",
          "name": "",
          "type": "uint256"
        }
      ],
      "name": "swapToExact",
      "outputs": [
        {
          "internalType": "uint256",
          "name": "",
          "type": "uint256"
        }
      ],
      "stateMutability": "nonpayable",
      "type": "function"
    }
  ],
  "transactionHash": "0x64e3171e73c185705b9d4cf7da7a8c0b63c049940b2c2a4256035f07ba95e8fb",
  "args": [
    "0x10ED43C718714eb63d5aA57B78B54704E256024E"
  ],
  "numDeployments": 1,
  "solcInputHash": "709d3a481e3906ba47b8ef089777f2b9",
  "bytecode": "0x60a060405234801561001057600080fd5b50604051610cff380380610cff8339818101604052602081101561003357600080fd5b50516001600160a01b038116610079576040805162461bcd60e51b815260206004808301919091526024820152630494350360e41b604482015290519081900360640190fd5b606081901b6001600160601b0319166080526001600160a01b0316610c4a6100b5600039806101ea5280610466528061048f5250610c4a6000f3fe608060405234801561001057600080fd5b50600436106100725760003560e01c8063705e12e811610050578063705e12e8146100fd578063ba5cdd3b146100fd578063d9e3be1c1461014657610072565b806332fe7b26146100775780634aa06652146100a857806353b609b5146100a8575b600080fd5b61007f6101e8565b6040805173ffffffffffffffffffffffffffffffffffffffff9092168252519081900360200190f35b6100eb600480360360608110156100be57600080fd5b5073ffffffffffffffffffffffffffffffffffffffff81358116916020810135909116906040013561020c565b60408051918252519081900360200190f35b6100eb6004803603608081101561011357600080fd5b5073ffffffffffffffffffffffffffffffffffffffff81358116916020810135909116906040810135906060013561020c565b6100eb600480360360a081101561015c57600080fd5b73ffffffffffffffffffffffffffffffffffffffff823581169260208101359091169160408201359160608101359181019060a0810160808201356401000000008111156101a957600080fd5b8201836020820111156101bb57600080fd5b803590602001918460018302840111640100000000831117156101dd57600080fd5b509092509050610275565b7f000000000000000000000000000000000000000000000000000000000000000081565b604080517f08c379a000000000000000000000000000000000000000000000000000000000815260206004820152600f60248201527f6e6f7420696d706c656d656e74656400000000000000000000000000000000006044820152905160009181900360640190fd5b600060608383604081101561028957600080fd5b7fff0000000000000000000000000000000000000000000000000000000000000082351691908101906040810160208201356401000000008111156102cd57600080fd5b8201836020820111156102df57600080fd5b8035906020019184602083028401116401000000008311171561030157600080fd5b919080806020026020016040519081016040528093929190818152602001838360200280828437600081840152601f19601f8201169050808301925050505050505091929192905050509150508773ffffffffffffffffffffffffffffffffffffffff168160008151811061037257fe5b602002602001015173ffffffffffffffffffffffffffffffffffffffff161480156103df57508673ffffffffffffffffffffffffffffffffffffffff16816001835103815181106103bf57fe5b602002602001015173ffffffffffffffffffffffffffffffffffffffff16145b61044a57604080517f08c379a000000000000000000000000000000000000000000000000000000000815260206004820152601160248201527f5045413a20696e76616c69642070617468000000000000000000000000000000604482015290519081900360640190fd5b61048b73ffffffffffffffffffffffffffffffffffffffff89167f000000000000000000000000000000000000000000000000000000000000000088610683565b60607f000000000000000000000000000000000000000000000000000000000000000073ffffffffffffffffffffffffffffffffffffffff166338ed173988888530426040518663ffffffff1660e01b815260040180868152602001858152602001806020018473ffffffffffffffffffffffffffffffffffffffff168152602001838152602001828103825285818151815260200191508051906020019060200280838360005b8381101561054b578181015183820152602001610533565b505050509050019650505050505050600060405180830381600087803b15801561057457600080fd5b505af1158015610588573d6000803e3d6000fd5b505050506040513d6000823e601f3d9081017fffffffffffffffffffffffffffffffffffffffffffffffffffffffffffffffe016820160405260208110156105cf57600080fd5b81019080805160405193929190846401000000008211156105ef57600080fd5b90830190602082018581111561060457600080fd5b825186602082028301116401000000008211171561062157600080fd5b82525081516020918201928201910280838360005b8381101561064e578181015183820152602001610636565b5050505090500160405250505090508060018351038151811061066d57fe5b6020026020010151925050509695505050505050565b6000610740828573ffffffffffffffffffffffffffffffffffffffff1663dd62ed3e30876040518363ffffffff1660e01b8152600401808373ffffffffffffffffffffffffffffffffffffffff1681526020018273ffffffffffffffffffffffffffffffffffffffff1681526020019250505060206040518083038186803b15801561070e57600080fd5b505afa158015610722573d6000803e3d6000fd5b505050506040513d602081101561073857600080fd5b5051906107d6565b6040805173ffffffffffffffffffffffffffffffffffffffff8616602482015260448082018490528251808303909101815260649091019091526020810180517bffffffffffffffffffffffffffffffffffffffffffffffffffffffff167f095ea7b3000000000000000000000000000000000000000000000000000000001790529091506107d0908590610851565b50505050565b60008282018381101561084a57604080517f08c379a000000000000000000000000000000000000000000000000000000000815260206004820152601b60248201527f536166654d6174683a206164646974696f6e206f766572666c6f770000000000604482015290519081900360640190fd5b9392505050565b60606108b3826040518060400160405280602081526020017f5361666545524332303a206c6f772d6c6576656c2063616c6c206661696c65648152508573ffffffffffffffffffffffffffffffffffffffff1661092e9092919063ffffffff16565b805190915015610929578080602001905160208110156108d257600080fd5b5051610929576040517f08c379a000000000000000000000000000000000000000000000000000000000815260040180806020018281038252602a815260200180610beb602a913960400191505060405180910390fd5b505050565b606061093d8484600085610945565b949350505050565b6060824710156109a0576040517f08c379a0000000000000000000000000000000000000000000000000000000008152600401808060200182810382526026815260200180610bc56026913960400191505060405180910390fd5b6109a985610b00565b610a1457604080517f08c379a000000000000000000000000000000000000000000000000000000000815260206004820152601d60248201527f416464726573733a2063616c6c20746f206e6f6e2d636f6e7472616374000000604482015290519081900360640190fd5b600060608673ffffffffffffffffffffffffffffffffffffffff1685876040518082805190602001908083835b60208310610a7e57805182527fffffffffffffffffffffffffffffffffffffffffffffffffffffffffffffffe09092019160209182019101610a41565b6001836020036101000a03801982511681845116808217855250505050505090500191505060006040518083038185875af1925050503d8060008114610ae0576040519150601f19603f3d011682016040523d82523d6000602084013e610ae5565b606091505b5091509150610af5828286610b06565b979650505050505050565b3b151590565b60608315610b1557508161084a565b825115610b255782518084602001fd5b816040517f08c379a00000000000000000000000000000000000000000000000000000000081526004018080602001828103825283818151815260200191508051906020019080838360005b83811015610b89578181015183820152602001610b71565b50505050905090810190601f168015610bb65780820380516001836020036101000a031916815260200191505b509250505060405180910390fdfe416464726573733a20696e73756666696369656e742062616c616e636520666f722063616c6c5361666545524332303a204552433230206f7065726174696f6e20646964206e6f742073756363656564a2646970667358221220ad2f78d40e1e3f37a6165bcabfe979df0931326286371baa7d71f69f495282bc64736f6c634300060c0033"
}