{
  "address": "0x5CF30c3d934c11774416beCDc225d58e600eFfd7",
  "abi": [
    {
      "inputs": [
        {
          "internalType": "address",
          "name": "_token",
          "type": "address"
        }
      ],
      "stateMutability": "nonpayable",
      "type": "constructor"
    },
    {
      "anonymous": false,
      "inputs": [
        {
          "indexed": false,
          "internalType": "address",
          "name": "user",
          "type": "address"
        },
        {
          "indexed": false,
          "internalType": "uint256",
          "name": "amountReceived",
          "type": "uint256"
        },
        {
          "indexed": false,
          "internalType": "uint256",
          "name": "tax",
          "type": "uint256"
        }
      ],
      "name": "Claim",
      "type": "event"
    },
    {
      "anonymous": false,
      "inputs": [
        {
          "indexed": false,
          "internalType": "bytes32",
          "name": "merkleRoot",
          "type": "bytes32"
        },
        {
          "indexed": false,
          "internalType": "string",
          "name": "reason",
          "type": "string"
        }
      ],
      "name": "NewMerkleRoot",
      "type": "event"
    },
    {
      "anonymous": false,
      "inputs": [
        {
          "indexed": true,
          "internalType": "address",
          "name": "previousOwner",
          "type": "address"
        },
        {
          "indexed": true,
          "internalType": "address",
          "name": "newOwner",
          "type": "address"
        }
      ],
      "name": "OwnershipTransferred",
      "type": "event"
    },
    {
      "inputs": [
        {
          "internalType": "uint256",
          "name": "maxAmount",
          "type": "uint256"
        },
        {
          "components": [
            {
              "internalType": "bytes32",
              "name": "merkleRoot",
              "type": "bytes32"
            },
            {
              "internalType": "uint256",
              "name": "amountAvailable",
              "type": "uint256"
            },
            {
              "internalType": "bytes32[]",
              "name": "merkleProof",
              "type": "bytes32[]"
            }
          ],
          "internalType": "struct RewardsDistributor.MerkleClaim[]",
          "name": "claims",
          "type": "tuple[]"
        }
      ],
      "name": "claim",
      "outputs": [
        {
          "internalType": "uint256",
          "name": "amountReceived",
          "type": "uint256"
        },
        {
          "internalType": "uint256",
          "name": "totalTax",
          "type": "uint256"
        }
      ],
      "stateMutability": "nonpayable",
      "type": "function"
    },
    {
      "inputs": [],
      "name": "owner",
      "outputs": [
        {
          "internalType": "address",
          "name": "",
          "type": "address"
        }
      ],
      "stateMutability": "view",
      "type": "function"
    },
    {
      "inputs": [
        {
          "internalType": "bytes32",
          "name": "newMerkleRoot",
          "type": "bytes32"
        },
        {
          "internalType": "uint256",
          "name": "taxingPeriod",
          "type": "uint256"
        },
        {
          "internalType": "string",
          "name": "reason",
          "type": "string"
        }
      ],
      "name": "publishMerkleRoot",
      "outputs": [],
      "stateMutability": "nonpayable",
      "type": "function"
    },
    {
      "inputs": [
        {
          "internalType": "address",
          "name": "tokenAddress",
          "type": "address"
        },
        {
          "internalType": "uint256",
          "name": "tokenAmount",
          "type": "uint256"
        }
      ],
      "name": "recoverERC20",
      "outputs": [],
      "stateMutability": "nonpayable",
      "type": "function"
    },
    {
      "inputs": [],
      "name": "renounceOwnership",
      "outputs": [],
      "stateMutability": "nonpayable",
      "type": "function"
    },
    {
      "inputs": [
        {
          "internalType": "bytes32",
          "name": "",
          "type": "bytes32"
        }
      ],
      "name": "schedule",
      "outputs": [
        {
          "internalType": "uint256",
          "name": "startTime",
          "type": "uint256"
        },
        {
          "internalType": "uint256",
          "name": "taxingPeriod",
          "type": "uint256"
        }
      ],
      "stateMutability": "view",
      "type": "function"
    },
    {
      "inputs": [
        {
          "internalType": "address",
          "name": "_treasury",
          "type": "address"
        }
      ],
      "name": "setTreasury",
      "outputs": [],
      "stateMutability": "nonpayable",
      "type": "function"
    },
    {
      "inputs": [],
      "name": "token",
      "outputs": [
        {
          "internalType": "address",
          "name": "",
          "type": "address"
        }
      ],
      "stateMutability": "view",
      "type": "function"
    },
    {
      "inputs": [
        {
          "internalType": "address",
          "name": "newOwner",
          "type": "address"
        }
      ],
      "name": "transferOwnership",
      "outputs": [],
      "stateMutability": "nonpayable",
      "type": "function"
    },
    {
      "inputs": [],
      "name": "treasury",
      "outputs": [
        {
          "internalType": "address",
          "name": "",
          "type": "address"
        }
      ],
      "stateMutability": "view",
      "type": "function"
    },
    {
      "inputs": [
        {
          "internalType": "address",
          "name": "",
          "type": "address"
        },
        {
          "internalType": "bytes32",
          "name": "",
          "type": "bytes32"
        }
      ],
      "name": "userClaims",
      "outputs": [
        {
          "internalType": "uint256",
          "name": "",
          "type": "uint256"
        }
      ],
      "stateMutability": "view",
      "type": "function"
    }
  ],
  "transactionHash": "0x569742bd31e5532928e11a27789b2e2517f66c4916acb8a7db1955733dd559fa",
  "args": [
    "0x43f5b29D63ceDC5a7c1724dbB1D698FDe05Ada21"
  ],
  "numDeployments": 1,
  "solcInputHash": "cb2b555a0048792d10549f6fdf26cab3",
  "bytecode": "0x60a06040523480156200001157600080fd5b506040516200223138038062002231833981810160405281019062000037919062000185565b6000620000496200016660201b60201c565b9050806000806101000a81548173ffffffffffffffffffffffffffffffffffffffff021916908373ffffffffffffffffffffffffffffffffffffffff1602179055508073ffffffffffffffffffffffffffffffffffffffff16600073ffffffffffffffffffffffffffffffffffffffff167f8be0079c531659141344cd1fd0a4f28419497f9722a3daafe3b4186f6b6457e060405160405180910390a3508073ffffffffffffffffffffffffffffffffffffffff1660808173ffffffffffffffffffffffffffffffffffffffff1660601b8152505033600160006101000a81548173ffffffffffffffffffffffffffffffffffffffff021916908373ffffffffffffffffffffffffffffffffffffffff16021790555050620001ff565b600033905090565b6000815190506200017f81620001e5565b92915050565b6000602082840312156200019857600080fd5b6000620001a8848285016200016e565b91505092915050565b6000620001be82620001c5565b9050919050565b600073ffffffffffffffffffffffffffffffffffffffff82169050919050565b620001f081620001b1565b8114620001fc57600080fd5b50565b60805160601c61200a620002276000398061042b52806104985280610a5b525061200a6000f3fe608060405234801561001057600080fd5b50600436106100a95760003560e01c80638980f11f116100715780638980f11f146101545780638da5cb5b14610170578063a59863861461018e578063f0f44260146101be578063f2fde38b146101da578063fc0c546a146101f6576100a9565b80633e564a93146100ae578063548eac04146100ca578063548ffe41146100fb57806361d027b31461012c578063715018a61461014a575b600080fd5b6100c860048036038101906100c3919061143d565b610214565b005b6100e460048036038101906100df9190611414565b610360565b6040516100f2929190611d70565b60405180910390f35b610115600480360381019061011091906114a9565b610384565b604051610123929190611d70565b60405180910390f35b610134610520565b6040516101419190611ac6565b60405180910390f35b610152610546565b005b61016e600480360381019061016991906113af565b610680565b005b610178610732565b6040516101859190611ac6565b60405180910390f35b6101a860048036038101906101a39190611373565b61075b565b6040516101b59190611d55565b60405180910390f35b6101d860048036038101906101d3919061134a565b610780565b005b6101f460048036038101906101ef919061134a565b6108b0565b005b6101fe610a59565b60405161020b9190611ac6565b60405180910390f35b61021c610a7d565b73ffffffffffffffffffffffffffffffffffffffff1661023a610732565b73ffffffffffffffffffffffffffffffffffffffff1614610290576040517f08c379a000000000000000000000000000000000000000000000000000000000815260040161028790611c95565b60405180910390fd5b60006002600086815260200190815260200160002060000154146102e9576040517f08c379a00000000000000000000000000000000000000000000000000000000081526004016102e090611cd5565b60405180910390fd5b4260026000868152602001908152602001600020600001819055508260026000868152602001908152602001600020600101819055507f3e57f4d4086dab6b2475e2261f413697d0d601bc1f1075a42a05675d3421b42884838360405161035293929190611b41565b60405180910390a150505050565b60026020528060005260406000206000915090508060000154908060010154905082565b600080600080600090505b86821080156103a057508585905081105b1561040e576000806103d1848a038989868181106103ba57fe5b90506020028101906103cc9190611df0565b610a85565b915091506103e88285610d5a90919063ffffffff16565b93506103fd8186610d5a90919063ffffffff16565b94505050808060010191505061038f565b506104228282610daf90919063ffffffff16565b925061046f33847f000000000000000000000000000000000000000000000000000000000000000073ffffffffffffffffffffffffffffffffffffffff16610dff9092919063ffffffff16565b6104dc600160009054906101000a900473ffffffffffffffffffffffffffffffffffffffff16837f000000000000000000000000000000000000000000000000000000000000000073ffffffffffffffffffffffffffffffffffffffff16610dff9092919063ffffffff16565b7f34fcbac0073d7c3d388e51312faf357774904998eeb8fca628b9e6f65ee1cbf733848460405161050f93929190611ae1565b60405180910390a150935093915050565b600160009054906101000a900473ffffffffffffffffffffffffffffffffffffffff1681565b61054e610a7d565b73ffffffffffffffffffffffffffffffffffffffff1661056c610732565b73ffffffffffffffffffffffffffffffffffffffff16146105c2576040517f08c379a00000000000000000000000000000000000000000000000000000000081526004016105b990611c95565b60405180910390fd5b600073ffffffffffffffffffffffffffffffffffffffff1660008054906101000a900473ffffffffffffffffffffffffffffffffffffffff1673ffffffffffffffffffffffffffffffffffffffff167f8be0079c531659141344cd1fd0a4f28419497f9722a3daafe3b4186f6b6457e060405160405180910390a360008060006101000a81548173ffffffffffffffffffffffffffffffffffffffff021916908373ffffffffffffffffffffffffffffffffffffffff160217905550565b610688610a7d565b73ffffffffffffffffffffffffffffffffffffffff166106a6610732565b73ffffffffffffffffffffffffffffffffffffffff16146106fc576040517f08c379a00000000000000000000000000000000000000000000000000000000081526004016106f390611c95565b60405180910390fd5b61072e610707610732565b828473ffffffffffffffffffffffffffffffffffffffff16610dff9092919063ffffffff16565b5050565b60008060009054906101000a900473ffffffffffffffffffffffffffffffffffffffff16905090565b6003602052816000526040600020602052806000526040600020600091509150505481565b610788610a7d565b73ffffffffffffffffffffffffffffffffffffffff166107a6610732565b73ffffffffffffffffffffffffffffffffffffffff16146107fc576040517f08c379a00000000000000000000000000000000000000000000000000000000081526004016107f390611c95565b60405180910390fd5b600073ffffffffffffffffffffffffffffffffffffffff168173ffffffffffffffffffffffffffffffffffffffff16141561086c576040517f08c379a000000000000000000000000000000000000000000000000000000000815260040161086390611d15565b60405180910390fd5b80600160006101000a81548173ffffffffffffffffffffffffffffffffffffffff021916908373ffffffffffffffffffffffffffffffffffffffff16021790555050565b6108b8610a7d565b73ffffffffffffffffffffffffffffffffffffffff166108d6610732565b73ffffffffffffffffffffffffffffffffffffffff161461092c576040517f08c379a000000000000000000000000000000000000000000000000000000000815260040161092390611c95565b60405180910390fd5b600073ffffffffffffffffffffffffffffffffffffffff168173ffffffffffffffffffffffffffffffffffffffff16141561099c576040517f08c379a000000000000000000000000000000000000000000000000000000000815260040161099390611bb5565b60405180910390fd5b8073ffffffffffffffffffffffffffffffffffffffff1660008054906101000a900473ffffffffffffffffffffffffffffffffffffffff1673ffffffffffffffffffffffffffffffffffffffff167f8be0079c531659141344cd1fd0a4f28419497f9722a3daafe3b4186f6b6457e060405160405180910390a3806000806101000a81548173ffffffffffffffffffffffffffffffffffffffff021916908373ffffffffffffffffffffffffffffffffffffffff16021790555050565b7f000000000000000000000000000000000000000000000000000000000000000081565b600033905090565b6000806000338460200135604051602001610aa1929190611a57565b604051602081830303815290604052805190602001209050610b17848060400190610acc9190611d99565b80806020026020016040519081016040528093929190818152602001838360200280828437600081840152601f19601f82011690508083019250505050505050856000013583610e85565b610b56576040517f08c379a0000000000000000000000000000000000000000000000000000000008152600401610b4d90611cb5565b60405180910390fd5b600060026000866000013581526020019081526020016000206000015490506000811415610bb9576040517f08c379a0000000000000000000000000000000000000000000000000000000008152600401610bb090611b95565b60405180910390fd5b6000600360003373ffffffffffffffffffffffffffffffffffffffff1673ffffffffffffffffffffffffffffffffffffffff16815260200190815260200160002060008760000135815260200190815260200160002054905085602001358110610c58576040517f08c379a0000000000000000000000000000000000000000000000000000000008152600401610c4f90611bf5565b60405180910390fd5b6000818760200135039050808810610c705780610c72565b875b9550610c878683610d5a90919063ffffffff16565b600360003373ffffffffffffffffffffffffffffffffffffffff1673ffffffffffffffffffffffffffffffffffffffff16815260200190815260200160002060008960000135815260200190815260200160002081905550600060026000896000013581526020019081526020016000206001015490506000610d138286610d5a90919063ffffffff16565b9050804210610d23576000610d4b565b610d4a82610d3c4284038b610f2e90919063ffffffff16565b610f9e90919063ffffffff16565b5b96505050505050509250929050565b600080828401905083811015610da5576040517f08c379a0000000000000000000000000000000000000000000000000000000008152600401610d9c90611bd5565b60405180910390fd5b8091505092915050565b600082821115610df4576040517f08c379a0000000000000000000000000000000000000000000000000000000008152600401610deb90611c15565b60405180910390fd5b818303905092915050565b610e808363a9059cbb60e01b8484604051602401610e1e929190611b18565b604051602081830303815290604052907bffffffffffffffffffffffffffffffffffffffffffffffffffffffff19166020820180517bffffffffffffffffffffffffffffffffffffffffffffffffffffffff8381831617835250505050610ff4565b505050565b60008082905060005b8551811015610f20576000868281518110610ea557fe5b60200260200101519050808311610ee6578281604051602001610ec9929190611a83565b604051602081830303815290604052805190602001209250610f12565b8083604051602001610ef9929190611a83565b6040516020818303038152906040528051906020012092505b508080600101915050610e8e565b508381149150509392505050565b600080831415610f415760009050610f98565b6000828402905082848281610f5257fe5b0414610f93576040517f08c379a0000000000000000000000000000000000000000000000000000000008152600401610f8a90611c75565b60405180910390fd5b809150505b92915050565b6000808211610fe2576040517f08c379a0000000000000000000000000000000000000000000000000000000008152600401610fd990611c55565b60405180910390fd5b818381610feb57fe5b04905092915050565b6060611056826040518060400160405280602081526020017f5361666545524332303a206c6f772d6c6576656c2063616c6c206661696c65648152508573ffffffffffffffffffffffffffffffffffffffff166110bb9092919063ffffffff16565b90506000815111156110b6578080602001905181019061107691906113eb565b6110b5576040517f08c379a00000000000000000000000000000000000000000000000000000000081526004016110ac90611d35565b60405180910390fd5b5b505050565b60606110ca84846000856110d3565b90509392505050565b606082471015611118576040517f08c379a000000000000000000000000000000000000000000000000000000000815260040161110f90611c35565b60405180910390fd5b611121856111e8565b611160576040517f08c379a000000000000000000000000000000000000000000000000000000000815260040161115790611cf5565b60405180910390fd5b600060608673ffffffffffffffffffffffffffffffffffffffff16858760405161118a9190611aaf565b60006040518083038185875af1925050503d80600081146111c7576040519150601f19603f3d011682016040523d82523d6000602084013e6111cc565b606091505b50915091506111dc8282866111fb565b92505050949350505050565b600080823b905060008111915050919050565b6060831561120b5782905061125b565b60008351111561121e5782518084602001fd5b816040517f08c379a00000000000000000000000000000000000000000000000000000000081526004016112529190611b73565b60405180910390fd5b9392505050565b60008135905061127181611f78565b92915050565b60008083601f84011261128957600080fd5b8235905067ffffffffffffffff8111156112a257600080fd5b6020830191508360208202830111156112ba57600080fd5b9250929050565b6000815190506112d081611f8f565b92915050565b6000813590506112e581611fa6565b92915050565b60008083601f8401126112fd57600080fd5b8235905067ffffffffffffffff81111561131657600080fd5b60208301915083600182028301111561132e57600080fd5b9250929050565b60008135905061134481611fbd565b92915050565b60006020828403121561135c57600080fd5b600061136a84828501611262565b91505092915050565b6000806040838503121561138657600080fd5b600061139485828601611262565b92505060206113a5858286016112d6565b9150509250929050565b600080604083850312156113c257600080fd5b60006113d085828601611262565b92505060206113e185828601611335565b9150509250929050565b6000602082840312156113fd57600080fd5b600061140b848285016112c1565b91505092915050565b60006020828403121561142657600080fd5b6000611434848285016112d6565b91505092915050565b6000806000806060858703121561145357600080fd5b6000611461878288016112d6565b945050602061147287828801611335565b935050604085013567ffffffffffffffff81111561148f57600080fd5b61149b878288016112eb565b925092505092959194509250565b6000806000604084860312156114be57600080fd5b60006114cc86828701611335565b935050602084013567ffffffffffffffff8111156114e957600080fd5b6114f586828701611277565b92509250509250925092565b61150a81611eaa565b82525050565b61152161151c82611e58565b611f22565b82525050565b61153081611e46565b82525050565b61153f81611e76565b82525050565b61155661155182611e76565b611f34565b82525050565b600061156782611e14565b6115718185611e2a565b9350611581818560208601611eef565b80840191505092915050565b60006115998385611e35565b93506115a6838584611ee0565b6115af83611f5a565b840190509392505050565b60006115c582611e1f565b6115cf8185611e35565b93506115df818560208601611eef565b6115e881611f5a565b840191505092915050565b6000611600601f83611e35565b91507f54686973206d65726b6c6520726f6f7420646f6573206e6f74206578697374006000830152602082019050919050565b6000611640602683611e35565b91507f4f776e61626c653a206e6577206f776e657220697320746865207a65726f206160008301527f64647265737300000000000000000000000000000000000000000000000000006020830152604082019050919050565b60006116a6601b83611e35565b91507f536166654d6174683a206164646974696f6e206f766572666c6f7700000000006000830152602082019050919050565b60006116e6602483611e35565b91507f54686973206d65726b6c6520726f6f742077617320616c726561647920636c6160008301527f696d6564000000000000000000000000000000000000000000000000000000006020830152604082019050919050565b600061174c601e83611e35565b91507f536166654d6174683a207375627472616374696f6e206f766572666c6f7700006000830152602082019050919050565b600061178c602683611e35565b91507f416464726573733a20696e73756666696369656e742062616c616e636520666f60008301527f722063616c6c00000000000000000000000000000000000000000000000000006020830152604082019050919050565b60006117f2601a83611e35565b91507f536166654d6174683a206469766973696f6e206279207a65726f0000000000006000830152602082019050919050565b6000611832602183611e35565b91507f536166654d6174683a206d756c7469706c69636174696f6e206f766572666c6f60008301527f77000000000000000000000000000000000000000000000000000000000000006020830152604082019050919050565b6000611898602083611e35565b91507f4f776e61626c653a2063616c6c6572206973206e6f7420746865206f776e65726000830152602082019050919050565b60006118d8601483611e35565b91507f496e76616c6964206d65726b6c652070726f6f660000000000000000000000006000830152602082019050919050565b6000611918601583611e35565b91507f4d65726b6c6520726f6f74206475706c696361746500000000000000000000006000830152602082019050919050565b6000611958601d83611e35565b91507f416464726573733a2063616c6c20746f206e6f6e2d636f6e74726163740000006000830152602082019050919050565b6000611998601883611e35565b91507f43616e6e6f742073657420747265617375727920746f203000000000000000006000830152602082019050919050565b60006119d8602a83611e35565b91507f5361666545524332303a204552433230206f7065726174696f6e20646964206e60008301527f6f742073756363656564000000000000000000000000000000000000000000006020830152604082019050919050565b611a3a81611ea0565b82525050565b611a51611a4c82611ea0565b611f50565b82525050565b6000611a638285611510565b601482019150611a738284611a40565b6020820191508190509392505050565b6000611a8f8285611545565b602082019150611a9f8284611545565b6020820191508190509392505050565b6000611abb828461155c565b915081905092915050565b6000602082019050611adb6000830184611527565b92915050565b6000606082019050611af66000830186611501565b611b036020830185611a31565b611b106040830184611a31565b949350505050565b6000604082019050611b2d6000830185611527565b611b3a6020830184611a31565b9392505050565b6000604082019050611b566000830186611536565b8181036020830152611b6981848661158d565b9050949350505050565b60006020820190508181036000830152611b8d81846115ba565b905092915050565b60006020820190508181036000830152611bae816115f3565b9050919050565b60006020820190508181036000830152611bce81611633565b9050919050565b60006020820190508181036000830152611bee81611699565b9050919050565b60006020820190508181036000830152611c0e816116d9565b9050919050565b60006020820190508181036000830152611c2e8161173f565b9050919050565b60006020820190508181036000830152611c4e8161177f565b9050919050565b60006020820190508181036000830152611c6e816117e5565b9050919050565b60006020820190508181036000830152611c8e81611825565b9050919050565b60006020820190508181036000830152611cae8161188b565b9050919050565b60006020820190508181036000830152611cce816118cb565b9050919050565b60006020820190508181036000830152611cee8161190b565b9050919050565b60006020820190508181036000830152611d0e8161194b565b9050919050565b60006020820190508181036000830152611d2e8161198b565b9050919050565b60006020820190508181036000830152611d4e816119cb565b9050919050565b6000602082019050611d6a6000830184611a31565b92915050565b6000604082019050611d856000830185611a31565b611d926020830184611a31565b9392505050565b60008083356001602003843603038112611db257600080fd5b80840192508235915067ffffffffffffffff821115611dd057600080fd5b602083019250602082023603831315611de857600080fd5b509250929050565b600082356001606003833603038112611e0857600080fd5b80830191505092915050565b600081519050919050565b600081519050919050565b600081905092915050565b600082825260208201905092915050565b6000611e5182611e80565b9050919050565b6000611e6382611e80565b9050919050565b60008115159050919050565b6000819050919050565b600073ffffffffffffffffffffffffffffffffffffffff82169050919050565b6000819050919050565b6000611eb582611ebc565b9050919050565b6000611ec782611ece565b9050919050565b6000611ed982611e80565b9050919050565b82818337600083830152505050565b60005b83811015611f0d578082015181840152602081019050611ef2565b83811115611f1c576000848401525b50505050565b6000611f2d82611f3e565b9050919050565b6000819050919050565b6000611f4982611f6b565b9050919050565b6000819050919050565b6000601f19601f8301169050919050565b60008160601b9050919050565b611f8181611e46565b8114611f8c57600080fd5b50565b611f9881611e6a565b8114611fa357600080fd5b50565b611faf81611e76565b8114611fba57600080fd5b50565b611fc681611ea0565b8114611fd157600080fd5b5056fea26469706673582212206350597c10292312ea6a9bd9ba3cf2bd6d631f211df44e78a2421b0b0cabed7664736f6c634300060c0033",
  "devdoc": {
    "kind": "dev",
    "methods": {
      "owner()": {
        "details": "Returns the address of the current owner."
      },
      "recoverERC20(address,uint256)": {
        "details": "Added to support recovering tokens sent by mistake or from airdrops"
      },
      "renounceOwnership()": {
        "details": "Leaves the contract without owner. It will not be possible to call `onlyOwner` functions anymore. Can only be called by the current owner. NOTE: Renouncing ownership will leave the contract without an owner, thereby removing any functionality that is only available to the owner."
      },
      "setTreasury(address)": {
        "details": "Added to support migrating the treasury"
      },
      "transferOwnership(address)": {
        "details": "Transfers ownership of the contract to a new account (`newOwner`). Can only be called by the current owner."
      }
    },
    "stateVariables": {
      "userClaims": {
        "details": "(user => (merkleRoot => amount_claimed))"
      }
    },
    "version": 1
  },
  "userdoc": {
    "kind": "user",
    "methods": {
      "claim(uint256,(bytes32,uint256,bytes32[])[])": {
        "notice": "Claim up to maxAmount from claims, taxing if necessary"
      },
      "publishMerkleRoot(bytes32,uint256,string)": {
        "notice": "Publish a new merkle root with a taxingPeriod and reason"
      },
      "schedule(bytes32)": {
        "notice": "Maps a merkle root to its taxing schedule (startTime, taxingPeriod)"
      }
    },
    "notice": "This is a rewards distributor contract which implements a tax model designed to incetivise long term supporters of the protocol. Rewards are distributed by publishing merkle roots. Users can submit merkle proofs to partially or fully withdraw their rewards at any time but there is a `taxingPeriod` that applies to each merkle root. During this time rewards are taxed in proportion to the time remaining until the end of the `taxingPeriod`: tax = amount * (taxingPeriodEnd - now) / taxingPeriod Collected taxes will be distributed back to the community via merkle roots.",
    "version": 1
  },
  "storageLayout": {
    "storage": [
      {
        "astId": 493,
        "contract": "contracts/FodlRewards/RewardsDistributor.sol:RewardsDistributor",
        "label": "_owner",
        "offset": 0,
        "slot": "0",
        "type": "t_address"
      },
      {
        "astId": 16055,
        "contract": "contracts/FodlRewards/RewardsDistributor.sol:RewardsDistributor",
        "label": "treasury",
        "offset": 0,
        "slot": "1",
        "type": "t_address"
      },
      {
        "astId": 16060,
        "contract": "contracts/FodlRewards/RewardsDistributor.sol:RewardsDistributor",
        "label": "schedule",
        "offset": 0,
        "slot": "2",
        "type": "t_mapping(t_bytes32,t_struct(Schedule)16037_storage)"
      },
      {
        "astId": 16067,
        "contract": "contracts/FodlRewards/RewardsDistributor.sol:RewardsDistributor",
        "label": "userClaims",
        "offset": 0,
        "slot": "3",
        "type": "t_mapping(t_address,t_mapping(t_bytes32,t_uint256))"
      }
    ],
    "types": {
      "t_address": {
        "encoding": "inplace",
        "label": "address",
        "numberOfBytes": "20"
      },
      "t_bytes32": {
        "encoding": "inplace",
        "label": "bytes32",
        "numberOfBytes": "32"
      },
      "t_mapping(t_address,t_mapping(t_bytes32,t_uint256))": {
        "encoding": "mapping",
        "key": "t_address",
        "label": "mapping(address => mapping(bytes32 => uint256))",
        "numberOfBytes": "32",
        "value": "t_mapping(t_bytes32,t_uint256)"
      },
      "t_mapping(t_bytes32,t_struct(Schedule)16037_storage)": {
        "encoding": "mapping",
        "key": "t_bytes32",
        "label": "mapping(bytes32 => struct RewardsDistributor.Schedule)",
        "numberOfBytes": "32",
        "value": "t_struct(Schedule)16037_storage"
      },
      "t_mapping(t_bytes32,t_uint256)": {
        "encoding": "mapping",
        "key": "t_bytes32",
        "label": "mapping(bytes32 => uint256)",
        "numberOfBytes": "32",
        "value": "t_uint256"
      },
      "t_struct(Schedule)16037_storage": {
        "encoding": "inplace",
        "label": "struct RewardsDistributor.Schedule",
        "members": [
          {
            "astId": 16034,
            "contract": "contracts/FodlRewards/RewardsDistributor.sol:RewardsDistributor",
            "label": "startTime",
            "offset": 0,
            "slot": "0",
            "type": "t_uint256"
          },
          {
            "astId": 16036,
            "contract": "contracts/FodlRewards/RewardsDistributor.sol:RewardsDistributor",
            "label": "taxingPeriod",
            "offset": 0,
            "slot": "1",
            "type": "t_uint256"
          }
        ],
        "numberOfBytes": "64"
      },
      "t_uint256": {
        "encoding": "inplace",
        "label": "uint256",
        "numberOfBytes": "32"
      }
    }
  }
}