{
  "address": "0x6c1a23A685228E8850fB472562a16648D5CDBbae",
  "abi": [
    {
      "inputs": [
        {
          "internalType": "address",
          "name": "wbnbAddress",
          "type": "address"
        },
        {
          "internalType": "address",
          "name": "vTokenProviderAddress",
          "type": "address"
        }
      ],
      "stateMutability": "nonpayable",
      "type": "constructor"
    },
    {
      "inputs": [],
      "name": "WBNB",
      "outputs": [
        {
          "internalType": "contract IWETH",
          "name": "",
          "type": "address"
        }
      ],
      "stateMutability": "view",
      "type": "function"
    },
    {
      "inputs": [
        {
          "internalType": "address",
          "name": "platform",
          "type": "address"
        },
        {
          "internalType": "address",
          "name": "token",
          "type": "address"
        }
      ],
      "name": "accrueInterest",
      "outputs": [],
      "stateMutability": "nonpayable",
      "type": "function"
    },
    {
      "inputs": [
        {
          "internalType": "address",
          "name": "platform",
          "type": "address"
        },
        {
          "internalType": "address",
          "name": "token",
          "type": "address"
        },
        {
          "internalType": "uint256",
          "name": "amount",
          "type": "uint256"
        }
      ],
      "name": "borrow",
      "outputs": [],
      "stateMutability": "nonpayable",
      "type": "function"
    },
    {
      "inputs": [
        {
          "internalType": "address",
          "name": "platform",
          "type": "address"
        }
      ],
      "name": "claimRewards",
      "outputs": [
        {
          "internalType": "address",
          "name": "rewardsToken",
          "type": "address"
        },
        {
          "internalType": "uint256",
          "name": "rewardsAmount",
          "type": "uint256"
        }
      ],
      "stateMutability": "nonpayable",
      "type": "function"
    },
    {
      "inputs": [
        {
          "internalType": "address",
          "name": "platform",
          "type": "address"
        },
        {
          "internalType": "address[]",
          "name": "markets",
          "type": "address[]"
        }
      ],
      "name": "enterMarkets",
      "outputs": [],
      "stateMutability": "nonpayable",
      "type": "function"
    },
    {
      "inputs": [
        {
          "internalType": "address",
          "name": "platform",
          "type": "address"
        },
        {
          "internalType": "address",
          "name": "asset",
          "type": "address"
        }
      ],
      "name": "getAssetMetadata",
      "outputs": [
        {
          "components": [
            {
              "internalType": "address",
              "name": "assetAddress",
              "type": "address"
            },
            {
              "internalType": "string",
              "name": "assetSymbol",
              "type": "string"
            },
            {
              "internalType": "uint8",
              "name": "assetDecimals",
              "type": "uint8"
            },
            {
              "internalType": "uint256",
              "name": "referencePrice",
              "type": "uint256"
            },
            {
              "internalType": "uint256",
              "name": "totalLiquidity",
              "type": "uint256"
            },
            {
              "internalType": "uint256",
              "name": "totalSupply",
              "type": "uint256"
            },
            {
              "internalType": "uint256",
              "name": "totalBorrow",
              "type": "uint256"
            },
            {
              "internalType": "uint256",
              "name": "totalReserves",
              "type": "uint256"
            },
            {
              "internalType": "uint256",
              "name": "supplyAPR",
              "type": "uint256"
            },
            {
              "internalType": "uint256",
              "name": "borrowAPR",
              "type": "uint256"
            },
            {
              "internalType": "address",
              "name": "rewardTokenAddress",
              "type": "address"
            },
            {
              "internalType": "string",
              "name": "rewardTokenSymbol",
              "type": "string"
            },
            {
              "internalType": "uint8",
              "name": "rewardTokenDecimals",
              "type": "uint8"
            },
            {
              "internalType": "uint256",
              "name": "estimatedSupplyRewardsPerYear",
              "type": "uint256"
            },
            {
              "internalType": "uint256",
              "name": "estimatedBorrowRewardsPerYear",
              "type": "uint256"
            },
            {
              "internalType": "uint256",
              "name": "collateralFactor",
              "type": "uint256"
            },
            {
              "internalType": "uint256",
              "name": "liquidationFactor",
              "type": "uint256"
            },
            {
              "internalType": "bool",
              "name": "canSupply",
              "type": "bool"
            },
            {
              "internalType": "bool",
              "name": "canBorrow",
              "type": "bool"
            }
          ],
          "internalType": "struct AssetMetadata",
          "name": "assetMetadata",
          "type": "tuple"
        }
      ],
      "stateMutability": "nonpayable",
      "type": "function"
    },
    {
      "inputs": [
        {
          "internalType": "address",
          "name": "platform",
          "type": "address"
        },
        {
          "internalType": "address",
          "name": "token",
          "type": "address"
        }
      ],
      "name": "getBorrowBalance",
      "outputs": [
        {
          "internalType": "uint256",
          "name": "borrowBalance",
          "type": "uint256"
        }
      ],
      "stateMutability": "nonpayable",
      "type": "function"
    },
    {
      "inputs": [
        {
          "internalType": "address",
          "name": "platform",
          "type": "address"
        },
        {
          "internalType": "address",
          "name": "asset",
          "type": "address"
        }
      ],
      "name": "getCollateralFactorForAsset",
      "outputs": [
        {
          "internalType": "uint256",
          "name": "collateralFactor",
          "type": "uint256"
        }
      ],
      "stateMutability": "nonpayable",
      "type": "function"
    },
    {
      "inputs": [
        {
          "internalType": "address",
          "name": "platform",
          "type": "address"
        }
      ],
      "name": "getCollateralUsageFactor",
      "outputs": [
        {
          "internalType": "uint256",
          "name": "",
          "type": "uint256"
        }
      ],
      "stateMutability": "nonpayable",
      "type": "function"
    },
    {
      "inputs": [
        {
          "internalType": "address",
          "name": "platform",
          "type": "address"
        },
        {
          "internalType": "address",
          "name": "token",
          "type": "address"
        }
      ],
      "name": "getLiquidity",
      "outputs": [
        {
          "internalType": "uint256",
          "name": "",
          "type": "uint256"
        }
      ],
      "stateMutability": "nonpayable",
      "type": "function"
    },
    {
      "inputs": [
        {
          "internalType": "address",
          "name": "platform",
          "type": "address"
        },
        {
          "internalType": "address",
          "name": "token",
          "type": "address"
        }
      ],
      "name": "getReferencePrice",
      "outputs": [
        {
          "internalType": "uint256",
          "name": "",
          "type": "uint256"
        }
      ],
      "stateMutability": "nonpayable",
      "type": "function"
    },
    {
      "inputs": [
        {
          "internalType": "address",
          "name": "platform",
          "type": "address"
        },
        {
          "internalType": "address",
          "name": "token",
          "type": "address"
        }
      ],
      "name": "getSupplyBalance",
      "outputs": [
        {
          "internalType": "uint256",
          "name": "supplyBalance",
          "type": "uint256"
        }
      ],
      "stateMutability": "nonpayable",
      "type": "function"
    },
    {
      "inputs": [
        {
          "internalType": "address",
          "name": "platform",
          "type": "address"
        },
        {
          "internalType": "address",
          "name": "token",
          "type": "address"
        }
      ],
      "name": "redeemAll",
      "outputs": [],
      "stateMutability": "nonpayable",
      "type": "function"
    },
    {
      "inputs": [
        {
          "internalType": "address",
          "name": "platform",
          "type": "address"
        },
        {
          "internalType": "address",
          "name": "token",
          "type": "address"
        },
        {
          "internalType": "uint256",
          "name": "amount",
          "type": "uint256"
        }
      ],
      "name": "redeemSupply",
      "outputs": [],
      "stateMutability": "nonpayable",
      "type": "function"
    },
    {
      "inputs": [
        {
          "internalType": "address",
          "name": "platform",
          "type": "address"
        },
        {
          "internalType": "address",
          "name": "token",
          "type": "address"
        },
        {
          "internalType": "uint256",
          "name": "amount",
          "type": "uint256"
        }
      ],
      "name": "repayBorrow",
      "outputs": [],
      "stateMutability": "nonpayable",
      "type": "function"
    },
    {
      "inputs": [
        {
          "internalType": "address",
          "name": "platform",
          "type": "address"
        },
        {
          "internalType": "address",
          "name": "token",
          "type": "address"
        },
        {
          "internalType": "uint256",
          "name": "amount",
          "type": "uint256"
        }
      ],
      "name": "supply",
      "outputs": [],
      "stateMutability": "nonpayable",
      "type": "function"
    },
    {
      "inputs": [],
      "name": "vTokenProvider",
      "outputs": [
        {
          "internalType": "contract ICTokenProvider",
          "name": "",
          "type": "address"
        }
      ],
      "stateMutability": "view",
      "type": "function"
    },
    {
      "stateMutability": "payable",
      "type": "receive"
    }
  ],
  "transactionHash": "0x2d9906ef3ea19516a5d5c6826e6a0b8e3c2704d35449214ce955516b49891f3e",
  "args": [
    "0xbb4CdB9CBd36B01bD1cBaEBF2De08d9173bc095c",
    "0x92e782BaDab8D21dde8CC2aaE06e5cEB61d23139"
  ],
  "numDeployments": 1,
  "solcInputHash": "a1d0fc063f36c243d2c17f3d57656226",
  "bytecode": "0x60c06040523480156200001157600080fd5b5060405162004461380380620044618339818101604052810190620000379190620001aa565b600073ffffffffffffffffffffffffffffffffffffffff168273ffffffffffffffffffffffffffffffffffffffff161415620000aa576040517f08c379a0000000000000000000000000000000000000000000000000000000008152600401620000a1906200022d565b60405180910390fd5b600073ffffffffffffffffffffffffffffffffffffffff168173ffffffffffffffffffffffffffffffffffffffff1614156200011d576040517f08c379a000000000000000000000000000000000000000000000000000000000815260040162000114906200022d565b60405180910390fd5b8173ffffffffffffffffffffffffffffffffffffffff1660808173ffffffffffffffffffffffffffffffffffffffff1660601b815250508073ffffffffffffffffffffffffffffffffffffffff1660a08173ffffffffffffffffffffffffffffffffffffffff1660601b815250505050620002ae565b600081519050620001a48162000294565b92915050565b60008060408385031215620001be57600080fd5b6000620001ce8582860162000193565b9250506020620001e18582860162000193565b9150509250929050565b6000620001fa6004836200024f565b91507f49435030000000000000000000000000000000000000000000000000000000006000830152602082019050919050565b600060208201905081810360008301526200024881620001eb565b9050919050565b600082825260208201905092915050565b60006200026d8262000274565b9050919050565b600073ffffffffffffffffffffffffffffffffffffffff82169050919050565b6200029f8162000260565b8114620002ab57600080fd5b50565b60805160601c60a05160601c6141526200030f600039806128e8528061290e52508061047b52806104cf528061071552806107695280610b615280610bb55280610f9a5280610fee52806110775280611f775280611fcb52506141526000f3fe6080604052600436106101015760003560e01c8063b47fa24f11610095578063ea526de711610064578063ea526de71461034b578063eed1a08c14610388578063ef5cfb8c146103c5578063ef84867014610403578063f0599f041461044057610108565b8063b47fa24f1461027f578063b84c743b146102a8578063ba377731146102e5578063c143ffbb1461032257610108565b80634883400d116100d15780634883400d146101c55780635224372c146101ee5780638dd9500214610217578063b29d57d81461024257610108565b806220311b1461010d5780630c0a769b14610136578063118e31b71461015f5780631c009d711461019c57610108565b3661010857005b600080fd5b34801561011957600080fd5b50610134600480360381019061012f91906133b0565b61046b565b005b34801561014257600080fd5b5061015d600480360381019061015891906133b0565b610705565b005b34801561016b57600080fd5b5061018660048036038101906101819190613374565b61099f565b6040516101939190613e5e565b60405180910390f35b3480156101a857600080fd5b506101c360048036038101906101be91906133b0565b610a3d565b005b3480156101d157600080fd5b506101ec60048036038101906101e791906133ff565b610c3c565b005b3480156101fa57600080fd5b50610215600480360381019061021091906133b0565b610e76565b005b34801561022357600080fd5b5061022c611075565b6040516102399190613d1f565b60405180910390f35b34801561024e57600080fd5b5061026960048036038101906102649190613374565b611099565b6040516102769190613e3c565b60405180910390f35b34801561028b57600080fd5b506102a660048036038101906102a19190613374565b611b7c565b005b3480156102b457600080fd5b506102cf60048036038101906102ca9190613374565b611c0a565b6040516102dc9190613e5e565b60405180910390f35b3480156102f157600080fd5b5061030c60048036038101906103079190613374565b611d28565b6040516103199190613e5e565b60405180910390f35b34801561032e57600080fd5b5061034960048036038101906103449190613374565b611dc6565b005b34801561035757600080fd5b50610372600480360381019061036d9190613374565b612064565b60405161037f9190613e5e565b60405180910390f35b34801561039457600080fd5b506103af60048036038101906103aa9190613374565b6121d1565b6040516103bc9190613e5e565b60405180910390f35b3480156103d157600080fd5b506103ec60048036038101906103e79190613322565b612273565b6040516103fa929190613cb9565b60405180910390f35b34801561040f57600080fd5b5061042a60048036038101906104259190613322565b61248e565b6040516104379190613e5e565b60405180910390f35b34801561044c57600080fd5b506104556128e6565b6040516104629190613d04565b60405180910390f35b6000610477848461290a565b90507f000000000000000000000000000000000000000000000000000000000000000073ffffffffffffffffffffffffffffffffffffffff168373ffffffffffffffffffffffffffffffffffffffff1614156105be577f000000000000000000000000000000000000000000000000000000000000000073ffffffffffffffffffffffffffffffffffffffff16632e1a7d4d836040518263ffffffff1660e01b81526004016105269190613e5e565b600060405180830381600087803b15801561054057600080fd5b505af1158015610554573d6000803e3d6000fd5b505050508073ffffffffffffffffffffffffffffffffffffffff16634e4d9fea836040518263ffffffff1660e01b81526004016000604051808303818588803b1580156105a057600080fd5b505af11580156105b4573d6000803e3d6000fd5b50505050506106ff565b6105e981838573ffffffffffffffffffffffffffffffffffffffff166129bf9092919063ffffffff16565b60008173ffffffffffffffffffffffffffffffffffffffff16630e752702846040518263ffffffff1660e01b81526004016106249190613e5e565b602060405180830381600087803b15801561063e57600080fd5b505af1158015610652573d6000803e3d6000fd5b505050506040513d601f19601f820116820180604052508101906106769190613592565b9050600081146106bb6040518060400160405280600c81526020017f56656e75733a207265706179000000000000000000000000000000000000000081525083612ae7565b906106fc576040517f08c379a00000000000000000000000000000000000000000000000000000000081526004016106f39190613d3a565b60405180910390fd5b50505b50505050565b6000610711848461290a565b90507f000000000000000000000000000000000000000000000000000000000000000073ffffffffffffffffffffffffffffffffffffffff168373ffffffffffffffffffffffffffffffffffffffff161415610858577f000000000000000000000000000000000000000000000000000000000000000073ffffffffffffffffffffffffffffffffffffffff16632e1a7d4d836040518263ffffffff1660e01b81526004016107c09190613e5e565b600060405180830381600087803b1580156107da57600080fd5b505af11580156107ee573d6000803e3d6000fd5b505050508073ffffffffffffffffffffffffffffffffffffffff16631249c58b836040518263ffffffff1660e01b81526004016000604051808303818588803b15801561083a57600080fd5b505af115801561084e573d6000803e3d6000fd5b5050505050610999565b61088381838573ffffffffffffffffffffffffffffffffffffffff166129bf9092919063ffffffff16565b60008173ffffffffffffffffffffffffffffffffffffffff1663a0712d68846040518263ffffffff1660e01b81526004016108be9190613e5e565b602060405180830381600087803b1580156108d857600080fd5b505af11580156108ec573d6000803e3d6000fd5b505050506040513d601f19601f820116820180604052508101906109109190613592565b9050600081146109556040518060400160405280600b81526020017f56656e75733a206d696e7400000000000000000000000000000000000000000081525083612ae7565b90610996576040517f08c379a000000000000000000000000000000000000000000000000000000000815260040161098d9190613d3a565b60405180910390fd5b50505b50505050565b60006109ab838361290a565b73ffffffffffffffffffffffffffffffffffffffff166317bfdfbc306040518263ffffffff1660e01b81526004016109e39190613c75565b602060405180830381600087803b1580156109fd57600080fd5b505af1158015610a11573d6000803e3d6000fd5b505050506040513d601f19601f82011682018060405250810190610a359190613592565b905092915050565b6000610a49848461290a565b905060008173ffffffffffffffffffffffffffffffffffffffff1663852a12e3846040518263ffffffff1660e01b8152600401610a869190613e5e565b602060405180830381600087803b158015610aa057600080fd5b505af1158015610ab4573d6000803e3d6000fd5b505050506040513d601f19601f82011682018060405250810190610ad89190613592565b905060008114610b1d6040518060400160405280600d81526020017f56656e75733a2072656465656d0000000000000000000000000000000000000081525083612ae7565b90610b5e576040517f08c379a0000000000000000000000000000000000000000000000000000000008152600401610b559190613d3a565b60405180910390fd5b507f000000000000000000000000000000000000000000000000000000000000000073ffffffffffffffffffffffffffffffffffffffff168473ffffffffffffffffffffffffffffffffffffffff161415610c35577f000000000000000000000000000000000000000000000000000000000000000073ffffffffffffffffffffffffffffffffffffffff1663d0e30db0846040518263ffffffff1660e01b81526004016000604051808303818588803b158015610c1b57600080fd5b505af1158015610c2f573d6000803e3d6000fd5b50505050505b5050505050565b60608282905067ffffffffffffffff81118015610c5857600080fd5b50604051908082528060200260200182016040528015610c875781602001602082028036833780820191505090505b50905060005b83839050811015610d1557610cc285858584818110610ca857fe5b9050602002016020810190610cbd9190613322565b61290a565b828281518110610cce57fe5b602002602001019073ffffffffffffffffffffffffffffffffffffffff16908173ffffffffffffffffffffffffffffffffffffffff16815250508080600101915050610c8d565b5060608473ffffffffffffffffffffffffffffffffffffffff1663c2998238836040518263ffffffff1660e01b8152600401610d519190613ce2565b600060405180830381600087803b158015610d6b57600080fd5b505af1158015610d7f573d6000803e3d6000fd5b505050506040513d6000823e3d601f19601f82011682018060405250810190610da89190613498565b905060005b8151811015610e6e576000828281518110610dc457fe5b602002602001015114610e1f6040518060400160405280601381526020017f56656e75733a20656e7465724d61726b65747300000000000000000000000000815250848481518110610e1257fe5b6020026020010151612ae7565b90610e60576040517f08c379a0000000000000000000000000000000000000000000000000000000008152600401610e579190613d3a565b60405180910390fd5b508080600101915050610dad565b505050505050565b6000610e82848461290a565b905060008173ffffffffffffffffffffffffffffffffffffffff1663c5ebeaec846040518263ffffffff1660e01b8152600401610ebf9190613e5e565b602060405180830381600087803b158015610ed957600080fd5b505af1158015610eed573d6000803e3d6000fd5b505050506040513d601f19601f82011682018060405250810190610f119190613592565b905060008114610f566040518060400160405280600d81526020017f56656e75733a20626f72726f770000000000000000000000000000000000000081525083612ae7565b90610f97576040517f08c379a0000000000000000000000000000000000000000000000000000000008152600401610f8e9190613d3a565b60405180910390fd5b507f000000000000000000000000000000000000000000000000000000000000000073ffffffffffffffffffffffffffffffffffffffff168473ffffffffffffffffffffffffffffffffffffffff16141561106e577f000000000000000000000000000000000000000000000000000000000000000073ffffffffffffffffffffffffffffffffffffffff1663d0e30db0846040518263ffffffff1660e01b81526004016000604051808303818588803b15801561105457600080fd5b505af1158015611068573d6000803e3d6000fd5b50505050505b5050505050565b7f000000000000000000000000000000000000000000000000000000000000000081565b6110a1613038565b60006110ad848461290a565b905060008473ffffffffffffffffffffffffffffffffffffffff16638e8f294b836040518263ffffffff1660e01b81526004016110ea9190613c5a565b60606040518083038186803b15801561110257600080fd5b505afa158015611116573d6000803e3d6000fd5b505050506040513d601f19601f8201168201806040525081019061113a9190613502565b5091505060006111de62a066808773ffffffffffffffffffffffffffffffffffffffff16631abcaa77866040518263ffffffff1660e01b81526004016111809190613c5a565b60206040518083038186803b15801561119857600080fd5b505afa1580156111ac573d6000803e3d6000fd5b505050506040513d601f19601f820116820180604052508101906111d09190613592565b612b1b90919063ffffffff16565b905060008673ffffffffffffffffffffffffffffffffffffffff1663bf32442d6040518163ffffffff1660e01b815260040160206040518083038186803b15801561122857600080fd5b505afa15801561123c573d6000803e3d6000fd5b505050506040513d601f19601f82011682018060405250810190611260919061334b565b905085856000019073ffffffffffffffffffffffffffffffffffffffff16908173ffffffffffffffffffffffffffffffffffffffff16815250508573ffffffffffffffffffffffffffffffffffffffff166395d89b416040518163ffffffff1660e01b815260040160006040518083038186803b1580156112e057600080fd5b505afa1580156112f4573d6000803e3d6000fd5b505050506040513d6000823e3d601f19601f8201168201806040525081019061131d9190613551565b85602001819052508573ffffffffffffffffffffffffffffffffffffffff1663313ce5676040518163ffffffff1660e01b815260040160206040518083038186803b15801561136b57600080fd5b505afa15801561137f573d6000803e3d6000fd5b505050506040513d601f19601f820116820180604052508101906113a3919061360a565b856040019060ff16908160ff16815250508673ffffffffffffffffffffffffffffffffffffffff16637dc0d1d06040518163ffffffff1660e01b815260040160206040518083038186803b1580156113fa57600080fd5b505afa15801561140e573d6000803e3d6000fd5b505050506040513d601f19601f82011682018060405250810190611432919061334b565b73ffffffffffffffffffffffffffffffffffffffff1663fc57d4df856040518263ffffffff1660e01b815260040161146a9190613c5a565b60206040518083038186803b15801561148257600080fd5b505afa158015611496573d6000803e3d6000fd5b505050506040513d601f19601f820116820180604052508101906114ba9190613592565b8560600181815250508373ffffffffffffffffffffffffffffffffffffffff16633b1d21a26040518163ffffffff1660e01b815260040160206040518083038186803b15801561150957600080fd5b505afa15801561151d573d6000803e3d6000fd5b505050506040513d601f19601f820116820180604052508101906115419190613592565b856080018181525050670de0b6b3a76400006116628573ffffffffffffffffffffffffffffffffffffffff1663bd6d894d6040518163ffffffff1660e01b8152600401602060405180830381600087803b15801561159e57600080fd5b505af11580156115b2573d6000803e3d6000fd5b505050506040513d601f19601f820116820180604052508101906115d69190613592565b8673ffffffffffffffffffffffffffffffffffffffff166318160ddd6040518163ffffffff1660e01b815260040160206040518083038186803b15801561161c57600080fd5b505afa158015611630573d6000803e3d6000fd5b505050506040513d601f19601f820116820180604052508101906116549190613592565b612b1b90919063ffffffff16565b8161166957fe5b048560a00181815250508373ffffffffffffffffffffffffffffffffffffffff166373acee986040518163ffffffff1660e01b8152600401602060405180830381600087803b1580156116bb57600080fd5b505af11580156116cf573d6000803e3d6000fd5b505050506040513d601f19601f820116820180604052508101906116f39190613592565b8560c00181815250508373ffffffffffffffffffffffffffffffffffffffff16638f840ddd6040518163ffffffff1660e01b815260040160206040518083038186803b15801561174257600080fd5b505afa158015611756573d6000803e3d6000fd5b505050506040513d601f19601f8201168201806040525081019061177a9190613592565b8560e001818152505061181662a066808573ffffffffffffffffffffffffffffffffffffffff1663ae9d70b06040518163ffffffff1660e01b815260040160206040518083038186803b1580156117d057600080fd5b505afa1580156117e4573d6000803e3d6000fd5b505050506040513d601f19601f820116820180604052508101906118089190613592565b612b1b90919063ffffffff16565b856101000181815250506118b362a066808573ffffffffffffffffffffffffffffffffffffffff1663f8f9da286040518163ffffffff1660e01b815260040160206040518083038186803b15801561186d57600080fd5b505afa158015611881573d6000803e3d6000fd5b505050506040513d601f19601f820116820180604052508101906118a59190613592565b612b1b90919063ffffffff16565b856101200181815250508085610140019073ffffffffffffffffffffffffffffffffffffffff16908173ffffffffffffffffffffffffffffffffffffffff16815250508073ffffffffffffffffffffffffffffffffffffffff1663313ce5676040518163ffffffff1660e01b815260040160206040518083038186803b15801561193c57600080fd5b505afa158015611950573d6000803e3d6000fd5b505050506040513d601f19601f82011682018060405250810190611974919061360a565b85610180019060ff16908160ff16815250508073ffffffffffffffffffffffffffffffffffffffff166395d89b416040518163ffffffff1660e01b815260040160006040518083038186803b1580156119cc57600080fd5b505afa1580156119e0573d6000803e3d6000fd5b505050506040513d6000823e3d601f19601f82011682018060405250810190611a099190613551565b85610160018190525081856101a001818152505081856101c001818152505082856101e001818152505082856102000181815250508673ffffffffffffffffffffffffffffffffffffffff1663731f0c2b856040518263ffffffff1660e01b8152600401611a779190613c5a565b60206040518083038186803b158015611a8f57600080fd5b505afa158015611aa3573d6000803e3d6000fd5b505050506040513d601f19601f82011682018060405250810190611ac791906134d9565b15856102200190151590811515815250508673ffffffffffffffffffffffffffffffffffffffff16636d154ea5856040518263ffffffff1660e01b8152600401611b119190613c5a565b60206040518083038186803b158015611b2957600080fd5b505afa158015611b3d573d6000803e3d6000fd5b505050506040513d601f19601f82011682018060405250810190611b6191906134d9565b15856102400190151590811515815250505050505092915050565b611b86828261290a565b73ffffffffffffffffffffffffffffffffffffffff1663a6afed956040518163ffffffff1660e01b8152600401602060405180830381600087803b158015611bcd57600080fd5b505af1158015611be1573d6000803e3d6000fd5b505050506040513d601f19601f82011682018060405250810190611c059190613592565b505050565b600080611c17848461290a565b90508373ffffffffffffffffffffffffffffffffffffffff16637dc0d1d06040518163ffffffff1660e01b815260040160206040518083038186803b158015611c5f57600080fd5b505afa158015611c73573d6000803e3d6000fd5b505050506040513d601f19601f82011682018060405250810190611c97919061334b565b73ffffffffffffffffffffffffffffffffffffffff1663fc57d4df826040518263ffffffff1660e01b8152600401611ccf9190613c5a565b60206040518083038186803b158015611ce757600080fd5b505afa158015611cfb573d6000803e3d6000fd5b505050506040513d601f19601f82011682018060405250810190611d1f9190613592565b91505092915050565b6000611d34838361290a565b73ffffffffffffffffffffffffffffffffffffffff16633af9e669306040518263ffffffff1660e01b8152600401611d6c9190613c75565b602060405180830381600087803b158015611d8657600080fd5b505af1158015611d9a573d6000803e3d6000fd5b505050506040513d601f19601f82011682018060405250810190611dbe9190613592565b905092915050565b60004790506000611dd7848461290a565b905060008173ffffffffffffffffffffffffffffffffffffffff1663db006a758373ffffffffffffffffffffffffffffffffffffffff166370a08231306040518263ffffffff1660e01b8152600401611e309190613c75565b60206040518083038186803b158015611e4857600080fd5b505afa158015611e5c573d6000803e3d6000fd5b505050506040513d601f19601f82011682018060405250810190611e809190613592565b6040518263ffffffff1660e01b8152600401611e9c9190613e5e565b602060405180830381600087803b158015611eb657600080fd5b505af1158015611eca573d6000803e3d6000fd5b505050506040513d601f19601f82011682018060405250810190611eee9190613592565b905060008114611f336040518060400160405280601081526020017f56656e75733a2072656465656d416c6c0000000000000000000000000000000081525083612ae7565b90611f74576040517f08c379a0000000000000000000000000000000000000000000000000000000008152600401611f6b9190613d3a565b60405180910390fd5b507f000000000000000000000000000000000000000000000000000000000000000073ffffffffffffffffffffffffffffffffffffffff168473ffffffffffffffffffffffffffffffffffffffff16141561205d577f000000000000000000000000000000000000000000000000000000000000000073ffffffffffffffffffffffffffffffffffffffff1663d0e30db06120188547612b8b90919063ffffffff16565b6040518263ffffffff1660e01b81526004016000604051808303818588803b15801561204357600080fd5b505af1158015612057573d6000803e3d6000fd5b50505050505b5050505050565b6000806000808573ffffffffffffffffffffffffffffffffffffffff16635ec88c79306040518263ffffffff1660e01b81526004016120a39190613c75565b60606040518083038186803b1580156120bb57600080fd5b505afa1580156120cf573d6000803e3d6000fd5b505050506040513d601f19601f820116820180604052508101906120f391906135bb565b9250925092506000831480156121095750600081145b6121486040518060400160405280601a81526020017f56656e75733a206765744163636f756e744c697175696469747900000000000081525085612ae7565b90612189576040517f08c379a00000000000000000000000000000000000000000000000000000000081526004016121809190613d3a565b60405180910390fd5b5060006121968787611c0a565b90506121c5816121b7670de0b6b3a764000086612b1b90919063ffffffff16565b612bdb90919063ffffffff16565b94505050505092915050565b60008273ffffffffffffffffffffffffffffffffffffffff16638e8f294b6121f9858561290a565b6040518263ffffffff1660e01b81526004016122159190613c5a565b60606040518083038186803b15801561222d57600080fd5b505afa158015612241573d6000803e3d6000fd5b505050506040513d601f19601f820116820180604052508101906122659190613502565b909150508091505092915050565b6000808273ffffffffffffffffffffffffffffffffffffffff1663bf32442d6040518163ffffffff1660e01b815260040160206040518083038186803b1580156122bc57600080fd5b505afa1580156122d0573d6000803e3d6000fd5b505050506040513d601f19601f820116820180604052508101906122f4919061334b565b91508173ffffffffffffffffffffffffffffffffffffffff166370a08231306040518263ffffffff1660e01b815260040161232f9190613c75565b60206040518083038186803b15801561234757600080fd5b505afa15801561235b573d6000803e3d6000fd5b505050506040513d601f19601f8201168201806040525081019061237f9190613592565b90508273ffffffffffffffffffffffffffffffffffffffff1663adcd5fb9306040518263ffffffff1660e01b81526004016123ba9190613c75565b600060405180830381600087803b1580156123d457600080fd5b505af11580156123e8573d6000803e3d6000fd5b50505050612487818373ffffffffffffffffffffffffffffffffffffffff166370a08231306040518263ffffffff1660e01b81526004016124299190613c75565b60206040518083038186803b15801561244157600080fd5b505afa158015612455573d6000803e3d6000fd5b505050506040513d601f19601f820116820180604052508101906124799190613592565b612b8b90919063ffffffff16565b9050915091565b600080600090506000808473ffffffffffffffffffffffffffffffffffffffff16637dc0d1d06040518163ffffffff1660e01b815260040160206040518083038186803b1580156124de57600080fd5b505afa1580156124f2573d6000803e3d6000fd5b505050506040513d601f19601f82011682018060405250810190612516919061334b565b905060608573ffffffffffffffffffffffffffffffffffffffff1663abfceffc306040518263ffffffff1660e01b81526004016125539190613c75565b60006040518083038186803b15801561256b57600080fd5b505afa15801561257f573d6000803e3d6000fd5b505050506040513d6000823e3d601f19601f820116820180604052508101906125a89190613457565b905060005b815181101561289f5760008282815181106125c457fe5b6020026020010151905060008173ffffffffffffffffffffffffffffffffffffffff166317bfdfbc306040518263ffffffff1660e01b81526004016126099190613c75565b602060405180830381600087803b15801561262357600080fd5b505af1158015612637573d6000803e3d6000fd5b505050506040513d601f19601f8201168201806040525081019061265b9190613592565b905060008273ffffffffffffffffffffffffffffffffffffffff16633af9e669306040518263ffffffff1660e01b81526004016126989190613c75565b602060405180830381600087803b1580156126b257600080fd5b505af11580156126c6573d6000803e3d6000fd5b505050506040513d601f19601f820116820180604052508101906126ea9190613592565b905060008a73ffffffffffffffffffffffffffffffffffffffff16638e8f294b856040518263ffffffff1660e01b81526004016127279190613c5a565b60606040518083038186803b15801561273f57600080fd5b505afa158015612753573d6000803e3d6000fd5b505050506040513d601f19601f820116820180604052508101906127779190613502565b5091505060008773ffffffffffffffffffffffffffffffffffffffff1663fc57d4df866040518263ffffffff1660e01b81526004016127b69190613c5a565b60206040518083038186803b1580156127ce57600080fd5b505afa1580156127e2573d6000803e3d6000fd5b505050506040513d601f19601f820116820180604052508101906128069190613592565b90506128536002670de0b6b3a76400000a61283c8561282e8686612b1b90919063ffffffff16565b612b1b90919063ffffffff16565b8161284357fe5b048b612c3190919063ffffffff16565b995061288b670de0b6b3a76400006128748684612b1b90919063ffffffff16565b8161287b57fe5b048a612c3190919063ffffffff16565b9850505050505080806001019150506125ad565b5060008411156128d857836128c5670de0b6b3a764000085612b1b90919063ffffffff16565b816128cc57fe5b049450505050506128e1565b60009450505050505b919050565b7f000000000000000000000000000000000000000000000000000000000000000081565b60007f000000000000000000000000000000000000000000000000000000000000000073ffffffffffffffffffffffffffffffffffffffff16631cd3c99884846040518363ffffffff1660e01b8152600401612967929190613c90565b60206040518083038186803b15801561297f57600080fd5b505afa158015612993573d6000803e3d6000fd5b505050506040513d601f19601f820116820180604052508101906129b7919061334b565b905092915050565b6000612a5e828573ffffffffffffffffffffffffffffffffffffffff1663dd62ed3e30876040518363ffffffff1660e01b8152600401612a00929190613c90565b60206040518083038186803b158015612a1857600080fd5b505afa158015612a2c573d6000803e3d6000fd5b505050506040513d601f19601f82011682018060405250810190612a509190613592565b612c3190919063ffffffff16565b9050612ae18463095ea7b360e01b8584604051602401612a7f929190613cb9565b604051602081830303815290604052907bffffffffffffffffffffffffffffffffffffffffffffffffffffffff19166020820180517bffffffffffffffffffffffffffffffffffffffffffffffffffffffff8381831617835250505050612c86565b50505050565b606082612af383612d4d565b604051602001612b04929190613c2b565b604051602081830303815290604052905092915050565b600080831415612b2e5760009050612b85565b6000828402905082848281612b3f57fe5b0414612b80576040517f08c379a0000000000000000000000000000000000000000000000000000000008152600401612b7790613ddc565b60405180910390fd5b809150505b92915050565b600082821115612bd0576040517f08c379a0000000000000000000000000000000000000000000000000000000008152600401612bc790613d7c565b60405180910390fd5b818303905092915050565b6000808211612c1f576040517f08c379a0000000000000000000000000000000000000000000000000000000008152600401612c1690613dbc565b60405180910390fd5b818381612c2857fe5b04905092915050565b600080828401905083811015612c7c576040517f08c379a0000000000000000000000000000000000000000000000000000000008152600401612c7390613d5c565b60405180910390fd5b8091505092915050565b6060612ce8826040518060400160405280602081526020017f5361666545524332303a206c6f772d6c6576656c2063616c6c206661696c65648152508573ffffffffffffffffffffffffffffffffffffffff16612e919092919063ffffffff16565b9050600081511115612d485780806020019051810190612d0891906134d9565b612d47576040517f08c379a0000000000000000000000000000000000000000000000000000000008152600401612d3e90613e1c565b60405180910390fd5b5b505050565b60606000821415612d95576040518060400160405280600181526020017f30000000000000000000000000000000000000000000000000000000000000008152509050612e8c565b600082905060005b60008214612dbf578080600101915050600a8281612db757fe5b049150612d9d565b60608167ffffffffffffffff81118015612dd857600080fd5b506040519080825280601f01601f191660200182016040528015612e0b5781602001600182028036833780820191505090505b50905060006001830390505b60008614612e8457600a8681612e2957fe5b0660300160f81b82828060019003935081518110612e4357fe5b60200101907effffffffffffffffffffffffffffffffffffffffffffffffffffffffffffff1916908160001a905350600a8681612e7c57fe5b049550612e17565b819450505050505b919050565b6060612ea08484600085612ea9565b90509392505050565b606082471015612eee576040517f08c379a0000000000000000000000000000000000000000000000000000000008152600401612ee590613d9c565b60405180910390fd5b612ef785612fbe565b612f36576040517f08c379a0000000000000000000000000000000000000000000000000000000008152600401612f2d90613dfc565b60405180910390fd5b600060608673ffffffffffffffffffffffffffffffffffffffff168587604051612f609190613c14565b60006040518083038185875af1925050503d8060008114612f9d576040519150601f19603f3d011682016040523d82523d6000602084013e612fa2565b606091505b5091509150612fb2828286612fd1565b92505050949350505050565b600080823b905060008111915050919050565b60608315612fe157829050613031565b600083511115612ff45782518084602001fd5b816040517f08c379a00000000000000000000000000000000000000000000000000000000081526004016130289190613d3a565b60405180910390fd5b9392505050565b604051806102600160405280600073ffffffffffffffffffffffffffffffffffffffff16815260200160608152602001600060ff16815260200160008152602001600081526020016000815260200160008152602001600081526020016000815260200160008152602001600073ffffffffffffffffffffffffffffffffffffffff16815260200160608152602001600060ff168152602001600081526020016000815260200160008152602001600081526020016000151581526020016000151581525090565b60008135905061310f816140c0565b92915050565b600081519050613124816140c0565b92915050565b60008083601f84011261313c57600080fd5b8235905067ffffffffffffffff81111561315557600080fd5b60208301915083602082028301111561316d57600080fd5b9250929050565b600082601f83011261318557600080fd5b815161319861319382613ea6565b613e79565b915081818352602084019350602081019050838560208402820111156131bd57600080fd5b60005b838110156131ed57816131d38882613115565b8452602084019350602083019250506001810190506131c0565b5050505092915050565b600082601f83011261320857600080fd5b815161321b61321682613ece565b613e79565b9150818183526020840193506020810190508385602084028201111561324057600080fd5b60005b83811015613270578161325688826132f8565b845260208401935060208301925050600181019050613243565b5050505092915050565b600081519050613289816140d7565b92915050565b600082601f8301126132a057600080fd5b81516132b36132ae82613ef6565b613e79565b915080825260208301602083018583830111156132cf57600080fd5b6132da83828461407c565b50505092915050565b6000813590506132f2816140ee565b92915050565b600081519050613307816140ee565b92915050565b60008151905061331c81614105565b92915050565b60006020828403121561333457600080fd5b600061334284828501613100565b91505092915050565b60006020828403121561335d57600080fd5b600061336b84828501613115565b91505092915050565b6000806040838503121561338757600080fd5b600061339585828601613100565b92505060206133a685828601613100565b9150509250929050565b6000806000606084860312156133c557600080fd5b60006133d386828701613100565b93505060206133e486828701613100565b92505060406133f5868287016132e3565b9150509250925092565b60008060006040848603121561341457600080fd5b600061342286828701613100565b935050602084013567ffffffffffffffff81111561343f57600080fd5b61344b8682870161312a565b92509250509250925092565b60006020828403121561346957600080fd5b600082015167ffffffffffffffff81111561348357600080fd5b61348f84828501613174565b91505092915050565b6000602082840312156134aa57600080fd5b600082015167ffffffffffffffff8111156134c457600080fd5b6134d0848285016131f7565b91505092915050565b6000602082840312156134eb57600080fd5b60006134f98482850161327a565b91505092915050565b60008060006060848603121561351757600080fd5b60006135258682870161327a565b9350506020613536868287016132f8565b92505060406135478682870161327a565b9150509250925092565b60006020828403121561356357600080fd5b600082015167ffffffffffffffff81111561357d57600080fd5b6135898482850161328f565b91505092915050565b6000602082840312156135a457600080fd5b60006135b2848285016132f8565b91505092915050565b6000806000606084860312156135d057600080fd5b60006135de868287016132f8565b93505060206135ef868287016132f8565b9250506040613600868287016132f8565b9150509250925092565b60006020828403121561361c57600080fd5b600061362a8482850161330d565b91505092915050565b600061363f838361365a565b60208301905092915050565b61365481613ffe565b82525050565b61366381613fa9565b82525050565b61367281613fa9565b82525050565b600061368382613f32565b61368d8185613f60565b935061369883613f22565b8060005b838110156136c95781516136b08882613633565b97506136bb83613f53565b92505060018101905061369c565b5085935050505092915050565b6136df81613fbb565b82525050565b60006136f082613f3d565b6136fa8185613f71565b935061370a81856020860161407c565b80840191505092915050565b61371f81614010565b82525050565b61372e81614034565b82525050565b600061373f82613f48565b6137498185613f7c565b935061375981856020860161407c565b613762816140af565b840191505092915050565b600061377882613f48565b6137828185613f8d565b935061379281856020860161407c565b61379b816140af565b840191505092915050565b60006137b182613f48565b6137bb8185613f9e565b93506137cb81856020860161407c565b80840191505092915050565b60006137e4601b83613f8d565b91507f536166654d6174683a206164646974696f6e206f766572666c6f7700000000006000830152602082019050919050565b6000613824601e83613f8d565b91507f536166654d6174683a207375627472616374696f6e206f766572666c6f7700006000830152602082019050919050565b6000613864602683613f8d565b91507f416464726573733a20696e73756666696369656e742062616c616e636520666f60008301527f722063616c6c00000000000000000000000000000000000000000000000000006020830152604082019050919050565b60006138ca601a83613f8d565b91507f536166654d6174683a206469766973696f6e206279207a65726f0000000000006000830152602082019050919050565b600061390a602183613f8d565b91507f536166654d6174683a206d756c7469706c69636174696f6e206f766572666c6f60008301527f77000000000000000000000000000000000000000000000000000000000000006020830152604082019050919050565b6000613970601d83613f8d565b91507f416464726573733a2063616c6c20746f206e6f6e2d636f6e74726163740000006000830152602082019050919050565b60006139b0602a83613f8d565b91507f5361666545524332303a204552433230206f7065726174696f6e20646964206e60008301527f6f742073756363656564000000000000000000000000000000000000000000006020830152604082019050919050565b6000613a16600283613f9e565b91507f3a200000000000000000000000000000000000000000000000000000000000006000830152600282019050919050565b600061026083016000830151613a62600086018261365a565b5060208301518482036020860152613a7a8282613734565b9150506040830151613a8f6040860182613c05565b506060830151613aa26060860182613be7565b506080830151613ab56080860182613be7565b5060a0830151613ac860a0860182613be7565b5060c0830151613adb60c0860182613be7565b5060e0830151613aee60e0860182613be7565b50610100830151613b03610100860182613be7565b50610120830151613b18610120860182613be7565b50610140830151613b2d61014086018261365a565b50610160830151848203610160860152613b478282613734565b915050610180830151613b5e610180860182613c05565b506101a0830151613b736101a0860182613be7565b506101c0830151613b886101c0860182613be7565b506101e0830151613b9d6101e0860182613be7565b50610200830151613bb2610200860182613be7565b50610220830151613bc76102208601826136d6565b50610240830151613bdc6102408601826136d6565b508091505092915050565b613bf081613fe7565b82525050565b613bff81613fe7565b82525050565b613c0e81613ff1565b82525050565b6000613c2082846136e5565b915081905092915050565b6000613c3782856137a6565b9150613c4282613a09565b9150613c4e82846137a6565b91508190509392505050565b6000602082019050613c6f6000830184613669565b92915050565b6000602082019050613c8a600083018461364b565b92915050565b6000604082019050613ca56000830185613669565b613cb26020830184613669565b9392505050565b6000604082019050613cce6000830185613669565b613cdb6020830184613bf6565b9392505050565b60006020820190508181036000830152613cfc8184613678565b905092915050565b6000602082019050613d196000830184613716565b92915050565b6000602082019050613d346000830184613725565b92915050565b60006020820190508181036000830152613d54818461376d565b905092915050565b60006020820190508181036000830152613d75816137d7565b9050919050565b60006020820190508181036000830152613d9581613817565b9050919050565b60006020820190508181036000830152613db581613857565b9050919050565b60006020820190508181036000830152613dd5816138bd565b9050919050565b60006020820190508181036000830152613df5816138fd565b9050919050565b60006020820190508181036000830152613e1581613963565b9050919050565b60006020820190508181036000830152613e35816139a3565b9050919050565b60006020820190508181036000830152613e568184613a49565b905092915050565b6000602082019050613e736000830184613bf6565b92915050565b6000604051905081810181811067ffffffffffffffff82111715613e9c57600080fd5b8060405250919050565b600067ffffffffffffffff821115613ebd57600080fd5b602082029050602081019050919050565b600067ffffffffffffffff821115613ee557600080fd5b602082029050602081019050919050565b600067ffffffffffffffff821115613f0d57600080fd5b601f19601f8301169050602081019050919050565b6000819050602082019050919050565b600081519050919050565b600081519050919050565b600081519050919050565b6000602082019050919050565b600082825260208201905092915050565b600081905092915050565b600082825260208201905092915050565b600082825260208201905092915050565b600081905092915050565b6000613fb482613fc7565b9050919050565b60008115159050919050565b600073ffffffffffffffffffffffffffffffffffffffff82169050919050565b6000819050919050565b600060ff82169050919050565b600061400982614058565b9050919050565b600061401b82614022565b9050919050565b600061402d82613fc7565b9050919050565b600061403f82614046565b9050919050565b600061405182613fc7565b9050919050565b60006140638261406a565b9050919050565b600061407582613fc7565b9050919050565b60005b8381101561409a57808201518184015260208101905061407f565b838111156140a9576000848401525b50505050565b6000601f19601f8301169050919050565b6140c981613fa9565b81146140d457600080fd5b50565b6140e081613fbb565b81146140eb57600080fd5b50565b6140f781613fe7565b811461410257600080fd5b50565b61410e81613ff1565b811461411957600080fd5b5056fea26469706673582212206bd05594af7b0aa2a03b20f24abefb6689eeab96ff27c87c5eac92b83868c0a664736f6c634300060c0033",
  "devdoc": {
    "kind": "dev",
    "methods": {
      "getReferencePrice(address,address)": {
        "details": "Venus returns reference prices with regard to USD scaled by 1e18. Decimals disparity is taken into account"
      }
    },
    "version": 1
  },
  "userdoc": {
    "kind": "user",
    "methods": {
      "getLiquidity(address,address)": {
        "notice": "returns available liquidity in tokens"
      }
    },
    "version": 1
  },
  "storageLayout": {
    "storage": [],
    "types": null
  }
}