{
  "address": "0xED16f524ddC0896368Dc99ace1B5D318a0834CF2",
  "abi": [
    {
      "inputs": [
        {
          "internalType": "uint256",
          "name": "unwindFactor",
          "type": "uint256"
        },
        {
          "internalType": "uint256",
          "name": "slippageIncentive",
          "type": "uint256"
        },
        {
          "internalType": "uint256",
          "name": "collateralUsageLimit",
          "type": "uint256"
        },
        {
          "internalType": "address",
          "name": "permittedBot",
          "type": "address"
        }
      ],
      "name": "configureStopLoss",
      "outputs": [
        {
          "internalType": "bool",
          "name": "",
          "type": "bool"
        }
      ],
      "stateMutability": "nonpayable",
      "type": "function"
    },
    {
      "inputs": [],
      "name": "executeStopLoss",
      "outputs": [
        {
          "internalType": "uint256",
          "name": "redeemAmount",
          "type": "uint256"
        }
      ],
      "stateMutability": "nonpayable",
      "type": "function"
    },
    {
      "inputs": [],
      "name": "getBorrowBalance",
      "outputs": [
        {
          "internalType": "uint256",
          "name": "",
          "type": "uint256"
        }
      ],
      "stateMutability": "nonpayable",
      "type": "function"
    },
    {
      "inputs": [],
      "name": "getCollateralUsageFactor",
      "outputs": [
        {
          "internalType": "uint256",
          "name": "",
          "type": "uint256"
        }
      ],
      "stateMutability": "nonpayable",
      "type": "function"
    },
    {
      "inputs": [],
      "name": "getPositionMetadata",
      "outputs": [
        {
          "components": [
            {
              "internalType": "uint256",
              "name": "supplyAmount",
              "type": "uint256"
            },
            {
              "internalType": "uint256",
              "name": "borrowAmount",
              "type": "uint256"
            },
            {
              "internalType": "uint256",
              "name": "collateralUsageFactor",
              "type": "uint256"
            },
            {
              "internalType": "uint256",
              "name": "principalValue",
              "type": "uint256"
            },
            {
              "internalType": "uint256",
              "name": "positionValue",
              "type": "uint256"
            },
            {
              "internalType": "address",
              "name": "positionAddress",
              "type": "address"
            },
            {
              "internalType": "address",
              "name": "platformAddress",
              "type": "address"
            },
            {
              "internalType": "address",
              "name": "supplyTokenAddress",
              "type": "address"
            },
            {
              "internalType": "address",
              "name": "borrowTokenAddress",
              "type": "address"
            }
          ],
          "internalType": "struct SimplePositionMetadata",
          "name": "metadata",
          "type": "tuple"
        }
      ],
      "stateMutability": "nonpayable",
      "type": "function"
    },
    {
      "inputs": [],
      "name": "getPositionValue",
      "outputs": [
        {
          "internalType": "uint256",
          "name": "positionValue",
          "type": "uint256"
        }
      ],
      "stateMutability": "nonpayable",
      "type": "function"
    },
    {
      "inputs": [],
      "name": "getPrincipalValue",
      "outputs": [
        {
          "internalType": "uint256",
          "name": "",
          "type": "uint256"
        }
      ],
      "stateMutability": "nonpayable",
      "type": "function"
    },
    {
      "inputs": [],
      "name": "getSimplePositionDetails",
      "outputs": [
        {
          "internalType": "address",
          "name": "",
          "type": "address"
        },
        {
          "internalType": "address",
          "name": "",
          "type": "address"
        },
        {
          "internalType": "address",
          "name": "",
          "type": "address"
        }
      ],
      "stateMutability": "view",
      "type": "function"
    },
    {
      "inputs": [],
      "name": "getStopLossConfiguration",
      "outputs": [
        {
          "internalType": "uint256",
          "name": "slippageIncentive",
          "type": "uint256"
        },
        {
          "internalType": "uint256",
          "name": "collateralUsageLimit",
          "type": "uint256"
        },
        {
          "internalType": "uint256",
          "name": "unwindFactor",
          "type": "uint256"
        }
      ],
      "stateMutability": "view",
      "type": "function"
    },
    {
      "inputs": [],
      "name": "getStopLossState",
      "outputs": [
        {
          "internalType": "bool",
          "name": "canTriggerStopLoss",
          "type": "bool"
        },
        {
          "internalType": "uint256",
          "name": "supplyBalance",
          "type": "uint256"
        },
        {
          "internalType": "uint256",
          "name": "borrowBalance",
          "type": "uint256"
        },
        {
          "internalType": "uint256",
          "name": "slippageIncentive",
          "type": "uint256"
        },
        {
          "internalType": "uint256",
          "name": "collateralUsageLimit",
          "type": "uint256"
        },
        {
          "internalType": "uint256",
          "name": "unwindFactor",
          "type": "uint256"
        }
      ],
      "stateMutability": "nonpayable",
      "type": "function"
    },
    {
      "inputs": [
        {
          "internalType": "address",
          "name": "addr",
          "type": "address"
        }
      ],
      "name": "getStopLossWhitelistPermission",
      "outputs": [
        {
          "internalType": "bool",
          "name": "",
          "type": "bool"
        }
      ],
      "stateMutability": "nonpayable",
      "type": "function"
    },
    {
      "inputs": [],
      "name": "getSupplyBalance",
      "outputs": [
        {
          "internalType": "uint256",
          "name": "",
          "type": "uint256"
        }
      ],
      "stateMutability": "nonpayable",
      "type": "function"
    },
    {
      "inputs": [
        {
          "internalType": "address",
          "name": "addr",
          "type": "address"
        },
        {
          "internalType": "bool",
          "name": "permission",
          "type": "bool"
        }
      ],
      "name": "setStopLossWhitelistPermission",
      "outputs": [],
      "stateMutability": "nonpayable",
      "type": "function"
    }
  ],
  "transactionHash": "0xecbc823d50f050bb975ff6e9c78d91be013eff3404e0c66f9d109c8e33e3c074",
  "args": [],
  "numDeployments": 1,
  "solcInputHash": "d240c16814669b6ddf008f104c247d91",
  "bytecode": "0x608060405234801561001057600080fd5b50612d88806100206000396000f3fe608060405234801561001057600080fd5b50600436106100cf5760003560e01c8063c19e273f1161008c578063d71f89ac11610066578063d71f89ac146101fb578063e463a8e014610219578063e8c944e614610249578063fca061cd14610267576100cf565b8063c19e273f146101a3578063ca206591146101bf578063ce2576b2146101dd576100cf565b806302fa5a02146100d4578063040e6b67146100f45780633cf34dab146101125780637afc3e8d14610135578063b44b3a8f14610155578063b94c0a4714610173575b600080fd5b6100dc610285565b6040516100eb93929190612885565b60405180910390f35b6100fc610310565b6040516101099190612bd6565b60405180910390f35b61011a610323565b60405161012c96959493929190612937565b60405180910390f35b61013d610374565b60405161014c93929190612bf1565b60405180910390f35b61015d6103a5565b60405161016a9190612bd6565b60405180910390f35b61018d600480360381019061018891906121c3565b610577565b60405161019a919061291c565b60405180910390f35b6101bd60048036038101906101b89190612135565b61083f565b005b6101c7610966565b6040516101d49190612bd6565b60405180910390f35b6101e5610a01565b6040516101f29190612bba565b60405180910390f35b610203610bc3565b6040516102109190612bd6565b60405180910390f35b610233600480360381019061022e91906120e3565b610c32565b604051610240919061291c565b60405180910390f35b610251610c91565b60405161025e9190612bd6565b60405180910390f35b61026f610d2c565b60405161027c9190612bd6565b60405180910390f35b600080600080610293611208565b90508060000160009054906101000a900473ffffffffffffffffffffffffffffffffffffffff168160010160009054906101000a900473ffffffffffffffffffffffffffffffffffffffff168260020160009054906101000a900473ffffffffffffffffffffffffffffffffffffffff1693509350935050909192565b600061031a611208565b60030154905090565b600080600080600080610334610374565b809350819450829550505050610348610c91565b9450610352610966565b93508161035d610bc3565b11801561036a5750600081115b9550909192939495565b600080600080610382611235565b905080600101548160000154826002015480945081955082965050505050909192565b60006103af611f36565b6103b7611208565b6040518060800160405290816000820160009054906101000a900473ffffffffffffffffffffffffffffffffffffffff1673ffffffffffffffffffffffffffffffffffffffff1673ffffffffffffffffffffffffffffffffffffffff1681526020016001820160009054906101000a900473ffffffffffffffffffffffffffffffffffffffff1673ffffffffffffffffffffffffffffffffffffffff1673ffffffffffffffffffffffffffffffffffffffff1681526020016002820160009054906101000a900473ffffffffffffffffffffffffffffffffffffffff1673ffffffffffffffffffffffffffffffffffffffff1673ffffffffffffffffffffffffffffffffffffffff168152602001600382015481525050905060006104df8260000151611262565b905060006104f6828460000151856040015161131f565b9050600061050d83856000015186602001516113e3565b905061055861052584866000015187602001516114a7565b61054a61053b86886000015189604001516114a7565b8561156b90919063ffffffff16565b6115db90919063ffffffff16565b915081811061056b578181039450610570565b600094505b5050505090565b600080610582611631565b90508060040160009054906101000a900473ffffffffffffffffffffffffffffffffffffffff1673ffffffffffffffffffffffffffffffffffffffff168160000160009054906101000a900473ffffffffffffffffffffffffffffffffffffffff1673ffffffffffffffffffffffffffffffffffffffff161461063a576040517f08c379a0000000000000000000000000000000000000000000000000000000008152600401610631906129da565b60405180910390fd5b61064261165e565b610681576040517f08c379a000000000000000000000000000000000000000000000000000000000815260040161067890612b1a565b60405180910390fd5b670de0b6b3a76400008611156106cc576040517f08c379a00000000000000000000000000000000000000000000000000000000081526004016106c390612a3a565b60405180910390fd5b670de0b6b3a7640000851115610717576040517f08c379a000000000000000000000000000000000000000000000000000000000815260040161070e906129ba565b60405180910390fd5b61071f610bc3565b841180156107355750670de0b6b3a76400008411155b610774576040517f08c379a000000000000000000000000000000000000000000000000000000000815260040161076b90612aba565b60405180910390fd5b600061077e611235565b9050868160020181905550858160010181905550848160000181905550600073ffffffffffffffffffffffffffffffffffffffff168473ffffffffffffffffffffffffffffffffffffffff16146108315760016107d96116c0565b60000160008673ffffffffffffffffffffffffffffffffffffffff1673ffffffffffffffffffffffffffffffffffffffff16815260200190815260200160002060006101000a81548160ff0219169083151502179055505b600192505050949350505050565b6000610849611631565b90508060040160009054906101000a900473ffffffffffffffffffffffffffffffffffffffff1673ffffffffffffffffffffffffffffffffffffffff168160000160009054906101000a900473ffffffffffffffffffffffffffffffffffffffff1673ffffffffffffffffffffffffffffffffffffffff1614610901576040517f08c379a00000000000000000000000000000000000000000000000000000000081526004016108f8906129da565b60405180910390fd5b8161090a6116c0565b60000160008573ffffffffffffffffffffffffffffffffffffffff1673ffffffffffffffffffffffffffffffffffffffff16815260200190815260200160002060006101000a81548160ff021916908315150217905550505050565b60006109fc61099f610976611208565b60000160009054906101000a900473ffffffffffffffffffffffffffffffffffffffff16611262565b6109a7611208565b60000160009054906101000a900473ffffffffffffffffffffffffffffffffffffffff166109d3611208565b60020160009054906101000a900473ffffffffffffffffffffffffffffffffffffffff1661131f565b905090565b610a09611fa0565b308160a0019073ffffffffffffffffffffffffffffffffffffffff16908173ffffffffffffffffffffffffffffffffffffffff1681525050610a49611208565b60000160009054906101000a900473ffffffffffffffffffffffffffffffffffffffff168160c0019073ffffffffffffffffffffffffffffffffffffffff16908173ffffffffffffffffffffffffffffffffffffffff1681525050610aac611208565b60010160009054906101000a900473ffffffffffffffffffffffffffffffffffffffff168160e0019073ffffffffffffffffffffffffffffffffffffffff16908173ffffffffffffffffffffffffffffffffffffffff1681525050610b0f611208565b60020160009054906101000a900473ffffffffffffffffffffffffffffffffffffffff1681610100019073ffffffffffffffffffffffffffffffffffffffff16908173ffffffffffffffffffffffffffffffffffffffff1681525050610b73610c91565b816000018181525050610b84610966565b816020018181525050610b95610bc3565b816040018181525050610ba6610310565b816060018181525050610bb76103a5565b81608001818152505090565b6000610c2d610bfc610bd3611208565b60000160009054906101000a900473ffffffffffffffffffffffffffffffffffffffff16611262565b610c04611208565b60000160009054906101000a900473ffffffffffffffffffffffffffffffffffffffff166116ed565b905090565b6000610c3c6116c0565b60000160008373ffffffffffffffffffffffffffffffffffffffff1673ffffffffffffffffffffffffffffffffffffffff16815260200190815260200160002060009054906101000a900460ff169050919050565b6000610d27610cca610ca1611208565b60000160009054906101000a900473ffffffffffffffffffffffffffffffffffffffff16611262565b610cd2611208565b60000160009054906101000a900473ffffffffffffffffffffffffffffffffffffffff16610cfe611208565b60010160009054906101000a900473ffffffffffffffffffffffffffffffffffffffff166113e3565b905090565b600060011515610d3a6116c0565b60000160003273ffffffffffffffffffffffffffffffffffffffff1673ffffffffffffffffffffffffffffffffffffffff16815260200190815260200160002060009054906101000a900460ff16151514610dca576040517f08c379a0000000000000000000000000000000000000000000000000000000008152600401610dc190612b5a565b60405180910390fd5b610dd261165e565b610e11576040517f08c379a0000000000000000000000000000000000000000000000000000000008152600401610e0890612b9a565b60405180910390fd5b610e19612044565b610e21611235565b604051806060016040529081600082015481526020016001820154815260200160028201548152505090506000816040015111610e93576040517f08c379a0000000000000000000000000000000000000000000000000000000008152600401610e8a90612a9a565b60405180910390fd5b8060000151610ea0610bc3565b11610ee0576040517f08c379a0000000000000000000000000000000000000000000000000000000008152600401610ed790612afa565b60405180910390fd5b610ee8611f36565b610ef0611208565b6040518060800160405290816000820160009054906101000a900473ffffffffffffffffffffffffffffffffffffffff1673ffffffffffffffffffffffffffffffffffffffff1673ffffffffffffffffffffffffffffffffffffffff1681526020016001820160009054906101000a900473ffffffffffffffffffffffffffffffffffffffff1673ffffffffffffffffffffffffffffffffffffffff1673ffffffffffffffffffffffffffffffffffffffff1681526020016002820160009054906101000a900473ffffffffffffffffffffffffffffffffffffffff1673ffffffffffffffffffffffffffffffffffffffff1673ffffffffffffffffffffffffffffffffffffffff168152602001600382015481525050905060006110188260000151611262565b90506000670de0b6b3a764000084604001511490506000611037610966565b9050600082611066576110618660400151670de0b6b3a7640000846117ae9092919063ffffffff16565b611068565b815b9050600061107f85876000015188604001516114a7565b9050600061109686886000015189602001516114a7565b90506000856111125761110d6110c984846110ba888a61188f90919063ffffffff16565b6117ae9092919063ffffffff16565b6110ff6110df8a8c600001518d602001516118df565b670de0b6b3a76400006110f0610c91565b6117ae9092919063ffffffff16565b61188f90919063ffffffff16565b61111b565b61111a610c91565b5b905061116c61114184670de0b6b3a76400008c602001510161156b90919063ffffffff16565b61115c84670de0b6b3a764000061156b90919063ffffffff16565b866117ae9092919063ffffffff16565b9950808a111561117a578099505b61118e8789600001518a60400151876119a3565b5050505050506111a8818360000151846020015187611a4b565b6112026111b3611631565b60000160009054906101000a900473ffffffffffffffffffffffffffffffffffffffff1685846020015173ffffffffffffffffffffffffffffffffffffffff16611af49092919063ffffffff16565b50505090565b6000807f8278faaeed8149083abb50630b1bee29cf32152ad9a9c9145fe4b38fa3f9c4e890508091505090565b6000807f71e33351f6c2f31004e68ac32dd5a4884e99e8c3aa8dcf1997909021899a861490508091505090565b600061126c611631565b60020160009054906101000a900473ffffffffffffffffffffffffffffffffffffffff1673ffffffffffffffffffffffffffffffffffffffff166342dfa789836040518263ffffffff1660e01b81526004016112c89190612841565b60206040518083038186803b1580156112e057600080fd5b505afa1580156112f4573d6000803e3d6000fd5b505050506040513d601f19601f82011682018060405250810190611318919061210c565b9050919050565b600060606113c363118e31b760e01b858560405160240161134192919061285c565b604051602081830303815290604052907bffffffffffffffffffffffffffffffffffffffffffffffffffffffff19166020820180517bffffffffffffffffffffffffffffffffffffffffffffffffffffffff83818316178352505050508673ffffffffffffffffffffffffffffffffffffffff16611b7a90919063ffffffff16565b9050808060200190518101906113d9919061219a565b9150509392505050565b6000606061148763ba37773160e01b858560405160240161140592919061285c565b604051602081830303815290604052907bffffffffffffffffffffffffffffffffffffffffffffffffffffffff19166020820180517bffffffffffffffffffffffffffffffffffffffffffffffffffffffff83818316178352505050508673ffffffffffffffffffffffffffffffffffffffff16611b7a90919063ffffffff16565b90508080602001905181019061149d919061219a565b9150509392505050565b6000606061154b63b84c743b60e01b85856040516024016114c992919061285c565b604051602081830303815290604052907bffffffffffffffffffffffffffffffffffffffffffffffffffffffff19166020820180517bffffffffffffffffffffffffffffffffffffffffffffffffffffffff83818316178352505050508673ffffffffffffffffffffffffffffffffffffffff16611b7a90919063ffffffff16565b905080806020019051810190611561919061219a565b9150509392505050565b60008083141561157e57600090506115d5565b600082840290508284828161158f57fe5b04146115d0576040517f08c379a00000000000000000000000000000000000000000000000000000000081526004016115c790612a7a565b60405180910390fd5b809150505b92915050565b600080821161161f576040517f08c379a000000000000000000000000000000000000000000000000000000000815260040161161690612a5a565b60405180910390fd5b81838161162857fe5b04905092915050565b6000807fadbb89e904f74d44d0d104c851da4f2fa24de8f1dee64f038923bb940f37d53a90508091505090565b60008073ffffffffffffffffffffffffffffffffffffffff1661167f611208565b60000160009054906101000a900473ffffffffffffffffffffffffffffffffffffffff1673ffffffffffffffffffffffffffffffffffffffff161415905090565b6000807f66812a03430ebb684b2380e81672842e472a0c6fd364c571be5eb22c59dbb0b790508091505090565b6000606061178f63ef84867060e01b8460405160240161170d9190612841565b604051602081830303815290604052907bffffffffffffffffffffffffffffffffffffffffffffffffffffffff19166020820180517bffffffffffffffffffffffffffffffffffffffffffffffffffffffff83818316178352505050508573ffffffffffffffffffffffffffffffffffffffff16611b7a90919063ffffffff16565b9050808060200190518101906117a5919061219a565b91505092915050565b60008060006117bd8686611ba7565b915091508381106117cd57600080fd5b600084806117d757fe5b8688099050828111156117eb576001820391505b80830392506000856000038616905080868161180357fe5b04955080848161180f57fe5b049350600181826000038161182057fe5b04018302840193506000600190508087026002038102905080870260020381029050808702600203810290508087026002038102905080870260020381029050808702600203810290508087026002038102905080870260020381029050808502955050505050509392505050565b6000828211156118d4576040517f08c379a00000000000000000000000000000000000000000000000000000000081526004016118cb906129fa565b60405180910390fd5b818303905092915050565b6000606061198363eed1a08c60e01b858560405160240161190192919061285c565b604051602081830303815290604052907bffffffffffffffffffffffffffffffffffffffffffffffffffffffff19166020820180517bffffffffffffffffffffffffffffffffffffffffffffffffffffffff83818316178352505050508673ffffffffffffffffffffffffffffffffffffffff16611b7a90919063ffffffff16565b905080806020019051810190611999919061219a565b9150509392505050565b611a446220311b60e01b8484846040516024016119c2939291906128bc565b604051602081830303815290604052907bffffffffffffffffffffffffffffffffffffffffffffffffffffffff19166020820180517bffffffffffffffffffffffffffffffffffffffffffffffffffffffff83818316178352505050508573ffffffffffffffffffffffffffffffffffffffff16611b7a90919063ffffffff16565b5050505050565b611aed631c009d7160e01b848484604051602401611a6b939291906128bc565b604051602081830303815290604052907bffffffffffffffffffffffffffffffffffffffffffffffffffffffff19166020820180517bffffffffffffffffffffffffffffffffffffffffffffffffffffffff83818316178352505050508573ffffffffffffffffffffffffffffffffffffffff16611b7a90919063ffffffff16565b5050505050565b611b758363a9059cbb60e01b8484604051602401611b139291906128f3565b604051602081830303815290604052907bffffffffffffffffffffffffffffffffffffffffffffffffffffffff19166020820180517bffffffffffffffffffffffffffffffffffffffffffffffffffffffff8381831617835250505050611bfa565b505050565b6060611b9f8383604051806060016040528060278152602001612d2c60279139611cc1565b905092915050565b60008060007fffffffffffffffffffffffffffffffffffffffffffffffffffffffffffffffff80611bd457fe5b84860990508385029250828103915082811015611bf2576001820391505b509250929050565b6060611c5c826040518060400160405280602081526020017f5361666545524332303a206c6f772d6c6576656c2063616c6c206661696c65648152508573ffffffffffffffffffffffffffffffffffffffff16611d8f9092919063ffffffff16565b9050600081511115611cbc5780806020019051810190611c7c9190612171565b611cbb576040517f08c379a0000000000000000000000000000000000000000000000000000000008152600401611cb290612b7a565b60405180910390fd5b5b505050565b6060611ccc84611da7565b611d0b576040517f08c379a0000000000000000000000000000000000000000000000000000000008152600401611d0290612ada565b60405180910390fd5b600060608573ffffffffffffffffffffffffffffffffffffffff1685604051611d34919061282a565b600060405180830381855af49150503d8060008114611d6f576040519150601f19603f3d011682016040523d82523d6000602084013e611d74565b606091505b5091509150611d84828286611dba565b925050509392505050565b6060611d9e8484600085611e21565b90509392505050565b600080823b905060008111915050919050565b60608315611dca57829050611e1a565b600083511115611ddd5782518084602001fd5b816040517f08c379a0000000000000000000000000000000000000000000000000000000008152600401611e119190612998565b60405180910390fd5b9392505050565b606082471015611e66576040517f08c379a0000000000000000000000000000000000000000000000000000000008152600401611e5d90612a1a565b60405180910390fd5b611e6f85611da7565b611eae576040517f08c379a0000000000000000000000000000000000000000000000000000000008152600401611ea590612b3a565b60405180910390fd5b600060608673ffffffffffffffffffffffffffffffffffffffff168587604051611ed8919061282a565b60006040518083038185875af1925050503d8060008114611f15576040519150601f19603f3d011682016040523d82523d6000602084013e611f1a565b606091505b5091509150611f2a828286611dba565b92505050949350505050565b6040518060800160405280600073ffffffffffffffffffffffffffffffffffffffff168152602001600073ffffffffffffffffffffffffffffffffffffffff168152602001600073ffffffffffffffffffffffffffffffffffffffff168152602001600081525090565b6040518061012001604052806000815260200160008152602001600081526020016000815260200160008152602001600073ffffffffffffffffffffffffffffffffffffffff168152602001600073ffffffffffffffffffffffffffffffffffffffff168152602001600073ffffffffffffffffffffffffffffffffffffffff168152602001600073ffffffffffffffffffffffffffffffffffffffff1681525090565b60405180606001604052806000815260200160008152602001600081525090565b60008135905061207481612ce6565b92915050565b60008151905061208981612ce6565b92915050565b60008135905061209e81612cfd565b92915050565b6000815190506120b381612cfd565b92915050565b6000813590506120c881612d14565b92915050565b6000815190506120dd81612d14565b92915050565b6000602082840312156120f557600080fd5b600061210384828501612065565b91505092915050565b60006020828403121561211e57600080fd5b600061212c8482850161207a565b91505092915050565b6000806040838503121561214857600080fd5b600061215685828601612065565b92505060206121678582860161208f565b9150509250929050565b60006020828403121561218357600080fd5b6000612191848285016120a4565b91505092915050565b6000602082840312156121ac57600080fd5b60006121ba848285016120ce565b91505092915050565b600080600080608085870312156121d957600080fd5b60006121e7878288016120b9565b94505060206121f8878288016120b9565b9350506040612209878288016120b9565b925050606061221a87828801612065565b91505092959194509250565b61222f81612c5a565b82525050565b61223e81612c5a565b82525050565b61224d81612c6c565b82525050565b600061225e82612c28565b6122688185612c3e565b9350612278818560208601612ca2565b80840191505092915050565b600061228f82612c33565b6122998185612c49565b93506122a9818560208601612ca2565b6122b281612cd5565b840191505092915050565b60006122ca600583612c49565b91507f57534c43320000000000000000000000000000000000000000000000000000006000830152602082019050919050565b600061230a600383612c49565b91507f46413200000000000000000000000000000000000000000000000000000000006000830152602082019050919050565b600061234a601e83612c49565b91507f536166654d6174683a207375627472616374696f6e206f766572666c6f7700006000830152602082019050919050565b600061238a602683612c49565b91507f416464726573733a20696e73756666696369656e742062616c616e636520666f60008301527f722063616c6c00000000000000000000000000000000000000000000000000006020830152604082019050919050565b60006123f0600583612c49565b91507f57534c43310000000000000000000000000000000000000000000000000000006000830152602082019050919050565b6000612430601a83612c49565b91507f536166654d6174683a206469766973696f6e206279207a65726f0000000000006000830152602082019050919050565b6000612470602183612c49565b91507f536166654d6174683a206d756c7469706c69636174696f6e206f766572666c6f60008301527f77000000000000000000000000000000000000000000000000000000000000006020830152604082019050919050565b60006124d6600583612c49565b91507f57534c43370000000000000000000000000000000000000000000000000000006000830152602082019050919050565b6000612516600583612c49565b91507f57534c43330000000000000000000000000000000000000000000000000000006000830152602082019050919050565b6000612556602683612c49565b91507f416464726573733a2064656c65676174652063616c6c20746f206e6f6e2d636f60008301527f6e747261637400000000000000000000000000000000000000000000000000006020830152604082019050919050565b60006125bc600583612c49565b91507f57534c43350000000000000000000000000000000000000000000000000000006000830152602082019050919050565b60006125fc600383612c49565b91507f53503100000000000000000000000000000000000000000000000000000000006000830152602082019050919050565b600061263c601d83612c49565b91507f416464726573733a2063616c6c20746f206e6f6e2d636f6e74726163740000006000830152602082019050919050565b600061267c600583612c49565b91507f57534c43390000000000000000000000000000000000000000000000000000006000830152602082019050919050565b60006126bc602a83612c49565b91507f5361666545524332303a204552433230206f7065726174696f6e20646964206e60008301527f6f742073756363656564000000000000000000000000000000000000000000006020830152604082019050919050565b6000612722600583612c49565b91507f57534c43380000000000000000000000000000000000000000000000000000006000830152602082019050919050565b6101208201600082015161276c600085018261280c565b50602082015161277f602085018261280c565b506040820151612792604085018261280c565b5060608201516127a5606085018261280c565b5060808201516127b8608085018261280c565b5060a08201516127cb60a0850182612226565b5060c08201516127de60c0850182612226565b5060e08201516127f160e0850182612226565b50610100820151612806610100850182612226565b50505050565b61281581612c98565b82525050565b61282481612c98565b82525050565b60006128368284612253565b915081905092915050565b60006020820190506128566000830184612235565b92915050565b60006040820190506128716000830185612235565b61287e6020830184612235565b9392505050565b600060608201905061289a6000830186612235565b6128a76020830185612235565b6128b46040830184612235565b949350505050565b60006060820190506128d16000830186612235565b6128de6020830185612235565b6128eb604083018461281b565b949350505050565b60006040820190506129086000830185612235565b612915602083018461281b565b9392505050565b60006020820190506129316000830184612244565b92915050565b600060c08201905061294c6000830189612244565b612959602083018861281b565b612966604083018761281b565b612973606083018661281b565b612980608083018561281b565b61298d60a083018461281b565b979650505050505050565b600060208201905081810360008301526129b28184612284565b905092915050565b600060208201905081810360008301526129d3816122bd565b9050919050565b600060208201905081810360008301526129f3816122fd565b9050919050565b60006020820190508181036000830152612a138161233d565b9050919050565b60006020820190508181036000830152612a338161237d565b9050919050565b60006020820190508181036000830152612a53816123e3565b9050919050565b60006020820190508181036000830152612a7381612423565b9050919050565b60006020820190508181036000830152612a9381612463565b9050919050565b60006020820190508181036000830152612ab3816124c9565b9050919050565b60006020820190508181036000830152612ad381612509565b9050919050565b60006020820190508181036000830152612af381612549565b9050919050565b60006020820190508181036000830152612b13816125af565b9050919050565b60006020820190508181036000830152612b33816125ef565b9050919050565b60006020820190508181036000830152612b538161262f565b9050919050565b60006020820190508181036000830152612b738161266f565b9050919050565b60006020820190508181036000830152612b93816126af565b9050919050565b60006020820190508181036000830152612bb381612715565b9050919050565b600061012082019050612bd06000830184612755565b92915050565b6000602082019050612beb600083018461281b565b92915050565b6000606082019050612c06600083018661281b565b612c13602083018561281b565b612c20604083018461281b565b949350505050565b600081519050919050565b600081519050919050565b600081905092915050565b600082825260208201905092915050565b6000612c6582612c78565b9050919050565b60008115159050919050565b600073ffffffffffffffffffffffffffffffffffffffff82169050919050565b6000819050919050565b60005b83811015612cc0578082015181840152602081019050612ca5565b83811115612ccf576000848401525b50505050565b6000601f19601f8301169050919050565b612cef81612c5a565b8114612cfa57600080fd5b50565b612d0681612c6c565b8114612d1157600080fd5b50565b612d1d81612c98565b8114612d2857600080fd5b5056fe416464726573733a206c6f772d6c6576656c2064656c65676174652063616c6c206661696c6564a2646970667358221220db5f211cfe215242711f2d25f556ae6de3b51e959d93f193b242a2cf4d0317a664736f6c634300060c0033",
  "devdoc": {
    "kind": "dev",
    "methods": {},
    "version": 1
  },
  "userdoc": {
    "kind": "user",
    "methods": {},
    "version": 1
  },
  "storageLayout": {
    "storage": [],
    "types": null
  }
}