{
  "address": "0x6BEf01Fa1Ee5f6346057fd6eE4c127789EBcF671",
  "abi": [
    {
      "inputs": [
        {
          "internalType": "address",
          "name": "_aavePoolProvider",
          "type": "address"
        },
        {
          "internalType": "address",
          "name": "_aaveData",
          "type": "address"
        },
        {
          "internalType": "address",
          "name": "_aaveIncentives",
          "type": "address"
        }
      ],
      "stateMutability": "nonpayable",
      "type": "constructor"
    },
    {
      "inputs": [],
      "name": "DataProvider",
      "outputs": [
        {
          "internalType": "address",
          "name": "",
          "type": "address"
        }
      ],
      "stateMutability": "view",
      "type": "function"
    },
    {
      "inputs": [],
      "name": "Incentives",
      "outputs": [
        {
          "internalType": "address",
          "name": "",
          "type": "address"
        }
      ],
      "stateMutability": "view",
      "type": "function"
    },
    {
      "inputs": [],
      "name": "PoolProvider",
      "outputs": [
        {
          "internalType": "address",
          "name": "",
          "type": "address"
        }
      ],
      "stateMutability": "view",
      "type": "function"
    },
    {
      "inputs": [
        {
          "internalType": "address",
          "name": "",
          "type": "address"
        },
        {
          "internalType": "address",
          "name": "token",
          "type": "address"
        },
        {
          "internalType": "uint256",
          "name": "amount",
          "type": "uint256"
        }
      ],
      "name": "borrow",
      "outputs": [],
      "stateMutability": "nonpayable",
      "type": "function"
    },
    {
      "inputs": [
        {
          "internalType": "address",
          "name": "",
          "type": "address"
        }
      ],
      "name": "claimRewards",
      "outputs": [
        {
          "internalType": "address",
          "name": "rewardsToken",
          "type": "address"
        },
        {
          "internalType": "uint256",
          "name": "rewardsAmount",
          "type": "uint256"
        }
      ],
      "stateMutability": "nonpayable",
      "type": "function"
    },
    {
      "inputs": [
        {
          "internalType": "address",
          "name": "",
          "type": "address"
        },
        {
          "internalType": "address[]",
          "name": "markets",
          "type": "address[]"
        }
      ],
      "name": "enterMarkets",
      "outputs": [],
      "stateMutability": "nonpayable",
      "type": "function"
    },
    {
      "inputs": [
        {
          "internalType": "address",
          "name": "",
          "type": "address"
        },
        {
          "internalType": "address",
          "name": "asset",
          "type": "address"
        }
      ],
      "name": "getAssetMetadata",
      "outputs": [
        {
          "components": [
            {
              "internalType": "address",
              "name": "assetAddress",
              "type": "address"
            },
            {
              "internalType": "string",
              "name": "assetSymbol",
              "type": "string"
            },
            {
              "internalType": "uint8",
              "name": "assetDecimals",
              "type": "uint8"
            },
            {
              "internalType": "uint256",
              "name": "referencePrice",
              "type": "uint256"
            },
            {
              "internalType": "uint256",
              "name": "totalLiquidity",
              "type": "uint256"
            },
            {
              "internalType": "uint256",
              "name": "totalSupply",
              "type": "uint256"
            },
            {
              "internalType": "uint256",
              "name": "totalBorrow",
              "type": "uint256"
            },
            {
              "internalType": "uint256",
              "name": "totalReserves",
              "type": "uint256"
            },
            {
              "internalType": "uint256",
              "name": "supplyAPR",
              "type": "uint256"
            },
            {
              "internalType": "uint256",
              "name": "borrowAPR",
              "type": "uint256"
            },
            {
              "internalType": "address",
              "name": "rewardTokenAddress",
              "type": "address"
            },
            {
              "internalType": "string",
              "name": "rewardTokenSymbol",
              "type": "string"
            },
            {
              "internalType": "uint8",
              "name": "rewardTokenDecimals",
              "type": "uint8"
            },
            {
              "internalType": "uint256",
              "name": "estimatedSupplyRewardsPerYear",
              "type": "uint256"
            },
            {
              "internalType": "uint256",
              "name": "estimatedBorrowRewardsPerYear",
              "type": "uint256"
            },
            {
              "internalType": "uint256",
              "name": "collateralFactor",
              "type": "uint256"
            },
            {
              "internalType": "uint256",
              "name": "liquidationFactor",
              "type": "uint256"
            },
            {
              "internalType": "bool",
              "name": "canSupply",
              "type": "bool"
            },
            {
              "internalType": "bool",
              "name": "canBorrow",
              "type": "bool"
            }
          ],
          "internalType": "struct AssetMetadata",
          "name": "assetMetadata",
          "type": "tuple"
        }
      ],
      "stateMutability": "nonpayable",
      "type": "function"
    },
    {
      "inputs": [
        {
          "internalType": "address",
          "name": "",
          "type": "address"
        },
        {
          "internalType": "address",
          "name": "token",
          "type": "address"
        }
      ],
      "name": "getBorrowBalance",
      "outputs": [
        {
          "internalType": "uint256",
          "name": "borrowBalance",
          "type": "uint256"
        }
      ],
      "stateMutability": "nonpayable",
      "type": "function"
    },
    {
      "inputs": [
        {
          "internalType": "address",
          "name": "",
          "type": "address"
        },
        {
          "internalType": "address",
          "name": "asset",
          "type": "address"
        }
      ],
      "name": "getCollateralFactorForAsset",
      "outputs": [
        {
          "internalType": "uint256",
          "name": "collateralFactor",
          "type": "uint256"
        }
      ],
      "stateMutability": "nonpayable",
      "type": "function"
    },
    {
      "inputs": [
        {
          "internalType": "address",
          "name": "",
          "type": "address"
        }
      ],
      "name": "getCollateralUsageFactor",
      "outputs": [
        {
          "internalType": "uint256",
          "name": "",
          "type": "uint256"
        }
      ],
      "stateMutability": "nonpayable",
      "type": "function"
    },
    {
      "inputs": [
        {
          "internalType": "address",
          "name": "",
          "type": "address"
        },
        {
          "internalType": "address",
          "name": "token",
          "type": "address"
        }
      ],
      "name": "getReferencePrice",
      "outputs": [
        {
          "internalType": "uint256",
          "name": "",
          "type": "uint256"
        }
      ],
      "stateMutability": "nonpayable",
      "type": "function"
    },
    {
      "inputs": [
        {
          "internalType": "address",
          "name": "",
          "type": "address"
        },
        {
          "internalType": "address",
          "name": "token",
          "type": "address"
        }
      ],
      "name": "getSupplyBalance",
      "outputs": [
        {
          "internalType": "uint256",
          "name": "supplyBalance",
          "type": "uint256"
        }
      ],
      "stateMutability": "nonpayable",
      "type": "function"
    },
    {
      "inputs": [
        {
          "internalType": "address",
          "name": "",
          "type": "address"
        },
        {
          "internalType": "address",
          "name": "token",
          "type": "address"
        },
        {
          "internalType": "uint256",
          "name": "amount",
          "type": "uint256"
        }
      ],
      "name": "redeemSupply",
      "outputs": [],
      "stateMutability": "nonpayable",
      "type": "function"
    },
    {
      "inputs": [
        {
          "internalType": "address",
          "name": "",
          "type": "address"
        },
        {
          "internalType": "address",
          "name": "token",
          "type": "address"
        },
        {
          "internalType": "uint256",
          "name": "amount",
          "type": "uint256"
        }
      ],
      "name": "repayBorrow",
      "outputs": [],
      "stateMutability": "nonpayable",
      "type": "function"
    },
    {
      "inputs": [
        {
          "internalType": "address",
          "name": "",
          "type": "address"
        },
        {
          "internalType": "address",
          "name": "token",
          "type": "address"
        },
        {
          "internalType": "uint256",
          "name": "amount",
          "type": "uint256"
        }
      ],
      "name": "supply",
      "outputs": [],
      "stateMutability": "nonpayable",
      "type": "function"
    }
  ],
  "transactionHash": "0xcac1eb6661502cae45bb13a400e0ca667fb463fd5c6545d91498b3287b59f942",
  "args": [
    "0xB53C1a33016B2DC2fF3653530bfF1848a515c8c5",
    "0x057835Ad21a177dbdd3090bB1CAE03EaCF78Fc6d",
    "0xd784927Ff2f95ba542BfC824c8a8a98F3495f6b5"
  ],
  "solcInputHash": "52a2d5c26a8dcef59265603bf75f9b43",
  "bytecode": "0x60e06040523480156200001157600080fd5b5060405162003b2a38038062003b2a833981810160405281019062000037919062000255565b600073ffffffffffffffffffffffffffffffffffffffff168373ffffffffffffffffffffffffffffffffffffffff161415620000aa576040517f08c379a0000000000000000000000000000000000000000000000000000000008152600401620000a190620002ed565b60405180910390fd5b600073ffffffffffffffffffffffffffffffffffffffff168273ffffffffffffffffffffffffffffffffffffffff1614156200011d576040517f08c379a00000000000000000000000000000000000000000000000000000000081526004016200011490620002ed565b60405180910390fd5b600073ffffffffffffffffffffffffffffffffffffffff168173ffffffffffffffffffffffffffffffffffffffff16141562000190576040517f08c379a00000000000000000000000000000000000000000000000000000000081526004016200018790620002ed565b60405180910390fd5b8273ffffffffffffffffffffffffffffffffffffffff1660808173ffffffffffffffffffffffffffffffffffffffff1660601b815250508173ffffffffffffffffffffffffffffffffffffffff1660a08173ffffffffffffffffffffffffffffffffffffffff1660601b815250508073ffffffffffffffffffffffffffffffffffffffff1660c08173ffffffffffffffffffffffffffffffffffffffff1660601b815250505050506200036e565b6000815190506200024f8162000354565b92915050565b6000806000606084860312156200026b57600080fd5b60006200027b868287016200023e565b93505060206200028e868287016200023e565b9250506040620002a1868287016200023e565b9150509250925092565b6000620002ba6004836200030f565b91507f49435030000000000000000000000000000000000000000000000000000000006000830152602082019050919050565b600060208201905081810360008301526200030881620002ab565b9050919050565b600082825260208201905092915050565b60006200032d8262000334565b9050919050565b600073ffffffffffffffffffffffffffffffffffffffff82169050919050565b6200035f8162000320565b81146200036b57600080fd5b50565b60805160601c60a05160601c60c05160601c61372762000403600039806107f35280610b6c528061126452806116175280611cae5280611d645250806105df528061101252806110ec52806113dd52806114f95280611a125280611b175280611c00525080610334528061049a52806106bd528061081752806108415280610ec6528061111f528061178e52506137276000f3fe608060405234801561001057600080fd5b50600436106100f45760003560e01c80635224372c11610097578063bee9ec8d11610066578063bee9ec8d14610281578063eed1a08c1461029f578063ef5cfb8c146102cf578063ef84867014610300576100f4565b80635224372c146101d5578063b29d57d8146101f1578063b84c743b14610221578063ba37773114610251576100f4565b80631c009d71116100d35780631c009d71146101615780633237cf071461017d5780633c81f56f1461019b5780634883400d146101b9576100f4565b806220311b146100f95780630c0a769b14610115578063118e31b714610131575b600080fd5b610113600480360381019061010e9190612740565b610330565b005b61012f600480360381019061012a9190612740565b610496565b005b61014b600480360381019061014691906126b5565b6105db565b6040516101589190613469565b60405180910390f35b61017b60048036038101906101769190612740565b6106b9565b005b6101856107f1565b6040516101929190613186565b60405180910390f35b6101a3610815565b6040516101b09190613186565b60405180910390f35b6101d360048036038101906101ce919061278f565b610839565b005b6101ef60048036038101906101ea9190612740565b61083d565b005b61020b600480360381019061020691906126b5565b61095a565b6040516102189190613447565b60405180910390f35b61023b600480360381019061023691906126b5565b610e2f565b6040516102489190613469565b60405180910390f35b61026b600480360381019061026691906126b5565b61100e565b6040516102789190613469565b60405180910390f35b6102896110ea565b6040516102969190613186565b60405180910390f35b6102b960048036038101906102b491906126b5565b61110e565b6040516102c69190613469565b60405180910390f35b6102e960048036038101906102e49190612663565b61125f565b6040516102f79291906131ca565b60405180910390f35b61031a60048036038101906103159190612663565b611789565b6040516103279190613469565b60405180910390f35b60007f000000000000000000000000000000000000000000000000000000000000000073ffffffffffffffffffffffffffffffffffffffff16630261bf8b6040518163ffffffff1660e01b815260040160206040518083038186803b15801561039857600080fd5b505afa1580156103ac573d6000803e3d6000fd5b505050506040513d601f19601f820116820180604052508101906103d0919061268c565b90506103fd81838573ffffffffffffffffffffffffffffffffffffffff166118e09092919063ffffffff16565b8073ffffffffffffffffffffffffffffffffffffffff1663573ade8184846002306040518563ffffffff1660e01b815260040161043d949392919061326f565b602060405180830381600087803b15801561045757600080fd5b505af115801561046b573d6000803e3d6000fd5b505050506040513d601f19601f8201168201806040525081019061048f9190612877565b5050505050565b60007f000000000000000000000000000000000000000000000000000000000000000073ffffffffffffffffffffffffffffffffffffffff16630261bf8b6040518163ffffffff1660e01b815260040160206040518083038186803b1580156104fe57600080fd5b505afa158015610512573d6000803e3d6000fd5b505050506040513d601f19601f82011682018060405250810190610536919061268c565b905061056381838573ffffffffffffffffffffffffffffffffffffffff166118e09092919063ffffffff16565b8073ffffffffffffffffffffffffffffffffffffffff1663e8eda9df84843060006040518563ffffffff1660e01b81526004016105a3949392919061322a565b600060405180830381600087803b1580156105bd57600080fd5b505af11580156105d1573d6000803e3d6000fd5b5050505050505050565b60007f000000000000000000000000000000000000000000000000000000000000000073ffffffffffffffffffffffffffffffffffffffff166328dd2d0183306040518363ffffffff1660e01b81526004016106389291906131a1565b6101206040518083038186803b15801561065157600080fd5b505afa158015610665573d6000803e3d6000fd5b505050506040513d601f19601f820116820180604052508101906106899190612b2e565b90919293949596975090919293949596509091929394509091929350909192509091509050508091505092915050565b60007f000000000000000000000000000000000000000000000000000000000000000073ffffffffffffffffffffffffffffffffffffffff16630261bf8b6040518163ffffffff1660e01b815260040160206040518083038186803b15801561072157600080fd5b505afa158015610735573d6000803e3d6000fd5b505050506040513d601f19601f82011682018060405250810190610759919061268c565b90508073ffffffffffffffffffffffffffffffffffffffff166369328dec8484306040518463ffffffff1660e01b8152600401610798939291906131f3565b602060405180830381600087803b1580156107b257600080fd5b505af11580156107c6573d6000803e3d6000fd5b505050506040513d601f19601f820116820180604052508101906107ea9190612877565b5050505050565b7f000000000000000000000000000000000000000000000000000000000000000081565b7f000000000000000000000000000000000000000000000000000000000000000081565b5050565b60007f000000000000000000000000000000000000000000000000000000000000000073ffffffffffffffffffffffffffffffffffffffff16630261bf8b6040518163ffffffff1660e01b815260040160206040518083038186803b1580156108a557600080fd5b505afa1580156108b9573d6000803e3d6000fd5b505050506040513d601f19601f820116820180604052508101906108dd919061268c565b90508073ffffffffffffffffffffffffffffffffffffffff1663a415bcad848460026000306040518663ffffffff1660e01b81526004016109229594939291906132b4565b600060405180830381600087803b15801561093c57600080fd5b505af1158015610950573d6000803e3d6000fd5b5050505050505050565b61096261225f565b61096a612327565b61097383611a08565b905082826000019073ffffffffffffffffffffffffffffffffffffffff16908173ffffffffffffffffffffffffffffffffffffffff16815250508273ffffffffffffffffffffffffffffffffffffffff166395d89b416040518163ffffffff1660e01b815260040160006040518083038186803b1580156109f357600080fd5b505afa158015610a07573d6000803e3d6000fd5b505050506040513d6000823e3d601f19601f82011682018060405250810190610a30919061280c565b82602001819052508273ffffffffffffffffffffffffffffffffffffffff1663313ce5676040518163ffffffff1660e01b815260040160206040518083038186803b158015610a7e57600080fd5b505afa158015610a92573d6000803e3d6000fd5b505050506040513d601f19601f82011682018060405250810190610ab69190612bf4565b826040019060ff16908160ff1681525050610ad2600084610e2f565b8260600181815250508060400151826080018181525050610b0481608001518260600151611e2090919063ffffffff16565b8260c0018181525050610b2882608001518360c00151611e2090919063ffffffff16565b8260a001818152505060008260e0018181525050610b498160a00151611e75565b82610100018181525050610b608160c00151611e75565b826101200181815250507f000000000000000000000000000000000000000000000000000000000000000073ffffffffffffffffffffffffffffffffffffffff166399248ea76040518163ffffffff1660e01b815260040160206040518083038186803b158015610bd057600080fd5b505afa158015610be4573d6000803e3d6000fd5b505050506040513d601f19601f82011682018060405250810190610c08919061268c565b82610140019073ffffffffffffffffffffffffffffffffffffffff16908173ffffffffffffffffffffffffffffffffffffffff168152505081610140015173ffffffffffffffffffffffffffffffffffffffff1663313ce5676040518163ffffffff1660e01b815260040160206040518083038186803b158015610c8b57600080fd5b505afa158015610c9f573d6000803e3d6000fd5b505050506040513d601f19601f82011682018060405250810190610cc39190612bf4565b82610180019060ff16908160ff168152505081610140015173ffffffffffffffffffffffffffffffffffffffff166395d89b416040518163ffffffff1660e01b815260040160006040518083038186803b158015610d2057600080fd5b505afa158015610d34573d6000803e3d6000fd5b505050506040513d6000823e3d601f19601f82011682018060405250810190610d5d919061280c565b826101600181905250610d816301e133808260e00151611e8c90919063ffffffff16565b826101a0018181525050610da76301e13380826101000151611e8c90919063ffffffff16565b826101c0018181525050610dbe8160000151611efc565b826101e0018181525050610dd58160200151611efc565b826102000181815250508061014001518015610df45750806101600151155b826102200190151590811515815250508061014001518015610e1857508061012001515b826102400190151590811515815250505092915050565b60006110068273ffffffffffffffffffffffffffffffffffffffff1663313ce5676040518163ffffffff1660e01b815260040160206040518083038186803b158015610e7a57600080fd5b505afa158015610e8e573d6000803e3d6000fd5b505050506040513d601f19601f82011682018060405250810190610eb29190612bf4565b60ff16600a0a610ff8670de0b6b3a76400007f000000000000000000000000000000000000000000000000000000000000000073ffffffffffffffffffffffffffffffffffffffff1663fca513a86040518163ffffffff1660e01b815260040160206040518083038186803b158015610f2a57600080fd5b505afa158015610f3e573d6000803e3d6000fd5b505050506040513d601f19601f82011682018060405250810190610f62919061268c565b73ffffffffffffffffffffffffffffffffffffffff1663b3596f07876040518263ffffffff1660e01b8152600401610f9a9190613186565b60206040518083038186803b158015610fb257600080fd5b505afa158015610fc6573d6000803e3d6000fd5b505050506040513d601f19601f82011682018060405250810190610fea9190612877565b611e8c90919063ffffffff16565b611f1e90919063ffffffff16565b905092915050565b60007f000000000000000000000000000000000000000000000000000000000000000073ffffffffffffffffffffffffffffffffffffffff166328dd2d0183306040518363ffffffff1660e01b815260040161106b9291906131a1565b6101206040518083038186803b15801561108457600080fd5b505afa158015611098573d6000803e3d6000fd5b505050506040513d601f19601f820116820180604052508101906110bc9190612b2e565b9091929394959650909192939495509091929394509091929350909192509091509050508091505092915050565b7f000000000000000000000000000000000000000000000000000000000000000081565b6000655af3107a40006201000060107f000000000000000000000000000000000000000000000000000000000000000073ffffffffffffffffffffffffffffffffffffffff16630261bf8b6040518163ffffffff1660e01b815260040160206040518083038186803b15801561118357600080fd5b505afa158015611197573d6000803e3d6000fd5b505050506040513d601f19601f820116820180604052508101906111bb919061268c565b73ffffffffffffffffffffffffffffffffffffffff166335ea6a75866040518263ffffffff1660e01b81526004016111f39190613186565b6101806040518083038186803b15801561120c57600080fd5b505afa158015611220573d6000803e3d6000fd5b505050506040513d601f19601f82011682018060405250810190611244919061284d565b6000015160000151901c8161125557fe5b0602905092915050565b6000807f000000000000000000000000000000000000000000000000000000000000000073ffffffffffffffffffffffffffffffffffffffff166399248ea76040518163ffffffff1660e01b815260040160206040518083038186803b1580156112c857600080fd5b505afa1580156112dc573d6000803e3d6000fd5b505050506040513d601f19601f82011682018060405250810190611300919061268c565b915060008273ffffffffffffffffffffffffffffffffffffffff166370a08231306040518263ffffffff1660e01b815260040161133d9190613186565b60206040518083038186803b15801561135557600080fd5b505afa158015611369573d6000803e3d6000fd5b505050506040513d601f19601f8201168201806040525081019061138d9190612877565b90506060600267ffffffffffffffff811180156113a957600080fd5b506040519080825280602002602001820160405280156113d85781602001602082028036833780820191505090505b5090507f000000000000000000000000000000000000000000000000000000000000000073ffffffffffffffffffffffffffffffffffffffff1663d2493b6c61141f611f74565b60010160009054906101000a900473ffffffffffffffffffffffffffffffffffffffff166040518263ffffffff1660e01b815260040161145f9190613186565b60606040518083038186803b15801561147757600080fd5b505afa15801561148b573d6000803e3d6000fd5b505050506040513d601f19601f820116820180604052508101906114af91906126f1565b905050816000815181106114bf57fe5b602002602001018173ffffffffffffffffffffffffffffffffffffffff1673ffffffffffffffffffffffffffffffffffffffff16815250507f000000000000000000000000000000000000000000000000000000000000000073ffffffffffffffffffffffffffffffffffffffff1663d2493b6c61153b611f74565b60020160009054906101000a900473ffffffffffffffffffffffffffffffffffffffff166040518263ffffffff1660e01b815260040161157b9190613186565b60606040518083038186803b15801561159357600080fd5b505afa1580156115a7573d6000803e3d6000fd5b505050506040513d601f19601f820116820180604052508101906115cb91906126f1565b9091509050816001815181106115dd57fe5b602002602001018173ffffffffffffffffffffffffffffffffffffffff1673ffffffffffffffffffffffffffffffffffffffff16815250507f000000000000000000000000000000000000000000000000000000000000000073ffffffffffffffffffffffffffffffffffffffff16633111e7b3827fffffffffffffffffffffffffffffffffffffffffffffffffffffffffffffffff306040518463ffffffff1660e01b815260040161169293929190613307565b602060405180830381600087803b1580156116ac57600080fd5b505af11580156116c0573d6000803e3d6000fd5b505050506040513d601f19601f820116820180604052508101906116e49190612877565b50611780828573ffffffffffffffffffffffffffffffffffffffff166370a08231306040518263ffffffff1660e01b81526004016117229190613186565b60206040518083038186803b15801561173a57600080fd5b505afa15801561174e573d6000803e3d6000fd5b505050506040513d601f19601f820116820180604052508101906117729190612877565b611fa190919063ffffffff16565b92505050915091565b6000807f000000000000000000000000000000000000000000000000000000000000000073ffffffffffffffffffffffffffffffffffffffff16630261bf8b6040518163ffffffff1660e01b815260040160206040518083038186803b1580156117f257600080fd5b505afa158015611806573d6000803e3d6000fd5b505050506040513d601f19601f8201168201806040525081019061182a919061268c565b905060008173ffffffffffffffffffffffffffffffffffffffff1663bf92857c306040518263ffffffff1660e01b81526004016118679190613186565b60c06040518083038186803b15801561187f57600080fd5b505afa158015611893573d6000803e3d6000fd5b505050506040513d601f19601f820116820180604052508101906118b791906129ca565b95505050505050806ec097ce7bc90715b34b9f1000000000816118d657fe5b0492505050919050565b600061197f828573ffffffffffffffffffffffffffffffffffffffff1663dd62ed3e30876040518363ffffffff1660e01b81526004016119219291906131a1565b60206040518083038186803b15801561193957600080fd5b505afa15801561194d573d6000803e3d6000fd5b505050506040513d601f19601f820116820180604052508101906119719190612877565b611e2090919063ffffffff16565b9050611a028463095ea7b360e01b85846040516024016119a09291906131ca565b604051602081830303815290604052907bffffffffffffffffffffffffffffffffffffffffffffffffffffffff19166020820180517bffffffffffffffffffffffffffffffffffffffffffffffffffffffff8381831617835250505050611ff1565b50505050565b611a10612327565b7f000000000000000000000000000000000000000000000000000000000000000073ffffffffffffffffffffffffffffffffffffffff16633e150141836040518263ffffffff1660e01b8152600401611a699190613186565b6101406040518083038186803b158015611a8257600080fd5b505afa158015611a96573d6000803e3d6000fd5b505050506040513d601f19601f82011682018060405250810190611aba91906128ef565b909192939495969798509091929394955090919293945090919293509091508560000186602001876101200188610140018961016001851515151581525085151515158152508515151515815250858152508581525050505050507f000000000000000000000000000000000000000000000000000000000000000073ffffffffffffffffffffffffffffffffffffffff166335ea6a75836040518263ffffffff1660e01b8152600401611b6e9190613186565b6101406040518083038186803b158015611b8757600080fd5b505afa158015611b9b573d6000803e3d6000fd5b505050506040513d601f19601f82011682018060405250810190611bbf9190612a53565b9091929350909192509091509050508560400186606001876080018860a0018960c001858152508581525085815250858152508581525050505050506000807f000000000000000000000000000000000000000000000000000000000000000073ffffffffffffffffffffffffffffffffffffffff1663d2493b6c856040518263ffffffff1660e01b8152600401611c579190613186565b60606040518083038186803b158015611c6f57600080fd5b505afa158015611c83573d6000803e3d6000fd5b505050506040513d601f19601f82011682018060405250810190611ca791906126f1565b92505091507f000000000000000000000000000000000000000000000000000000000000000073ffffffffffffffffffffffffffffffffffffffff16631652e7b7836040518263ffffffff1660e01b8152600401611d059190613186565b60606040518083038186803b158015611d1d57600080fd5b505afa158015611d31573d6000803e3d6000fd5b505050506040513d601f19601f82011682018060405250810190611d5591906128a0565b909150508360e00181815250507f000000000000000000000000000000000000000000000000000000000000000073ffffffffffffffffffffffffffffffffffffffff16631652e7b7826040518263ffffffff1660e01b8152600401611dbb9190613186565b60606040518083038186803b158015611dd357600080fd5b505afa158015611de7573d6000803e3d6000fd5b505050506040513d601f19601f82011682018060405250810190611e0b91906128a0565b90915050836101000181815250505050919050565b600080828401905083811015611e6b576040517f08c379a0000000000000000000000000000000000000000000000000000000008152600401611e6290613367565b60405180910390fd5b8091505092915050565b6000633b9aca008281611e8457fe5b049050919050565b600080831415611e9f5760009050611ef6565b6000828402905082848281611eb057fe5b0414611ef1576040517f08c379a0000000000000000000000000000000000000000000000000000000008152600401611ee8906133e7565b60405180910390fd5b809150505b92915050565b6000611f17655af3107a400083611e8c90919063ffffffff16565b9050919050565b6000808211611f62576040517f08c379a0000000000000000000000000000000000000000000000000000000008152600401611f59906133c7565b60405180910390fd5b818381611f6b57fe5b04905092915050565b6000807f8278faaeed8149083abb50630b1bee29cf32152ad9a9c9145fe4b38fa3f9c4e890508091505090565b600082821115611fe6576040517f08c379a0000000000000000000000000000000000000000000000000000000008152600401611fdd90613387565b60405180910390fd5b818303905092915050565b6060612053826040518060400160405280602081526020017f5361666545524332303a206c6f772d6c6576656c2063616c6c206661696c65648152508573ffffffffffffffffffffffffffffffffffffffff166120b89092919063ffffffff16565b90506000815111156120b3578080602001905181019061207391906127e3565b6120b2576040517f08c379a00000000000000000000000000000000000000000000000000000000081526004016120a990613427565b60405180910390fd5b5b505050565b60606120c784846000856120d0565b90509392505050565b606082471015612115576040517f08c379a000000000000000000000000000000000000000000000000000000000815260040161210c906133a7565b60405180910390fd5b61211e856121e5565b61215d576040517f08c379a000000000000000000000000000000000000000000000000000000000815260040161215490613407565b60405180910390fd5b600060608673ffffffffffffffffffffffffffffffffffffffff168587604051612187919061316f565b60006040518083038185875af1925050503d80600081146121c4576040519150601f19603f3d011682016040523d82523d6000602084013e6121c9565b606091505b50915091506121d98282866121f8565b92505050949350505050565b600080823b905060008111915050919050565b6060831561220857829050612258565b60008351111561221b5782518084602001fd5b816040517f08c379a000000000000000000000000000000000000000000000000000000000815260040161224f9190613345565b60405180910390fd5b9392505050565b604051806102600160405280600073ffffffffffffffffffffffffffffffffffffffff16815260200160608152602001600060ff16815260200160008152602001600081526020016000815260200160008152602001600081526020016000815260200160008152602001600073ffffffffffffffffffffffffffffffffffffffff16815260200160608152602001600060ff168152602001600081526020016000815260200160008152602001600081526020016000151581526020016000151581525090565b6040518061018001604052806000815260200160008152602001600081526020016000815260200160008152602001600081526020016000815260200160008152602001600081526020016000151581526020016000151581526020016000151581525090565b60008135905061239d81613667565b92915050565b6000815190506123b281613667565b92915050565b600082601f8301126123c957600080fd5b81356123dc6123d7826134b1565b613484565b9150818183526020840193506020810190508385602084028201111561240157600080fd5b60005b838110156124315781612417888261238e565b845260208401935060208301925050600181019050612404565b5050505092915050565b60008151905061244a8161367e565b92915050565b600082601f83011261246157600080fd5b815161247461246f826134d9565b613484565b9150808252602083016020830185838301111561249057600080fd5b61249b838284613623565b50505092915050565b6000602082840312156124b657600080fd5b6124c06020613484565b905060006124d084828501612624565b60008301525092915050565b600061018082840312156124ef57600080fd5b6124fa610180613484565b9050600061250a848285016124a4565b600083015250602061251e848285016125fa565b6020830152506040612532848285016125fa565b6040830152506060612546848285016125fa565b606083015250608061255a848285016125fa565b60808301525060a061256e848285016125fa565b60a08301525060c061258284828501612639565b60c08301525060e0612596848285016123a3565b60e0830152506101006125ab848285016123a3565b610100830152506101206125c1848285016123a3565b610120830152506101406125d7848285016123a3565b610140830152506101606125ed8482850161264e565b6101608301525092915050565b60008151905061260981613695565b92915050565b60008135905061261e816136ac565b92915050565b600081519050612633816136ac565b92915050565b600081519050612648816136c3565b92915050565b60008151905061265d816136da565b92915050565b60006020828403121561267557600080fd5b60006126838482850161238e565b91505092915050565b60006020828403121561269e57600080fd5b60006126ac848285016123a3565b91505092915050565b600080604083850312156126c857600080fd5b60006126d68582860161238e565b92505060206126e78582860161238e565b9150509250929050565b60008060006060848603121561270657600080fd5b6000612714868287016123a3565b9350506020612725868287016123a3565b9250506040612736868287016123a3565b9150509250925092565b60008060006060848603121561275557600080fd5b60006127638682870161238e565b93505060206127748682870161238e565b92505060406127858682870161260f565b9150509250925092565b600080604083850312156127a257600080fd5b60006127b08582860161238e565b925050602083013567ffffffffffffffff8111156127cd57600080fd5b6127d9858286016123b8565b9150509250929050565b6000602082840312156127f557600080fd5b60006128038482850161243b565b91505092915050565b60006020828403121561281e57600080fd5b600082015167ffffffffffffffff81111561283857600080fd5b61284484828501612450565b91505092915050565b6000610180828403121561286057600080fd5b600061286e848285016124dc565b91505092915050565b60006020828403121561288957600080fd5b600061289784828501612624565b91505092915050565b6000806000606084860312156128b557600080fd5b60006128c386828701612624565b93505060206128d486828701612624565b92505060406128e586828701612624565b9150509250925092565b6000806000806000806000806000806101408b8d03121561290f57600080fd5b600061291d8d828e01612624565b9a5050602061292e8d828e01612624565b995050604061293f8d828e01612624565b98505060606129508d828e01612624565b97505060806129618d828e01612624565b96505060a06129728d828e0161243b565b95505060c06129838d828e0161243b565b94505060e06129948d828e0161243b565b9350506101006129a68d828e0161243b565b9250506101206129b88d828e0161243b565b9150509295989b9194979a5092959850565b60008060008060008060c087890312156129e357600080fd5b60006129f189828a01612624565b9650506020612a0289828a01612624565b9550506040612a1389828a01612624565b9450506060612a2489828a01612624565b9350506080612a3589828a01612624565b92505060a0612a4689828a01612624565b9150509295509295509295565b6000806000806000806000806000806101408b8d031215612a7357600080fd5b6000612a818d828e01612624565b9a50506020612a928d828e01612624565b9950506040612aa38d828e01612624565b9850506060612ab48d828e01612624565b9750506080612ac58d828e01612624565b96505060a0612ad68d828e01612624565b95505060c0612ae78d828e01612624565b94505060e0612af88d828e01612624565b935050610100612b0a8d828e01612624565b925050610120612b1c8d828e01612639565b9150509295989b9194979a5092959850565b60008060008060008060008060006101208a8c031215612b4d57600080fd5b6000612b5b8c828d01612624565b9950506020612b6c8c828d01612624565b9850506040612b7d8c828d01612624565b9750506060612b8e8c828d01612624565b9650506080612b9f8c828d01612624565b95505060a0612bb08c828d01612624565b94505060c0612bc18c828d01612624565b93505060e0612bd28c828d01612639565b925050610100612be48c828d0161243b565b9150509295985092959850929598565b600060208284031215612c0657600080fd5b6000612c148482850161264e565b91505092915050565b6000612c298383612c35565b60208301905092915050565b612c3e81613581565b82525050565b612c4d81613581565b82525050565b6000612c5e82613515565b612c688185613543565b9350612c7383613505565b8060005b83811015612ca4578151612c8b8882612c1d565b9750612c9683613536565b925050600181019050612c77565b5085935050505092915050565b612cba81613593565b82525050565b6000612ccb82613520565b612cd58185613554565b9350612ce5818560208601613623565b80840191505092915050565b612cfa81613611565b82525050565b6000612d0b8261352b565b612d15818561355f565b9350612d25818560208601613623565b612d2e81613656565b840191505092915050565b6000612d448261352b565b612d4e8185613570565b9350612d5e818560208601613623565b612d6781613656565b840191505092915050565b6000612d7f601b83613570565b91507f536166654d6174683a206164646974696f6e206f766572666c6f7700000000006000830152602082019050919050565b6000612dbf601e83613570565b91507f536166654d6174683a207375627472616374696f6e206f766572666c6f7700006000830152602082019050919050565b6000612dff602683613570565b91507f416464726573733a20696e73756666696369656e742062616c616e636520666f60008301527f722063616c6c00000000000000000000000000000000000000000000000000006020830152604082019050919050565b6000612e65601a83613570565b91507f536166654d6174683a206469766973696f6e206279207a65726f0000000000006000830152602082019050919050565b6000612ea5602183613570565b91507f536166654d6174683a206d756c7469706c69636174696f6e206f766572666c6f60008301527f77000000000000000000000000000000000000000000000000000000000000006020830152604082019050919050565b6000612f0b601d83613570565b91507f416464726573733a2063616c6c20746f206e6f6e2d636f6e74726163740000006000830152602082019050919050565b6000612f4b602a83613570565b91507f5361666545524332303a204552433230206f7065726174696f6e20646964206e60008301527f6f742073756363656564000000000000000000000000000000000000000000006020830152604082019050919050565b600061026083016000830151612fbd6000860182612c35565b5060208301518482036020860152612fd58282612d00565b9150506040830151612fea6040860182613160565b506060830151612ffd6060860182613142565b5060808301516130106080860182613142565b5060a083015161302360a0860182613142565b5060c083015161303660c0860182613142565b5060e083015161304960e0860182613142565b5061010083015161305e610100860182613142565b50610120830151613073610120860182613142565b50610140830151613088610140860182612c35565b506101608301518482036101608601526130a28282612d00565b9150506101808301516130b9610180860182613160565b506101a08301516130ce6101a0860182613142565b506101c08301516130e36101c0860182613142565b506101e08301516130f86101e0860182613142565b5061020083015161310d610200860182613142565b50610220830151613122610220860182612cb1565b50610240830151613137610240860182612cb1565b508091505092915050565b61314b816135e9565b82525050565b61315a816135e9565b82525050565b61316981613604565b82525050565b600061317b8284612cc0565b915081905092915050565b600060208201905061319b6000830184612c44565b92915050565b60006040820190506131b66000830185612c44565b6131c36020830184612c44565b9392505050565b60006040820190506131df6000830185612c44565b6131ec6020830184613151565b9392505050565b60006060820190506132086000830186612c44565b6132156020830185613151565b6132226040830184612c44565b949350505050565b600060808201905061323f6000830187612c44565b61324c6020830186613151565b6132596040830185612c44565b6132666060830184612cf1565b95945050505050565b60006080820190506132846000830187612c44565b6132916020830186613151565b61329e6040830185613151565b6132ab6060830184612c44565b95945050505050565b600060a0820190506132c96000830188612c44565b6132d66020830187613151565b6132e36040830186613151565b6132f06060830185612cf1565b6132fd6080830184612c44565b9695505050505050565b600060608201905081810360008301526133218186612c53565b90506133306020830185613151565b61333d6040830184612c44565b949350505050565b6000602082019050818103600083015261335f8184612d39565b905092915050565b6000602082019050818103600083015261338081612d72565b9050919050565b600060208201905081810360008301526133a081612db2565b9050919050565b600060208201905081810360008301526133c081612df2565b9050919050565b600060208201905081810360008301526133e081612e58565b9050919050565b6000602082019050818103600083015261340081612e98565b9050919050565b6000602082019050818103600083015261342081612efe565b9050919050565b6000602082019050818103600083015261344081612f3e565b9050919050565b600060208201905081810360008301526134618184612fa4565b905092915050565b600060208201905061347e6000830184613151565b92915050565b6000604051905081810181811067ffffffffffffffff821117156134a757600080fd5b8060405250919050565b600067ffffffffffffffff8211156134c857600080fd5b602082029050602081019050919050565b600067ffffffffffffffff8211156134f057600080fd5b601f19601f8301169050602081019050919050565b6000819050602082019050919050565b600081519050919050565b600081519050919050565b600081519050919050565b6000602082019050919050565b600082825260208201905092915050565b600081905092915050565b600082825260208201905092915050565b600082825260208201905092915050565b600061358c826135c9565b9050919050565b60008115159050919050565b60006fffffffffffffffffffffffffffffffff82169050919050565b600061ffff82169050919050565b600073ffffffffffffffffffffffffffffffffffffffff82169050919050565b6000819050919050565b600064ffffffffff82169050919050565b600060ff82169050919050565b600061361c826135bb565b9050919050565b60005b83811015613641578082015181840152602081019050613626565b83811115613650576000848401525b50505050565b6000601f19601f8301169050919050565b61367081613581565b811461367b57600080fd5b50565b61368781613593565b811461369257600080fd5b50565b61369e8161359f565b81146136a957600080fd5b50565b6136b5816135e9565b81146136c057600080fd5b50565b6136cc816135f3565b81146136d757600080fd5b50565b6136e381613604565b81146136ee57600080fd5b5056fea264697066735822122021f22d37b3f06bd27d0652e7e779190c36dd7eb948e928093f38d5101352197364736f6c634300060c0033",
  "devdoc": {
    "kind": "dev",
    "methods": {
      "enterMarkets(address,address[])": {
        "details": "Empty because this is done by default in Aave"
      },
      "getCollateralFactorForAsset(address,address)": {
        "details": "reasoning: 1) get asset reserve data, which has liquidation threshold encoded in bits 16-31 2) right shift the number so that we remove bits 0-15 3) now with modulo 2**16, the retrieved value is the first 16 bits of the data, which is the liquiditation threshold for the asset according to \"struct ReserveConfigurationMap\" (see Interfaces.sol). This number goes from 0 (0%) to 10000 (100%). To transform it to mantissa 18, this number is multiplied by 1e14.*"
      },
      "getReferencePrice(address,address)": {
        "details": "reasoning: Aave reference prices do not take into account the number of decimals of the token, but our system does. To take them into account, we multiply by ETH's decimals (1e18) and divide by the token 's decimals.*"
      }
    },
    "version": 1
  },
  "userdoc": {
    "kind": "user",
    "methods": {},
    "version": 1
  },
  "storageLayout": {
    "storage": [],
    "types": null
  }
}