{
  "address": "0x61971936f7F6d6ab70d7eF0Ae4a5eBd4598a5b81",
  "abi": [
    {
      "inputs": [
        {
          "internalType": "uint256",
          "name": "_rewardsFactor",
          "type": "uint256"
        },
        {
          "internalType": "address",
          "name": "_holder",
          "type": "address"
        }
      ],
      "stateMutability": "nonpayable",
      "type": "constructor"
    },
    {
      "inputs": [],
      "name": "claimRewards",
      "outputs": [
        {
          "internalType": "address",
          "name": "rewardsToken",
          "type": "address"
        },
        {
          "internalType": "uint256",
          "name": "rewardsAmount",
          "type": "uint256"
        }
      ],
      "stateMutability": "nonpayable",
      "type": "function"
    },
    {
      "inputs": [],
      "name": "holder",
      "outputs": [
        {
          "internalType": "address",
          "name": "",
          "type": "address"
        }
      ],
      "stateMutability": "view",
      "type": "function"
    },
    {
      "inputs": [],
      "name": "rewardsFactor",
      "outputs": [
        {
          "internalType": "uint256",
          "name": "",
          "type": "uint256"
        }
      ],
      "stateMutability": "view",
      "type": "function"
    }
  ],
  "transactionHash": "0x9eab8496583835a9ad606f42d3e37b3173788d56f5bd9b1f82242a3621b98361",
  "args": [
    "100000000000000000",
    "0xfF6062AAc9A6367Ce2F02C826C544a130baBCf32"
  ],
  "solcInputHash": "52a2d5c26a8dcef59265603bf75f9b43",
  "bytecode": "0x60c06040523480156200001157600080fd5b5060405162001180380380620011808339818101604052810190620000379190620000ac565b81608081815250508073ffffffffffffffffffffffffffffffffffffffff1660a08173ffffffffffffffffffffffffffffffffffffffff1660601b8152505050506200015f565b6000815190506200008f816200012b565b92915050565b600081519050620000a68162000145565b92915050565b60008060408385031215620000c057600080fd5b6000620000d08582860162000095565b9250506020620000e3858286016200007e565b9150509250929050565b6000620000fa8262000101565b9050919050565b600073ffffffffffffffffffffffffffffffffffffffff82169050919050565b6000819050919050565b6200013681620000ed565b81146200014257600080fd5b50565b620001508162000121565b81146200015c57600080fd5b50565b60805160a05160601c610ff062000190600039806101ea528061029b5250806101a452806102775250610ff06000f3fe608060405234801561001057600080fd5b50600436106100415760003560e01c8063372500ab146100465780634369c25014610065578063e534155d14610083575b600080fd5b61004e6100a1565b60405161005c929190610d41565b60405180910390f35b61006d610275565b60405161007a9190610e4c565b60405180910390f35b61008b610299565b6040516100989190610d26565b60405180910390f35b6000806100ac6102bd565b6100eb576040517f08c379a00000000000000000000000000000000000000000000000000000000081526004016100e290610dec565b60405180910390fd5b60006101216100f861031f565b60000160009054906101000a900473ffffffffffffffffffffffffffffffffffffffff1661034c565b90506101588161012f61031f565b60000160009054906101000a900473ffffffffffffffffffffffffffffffffffffffff16610409565b8093508194505050600073ffffffffffffffffffffffffffffffffffffffff168373ffffffffffffffffffffffffffffffffffffffff1614610270576000670de0b6b3a76400006101d27f0000000000000000000000000000000000000000000000000000000000000000856104ce90919063ffffffff16565b816101d957fe5b0490506000811115610231576102307f0000000000000000000000000000000000000000000000000000000000000000828673ffffffffffffffffffffffffffffffffffffffff1661053e9092919063ffffffff16565b5b8083111561026e5761026d6102446105c4565b8285038673ffffffffffffffffffffffffffffffffffffffff1661053e9092919063ffffffff16565b5b505b509091565b7f000000000000000000000000000000000000000000000000000000000000000081565b7f000000000000000000000000000000000000000000000000000000000000000081565b60008073ffffffffffffffffffffffffffffffffffffffff166102de61031f565b60000160009054906101000a900473ffffffffffffffffffffffffffffffffffffffff1673ffffffffffffffffffffffffffffffffffffffff161415905090565b6000807f8278faaeed8149083abb50630b1bee29cf32152ad9a9c9145fe4b38fa3f9c4e890508091505090565b60006103566105f7565b60020160009054906101000a900473ffffffffffffffffffffffffffffffffffffffff1673ffffffffffffffffffffffffffffffffffffffff166342dfa789836040518263ffffffff1660e01b81526004016103b29190610d26565b60206040518083038186803b1580156103ca57600080fd5b505afa1580156103de573d6000803e3d6000fd5b505050506040513d601f19601f8201168201806040525081019061040291906109e1565b9050919050565b60008060606104ac63ef5cfb8c60e01b8560405160240161042a9190610d26565b604051602081830303815290604052907bffffffffffffffffffffffffffffffffffffffffffffffffffffffff19166020820180517bffffffffffffffffffffffffffffffffffffffffffffffffffffffff83818316178352505050508673ffffffffffffffffffffffffffffffffffffffff1661062490919063ffffffff16565b9050808060200190518101906104c29190610a0a565b92509250509250929050565b6000808314156104e15760009050610538565b60008284029050828482816104f257fe5b0414610533576040517f08c379a000000000000000000000000000000000000000000000000000000000815260040161052a90610dac565b60405180910390fd5b809150505b92915050565b6105bf8363a9059cbb60e01b848460405160240161055d929190610d41565b604051602081830303815290604052907bffffffffffffffffffffffffffffffffffffffffffffffffffffffff19166020820180517bffffffffffffffffffffffffffffffffffffffffffffffffffffffff8381831617835250505050610651565b505050565b60006105ce6105f7565b60040160009054906101000a900473ffffffffffffffffffffffffffffffffffffffff16905090565b6000807fadbb89e904f74d44d0d104c851da4f2fa24de8f1dee64f038923bb940f37d53a90508091505090565b60606106498383604051806060016040528060278152602001610f9460279139610718565b905092915050565b60606106b3826040518060400160405280602081526020017f5361666545524332303a206c6f772d6c6576656c2063616c6c206661696c65648152508573ffffffffffffffffffffffffffffffffffffffff166107e69092919063ffffffff16565b905060008151111561071357808060200190518101906106d39190610a46565b610712576040517f08c379a000000000000000000000000000000000000000000000000000000000815260040161070990610e2c565b60405180910390fd5b5b505050565b6060610723846107fe565b610762576040517f08c379a000000000000000000000000000000000000000000000000000000000815260040161075990610dcc565b60405180910390fd5b600060608573ffffffffffffffffffffffffffffffffffffffff168560405161078b9190610d0f565b600060405180830381855af49150503d80600081146107c6576040519150601f19603f3d011682016040523d82523d6000602084013e6107cb565b606091505b50915091506107db828286610811565b925050509392505050565b60606107f58484600085610878565b90509392505050565b600080823b905060008111915050919050565b6060831561082157829050610871565b6000835111156108345782518084602001fd5b816040517f08c379a00000000000000000000000000000000000000000000000000000000081526004016108689190610d6a565b60405180910390fd5b9392505050565b6060824710156108bd576040517f08c379a00000000000000000000000000000000000000000000000000000000081526004016108b490610d8c565b60405180910390fd5b6108c6856107fe565b610905576040517f08c379a00000000000000000000000000000000000000000000000000000000081526004016108fc90610e0c565b60405180910390fd5b600060608673ffffffffffffffffffffffffffffffffffffffff16858760405161092f9190610d0f565b60006040518083038185875af1925050503d806000811461096c576040519150601f19603f3d011682016040523d82523d6000602084013e610971565b606091505b5091509150610981828286610811565b92505050949350505050565b60008151905061099c81610f37565b92915050565b6000815190506109b181610f4e565b92915050565b6000815190506109c681610f65565b92915050565b6000815190506109db81610f7c565b92915050565b6000602082840312156109f357600080fd5b6000610a018482850161098d565b91505092915050565b60008060408385031215610a1d57600080fd5b6000610a2b858286016109a2565b9250506020610a3c858286016109cc565b9150509250929050565b600060208284031215610a5857600080fd5b6000610a66848285016109b7565b91505092915050565b610a7881610e99565b82525050565b6000610a8982610e67565b610a938185610e7d565b9350610aa3818560208601610ef3565b80840191505092915050565b6000610aba82610e72565b610ac48185610e88565b9350610ad4818560208601610ef3565b610add81610f26565b840191505092915050565b6000610af5602683610e88565b91507f416464726573733a20696e73756666696369656e742062616c616e636520666f60008301527f722063616c6c00000000000000000000000000000000000000000000000000006020830152604082019050919050565b6000610b5b602183610e88565b91507f536166654d6174683a206d756c7469706c69636174696f6e206f766572666c6f60008301527f77000000000000000000000000000000000000000000000000000000000000006020830152604082019050919050565b6000610bc1602683610e88565b91507f416464726573733a2064656c65676174652063616c6c20746f206e6f6e2d636f60008301527f6e747261637400000000000000000000000000000000000000000000000000006020830152604082019050919050565b6000610c27600383610e88565b91507f53503100000000000000000000000000000000000000000000000000000000006000830152602082019050919050565b6000610c67601d83610e88565b91507f416464726573733a2063616c6c20746f206e6f6e2d636f6e74726163740000006000830152602082019050919050565b6000610ca7602a83610e88565b91507f5361666545524332303a204552433230206f7065726174696f6e20646964206e60008301527f6f742073756363656564000000000000000000000000000000000000000000006020830152604082019050919050565b610d0981610ee9565b82525050565b6000610d1b8284610a7e565b915081905092915050565b6000602082019050610d3b6000830184610a6f565b92915050565b6000604082019050610d566000830185610a6f565b610d636020830184610d00565b9392505050565b60006020820190508181036000830152610d848184610aaf565b905092915050565b60006020820190508181036000830152610da581610ae8565b9050919050565b60006020820190508181036000830152610dc581610b4e565b9050919050565b60006020820190508181036000830152610de581610bb4565b9050919050565b60006020820190508181036000830152610e0581610c1a565b9050919050565b60006020820190508181036000830152610e2581610c5a565b9050919050565b60006020820190508181036000830152610e4581610c9a565b9050919050565b6000602082019050610e616000830184610d00565b92915050565b600081519050919050565b600081519050919050565b600081905092915050565b600082825260208201905092915050565b6000610ea482610ec9565b9050919050565b6000610eb682610ec9565b9050919050565b60008115159050919050565b600073ffffffffffffffffffffffffffffffffffffffff82169050919050565b6000819050919050565b60005b83811015610f11578082015181840152602081019050610ef6565b83811115610f20576000848401525b50505050565b6000601f19601f8301169050919050565b610f4081610e99565b8114610f4b57600080fd5b50565b610f5781610eab565b8114610f6257600080fd5b50565b610f6e81610ebd565b8114610f7957600080fd5b50565b610f8581610ee9565b8114610f9057600080fd5b5056fe416464726573733a206c6f772d6c6576656c2064656c65676174652063616c6c206661696c6564a2646970667358221220681f71168633d3d5a4b73f300ba71a2e35c61cf3fa9f2c93651b188ed6981c2364736f6c634300060c0033",
  "devdoc": {
    "kind": "dev",
    "methods": {},
    "version": 1
  },
  "userdoc": {
    "kind": "user",
    "methods": {},
    "version": 1
  },
  "storageLayout": {
    "storage": [],
    "types": null
  }
}