{
  "address": "0xb1D099E2eA5D85a69d87e245Aff22E2342433903",
  "abi": [
    {
      "inputs": [
        {
          "internalType": "address",
          "name": "wethAddress",
          "type": "address"
        },
        {
          "internalType": "address",
          "name": "cTokenProviderAddress",
          "type": "address"
        }
      ],
      "stateMutability": "nonpayable",
      "type": "constructor"
    },
    {
      "inputs": [],
      "name": "WETH",
      "outputs": [
        {
          "internalType": "contract IWETH",
          "name": "",
          "type": "address"
        }
      ],
      "stateMutability": "view",
      "type": "function"
    },
    {
      "inputs": [
        {
          "internalType": "address",
          "name": "platform",
          "type": "address"
        },
        {
          "internalType": "address",
          "name": "token",
          "type": "address"
        },
        {
          "internalType": "uint256",
          "name": "amount",
          "type": "uint256"
        }
      ],
      "name": "borrow",
      "outputs": [],
      "stateMutability": "nonpayable",
      "type": "function"
    },
    {
      "inputs": [],
      "name": "cTokenProvider",
      "outputs": [
        {
          "internalType": "contract ICTokenProvider",
          "name": "",
          "type": "address"
        }
      ],
      "stateMutability": "view",
      "type": "function"
    },
    {
      "inputs": [
        {
          "internalType": "address",
          "name": "platform",
          "type": "address"
        }
      ],
      "name": "claimRewards",
      "outputs": [
        {
          "internalType": "address",
          "name": "rewardsToken",
          "type": "address"
        },
        {
          "internalType": "uint256",
          "name": "rewardsAmount",
          "type": "uint256"
        }
      ],
      "stateMutability": "nonpayable",
      "type": "function"
    },
    {
      "inputs": [
        {
          "internalType": "address",
          "name": "platform",
          "type": "address"
        },
        {
          "internalType": "address[]",
          "name": "markets",
          "type": "address[]"
        }
      ],
      "name": "enterMarkets",
      "outputs": [],
      "stateMutability": "nonpayable",
      "type": "function"
    },
    {
      "inputs": [
        {
          "internalType": "address",
          "name": "platform",
          "type": "address"
        },
        {
          "internalType": "address",
          "name": "asset",
          "type": "address"
        }
      ],
      "name": "getAssetMetadata",
      "outputs": [
        {
          "components": [
            {
              "internalType": "address",
              "name": "assetAddress",
              "type": "address"
            },
            {
              "internalType": "string",
              "name": "assetSymbol",
              "type": "string"
            },
            {
              "internalType": "uint8",
              "name": "assetDecimals",
              "type": "uint8"
            },
            {
              "internalType": "uint256",
              "name": "referencePrice",
              "type": "uint256"
            },
            {
              "internalType": "uint256",
              "name": "totalLiquidity",
              "type": "uint256"
            },
            {
              "internalType": "uint256",
              "name": "totalSupply",
              "type": "uint256"
            },
            {
              "internalType": "uint256",
              "name": "totalBorrow",
              "type": "uint256"
            },
            {
              "internalType": "uint256",
              "name": "totalReserves",
              "type": "uint256"
            },
            {
              "internalType": "uint256",
              "name": "supplyAPR",
              "type": "uint256"
            },
            {
              "internalType": "uint256",
              "name": "borrowAPR",
              "type": "uint256"
            },
            {
              "internalType": "address",
              "name": "rewardTokenAddress",
              "type": "address"
            },
            {
              "internalType": "string",
              "name": "rewardTokenSymbol",
              "type": "string"
            },
            {
              "internalType": "uint8",
              "name": "rewardTokenDecimals",
              "type": "uint8"
            },
            {
              "internalType": "uint256",
              "name": "estimatedSupplyRewardsPerYear",
              "type": "uint256"
            },
            {
              "internalType": "uint256",
              "name": "estimatedBorrowRewardsPerYear",
              "type": "uint256"
            },
            {
              "internalType": "uint256",
              "name": "collateralFactor",
              "type": "uint256"
            },
            {
              "internalType": "uint256",
              "name": "liquidationFactor",
              "type": "uint256"
            },
            {
              "internalType": "bool",
              "name": "canSupply",
              "type": "bool"
            },
            {
              "internalType": "bool",
              "name": "canBorrow",
              "type": "bool"
            }
          ],
          "internalType": "struct AssetMetadata",
          "name": "assetMetadata",
          "type": "tuple"
        }
      ],
      "stateMutability": "nonpayable",
      "type": "function"
    },
    {
      "inputs": [
        {
          "internalType": "address",
          "name": "platform",
          "type": "address"
        },
        {
          "internalType": "address",
          "name": "token",
          "type": "address"
        }
      ],
      "name": "getBorrowBalance",
      "outputs": [
        {
          "internalType": "uint256",
          "name": "borrowBalance",
          "type": "uint256"
        }
      ],
      "stateMutability": "nonpayable",
      "type": "function"
    },
    {
      "inputs": [
        {
          "internalType": "address",
          "name": "platform",
          "type": "address"
        },
        {
          "internalType": "address",
          "name": "asset",
          "type": "address"
        }
      ],
      "name": "getCollateralFactorForAsset",
      "outputs": [
        {
          "internalType": "uint256",
          "name": "collateralFactor",
          "type": "uint256"
        }
      ],
      "stateMutability": "nonpayable",
      "type": "function"
    },
    {
      "inputs": [
        {
          "internalType": "address",
          "name": "platform",
          "type": "address"
        }
      ],
      "name": "getCollateralUsageFactor",
      "outputs": [
        {
          "internalType": "uint256",
          "name": "",
          "type": "uint256"
        }
      ],
      "stateMutability": "nonpayable",
      "type": "function"
    },
    {
      "inputs": [
        {
          "internalType": "address",
          "name": "platform",
          "type": "address"
        },
        {
          "internalType": "address",
          "name": "token",
          "type": "address"
        }
      ],
      "name": "getReferencePrice",
      "outputs": [
        {
          "internalType": "uint256",
          "name": "",
          "type": "uint256"
        }
      ],
      "stateMutability": "nonpayable",
      "type": "function"
    },
    {
      "inputs": [
        {
          "internalType": "address",
          "name": "platform",
          "type": "address"
        },
        {
          "internalType": "address",
          "name": "token",
          "type": "address"
        }
      ],
      "name": "getSupplyBalance",
      "outputs": [
        {
          "internalType": "uint256",
          "name": "supplyBalance",
          "type": "uint256"
        }
      ],
      "stateMutability": "nonpayable",
      "type": "function"
    },
    {
      "inputs": [
        {
          "internalType": "address",
          "name": "platform",
          "type": "address"
        },
        {
          "internalType": "address",
          "name": "token",
          "type": "address"
        },
        {
          "internalType": "uint256",
          "name": "amount",
          "type": "uint256"
        }
      ],
      "name": "redeemSupply",
      "outputs": [],
      "stateMutability": "nonpayable",
      "type": "function"
    },
    {
      "inputs": [
        {
          "internalType": "address",
          "name": "platform",
          "type": "address"
        },
        {
          "internalType": "address",
          "name": "token",
          "type": "address"
        },
        {
          "internalType": "uint256",
          "name": "amount",
          "type": "uint256"
        }
      ],
      "name": "repayBorrow",
      "outputs": [],
      "stateMutability": "nonpayable",
      "type": "function"
    },
    {
      "inputs": [
        {
          "internalType": "address",
          "name": "platform",
          "type": "address"
        },
        {
          "internalType": "address",
          "name": "token",
          "type": "address"
        },
        {
          "internalType": "uint256",
          "name": "amount",
          "type": "uint256"
        }
      ],
      "name": "supply",
      "outputs": [],
      "stateMutability": "nonpayable",
      "type": "function"
    },
    {
      "stateMutability": "payable",
      "type": "receive"
    }
  ],
  "transactionHash": "0xaad926aaa7ec58e641277bad9a26becfdf91cef396f1367dd781911e479bc974",
  "args": [
    "0xC02aaA39b223FE8D0A0e5C4F27eAD9083C756Cc2",
    "0xEc6b351778aAA2349a8726B4837e05232ef20d03"
  ],
  "solcInputHash": "b37be5b74cf8d49a4a1cc3dae92a9cfa",
  "bytecode": "0x60c06040523480156200001157600080fd5b5060405162003eac38038062003eac8339818101604052810190620000379190620001aa565b600073ffffffffffffffffffffffffffffffffffffffff168273ffffffffffffffffffffffffffffffffffffffff161415620000aa576040517f08c379a0000000000000000000000000000000000000000000000000000000008152600401620000a1906200022d565b60405180910390fd5b600073ffffffffffffffffffffffffffffffffffffffff168173ffffffffffffffffffffffffffffffffffffffff1614156200011d576040517f08c379a000000000000000000000000000000000000000000000000000000000815260040162000114906200022d565b60405180910390fd5b8173ffffffffffffffffffffffffffffffffffffffff1660808173ffffffffffffffffffffffffffffffffffffffff1660601b815250508073ffffffffffffffffffffffffffffffffffffffff1660a08173ffffffffffffffffffffffffffffffffffffffff1660601b815250505050620002ae565b600081519050620001a48162000294565b92915050565b60008060408385031215620001be57600080fd5b6000620001ce8582860162000193565b9250506020620001e18582860162000193565b9150509250929050565b6000620001fa6004836200024f565b91507f49435030000000000000000000000000000000000000000000000000000000006000830152602082019050919050565b600060208201905081810360008301526200024881620001eb565b9050919050565b600082825260208201905092915050565b60006200026d8262000274565b9050919050565b600073ffffffffffffffffffffffffffffffffffffffff82169050919050565b6200029f8162000260565b8114620002ab57600080fd5b50565b60805160601c60a05160601c613ba7620003056000398061244252806124685250806103cb528061041f528061066552806106b95280610ab15280610b055280610eea5280610f3e5280610fc75250613ba76000f3fe6080604052600436106100e05760003560e01c8063b29d57d81161007f578063eed1a08c11610059578063eed1a08c146102d8578063ef5cfb8c14610315578063ef84867014610353578063f8fabcf514610390576100e7565b8063b29d57d814610221578063b84c743b1461025e578063ba3777311461029b576100e7565b80631c009d71116100bb5780631c009d711461017b5780634883400d146101a45780635224372c146101cd578063ad5c4648146101f6576100e7565b806220311b146100ec5780630c0a769b14610115578063118e31b71461013e576100e7565b366100e757005b600080fd5b3480156100f857600080fd5b50610113600480360381019061010e9190612eb4565b6103bb565b005b34801561012157600080fd5b5061013c60048036038101906101379190612eb4565b610655565b005b34801561014a57600080fd5b5061016560048036038101906101609190612e78565b6108ef565b60405161017291906138b3565b60405180910390f35b34801561018757600080fd5b506101a2600480360381019061019d9190612eb4565b61098d565b005b3480156101b057600080fd5b506101cb60048036038101906101c69190612f03565b610b8c565b005b3480156101d957600080fd5b506101f460048036038101906101ef9190612eb4565b610dc6565b005b34801561020257600080fd5b5061020b610fc5565b6040516102189190613794565b60405180910390f35b34801561022d57600080fd5b5061024860048036038101906102439190612e78565b610fe9565b6040516102559190613891565b60405180910390f35b34801561026a57600080fd5b5061028560048036038101906102809190612e78565b611b63565b60405161029291906138b3565b60405180910390f35b3480156102a757600080fd5b506102c260048036038101906102bd9190612e78565b611c8d565b6040516102cf91906138b3565b60405180910390f35b3480156102e457600080fd5b506102ff60048036038101906102fa9190612e78565b611d2b565b60405161030c91906138b3565b60405180910390f35b34801561032157600080fd5b5061033c60048036038101906103379190612e26565b611dcd565b60405161034a92919061372e565b60405180910390f35b34801561035f57600080fd5b5061037a60048036038101906103759190612e26565b611fe8565b60405161038791906138b3565b60405180910390f35b34801561039c57600080fd5b506103a5612440565b6040516103b29190613779565b60405180910390f35b60006103c78484612464565b90507f000000000000000000000000000000000000000000000000000000000000000073ffffffffffffffffffffffffffffffffffffffff168373ffffffffffffffffffffffffffffffffffffffff16141561050e577f000000000000000000000000000000000000000000000000000000000000000073ffffffffffffffffffffffffffffffffffffffff16632e1a7d4d836040518263ffffffff1660e01b815260040161047691906138b3565b600060405180830381600087803b15801561049057600080fd5b505af11580156104a4573d6000803e3d6000fd5b505050508073ffffffffffffffffffffffffffffffffffffffff16634e4d9fea836040518263ffffffff1660e01b81526004016000604051808303818588803b1580156104f057600080fd5b505af1158015610504573d6000803e3d6000fd5b505050505061064f565b61053981838573ffffffffffffffffffffffffffffffffffffffff166125199092919063ffffffff16565b60008173ffffffffffffffffffffffffffffffffffffffff16630e752702846040518263ffffffff1660e01b815260040161057491906138b3565b602060405180830381600087803b15801561058e57600080fd5b505af11580156105a2573d6000803e3d6000fd5b505050506040513d601f19601f820116820180604052508101906105c69190613096565b90506000811461060b6040518060400160405280600581526020017f43464c413500000000000000000000000000000000000000000000000000000081525083612641565b9061064c576040517f08c379a000000000000000000000000000000000000000000000000000000000815260040161064391906137af565b60405180910390fd5b50505b50505050565b60006106618484612464565b90507f000000000000000000000000000000000000000000000000000000000000000073ffffffffffffffffffffffffffffffffffffffff168373ffffffffffffffffffffffffffffffffffffffff1614156107a8577f000000000000000000000000000000000000000000000000000000000000000073ffffffffffffffffffffffffffffffffffffffff16632e1a7d4d836040518263ffffffff1660e01b815260040161071091906138b3565b600060405180830381600087803b15801561072a57600080fd5b505af115801561073e573d6000803e3d6000fd5b505050508073ffffffffffffffffffffffffffffffffffffffff16631249c58b836040518263ffffffff1660e01b81526004016000604051808303818588803b15801561078a57600080fd5b505af115801561079e573d6000803e3d6000fd5b50505050506108e9565b6107d381838573ffffffffffffffffffffffffffffffffffffffff166125199092919063ffffffff16565b60008173ffffffffffffffffffffffffffffffffffffffff1663a0712d68846040518263ffffffff1660e01b815260040161080e91906138b3565b602060405180830381600087803b15801561082857600080fd5b505af115801561083c573d6000803e3d6000fd5b505050506040513d601f19601f820116820180604052508101906108609190613096565b9050600081146108a56040518060400160405280600581526020017f43464c413200000000000000000000000000000000000000000000000000000081525083612641565b906108e6576040517f08c379a00000000000000000000000000000000000000000000000000000000081526004016108dd91906137af565b60405180910390fd5b50505b50505050565b60006108fb8383612464565b73ffffffffffffffffffffffffffffffffffffffff166317bfdfbc306040518263ffffffff1660e01b815260040161093391906136ea565b602060405180830381600087803b15801561094d57600080fd5b505af1158015610961573d6000803e3d6000fd5b505050506040513d601f19601f820116820180604052508101906109859190613096565b905092915050565b60006109998484612464565b905060008173ffffffffffffffffffffffffffffffffffffffff1663852a12e3846040518263ffffffff1660e01b81526004016109d691906138b3565b602060405180830381600087803b1580156109f057600080fd5b505af1158015610a04573d6000803e3d6000fd5b505050506040513d601f19601f82011682018060405250810190610a289190613096565b905060008114610a6d6040518060400160405280600581526020017f43464c413400000000000000000000000000000000000000000000000000000081525083612641565b90610aae576040517f08c379a0000000000000000000000000000000000000000000000000000000008152600401610aa591906137af565b60405180910390fd5b507f000000000000000000000000000000000000000000000000000000000000000073ffffffffffffffffffffffffffffffffffffffff168473ffffffffffffffffffffffffffffffffffffffff161415610b85577f000000000000000000000000000000000000000000000000000000000000000073ffffffffffffffffffffffffffffffffffffffff1663d0e30db0846040518263ffffffff1660e01b81526004016000604051808303818588803b158015610b6b57600080fd5b505af1158015610b7f573d6000803e3d6000fd5b50505050505b5050505050565b60608282905067ffffffffffffffff81118015610ba857600080fd5b50604051908082528060200260200182016040528015610bd75781602001602082028036833780820191505090505b50905060005b83839050811015610c6557610c1285858584818110610bf857fe5b9050602002016020810190610c0d9190612e26565b612464565b828281518110610c1e57fe5b602002602001019073ffffffffffffffffffffffffffffffffffffffff16908173ffffffffffffffffffffffffffffffffffffffff16815250508080600101915050610bdd565b5060608473ffffffffffffffffffffffffffffffffffffffff1663c2998238836040518263ffffffff1660e01b8152600401610ca19190613757565b600060405180830381600087803b158015610cbb57600080fd5b505af1158015610ccf573d6000803e3d6000fd5b505050506040513d6000823e3d601f19601f82011682018060405250810190610cf89190612f9c565b905060005b8151811015610dbe576000828281518110610d1457fe5b602002602001015114610d6f6040518060400160405280600581526020017f43464c4131000000000000000000000000000000000000000000000000000000815250848481518110610d6257fe5b6020026020010151612641565b90610db0576040517f08c379a0000000000000000000000000000000000000000000000000000000008152600401610da791906137af565b60405180910390fd5b508080600101915050610cfd565b505050505050565b6000610dd28484612464565b905060008173ffffffffffffffffffffffffffffffffffffffff1663c5ebeaec846040518263ffffffff1660e01b8152600401610e0f91906138b3565b602060405180830381600087803b158015610e2957600080fd5b505af1158015610e3d573d6000803e3d6000fd5b505050506040513d601f19601f82011682018060405250810190610e619190613096565b905060008114610ea66040518060400160405280600581526020017f43464c413300000000000000000000000000000000000000000000000000000081525083612641565b90610ee7576040517f08c379a0000000000000000000000000000000000000000000000000000000008152600401610ede91906137af565b60405180910390fd5b507f000000000000000000000000000000000000000000000000000000000000000073ffffffffffffffffffffffffffffffffffffffff168473ffffffffffffffffffffffffffffffffffffffff161415610fbe577f000000000000000000000000000000000000000000000000000000000000000073ffffffffffffffffffffffffffffffffffffffff1663d0e30db0846040518263ffffffff1660e01b81526004016000604051808303818588803b158015610fa457600080fd5b505af1158015610fb8573d6000803e3d6000fd5b50505050505b5050505050565b7f000000000000000000000000000000000000000000000000000000000000000081565b610ff1612b3c565b6000610ffd8484612464565b905060008473ffffffffffffffffffffffffffffffffffffffff16638e8f294b836040518263ffffffff1660e01b815260040161103a91906136cf565b60606040518083038186803b15801561105257600080fd5b505afa158015611066573d6000803e3d6000fd5b505050506040513d601f19601f8201168201806040525081019061108a9190613006565b5091505060008573ffffffffffffffffffffffffffffffffffffffff16639d1b5a0a6040518163ffffffff1660e01b815260040160206040518083038186803b1580156110d657600080fd5b505afa1580156110ea573d6000803e3d6000fd5b505050506040513d601f19601f8201168201806040525081019061110e9190612e4f565b905084846000019073ffffffffffffffffffffffffffffffffffffffff16908173ffffffffffffffffffffffffffffffffffffffff16815250508473ffffffffffffffffffffffffffffffffffffffff166395d89b416040518163ffffffff1660e01b815260040160006040518083038186803b15801561118e57600080fd5b505afa1580156111a2573d6000803e3d6000fd5b505050506040513d6000823e3d601f19601f820116820180604052508101906111cb9190613055565b84602001819052508473ffffffffffffffffffffffffffffffffffffffff1663313ce5676040518163ffffffff1660e01b815260040160206040518083038186803b15801561121957600080fd5b505afa15801561122d573d6000803e3d6000fd5b505050506040513d601f19601f8201168201806040525081019061125191906130bf565b846040019060ff16908160ff16815250508573ffffffffffffffffffffffffffffffffffffffff16637dc0d1d06040518163ffffffff1660e01b815260040160206040518083038186803b1580156112a857600080fd5b505afa1580156112bc573d6000803e3d6000fd5b505050506040513d601f19601f820116820180604052508101906112e09190612e4f565b73ffffffffffffffffffffffffffffffffffffffff1663fc57d4df846040518263ffffffff1660e01b815260040161131891906136cf565b60206040518083038186803b15801561133057600080fd5b505afa158015611344573d6000803e3d6000fd5b505050506040513d601f19601f820116820180604052508101906113689190613096565b8460600181815250508273ffffffffffffffffffffffffffffffffffffffff16633b1d21a26040518163ffffffff1660e01b815260040160206040518083038186803b1580156113b757600080fd5b505afa1580156113cb573d6000803e3d6000fd5b505050506040513d601f19601f820116820180604052508101906113ef9190613096565b846080018181525050670de0b6b3a76400006115108473ffffffffffffffffffffffffffffffffffffffff1663bd6d894d6040518163ffffffff1660e01b8152600401602060405180830381600087803b15801561144c57600080fd5b505af1158015611460573d6000803e3d6000fd5b505050506040513d601f19601f820116820180604052508101906114849190613096565b8573ffffffffffffffffffffffffffffffffffffffff166318160ddd6040518163ffffffff1660e01b815260040160206040518083038186803b1580156114ca57600080fd5b505afa1580156114de573d6000803e3d6000fd5b505050506040513d601f19601f820116820180604052508101906115029190613096565b61267590919063ffffffff16565b8161151757fe5b048460a00181815250508273ffffffffffffffffffffffffffffffffffffffff166373acee986040518163ffffffff1660e01b8152600401602060405180830381600087803b15801561156957600080fd5b505af115801561157d573d6000803e3d6000fd5b505050506040513d601f19601f820116820180604052508101906115a19190613096565b8460c00181815250508273ffffffffffffffffffffffffffffffffffffffff16638f840ddd6040518163ffffffff1660e01b815260040160206040518083038186803b1580156115f057600080fd5b505afa158015611604573d6000803e3d6000fd5b505050506040513d601f19601f820116820180604052508101906116289190613096565b8460e00181815250506116c4622014808473ffffffffffffffffffffffffffffffffffffffff1663ae9d70b06040518163ffffffff1660e01b815260040160206040518083038186803b15801561167e57600080fd5b505afa158015611692573d6000803e3d6000fd5b505050506040513d601f19601f820116820180604052508101906116b69190613096565b61267590919063ffffffff16565b84610100018181525050611761622014808473ffffffffffffffffffffffffffffffffffffffff1663f8f9da286040518163ffffffff1660e01b815260040160206040518083038186803b15801561171b57600080fd5b505afa15801561172f573d6000803e3d6000fd5b505050506040513d601f19601f820116820180604052508101906117539190613096565b61267590919063ffffffff16565b846101200181815250508084610140019073ffffffffffffffffffffffffffffffffffffffff16908173ffffffffffffffffffffffffffffffffffffffff16815250508073ffffffffffffffffffffffffffffffffffffffff1663313ce5676040518163ffffffff1660e01b815260040160206040518083038186803b1580156117ea57600080fd5b505afa1580156117fe573d6000803e3d6000fd5b505050506040513d601f19601f8201168201806040525081019061182291906130bf565b84610180019060ff16908160ff16815250508073ffffffffffffffffffffffffffffffffffffffff166395d89b416040518163ffffffff1660e01b815260040160006040518083038186803b15801561187a57600080fd5b505afa15801561188e573d6000803e3d6000fd5b505050506040513d6000823e3d601f19601f820116820180604052508101906118b79190613055565b84610160018190525061195e622014808773ffffffffffffffffffffffffffffffffffffffff16636aa875b5866040518263ffffffff1660e01b815260040161190091906136cf565b60206040518083038186803b15801561191857600080fd5b505afa15801561192c573d6000803e3d6000fd5b505050506040513d601f19601f820116820180604052508101906119509190613096565b61267590919063ffffffff16565b846101a0018181525050611a06622014808773ffffffffffffffffffffffffffffffffffffffff1663f4a433c0866040518263ffffffff1660e01b81526004016119a891906136cf565b60206040518083038186803b1580156119c057600080fd5b505afa1580156119d4573d6000803e3d6000fd5b505050506040513d601f19601f820116820180604052508101906119f89190613096565b61267590919063ffffffff16565b846101c001818152505081846101e001818152505081846102000181815250508573ffffffffffffffffffffffffffffffffffffffff1663731f0c2b846040518263ffffffff1660e01b8152600401611a5f91906136cf565b60206040518083038186803b158015611a7757600080fd5b505afa158015611a8b573d6000803e3d6000fd5b505050506040513d601f19601f82011682018060405250810190611aaf9190612fdd565b15846102200190151590811515815250508573ffffffffffffffffffffffffffffffffffffffff16636d154ea5846040518263ffffffff1660e01b8152600401611af991906136cf565b60206040518083038186803b158015611b1157600080fd5b505afa158015611b25573d6000803e3d6000fd5b505050506040513d601f19601f82011682018060405250810190611b499190612fdd565b158461024001901515908115158152505050505092915050565b600080611b708484612464565b905060008473ffffffffffffffffffffffffffffffffffffffff16637dc0d1d06040518163ffffffff1660e01b815260040160206040518083038186803b158015611bba57600080fd5b505afa158015611bce573d6000803e3d6000fd5b505050506040513d601f19601f82011682018060405250810190611bf29190612e4f565b905060008173ffffffffffffffffffffffffffffffffffffffff1663fc57d4df846040518263ffffffff1660e01b8152600401611c2f91906136cf565b60206040518083038186803b158015611c4757600080fd5b505afa158015611c5b573d6000803e3d6000fd5b505050506040513d601f19601f82011682018060405250810190611c7f9190613096565b905080935050505092915050565b6000611c998383612464565b73ffffffffffffffffffffffffffffffffffffffff16633af9e669306040518263ffffffff1660e01b8152600401611cd191906136ea565b602060405180830381600087803b158015611ceb57600080fd5b505af1158015611cff573d6000803e3d6000fd5b505050506040513d601f19601f82011682018060405250810190611d239190613096565b905092915050565b60008273ffffffffffffffffffffffffffffffffffffffff16638e8f294b611d538585612464565b6040518263ffffffff1660e01b8152600401611d6f91906136cf565b60606040518083038186803b158015611d8757600080fd5b505afa158015611d9b573d6000803e3d6000fd5b505050506040513d601f19601f82011682018060405250810190611dbf9190613006565b909150508091505092915050565b6000808273ffffffffffffffffffffffffffffffffffffffff16639d1b5a0a6040518163ffffffff1660e01b815260040160206040518083038186803b158015611e1657600080fd5b505afa158015611e2a573d6000803e3d6000fd5b505050506040513d601f19601f82011682018060405250810190611e4e9190612e4f565b91508173ffffffffffffffffffffffffffffffffffffffff166370a08231306040518263ffffffff1660e01b8152600401611e8991906136ea565b60206040518083038186803b158015611ea157600080fd5b505afa158015611eb5573d6000803e3d6000fd5b505050506040513d601f19601f82011682018060405250810190611ed99190613096565b90508273ffffffffffffffffffffffffffffffffffffffff1663e9af0292306040518263ffffffff1660e01b8152600401611f1491906136ea565b600060405180830381600087803b158015611f2e57600080fd5b505af1158015611f42573d6000803e3d6000fd5b50505050611fe1818373ffffffffffffffffffffffffffffffffffffffff166370a08231306040518263ffffffff1660e01b8152600401611f8391906136ea565b60206040518083038186803b158015611f9b57600080fd5b505afa158015611faf573d6000803e3d6000fd5b505050506040513d601f19601f82011682018060405250810190611fd39190613096565b6126e590919063ffffffff16565b9050915091565b600080600090506000808473ffffffffffffffffffffffffffffffffffffffff16637dc0d1d06040518163ffffffff1660e01b815260040160206040518083038186803b15801561203857600080fd5b505afa15801561204c573d6000803e3d6000fd5b505050506040513d601f19601f820116820180604052508101906120709190612e4f565b905060608573ffffffffffffffffffffffffffffffffffffffff1663abfceffc306040518263ffffffff1660e01b81526004016120ad91906136ea565b60006040518083038186803b1580156120c557600080fd5b505afa1580156120d9573d6000803e3d6000fd5b505050506040513d6000823e3d601f19601f820116820180604052508101906121029190612f5b565b905060005b81518110156123f957600082828151811061211e57fe5b6020026020010151905060008173ffffffffffffffffffffffffffffffffffffffff166317bfdfbc306040518263ffffffff1660e01b815260040161216391906136ea565b602060405180830381600087803b15801561217d57600080fd5b505af1158015612191573d6000803e3d6000fd5b505050506040513d601f19601f820116820180604052508101906121b59190613096565b905060008273ffffffffffffffffffffffffffffffffffffffff16633af9e669306040518263ffffffff1660e01b81526004016121f291906136ea565b602060405180830381600087803b15801561220c57600080fd5b505af1158015612220573d6000803e3d6000fd5b505050506040513d601f19601f820116820180604052508101906122449190613096565b905060008a73ffffffffffffffffffffffffffffffffffffffff16638e8f294b856040518263ffffffff1660e01b815260040161228191906136cf565b60606040518083038186803b15801561229957600080fd5b505afa1580156122ad573d6000803e3d6000fd5b505050506040513d601f19601f820116820180604052508101906122d19190613006565b5091505060008773ffffffffffffffffffffffffffffffffffffffff1663fc57d4df866040518263ffffffff1660e01b815260040161231091906136cf565b60206040518083038186803b15801561232857600080fd5b505afa15801561233c573d6000803e3d6000fd5b505050506040513d601f19601f820116820180604052508101906123609190613096565b90506123ad6002670de0b6b3a76400000a61239685612388868661267590919063ffffffff16565b61267590919063ffffffff16565b8161239d57fe5b048b61273590919063ffffffff16565b99506123e5670de0b6b3a76400006123ce868461267590919063ffffffff16565b816123d557fe5b048a61273590919063ffffffff16565b985050505050508080600101915050612107565b506000841115612432578361241f670de0b6b3a76400008561267590919063ffffffff16565b8161242657fe5b0494505050505061243b565b60009450505050505b919050565b7f000000000000000000000000000000000000000000000000000000000000000081565b60007f000000000000000000000000000000000000000000000000000000000000000073ffffffffffffffffffffffffffffffffffffffff16631cd3c99884846040518363ffffffff1660e01b81526004016124c1929190613705565b60206040518083038186803b1580156124d957600080fd5b505afa1580156124ed573d6000803e3d6000fd5b505050506040513d601f19601f820116820180604052508101906125119190612e4f565b905092915050565b60006125b8828573ffffffffffffffffffffffffffffffffffffffff1663dd62ed3e30876040518363ffffffff1660e01b815260040161255a929190613705565b60206040518083038186803b15801561257257600080fd5b505afa158015612586573d6000803e3d6000fd5b505050506040513d601f19601f820116820180604052508101906125aa9190613096565b61273590919063ffffffff16565b905061263b8463095ea7b360e01b85846040516024016125d992919061372e565b604051602081830303815290604052907bffffffffffffffffffffffffffffffffffffffffffffffffffffffff19166020820180517bffffffffffffffffffffffffffffffffffffffffffffffffffffffff838183161783525050505061278a565b50505050565b60608261264d83612851565b60405160200161265e9291906136a0565b604051602081830303815290604052905092915050565b60008083141561268857600090506126df565b600082840290508284828161269957fe5b04146126da576040517f08c379a00000000000000000000000000000000000000000000000000000000081526004016126d190613831565b60405180910390fd5b809150505b92915050565b60008282111561272a576040517f08c379a0000000000000000000000000000000000000000000000000000000008152600401612721906137f1565b60405180910390fd5b818303905092915050565b600080828401905083811015612780576040517f08c379a0000000000000000000000000000000000000000000000000000000008152600401612777906137d1565b60405180910390fd5b8091505092915050565b60606127ec826040518060400160405280602081526020017f5361666545524332303a206c6f772d6c6576656c2063616c6c206661696c65648152508573ffffffffffffffffffffffffffffffffffffffff166129959092919063ffffffff16565b905060008151111561284c578080602001905181019061280c9190612fdd565b61284b576040517f08c379a000000000000000000000000000000000000000000000000000000000815260040161284290613871565b60405180910390fd5b5b505050565b60606000821415612899576040518060400160405280600181526020017f30000000000000000000000000000000000000000000000000000000000000008152509050612990565b600082905060005b600082146128c3578080600101915050600a82816128bb57fe5b0491506128a1565b60608167ffffffffffffffff811180156128dc57600080fd5b506040519080825280601f01601f19166020018201604052801561290f5781602001600182028036833780820191505090505b50905060006001830390505b6000861461298857600a868161292d57fe5b0660300160f81b8282806001900393508151811061294757fe5b60200101907effffffffffffffffffffffffffffffffffffffffffffffffffffffffffffff1916908160001a905350600a868161298057fe5b04955061291b565b819450505050505b919050565b60606129a484846000856129ad565b90509392505050565b6060824710156129f2576040517f08c379a00000000000000000000000000000000000000000000000000000000081526004016129e990613811565b60405180910390fd5b6129fb85612ac2565b612a3a576040517f08c379a0000000000000000000000000000000000000000000000000000000008152600401612a3190613851565b60405180910390fd5b600060608673ffffffffffffffffffffffffffffffffffffffff168587604051612a649190613689565b60006040518083038185875af1925050503d8060008114612aa1576040519150601f19603f3d011682016040523d82523d6000602084013e612aa6565b606091505b5091509150612ab6828286612ad5565b92505050949350505050565b600080823b905060008111915050919050565b60608315612ae557829050612b35565b600083511115612af85782518084602001fd5b816040517f08c379a0000000000000000000000000000000000000000000000000000000008152600401612b2c91906137af565b60405180910390fd5b9392505050565b604051806102600160405280600073ffffffffffffffffffffffffffffffffffffffff16815260200160608152602001600060ff16815260200160008152602001600081526020016000815260200160008152602001600081526020016000815260200160008152602001600073ffffffffffffffffffffffffffffffffffffffff16815260200160608152602001600060ff168152602001600081526020016000815260200160008152602001600081526020016000151581526020016000151581525090565b600081359050612c1381613b15565b92915050565b600081519050612c2881613b15565b92915050565b60008083601f840112612c4057600080fd5b8235905067ffffffffffffffff811115612c5957600080fd5b602083019150836020820283011115612c7157600080fd5b9250929050565b600082601f830112612c8957600080fd5b8151612c9c612c97826138fb565b6138ce565b91508181835260208401935060208101905083856020840282011115612cc157600080fd5b60005b83811015612cf15781612cd78882612c19565b845260208401935060208301925050600181019050612cc4565b5050505092915050565b600082601f830112612d0c57600080fd5b8151612d1f612d1a82613923565b6138ce565b91508181835260208401935060208101905083856020840282011115612d4457600080fd5b60005b83811015612d745781612d5a8882612dfc565b845260208401935060208301925050600181019050612d47565b5050505092915050565b600081519050612d8d81613b2c565b92915050565b600082601f830112612da457600080fd5b8151612db7612db28261394b565b6138ce565b91508082526020830160208301858383011115612dd357600080fd5b612dde838284613ad1565b50505092915050565b600081359050612df681613b43565b92915050565b600081519050612e0b81613b43565b92915050565b600081519050612e2081613b5a565b92915050565b600060208284031215612e3857600080fd5b6000612e4684828501612c04565b91505092915050565b600060208284031215612e6157600080fd5b6000612e6f84828501612c19565b91505092915050565b60008060408385031215612e8b57600080fd5b6000612e9985828601612c04565b9250506020612eaa85828601612c04565b9150509250929050565b600080600060608486031215612ec957600080fd5b6000612ed786828701612c04565b9350506020612ee886828701612c04565b9250506040612ef986828701612de7565b9150509250925092565b600080600060408486031215612f1857600080fd5b6000612f2686828701612c04565b935050602084013567ffffffffffffffff811115612f4357600080fd5b612f4f86828701612c2e565b92509250509250925092565b600060208284031215612f6d57600080fd5b600082015167ffffffffffffffff811115612f8757600080fd5b612f9384828501612c78565b91505092915050565b600060208284031215612fae57600080fd5b600082015167ffffffffffffffff811115612fc857600080fd5b612fd484828501612cfb565b91505092915050565b600060208284031215612fef57600080fd5b6000612ffd84828501612d7e565b91505092915050565b60008060006060848603121561301b57600080fd5b600061302986828701612d7e565b935050602061303a86828701612dfc565b925050604061304b86828701612d7e565b9150509250925092565b60006020828403121561306757600080fd5b600082015167ffffffffffffffff81111561308157600080fd5b61308d84828501612d93565b91505092915050565b6000602082840312156130a857600080fd5b60006130b684828501612dfc565b91505092915050565b6000602082840312156130d157600080fd5b60006130df84828501612e11565b91505092915050565b60006130f4838361310f565b60208301905092915050565b61310981613a53565b82525050565b613118816139fe565b82525050565b613127816139fe565b82525050565b600061313882613987565b61314281856139b5565b935061314d83613977565b8060005b8381101561317e57815161316588826130e8565b9750613170836139a8565b925050600181019050613151565b5085935050505092915050565b61319481613a10565b82525050565b60006131a582613992565b6131af81856139c6565b93506131bf818560208601613ad1565b80840191505092915050565b6131d481613a65565b82525050565b6131e381613a89565b82525050565b60006131f48261399d565b6131fe81856139d1565b935061320e818560208601613ad1565b61321781613b04565b840191505092915050565b600061322d8261399d565b61323781856139e2565b9350613247818560208601613ad1565b61325081613b04565b840191505092915050565b60006132668261399d565b61327081856139f3565b9350613280818560208601613ad1565b80840191505092915050565b6000613299601b836139e2565b91507f536166654d6174683a206164646974696f6e206f766572666c6f7700000000006000830152602082019050919050565b60006132d9601e836139e2565b91507f536166654d6174683a207375627472616374696f6e206f766572666c6f7700006000830152602082019050919050565b60006133196026836139e2565b91507f416464726573733a20696e73756666696369656e742062616c616e636520666f60008301527f722063616c6c00000000000000000000000000000000000000000000000000006020830152604082019050919050565b600061337f6021836139e2565b91507f536166654d6174683a206d756c7469706c69636174696f6e206f766572666c6f60008301527f77000000000000000000000000000000000000000000000000000000000000006020830152604082019050919050565b60006133e5601d836139e2565b91507f416464726573733a2063616c6c20746f206e6f6e2d636f6e74726163740000006000830152602082019050919050565b6000613425602a836139e2565b91507f5361666545524332303a204552433230206f7065726174696f6e20646964206e60008301527f6f742073756363656564000000000000000000000000000000000000000000006020830152604082019050919050565b600061348b6002836139f3565b91507f3a200000000000000000000000000000000000000000000000000000000000006000830152600282019050919050565b6000610260830160008301516134d7600086018261310f565b50602083015184820360208601526134ef82826131e9565b9150506040830151613504604086018261367a565b506060830151613517606086018261365c565b50608083015161352a608086018261365c565b5060a083015161353d60a086018261365c565b5060c083015161355060c086018261365c565b5060e083015161356360e086018261365c565b5061010083015161357861010086018261365c565b5061012083015161358d61012086018261365c565b506101408301516135a261014086018261310f565b506101608301518482036101608601526135bc82826131e9565b9150506101808301516135d361018086018261367a565b506101a08301516135e86101a086018261365c565b506101c08301516135fd6101c086018261365c565b506101e08301516136126101e086018261365c565b5061020083015161362761020086018261365c565b5061022083015161363c61022086018261318b565b5061024083015161365161024086018261318b565b508091505092915050565b61366581613a3c565b82525050565b61367481613a3c565b82525050565b61368381613a46565b82525050565b6000613695828461319a565b915081905092915050565b60006136ac828561325b565b91506136b78261347e565b91506136c3828461325b565b91508190509392505050565b60006020820190506136e4600083018461311e565b92915050565b60006020820190506136ff6000830184613100565b92915050565b600060408201905061371a600083018561311e565b613727602083018461311e565b9392505050565b6000604082019050613743600083018561311e565b613750602083018461366b565b9392505050565b60006020820190508181036000830152613771818461312d565b905092915050565b600060208201905061378e60008301846131cb565b92915050565b60006020820190506137a960008301846131da565b92915050565b600060208201905081810360008301526137c98184613222565b905092915050565b600060208201905081810360008301526137ea8161328c565b9050919050565b6000602082019050818103600083015261380a816132cc565b9050919050565b6000602082019050818103600083015261382a8161330c565b9050919050565b6000602082019050818103600083015261384a81613372565b9050919050565b6000602082019050818103600083015261386a816133d8565b9050919050565b6000602082019050818103600083015261388a81613418565b9050919050565b600060208201905081810360008301526138ab81846134be565b905092915050565b60006020820190506138c8600083018461366b565b92915050565b6000604051905081810181811067ffffffffffffffff821117156138f157600080fd5b8060405250919050565b600067ffffffffffffffff82111561391257600080fd5b602082029050602081019050919050565b600067ffffffffffffffff82111561393a57600080fd5b602082029050602081019050919050565b600067ffffffffffffffff82111561396257600080fd5b601f19601f8301169050602081019050919050565b6000819050602082019050919050565b600081519050919050565b600081519050919050565b600081519050919050565b6000602082019050919050565b600082825260208201905092915050565b600081905092915050565b600082825260208201905092915050565b600082825260208201905092915050565b600081905092915050565b6000613a0982613a1c565b9050919050565b60008115159050919050565b600073ffffffffffffffffffffffffffffffffffffffff82169050919050565b6000819050919050565b600060ff82169050919050565b6000613a5e82613aad565b9050919050565b6000613a7082613a77565b9050919050565b6000613a8282613a1c565b9050919050565b6000613a9482613a9b565b9050919050565b6000613aa682613a1c565b9050919050565b6000613ab882613abf565b9050919050565b6000613aca82613a1c565b9050919050565b60005b83811015613aef578082015181840152602081019050613ad4565b83811115613afe576000848401525b50505050565b6000601f19601f8301169050919050565b613b1e816139fe565b8114613b2957600080fd5b50565b613b3581613a10565b8114613b4057600080fd5b50565b613b4c81613a3c565b8114613b5757600080fd5b50565b613b6381613a46565b8114613b6e57600080fd5b5056fea26469706673582212200c3df688585cd59af234a6dc8f3776dffad0835914aac1bf7fc984003a510a3864736f6c634300060c0033",
  "devdoc": {
    "kind": "dev",
    "methods": {
      "getReferencePrice(address,address)": {
        "details": "Compound returns reference prices with regard to USD scaled by 1e18. Decimals disparity is taken into account"
      }
    },
    "version": 1
  },
  "userdoc": {
    "kind": "user",
    "methods": {},
    "version": 1
  },
  "storageLayout": {
    "storage": [],
    "types": null
  }
}