{
  "address": "0xA6385FB35846Cc7D5aCE260f3A25766aa5D10802",
  "abi": [
    {
      "inputs": [
        {
          "internalType": "uint256",
          "name": "_principal",
          "type": "uint256"
        },
        {
          "internalType": "uint256",
          "name": "_profit",
          "type": "uint256"
        },
        {
          "internalType": "uint256",
          "name": "_rewardsFactor",
          "type": "uint256"
        },
        {
          "internalType": "address",
          "name": "_holder",
          "type": "address"
        },
        {
          "internalType": "address",
          "name": "_factory",
          "type": "address"
        }
      ],
      "stateMutability": "nonpayable",
      "type": "constructor"
    },
    {
      "anonymous": false,
      "inputs": [
        {
          "indexed": false,
          "internalType": "uint256",
          "name": "withdrawAmount",
          "type": "uint256"
        },
        {
          "indexed": false,
          "internalType": "uint256",
          "name": "principalFactor",
          "type": "uint256"
        }
      ],
      "name": "FundsWithdrawal",
      "type": "event"
    },
    {
      "inputs": [
        {
          "components": [
            {
              "internalType": "uint256",
              "name": "withdrawAmount",
              "type": "uint256"
            },
            {
              "internalType": "uint256",
              "name": "maxSupplyTokenRepayAmount",
              "type": "uint256"
            },
            {
              "internalType": "uint256",
              "name": "borrowTokenRepayAmount",
              "type": "uint256"
            },
            {
              "internalType": "address",
              "name": "platform",
              "type": "address"
            },
            {
              "internalType": "address",
              "name": "supplyToken",
              "type": "address"
            },
            {
              "internalType": "address",
              "name": "borrowToken",
              "type": "address"
            },
            {
              "internalType": "bytes",
              "name": "path",
              "type": "bytes"
            }
          ],
          "internalType": "struct DecreaseWithV3FlashswapMultihopConnectorParams",
          "name": "params",
          "type": "tuple"
        }
      ],
      "name": "decreasePositionWithV3FlashswapMultihop",
      "outputs": [],
      "stateMutability": "nonpayable",
      "type": "function"
    },
    {
      "inputs": [],
      "name": "holder",
      "outputs": [
        {
          "internalType": "address",
          "name": "",
          "type": "address"
        }
      ],
      "stateMutability": "view",
      "type": "function"
    },
    {
      "inputs": [],
      "name": "principal",
      "outputs": [
        {
          "internalType": "uint256",
          "name": "",
          "type": "uint256"
        }
      ],
      "stateMutability": "view",
      "type": "function"
    },
    {
      "inputs": [],
      "name": "profit",
      "outputs": [
        {
          "internalType": "uint256",
          "name": "",
          "type": "uint256"
        }
      ],
      "stateMutability": "view",
      "type": "function"
    },
    {
      "inputs": [
        {
          "internalType": "uint256",
          "name": "fee0",
          "type": "uint256"
        },
        {
          "internalType": "uint256",
          "name": "fee1",
          "type": "uint256"
        },
        {
          "internalType": "bytes",
          "name": "_data",
          "type": "bytes"
        }
      ],
      "name": "uniswapV3FlashCallback",
      "outputs": [],
      "stateMutability": "nonpayable",
      "type": "function"
    },
    {
      "inputs": [
        {
          "internalType": "int256",
          "name": "amount0Delta",
          "type": "int256"
        },
        {
          "internalType": "int256",
          "name": "amount1Delta",
          "type": "int256"
        },
        {
          "internalType": "bytes",
          "name": "_data",
          "type": "bytes"
        }
      ],
      "name": "uniswapV3SwapCallback",
      "outputs": [],
      "stateMutability": "nonpayable",
      "type": "function"
    }
  ],
  "transactionHash": "0xad2cad1c9efac64a82be5dfb40de7d901755e9b734827290cd47273f121f6688",
  "args": [
    "1000000000000000",
    "25000000000000000",
    "100000000000000000",
    "0xfF6062AAc9A6367Ce2F02C826C544a130baBCf32",
    "0x1F98431c8aD98523631AE4a59f267346ea31F984"
  ],
  "solcInputHash": "ed94ae6c24ea5b6ddaffe26a50338ff5",
  "bytecode": "0x6101406040523480156200001257600080fd5b5060405162002a7c38038062002a7c833981016040819052620000359162000117565b848483670de0b6b3a764000083106200006b5760405162461bcd60e51b815260040162000062906200018b565b60405180910390fd5b670de0b6b3a76400008210620000955760405162461bcd60e51b815260040162000062906200018b565b6001600160a01b038116620000be5760405162461bcd60e51b815260040162000062906200016d565b60809290925260a0526001600160601b0319606091821b811660c05230821b6101005260e0949094521b9091166101205250620001a9915050565b80516001600160a01b03811681146200011157600080fd5b92915050565b600080600080600060a086880312156200012f578081fd5b855194506020860151935060408601519250620001508760608801620000f9565b9150620001618760808801620000f9565b90509295509295909350565b6020808252600490820152630494350360e41b604082015260600190565b6020808252600490820152634943503160e01b604082015260600190565b60805160a05160c05160601c60e0516101005160601c6101205160601c61286d6200020f60003980611439525080611472525080610c8152508061047d5280610b6b5280610cc452508060ef5280610ac65250806104595280610af0525061286d6000f3fe608060405234801561001057600080fd5b50600436106100725760003560e01c8063e534155d11610050578063e534155d146100b2578063e9cbafb0146100c7578063fa461e33146100da57610072565b806366d16cc3146100775780636f9b326414610095578063ba5d3078146100aa575b600080fd5b61007f6100ed565b60405161008c919061272b565b60405180910390f35b6100a86100a3366004611cef565b610111565b005b61007f610457565b6100ba61047b565b60405161008c9190611f63565b6100a86100d5366004611ea3565b61049f565b6100a86100e8366004611c9e565b610599565b7f000000000000000000000000000000000000000000000000000000000000000081565b600061011b6107c5565b600481015481549192506001600160a01b039182169116146101585760405162461bcd60e51b815260040161014f90612071565b60405180910390fd5b61019061016b6080840160608501611bf6565b61017b60a0850160808601611bf6565b61018b60c0860160a08701611bf6565b6107e9565b60006101aa6101a56080850160608601611bf6565b6107f9565b905060006101d7826101c26080870160608801611bf6565b6101d260c0880160a08901611bf6565b6108a3565b90508061027c5783357fffffffffffffffffffffffffffffffffffffffffffffffffffffffffffffffff1461020b57600080fd5b6000610236836102216080880160608901611bf6565b61023160a0890160808a01611bf6565b610955565b90506102628361024c6080880160608901611bf6565b61025c60a0890160808a01611bf6565b84610977565b61026c8182610a06565b610274610bfc565b505050610453565b600081856040013511610293578460400135610295565b815b90506102a760c0860160a08701611bf6565b6001600160a01b03166102c060a0870160808801611bf6565b6001600160a01b03161461037857610373816040518060e001604052808860000135815260200188602001358152602001886040013581526020018581526020018860600160208101906103149190611bf6565b6001600160a01b0390811682528716602082015260400161033860c08a018a612742565b8080601f0160208091040260200160405190810160405280939291908181526020018383808284376000920191909152505050915250610d15565b61041e565b61041e61038b60a0870160808801611bf6565b6040518060c00160405280886000013581526020018481526020018581526020018860600160208101906103bf9190611bf6565b6001600160a01b039081168252871660208201526040016103e360c08a018a612742565b8080601f0160208091040260200160405190810160405280939291908181526020018383808284376000920191909152505050915250610e8a565b84357fffffffffffffffffffffffffffffffffffffffffffffffffffffffffffffffff141561044f5761044f610bfc565b5050505b5050565b7f000000000000000000000000000000000000000000000000000000000000000081565b7f000000000000000000000000000000000000000000000000000000000000000081565b6104a761100f565b6104af611a64565b6104bb82840184611d27565b905060006104c76110d1565b600101546001600160a01b031690506000866104e957858360200151016104f1565b868360200151015b905061050b836080015184606001518486602001516110f5565b60006105208460800151856060015185610955565b9050600061052e8284611114565b9050600085600001518210610544578551610546565b815b905061055e8660800151876060015187878501610977565b801561057957610579816105706110d1565b60030154610a06565b61058d6001600160a01b038616338661113c565b50505050505050505050565b6105a161100f565b60008413806105b05750600083135b6105cc5760405162461bcd60e51b815260040161014f9061242d565b6105d4611aac565b6105e082840184611dd4565b90506000806105f28360c001516111bf565b50915091506105ff6110d1565b600201546001600160a01b038381169116141561063f5761063f8360a0015184608001518460008b12610635578960000361063a565b8a6000035b6110f5565b600080881361064e5786610650565b875b905061065f8460c001516111f0565b15610685576106718460c001516111f8565b60c08501526106808185610d15565b6107a7565b61068d6110d1565b600101546001600160a01b038381169116146106bb5760405162461bcd60e51b815260040161014f906124c1565b83602001518111156106df5760405162461bcd60e51b815260040161014f906123f6565b60006106f48560a00151866080015185610955565b905060006107028284611114565b905060008660000151821061071857865161071a565b815b90506107328760a00151886080015187878501610977565b80156107a357600061079561078e6107538a60a001518b608001518a61122d565b61078861077d8c60a001518d6080015161076b6110d1565b600201546001600160a01b031661122d565b60608d01519061124f565b90611289565b8590611114565b90506107a18282610a06565b505b5050505b6107bb6001600160a01b038316338361113c565b5050505050505050565b7fadbb89e904f74d44d0d104c851da4f2fa24de8f1dee64f038923bb940f37d53a90565b6107f48383836112bb565b505050565b60006108036107c5565b600201546040517f42dfa7890000000000000000000000000000000000000000000000000000000081526001600160a01b03909116906342dfa7899061084d908590600401611f63565b60206040518083038186803b15801561086557600080fd5b505afa158015610879573d6000803e3d6000fd5b505050506040513d601f19601f8201168201806040525081019061089d9190611c12565b92915050565b6000606061093463118e31b760e01b85856040516024016108c5929190611f77565b60408051601f198184030181529190526020810180517bffffffffffffffffffffffffffffffffffffffffffffffffffffffff167fffffffff00000000000000000000000000000000000000000000000000000000909316929092179091526001600160a01b0387169061136c565b90508080602001905181019061094a9190611e8b565b9150505b9392505050565b6000606061093463ba37773160e01b85856040516024016108c5929190611f77565b61044f631c009d7160e01b84848460405160240161099793929190611fb9565b60408051601f198184030181529190526020810180517bffffffffffffffffffffffffffffffffffffffffffffffffffffffff167fffffffff00000000000000000000000000000000000000000000000000000000909316929092179091526001600160a01b0386169061136c565b610a0e611afb565b610a166110d1565b6040805160808101825282546001600160a01b0390811682526001840154811660208301526002840154169181019190915260039091015460608201819052909150600090610a7390849061078890670de0b6b3a764000061124f565b9050836000670de0b6b3a7640000831015610ab257670de0b6b3a7640000610a9b878561124f565b81610aa257fe5b049150610aaf8683611114565b90505b6000670de0b6b3a7640000610b1a610aea847f000000000000000000000000000000000000000000000000000000000000000061124f565b610b14867f000000000000000000000000000000000000000000000000000000000000000061124f565b90611391565b81610b2157fe5b0490508285606001511115610b485782856060015103610b3f6110d1565b60030155610b57565b6000610b526110d1565b600301555b6020850151610b90906001600160a01b03167f00000000000000000000000000000000000000000000000000000000000000008361113c565b610bba610b9b6113b6565b610ba58984611114565b60208801516001600160a01b0316919061113c565b7f709253979bd6940dd98f88563dd13bd50584a1bb56d9cbd21af1fde5b5db805f8785604051610beb929190612734565b60405180910390a150505050505050565b610c046113d2565b610c205760405162461bcd60e51b815260040161014f906124f8565b6000610c3c610c2d6110d1565b546001600160a01b03166107f9565b9050600080610c5c83610c4d6110d1565b546001600160a01b03166113ee565b90925090506001600160a01b038216156107f4576000670de0b6b3a7640000610ca5837f000000000000000000000000000000000000000000000000000000000000000061124f565b81610cac57fe5b0490508015610ce957610ce96001600160a01b0384167f00000000000000000000000000000000000000000000000000000000000000008361113c565b80821115610d0f57610d0f610cfc6113b6565b6001600160a01b0385169083850361113c565b50505050565b6000806000610d278460c001516111bf565b919450925090506001600160a01b03808416908316106000610d4a848685611432565b9050610d76817ffa461e33028c3f5ba6fd24f0f40b936af65270d771ddf3e963f1798ed73aadc4611470565b600080826001600160a01b031663128acb083086610d938d61153c565b60000388610db55773fffd8963efd1fc6a506488495d951d5263988d25610dbc565b6401000276a45b8d604051602001610dcd91906126c4565b6040516020818303038152906040526040518663ffffffff1660e01b8152600401610dfc959493929190611fdd565b6040805180830381600087803b158015610e1557600080fd5b505af1158015610e29573d6000803e3d6000fd5b505050506040513d601f19601f82011682018060405250810190610e4d9190611c7b565b91509150600084610e62578183600003610e68565b82826000035b91505089811461058d5760405162461bcd60e51b815260040161014f90612218565b6000806000610e9c8460a001516111bf565b9250925092506000610eaf848484611432565b9050610edb817fe9cbafb0df34c580b854639e412985b6f239fd05c76e5ec3f21c1895c397d894611470565b6000846001600160a01b0316876001600160a01b03161415610f1357836001600160a01b0316856001600160a01b0316109050610f61565b836001600160a01b0316876001600160a01b03161415610f4957846001600160a01b0316846001600160a01b0316109050610f61565b60405162461bcd60e51b815260040161014f90612388565b816001600160a01b031663490e6cbc3083610f7d576000610f83565b88602001515b84610f92578960200151610f95565b60005b8a604051602001610fa69190612668565b6040516020818303038152906040526040518563ffffffff1660e01b8152600401610fd49493929190612030565b600060405180830381600087803b158015610fee57600080fd5b505af1158015611002573d6000803e3d6000fd5b5050505050505050505050565b61101761156e565b546001600160a01b0316331461103f5760405162461bcd60e51b815260040161014f90612351565b61104761156e565b80547fffffffffffffffffffffffff00000000000000000000000000000000000000001690556110756107c5565b60010180547fffffffffffffffffffffffff00000000000000000000000000000000000000001690556110a66107c5565b60010180547fffffffffffffffff00000000ffffffffffffffffffffffffffffffffffffffff169055565b7f8278faaeed8149083abb50630b1bee29cf32152ad9a9c9145fe4b38fa3f9c4e890565b61044f6220311b60e01b84848460405160240161099793929190611fb9565b6000828211156111365760405162461bcd60e51b815260040161014f90612116565b50900390565b6107f48363a9059cbb60e01b848460405160240161115b929190612017565b60408051601f198184030181529190526020810180517bffffffffffffffffffffffffffffffffffffffffffffffffffffffff167fffffffff0000000000000000000000000000000000000000000000000000000090931692909217909152611592565b600080806111cd8482611621565b92506111da846014611683565b90506111e7846017611621565b91509193909250565b516042111590565b805160609061089d9083906017907fffffffffffffffffffffffffffffffffffffffffffffffffffffffffffffffe9016116d5565b6000606061093463b84c743b60e01b85856040516024016108c5929190611f77565b60008261125e5750600061089d565b8282028284828161126b57fe5b041461094e5760405162461bcd60e51b815260040161014f90612286565b60008082116112aa5760405162461bcd60e51b815260040161014f906121aa565b8183816112b357fe5b049392505050565b826001600160a01b03166112cd6110d1565b546001600160a01b0316146112f45760405162461bcd60e51b815260040161014f9061259d565b816001600160a01b03166113066110d1565b600101546001600160a01b0316146113305760405162461bcd60e51b815260040161014f906123bf565b806001600160a01b03166113426110d1565b600201546001600160a01b0316146107f45760405162461bcd60e51b815260040161014f9061224f565b606061094e8383604051806060016040528060278152602001612811602791396117b1565b60008282018381101561094e5760405162461bcd60e51b815260040161014f906120a8565b60006113c06107c5565b600401546001600160a01b0316905090565b6000806113dd6110d1565b546001600160a01b03161415905090565b600080606061140f63ef5cfb8c60e01b856040516024016108c59190611f63565b9050808060200190518101906114259190611c2e565b92509250505b9250929050565b60006114687f000000000000000000000000000000000000000000000000000000000000000061146386868661184e565b6118a4565b949350505050565b7f00000000000000000000000000000000000000000000000000000000000000006114996107c5565b60010180547fffffffffffffffffffffffff0000000000000000000000000000000000000000166001600160a01b0392909216919091179055806114db6107c5565b60010160146101000a81548163ffffffff021916908360e01c02179055508161150261156e565b80547fffffffffffffffffffffffff0000000000000000000000000000000000000000166001600160a01b03929092169190911790555050565b60007f8000000000000000000000000000000000000000000000000000000000000000821061156a57600080fd5b5090565b7fc5d5263de37dce81582e28149430e86ed2909cc13d13a50adac77d0d2b2c7d8090565b60606115e7826040518060400160405280602081526020017f5361666545524332303a206c6f772d6c6576656c2063616c6c206661696c6564815250856001600160a01b03166119559092919063ffffffff16565b8051909150156107f457808060200190518101906116059190611c5b565b6107f45760405162461bcd60e51b815260040161014f906125d4565b6000818260140110156116465760405162461bcd60e51b815260040161014f90612631565b816014018351101561166a5760405162461bcd60e51b815260040161014f9061231a565b5001602001516c01000000000000000000000000900490565b6000818260030110156116a85760405162461bcd60e51b815260040161014f906120df565b81600301835110156116cc5760405162461bcd60e51b815260040161014f906122e3565b50016003015190565b60608182601f0110156116fa5760405162461bcd60e51b815260040161014f906121e1565b82828401101561171c5760405162461bcd60e51b815260040161014f906121e1565b8183018451101561173f5760405162461bcd60e51b815260040161014f90612566565b60608215801561175e57604051915060008252602082016040526117a8565b6040519150601f8416801560200281840101858101878315602002848b0101015b8183101561179757805183526020928301920161177f565b5050858452601f01601f1916604052505b50949350505050565b60606117bc84611964565b6117d85760405162461bcd60e51b815260040161014f90612464565b60006060856001600160a01b0316856040516117f49190611ee4565b600060405180830381855af49150503d806000811461182f576040519150601f19603f3d011682016040523d82523d6000602084013e611834565b606091505b509150915061184482828661196a565b9695505050505050565b611856611b22565b826001600160a01b0316846001600160a01b03161115611874579192915b50604080516060810182526001600160a01b03948516815292909316602083015262ffffff169181019190915290565b600081602001516001600160a01b031682600001516001600160a01b0316106118cc57600080fd5b828260000151836020015184604001516040516020016118ee93929190611f91565b60408051601f19818403018152908290528051602091820120611936939290917fe34f199b19b2b4f47f68442619d555527d244f78a3297ea89325f843f87b8b549101611f00565b60408051601f1981840301815291905280516020909101209392505050565b606061146884846000856119a3565b3b151590565b6060831561197957508161094e565b8251156119895782518084602001fd5b8160405162461bcd60e51b815260040161014f919061205e565b6060824710156119c55760405162461bcd60e51b815260040161014f9061214d565b6119ce85611964565b6119ea5760405162461bcd60e51b815260040161014f9061252f565b60006060866001600160a01b03168587604051611a079190611ee4565b60006040518083038185875af1925050503d8060008114611a44576040519150601f19603f3d011682016040523d82523d6000602084013e611a49565b606091505b5091509150611a5982828661196a565b979650505050505050565b6040518060c0016040528060008152602001600081526020016000815260200160006001600160a01b0316815260200160006001600160a01b03168152602001606081525090565b6040518060e001604052806000815260200160008152602001600081526020016000815260200160006001600160a01b0316815260200160006001600160a01b03168152602001606081525090565b60408051608081018252600080825260208201819052918101829052606081019190915290565b604080516060810182526000808252602082018190529181019190915290565b803561089d816127f8565b60008083601f840112611b5e578182fd5b50813567ffffffffffffffff811115611b75578182fd5b60208301915083602082850101111561142b57600080fd5b600082601f830112611b9d578081fd5b813567ffffffffffffffff811115611bb3578182fd5b611bc66020601f19601f840116016127a5565b9150808252836020828501011115611bdd57600080fd5b8060208401602084013760009082016020015292915050565b600060208284031215611c07578081fd5b813561094e816127f8565b600060208284031215611c23578081fd5b815161094e816127f8565b60008060408385031215611c40578081fd5b8251611c4b816127f8565b6020939093015192949293505050565b600060208284031215611c6c578081fd5b8151801515811461094e578182fd5b60008060408385031215611c8d578182fd5b505080516020909101519092909150565b60008060008060608587031215611cb3578182fd5b8435935060208501359250604085013567ffffffffffffffff811115611cd7578283fd5b611ce387828801611b4d565b95989497509550505050565b600060208284031215611d00578081fd5b813567ffffffffffffffff811115611d16578182fd5b820160e0818503121561094e578182fd5b600060208284031215611d38578081fd5b813567ffffffffffffffff80821115611d4f578283fd5b9083019060c08286031215611d62578283fd5b611d6c60c06127a5565b823581526020830135602082015260408301356040820152611d918660608501611b42565b6060820152611da38660808501611b42565b608082015260a083013582811115611db9578485fd5b611dc587828601611b8d565b60a08301525095945050505050565b600060208284031215611de5578081fd5b813567ffffffffffffffff80821115611dfc578283fd5b9083019060e08286031215611e0f578283fd5b611e1960e06127a5565b82358152602083013560208201526040830135604082015260608301356060820152611e488660808501611b42565b6080820152611e5a8660a08501611b42565b60a082015260c083013582811115611e70578485fd5b611e7c87828601611b8d565b60c08301525095945050505050565b600060208284031215611e9c578081fd5b5051919050565b60008060008060608587031215611cb3578384fd5b60008151808452611ed08160208601602086016127cc565b601f01601f19169290920160200192915050565b60008251611ef68184602087016127cc565b9190910192915050565b7fff00000000000000000000000000000000000000000000000000000000000000815260609390931b7fffffffffffffffffffffffffffffffffffffffff0000000000000000000000001660018401526015830191909152603582015260550190565b6001600160a01b0391909116815260200190565b6001600160a01b0392831681529116602082015260400190565b6001600160a01b03938416815291909216602082015262ffffff909116604082015260600190565b6001600160a01b039384168152919092166020820152604081019190915260600190565b60006001600160a01b038088168352861515602084015285604084015280851660608401525060a06080830152611a5960a0830184611eb8565b6001600160a01b03929092168252602082015260400190565b60006001600160a01b0386168252846020830152836040830152608060608301526118446080830184611eb8565b60006020825261094e6020830184611eb8565b60208082526003908201527f4641320000000000000000000000000000000000000000000000000000000000604082015260600190565b6020808252601b908201527f536166654d6174683a206164646974696f6e206f766572666c6f770000000000604082015260600190565b60208082526011908201527f746f55696e7432345f6f766572666c6f77000000000000000000000000000000604082015260600190565b6020808252601e908201527f536166654d6174683a207375627472616374696f6e206f766572666c6f770000604082015260600190565b60208082526026908201527f416464726573733a20696e73756666696369656e742062616c616e636520666f60408201527f722063616c6c0000000000000000000000000000000000000000000000000000606082015260800190565b6020808252601a908201527f536166654d6174683a206469766973696f6e206279207a65726f000000000000604082015260600190565b6020808252600e908201527f736c6963655f6f766572666c6f77000000000000000000000000000000000000604082015260600190565b60208082526008908201527f44575633464d4332000000000000000000000000000000000000000000000000604082015260600190565b60208082526003908201527f5350340000000000000000000000000000000000000000000000000000000000604082015260600190565b60208082526021908201527f536166654d6174683a206d756c7469706c69636174696f6e206f766572666c6f60408201527f7700000000000000000000000000000000000000000000000000000000000000606082015260800190565b60208082526014908201527f746f55696e7432345f6f75744f66426f756e6473000000000000000000000000604082015260600190565b60208082526015908201527f746f416464726573735f6f75744f66426f756e64730000000000000000000000604082015260600190565b60208082526008908201527f44575633464d4336000000000000000000000000000000000000000000000000604082015260600190565b60208082526008908201527f44575633464d4337000000000000000000000000000000000000000000000000604082015260600190565b60208082526003908201527f5350330000000000000000000000000000000000000000000000000000000000604082015260600190565b60208082526008908201527f44575633464d4335000000000000000000000000000000000000000000000000604082015260600190565b60208082526008908201527f44575633464d4333000000000000000000000000000000000000000000000000604082015260600190565b60208082526026908201527f416464726573733a2064656c65676174652063616c6c20746f206e6f6e2d636f60408201527f6e74726163740000000000000000000000000000000000000000000000000000606082015260800190565b60208082526008908201527f44575633464d4334000000000000000000000000000000000000000000000000604082015260600190565b60208082526003908201527f5350310000000000000000000000000000000000000000000000000000000000604082015260600190565b6020808252601d908201527f416464726573733a2063616c6c20746f206e6f6e2d636f6e7472616374000000604082015260600190565b60208082526011908201527f736c6963655f6f75744f66426f756e6473000000000000000000000000000000604082015260600190565b60208082526003908201527f5350320000000000000000000000000000000000000000000000000000000000604082015260600190565b6020808252602a908201527f5361666545524332303a204552433230206f7065726174696f6e20646964206e60408201527f6f74207375636365656400000000000000000000000000000000000000000000606082015260800190565b60208082526012908201527f746f416464726573735f6f766572666c6f770000000000000000000000000000604082015260600190565b60006020825282516020830152602083015160408301526040830151606083015260608301516001600160a01b0380821660808501528060808601511660a0850152505060a083015160c08084015261146860e0840182611eb8565b6000602082528251602083015260208301516040830152604083015160608301526060830151608083015260808301516001600160a01b0380821660a08501528060a08601511660c0850152505060c083015160e080840152611468610100840182611eb8565b90815260200190565b918252602082015260400190565b60008083357fffffffffffffffffffffffffffffffffffffffffffffffffffffffffffffffe1843603018112612776578283fd5b83018035915067ffffffffffffffff821115612790578283fd5b60200191503681900382131561142b57600080fd5b60405181810167ffffffffffffffff811182821017156127c457600080fd5b604052919050565b60005b838110156127e75781810151838201526020016127cf565b83811115610d0f5750506000910152565b6001600160a01b038116811461280d57600080fd5b5056fe416464726573733a206c6f772d6c6576656c2064656c65676174652063616c6c206661696c6564a2646970667358221220fc14ac8ec024a37844c884c65ae52d0c06f09ef8af898d125667686d70458f1164736f6c634300060c0033"
}