{
  "address": "0xED16f524ddC0896368Dc99ace1B5D318a0834CF2",
  "abi": [
    {
      "inputs": [
        {
          "internalType": "uint256",
          "name": "_principal",
          "type": "uint256"
        },
        {
          "internalType": "uint256",
          "name": "_profit",
          "type": "uint256"
        },
        {
          "internalType": "address",
          "name": "_holder",
          "type": "address"
        },
        {
          "internalType": "address",
          "name": "_factory",
          "type": "address"
        }
      ],
      "stateMutability": "nonpayable",
      "type": "constructor"
    },
    {
      "inputs": [
        {
          "components": [
            {
              "internalType": "uint256",
              "name": "redeemAmount",
              "type": "uint256"
            },
            {
              "internalType": "uint256",
              "name": "maximumFlashAmount",
              "type": "uint256"
            },
            {
              "internalType": "uint256",
              "name": "repayAmount",
              "type": "uint256"
            },
            {
              "internalType": "address",
              "name": "platform",
              "type": "address"
            },
            {
              "internalType": "address",
              "name": "supplyToken",
              "type": "address"
            },
            {
              "internalType": "address",
              "name": "borrowToken",
              "type": "address"
            },
            {
              "internalType": "uint24",
              "name": "fee",
              "type": "uint24"
            }
          ],
          "internalType": "struct DecreasePositionWithFlashswapParams",
          "name": "params",
          "type": "tuple"
        }
      ],
      "name": "decreasePositionWithV3Flashswap",
      "outputs": [],
      "stateMutability": "nonpayable",
      "type": "function"
    },
    {
      "inputs": [],
      "name": "getBorrowBalance",
      "outputs": [
        {
          "internalType": "uint256",
          "name": "",
          "type": "uint256"
        }
      ],
      "stateMutability": "nonpayable",
      "type": "function"
    },
    {
      "inputs": [],
      "name": "getCollateralUsageFactor",
      "outputs": [
        {
          "internalType": "uint256",
          "name": "",
          "type": "uint256"
        }
      ],
      "stateMutability": "nonpayable",
      "type": "function"
    },
    {
      "inputs": [],
      "name": "getPositionMetadata",
      "outputs": [
        {
          "components": [
            {
              "internalType": "uint256",
              "name": "supplyAmount",
              "type": "uint256"
            },
            {
              "internalType": "uint256",
              "name": "borrowAmount",
              "type": "uint256"
            },
            {
              "internalType": "uint256",
              "name": "collateralUsageFactor",
              "type": "uint256"
            },
            {
              "internalType": "uint256",
              "name": "principalValue",
              "type": "uint256"
            },
            {
              "internalType": "uint256",
              "name": "positionValue",
              "type": "uint256"
            },
            {
              "internalType": "address",
              "name": "positionAddress",
              "type": "address"
            },
            {
              "internalType": "address",
              "name": "platformAddress",
              "type": "address"
            },
            {
              "internalType": "address",
              "name": "supplyTokenAddress",
              "type": "address"
            },
            {
              "internalType": "address",
              "name": "borrowTokenAddress",
              "type": "address"
            }
          ],
          "internalType": "struct SimplePositionMetadata",
          "name": "metadata",
          "type": "tuple"
        }
      ],
      "stateMutability": "nonpayable",
      "type": "function"
    },
    {
      "inputs": [],
      "name": "getPositionValue",
      "outputs": [
        {
          "internalType": "uint256",
          "name": "positionValue",
          "type": "uint256"
        }
      ],
      "stateMutability": "nonpayable",
      "type": "function"
    },
    {
      "inputs": [],
      "name": "getPrincipalValue",
      "outputs": [
        {
          "internalType": "uint256",
          "name": "",
          "type": "uint256"
        }
      ],
      "stateMutability": "nonpayable",
      "type": "function"
    },
    {
      "inputs": [],
      "name": "getSimplePositionDetails",
      "outputs": [
        {
          "internalType": "address",
          "name": "",
          "type": "address"
        },
        {
          "internalType": "address",
          "name": "",
          "type": "address"
        },
        {
          "internalType": "address",
          "name": "",
          "type": "address"
        }
      ],
      "stateMutability": "view",
      "type": "function"
    },
    {
      "inputs": [],
      "name": "getSupplyBalance",
      "outputs": [
        {
          "internalType": "uint256",
          "name": "",
          "type": "uint256"
        }
      ],
      "stateMutability": "nonpayable",
      "type": "function"
    },
    {
      "inputs": [],
      "name": "holder",
      "outputs": [
        {
          "internalType": "address",
          "name": "",
          "type": "address"
        }
      ],
      "stateMutability": "view",
      "type": "function"
    },
    {
      "inputs": [
        {
          "components": [
            {
              "internalType": "uint256",
              "name": "principalAmount",
              "type": "uint256"
            },
            {
              "internalType": "uint256",
              "name": "minimumSupplyAmount",
              "type": "uint256"
            },
            {
              "internalType": "uint256",
              "name": "borrowAmount",
              "type": "uint256"
            },
            {
              "internalType": "address",
              "name": "platform",
              "type": "address"
            },
            {
              "internalType": "address",
              "name": "supplyToken",
              "type": "address"
            },
            {
              "internalType": "address",
              "name": "borrowToken",
              "type": "address"
            },
            {
              "internalType": "uint24",
              "name": "fee",
              "type": "uint24"
            }
          ],
          "internalType": "struct IncreasePositionWithFlashswapParams",
          "name": "params",
          "type": "tuple"
        }
      ],
      "name": "increasePositionWithV3Flashswap",
      "outputs": [],
      "stateMutability": "nonpayable",
      "type": "function"
    },
    {
      "inputs": [],
      "name": "principal",
      "outputs": [
        {
          "internalType": "uint256",
          "name": "",
          "type": "uint256"
        }
      ],
      "stateMutability": "view",
      "type": "function"
    },
    {
      "inputs": [],
      "name": "profit",
      "outputs": [
        {
          "internalType": "uint256",
          "name": "",
          "type": "uint256"
        }
      ],
      "stateMutability": "view",
      "type": "function"
    },
    {
      "inputs": [
        {
          "internalType": "int256",
          "name": "amount0Delta",
          "type": "int256"
        },
        {
          "internalType": "int256",
          "name": "amount1Delta",
          "type": "int256"
        },
        {
          "internalType": "bytes",
          "name": "_data",
          "type": "bytes"
        }
      ],
      "name": "uniswapV3SwapCallback",
      "outputs": [],
      "stateMutability": "nonpayable",
      "type": "function"
    }
  ],
  "transactionHash": "0x8f170eece76a5a99ee9cb5e1c13a871cdcea54721f86f9a1aeff8b474a37ef63",
  "args": [
    "1000000000000000",
    "25000000000000000",
    "0xfF6062AAc9A6367Ce2F02C826C544a130baBCf32",
    "0x1F98431c8aD98523631AE4a59f267346ea31F984"
  ],
  "solcInputHash": "00c372fcdf77f1cc594c1be969f63725",
  "bytecode": "0x6101206040523480156200001257600080fd5b5060405162004a4d38038062004a4d833981810160405281019062000038919062000239565b838383670de0b6b3a7640000831062000088576040517f08c379a00000000000000000000000000000000000000000000000000000000081526004016200007f906200034b565b60405180910390fd5b670de0b6b3a76400008210620000d5576040517f08c379a0000000000000000000000000000000000000000000000000000000008152600401620000cc906200034b565b60405180910390fd5b600073ffffffffffffffffffffffffffffffffffffffff168173ffffffffffffffffffffffffffffffffffffffff16141562000148576040517f08c379a00000000000000000000000000000000000000000000000000000000081526004016200013f9062000329565b60405180910390fd5b82608081815250508160a081815250508073ffffffffffffffffffffffffffffffffffffffff1660c08173ffffffffffffffffffffffffffffffffffffffff1660601b815250505050503073ffffffffffffffffffffffffffffffffffffffff1660e08173ffffffffffffffffffffffffffffffffffffffff1660601b815250508073ffffffffffffffffffffffffffffffffffffffff166101008173ffffffffffffffffffffffffffffffffffffffff1660601b8152505050505050620003f0565b6000815190506200021c81620003bc565b92915050565b6000815190506200023381620003d6565b92915050565b600080600080608085870312156200025057600080fd5b6000620002608782880162000222565b9450506020620002738782880162000222565b935050604062000286878288016200020b565b925050606062000299878288016200020b565b91505092959194509250565b6000620002b46004836200036d565b91507f49435030000000000000000000000000000000000000000000000000000000006000830152602082019050919050565b6000620002f66004836200036d565b91507f49435031000000000000000000000000000000000000000000000000000000006000830152602082019050919050565b600060208201905081810360008301526200034481620002a5565b9050919050565b600060208201905081810360008301526200036681620002e7565b9050919050565b600082825260208201905092915050565b60006200038b8262000392565b9050919050565b600073ffffffffffffffffffffffffffffffffffffffff82169050919050565b6000819050919050565b620003c7816200037e565b8114620003d357600080fd5b50565b620003e181620003b2565b8114620003ed57600080fd5b50565b60805160a05160c05160601c60e05160601c6101005160601c614605620004486000398061162e525080611668525080611023528061237d5250806106e852806122c65250806108de52806122f952506146056000f3fe608060405234801561001057600080fd5b50600436106100cf5760003560e01c8063c7f40af21161008c578063d71f89ac11610066578063d71f89ac146101e0578063e534155d146101fe578063e8c944e61461021c578063fa461e331461023a576100cf565b8063c7f40af214610188578063ca206591146101a4578063ce2576b2146101c2576100cf565b806302fa5a02146100d4578063040e6b67146100f45780634c7968491461011257806366d16cc31461012e578063b44b3a8f1461014c578063ba5d30781461016a575b600080fd5b6100dc610256565b6040516100eb93929190613f22565b60405180910390f35b6100fc6102e1565b6040516101099190614330565b60405180910390f35b61012c600480360381019061012791906134ba565b6102f4565b005b6101366106e6565b6040516101439190614330565b60405180910390f35b61015461070a565b6040516101619190614330565b60405180910390f35b6101726108dc565b60405161017f9190614330565b60405180910390f35b6101a2600480360381019061019d9190613468565b610900565b005b6101ac610d55565b6040516101b99190614330565b60405180910390f35b6101ca610df0565b6040516101d791906142f2565b60405180910390f35b6101e8610fb2565b6040516101f59190614330565b60405180910390f35b610206611021565b6040516102139190613ede565b60405180910390f35b610224611045565b6040516102319190614330565b60405180910390f35b610254600480360381019061024f91906133d3565b6110e0565b005b6000806000806102646113d6565b90508060000160009054906101000a900473ffffffffffffffffffffffffffffffffffffffff168160010160009054906101000a900473ffffffffffffffffffffffffffffffffffffffff168260020160009054906101000a900473ffffffffffffffffffffffffffffffffffffffff1693509350935050909192565b60006102eb6113d6565b60030154905090565b60006102fe611403565b90508060040160009054906101000a900473ffffffffffffffffffffffffffffffffffffffff1673ffffffffffffffffffffffffffffffffffffffff168160000160009054906101000a900473ffffffffffffffffffffffffffffffffffffffff1673ffffffffffffffffffffffffffffffffffffffff1614806103f557508060020160009054906101000a900473ffffffffffffffffffffffffffffffffffffffff1673ffffffffffffffffffffffffffffffffffffffff168160000160009054906101000a900473ffffffffffffffffffffffffffffffffffffffff1673ffffffffffffffffffffffffffffffffffffffff16145b610434576040517f08c379a000000000000000000000000000000000000000000000000000000000815260040161042b9061417c565b60405180910390fd5b61047582606001602081019061044a919061331c565b83608001602081019061045d919061331c565b8460a0016020810190610470919061331c565b611430565b60006104b883608001602081019061048d919061331c565b8460a00160208101906104a0919061331c565b8560c00160208101906104b39190613524565b611627565b90506104c381611666565b60008360800160208101906104d8919061331c565b73ffffffffffffffffffffffffffffffffffffffff168460a0016020810190610501919061331c565b73ffffffffffffffffffffffffffffffffffffffff161090508173ffffffffffffffffffffffffffffffffffffffff1663128acb0830836105458860400135611764565b8561056757600173fffd8963efd1fc6a506488495d951d5263988d2603610571565b60016401000276a3015b60405180604001604052806001151581526020016040518060a001604052808d6000013581526020018d6020013581526020018d60a00160208101906105b7919061331c565b73ffffffffffffffffffffffffffffffffffffffff1681526020018d60800160208101906105e5919061331c565b73ffffffffffffffffffffffffffffffffffffffff1681526020018d6060016020810190610613919061331c565b73ffffffffffffffffffffffffffffffffffffffff1681525060405160200161063c91906142d7565b60405160208183030381529060405281525060405160200161065e919061430e565b6040516020818303038152906040526040518663ffffffff1660e01b815260040161068d959493929190613ff7565b6040805180830381600087803b1580156106a657600080fd5b505af11580156106ba573d6000803e3d6000fd5b505050506040513d601f19601f820116820180604052508101906106de9190613397565b505050505050565b7f000000000000000000000000000000000000000000000000000000000000000081565b6000610714612d82565b61071c6113d6565b6040518060800160405290816000820160009054906101000a900473ffffffffffffffffffffffffffffffffffffffff1673ffffffffffffffffffffffffffffffffffffffff1673ffffffffffffffffffffffffffffffffffffffff1681526020016001820160009054906101000a900473ffffffffffffffffffffffffffffffffffffffff1673ffffffffffffffffffffffffffffffffffffffff1673ffffffffffffffffffffffffffffffffffffffff1681526020016002820160009054906101000a900473ffffffffffffffffffffffffffffffffffffffff1673ffffffffffffffffffffffffffffffffffffffff1673ffffffffffffffffffffffffffffffffffffffff16815260200160038201548152505090506000610844826000015161179a565b9050600061085b8284600001518560400151611857565b90506000610872838560000151866020015161191b565b90506108bd61088a84866000015187602001516119df565b6108af6108a086886000015189604001516119df565b85611aa390919063ffffffff16565b611b1390919063ffffffff16565b91508181106108d05781810394506108d5565b600094505b5050505090565b7f000000000000000000000000000000000000000000000000000000000000000081565b600061090a611403565b90508060040160009054906101000a900473ffffffffffffffffffffffffffffffffffffffff1673ffffffffffffffffffffffffffffffffffffffff168160000160009054906101000a900473ffffffffffffffffffffffffffffffffffffffff1673ffffffffffffffffffffffffffffffffffffffff16146109c2576040517f08c379a00000000000000000000000000000000000000000000000000000000081526004016109b99061409c565b60405180910390fd5b610a038260600160208101906109d8919061331c565b8360800160208101906109eb919061331c565b8460a00160208101906109fe919061331c565b611b69565b816000013582602001351115610a4e576040517f08c379a0000000000000000000000000000000000000000000000000000000008152600401610a459061427c565b60405180910390fd5b6000610a91836080016020810190610a66919061331c565b8460a0016020810190610a79919061331c565b8560c0016020810190610a8c9190613524565b611627565b9050610a9c81611666565b6000836080016020810190610ab1919061331c565b73ffffffffffffffffffffffffffffffffffffffff168460a0016020810190610ada919061331c565b73ffffffffffffffffffffffffffffffffffffffff161190506000610b10856060016020810190610b0b919061331c565b61179a565b90506000610b4382876060016020810190610b2b919061331c565b8860a0016020810190610b3e919061331c565b611857565b90508373ffffffffffffffffffffffffffffffffffffffff1663128acb083085848a6040013511610b8357610b7b8a60400135611764565b600003610b90565b610b8c85611764565b6000035b87610bb257600173fffd8963efd1fc6a506488495d951d5263988d2603610bbc565b60016401000276a3015b60405180604001604052806000151581526020016040518060e001604052808f6000013581526020018f6020013581526020018a81526020018f60a0016020810190610c08919061331c565b73ffffffffffffffffffffffffffffffffffffffff1681526020018f6080016020810190610c36919061331c565b73ffffffffffffffffffffffffffffffffffffffff1681526020018f6060016020810190610c64919061331c565b73ffffffffffffffffffffffffffffffffffffffff1681526020018b73ffffffffffffffffffffffffffffffffffffffff16815250604051602001610ca991906142bc565b604051602081830303815290604052815250604051602001610ccb919061430e565b6040516020818303038152906040526040518663ffffffff1660e01b8152600401610cfa959493929190613ff7565b6040805180830381600087803b158015610d1357600080fd5b505af1158015610d27573d6000803e3d6000fd5b505050506040513d601f19601f82011682018060405250810190610d4b9190613397565b5050505050505050565b6000610deb610d8e610d656113d6565b60000160009054906101000a900473ffffffffffffffffffffffffffffffffffffffff1661179a565b610d966113d6565b60000160009054906101000a900473ffffffffffffffffffffffffffffffffffffffff16610dc26113d6565b60020160009054906101000a900473ffffffffffffffffffffffffffffffffffffffff16611857565b905090565b610df8612dec565b308160a0019073ffffffffffffffffffffffffffffffffffffffff16908173ffffffffffffffffffffffffffffffffffffffff1681525050610e386113d6565b60000160009054906101000a900473ffffffffffffffffffffffffffffffffffffffff168160c0019073ffffffffffffffffffffffffffffffffffffffff16908173ffffffffffffffffffffffffffffffffffffffff1681525050610e9b6113d6565b60010160009054906101000a900473ffffffffffffffffffffffffffffffffffffffff168160e0019073ffffffffffffffffffffffffffffffffffffffff16908173ffffffffffffffffffffffffffffffffffffffff1681525050610efe6113d6565b60020160009054906101000a900473ffffffffffffffffffffffffffffffffffffffff1681610100019073ffffffffffffffffffffffffffffffffffffffff16908173ffffffffffffffffffffffffffffffffffffffff1681525050610f62611045565b816000018181525050610f73610d55565b816020018181525050610f84610fb2565b816040018181525050610f956102e1565b816060018181525050610fa661070a565b81608001818152505090565b600061101c610feb610fc26113d6565b60000160009054906101000a900473ffffffffffffffffffffffffffffffffffffffff1661179a565b610ff36113d6565b60000160009054906101000a900473ffffffffffffffffffffffffffffffffffffffff16611d39565b905090565b7f000000000000000000000000000000000000000000000000000000000000000081565b60006110db61107e6110556113d6565b60000160009054906101000a900473ffffffffffffffffffffffffffffffffffffffff1661179a565b6110866113d6565b60000160009054906101000a900473ffffffffffffffffffffffffffffffffffffffff166110b26113d6565b60010160009054906101000a900473ffffffffffffffffffffffffffffffffffffffff1661191b565b905090565b6110e8611dfa565b6110f0612e90565b82828101906110ff91906134e3565b905080600001511561122957611113612eac565b816020015180602001905181019061112b9190613491565b9050600080871261115557611150866000038360000151611f0f90919063ffffffff16565b611170565b61116f876000038360000151611f0f90919063ffffffff16565b5b905081602001518110156111b9576040517f08c379a00000000000000000000000000000000000000000000000000000000081526004016111b09061423c565b60405180910390fd5b60008088136111c857866111ca565b875b90506111d98360000151611f64565b6111f28360800151846060015184866040015185611fdf565b6112213382856040015173ffffffffffffffffffffffffffffffffffffffff1661200c9092919063ffffffff16565b5050506113cf565b611231612f1d565b8160200151806020019051810190611249919061343f565b9050600080871361125a578561125c565b865b905060006112778360c001518460a00151856080015161191b565b9050600081846000015111611290578360000151611292565b815b905083602001518311156112db576040517f08c379a00000000000000000000000000000000000000000000000000000000081526004016112d2906141fc565b60405180910390fd5b6000808a126112ed57886000036112f2565b896000035b90506113128560a001518660c00151876080015185896060015186612092565b6113413385876080015173ffffffffffffffffffffffffffffffffffffffff1661200c9092919063ffffffff16565b6000848303905060008111156113c85760006113ba6113ab6113708960c001518a60a001518b608001516119df565b61139d61138a8b60c001518c60a001518d606001516119df565b8b60400151611aa390919063ffffffff16565b611b1390919063ffffffff16565b866120b290919063ffffffff16565b90506113c68282612102565b505b5050505050505b5050505050565b6000807f8278faaeed8149083abb50630b1bee29cf32152ad9a9c9145fe4b38fa3f9c4e890508091505090565b6000807fadbb89e904f74d44d0d104c851da4f2fa24de8f1dee64f038923bb940f37d53a90508091505090565b600061143b8461179a565b9050611445612418565b1561145a57611455848484611b69565b611621565b836114636113d6565b60000160006101000a81548173ffffffffffffffffffffffffffffffffffffffff021916908373ffffffffffffffffffffffffffffffffffffffff160217905550826114ad6113d6565b60010160006101000a81548173ffffffffffffffffffffffffffffffffffffffff021916908373ffffffffffffffffffffffffffffffffffffffff160217905550816114f76113d6565b60020160006101000a81548173ffffffffffffffffffffffffffffffffffffffff021916908373ffffffffffffffffffffffffffffffffffffffff1602179055506060600267ffffffffffffffff8111801561155257600080fd5b506040519080825280602002602001820160405280156115815781602001602082028036833780820191505090505b509050838160008151811061159257fe5b602002602001019073ffffffffffffffffffffffffffffffffffffffff16908173ffffffffffffffffffffffffffffffffffffffff168152505082816001815181106115da57fe5b602002602001019073ffffffffffffffffffffffffffffffffffffffff16908173ffffffffffffffffffffffffffffffffffffffff168152505061161f82868361247a565b505b50505050565b600061165d7f0000000000000000000000000000000000000000000000000000000000000000611658868686612520565b6125bc565b90509392505050565b7f000000000000000000000000000000000000000000000000000000000000000061168f611403565b60010160006101000a81548173ffffffffffffffffffffffffffffffffffffffff021916908373ffffffffffffffffffffffffffffffffffffffff1602179055507ffa461e33028c3f5ba6fd24f0f40b936af65270d771ddf3e963f1798ed73aadc46116f9611403565b60010160146101000a81548163ffffffff021916908360e01c02179055508061172061268d565b60000160006101000a81548173ffffffffffffffffffffffffffffffffffffffff021916908373ffffffffffffffffffffffffffffffffffffffff16021790555050565b60007f8000000000000000000000000000000000000000000000000000000000000000821061179257600080fd5b819050919050565b60006117a4611403565b60020160009054906101000a900473ffffffffffffffffffffffffffffffffffffffff1673ffffffffffffffffffffffffffffffffffffffff166342dfa789836040518263ffffffff1660e01b81526004016118009190613ede565b60206040518083038186803b15801561181857600080fd5b505afa15801561182c573d6000803e3d6000fd5b505050506040513d601f19601f820116820180604052508101906118509190613345565b9050919050565b600060606118fb63118e31b760e01b8585604051602401611879929190613ef9565b604051602081830303815290604052907bffffffffffffffffffffffffffffffffffffffffffffffffffffffff19166020820180517bffffffffffffffffffffffffffffffffffffffffffffffffffffffff83818316178352505050508673ffffffffffffffffffffffffffffffffffffffff166126ba90919063ffffffff16565b905080806020019051810190611911919061354d565b9150509392505050565b600060606119bf63ba37773160e01b858560405160240161193d929190613ef9565b604051602081830303815290604052907bffffffffffffffffffffffffffffffffffffffffffffffffffffffff19166020820180517bffffffffffffffffffffffffffffffffffffffffffffffffffffffff83818316178352505050508673ffffffffffffffffffffffffffffffffffffffff166126ba90919063ffffffff16565b9050808060200190518101906119d5919061354d565b9150509392505050565b60006060611a8363b84c743b60e01b8585604051602401611a01929190613ef9565b604051602081830303815290604052907bffffffffffffffffffffffffffffffffffffffffffffffffffffffff19166020820180517bffffffffffffffffffffffffffffffffffffffffffffffffffffffff83818316178352505050508673ffffffffffffffffffffffffffffffffffffffff166126ba90919063ffffffff16565b905080806020019051810190611a99919061354d565b9150509392505050565b600080831415611ab65760009050611b0d565b6000828402905082848281611ac757fe5b0414611b08576040517f08c379a0000000000000000000000000000000000000000000000000000000008152600401611aff9061419c565b60405180910390fd5b809150505b92915050565b6000808211611b57576040517f08c379a0000000000000000000000000000000000000000000000000000000008152600401611b4e9061411c565b60405180910390fd5b818381611b6057fe5b04905092915050565b8273ffffffffffffffffffffffffffffffffffffffff16611b886113d6565b60000160009054906101000a900473ffffffffffffffffffffffffffffffffffffffff1673ffffffffffffffffffffffffffffffffffffffff1614611c02576040517f08c379a0000000000000000000000000000000000000000000000000000000008152600401611bf99061425c565b60405180910390fd5b8173ffffffffffffffffffffffffffffffffffffffff16611c216113d6565b60010160009054906101000a900473ffffffffffffffffffffffffffffffffffffffff1673ffffffffffffffffffffffffffffffffffffffff1614611c9b576040517f08c379a0000000000000000000000000000000000000000000000000000000008152600401611c92906141bc565b60405180910390fd5b8073ffffffffffffffffffffffffffffffffffffffff16611cba6113d6565b60020160009054906101000a900473ffffffffffffffffffffffffffffffffffffffff1673ffffffffffffffffffffffffffffffffffffffff1614611d34576040517f08c379a0000000000000000000000000000000000000000000000000000000008152600401611d2b9061415c565b60405180910390fd5b505050565b60006060611ddb63ef84867060e01b84604051602401611d599190613ede565b604051602081830303815290604052907bffffffffffffffffffffffffffffffffffffffffffffffffffffffff19166020820180517bffffffffffffffffffffffffffffffffffffffffffffffffffffffff83818316178352505050508573ffffffffffffffffffffffffffffffffffffffff166126ba90919063ffffffff16565b905080806020019051810190611df1919061354d565b91505092915050565b611e0261268d565b60000160009054906101000a900473ffffffffffffffffffffffffffffffffffffffff1673ffffffffffffffffffffffffffffffffffffffff163373ffffffffffffffffffffffffffffffffffffffff1614611e93576040517f08c379a0000000000000000000000000000000000000000000000000000000008152600401611e8a9061413c565b60405180910390fd5b611e9b61268d565b60000160006101000a81549073ffffffffffffffffffffffffffffffffffffffff0219169055611ec9611403565b60010160006101000a81549073ffffffffffffffffffffffffffffffffffffffff0219169055611ef7611403565b60010160146101000a81549063ffffffff0219169055565b600080828401905083811015611f5a576040517f08c379a0000000000000000000000000000000000000000000000000000000008152600401611f51906140bc565b60405180910390fd5b8091505092915050565b611fc3611f6f6126e7565b3083611f796113d6565b60010160009054906101000a900473ffffffffffffffffffffffffffffffffffffffff1673ffffffffffffffffffffffffffffffffffffffff1661271a909392919063ffffffff16565b80611fcc6113d6565b6003016000828254019250508190555050565b6000611fea8661179a565b9050611ff8818787876127a3565b6120048187858561284c565b505050505050565b61208d8363a9059cbb60e01b848460405160240161202b929190614051565b604051602081830303815290604052907bffffffffffffffffffffffffffffffffffffffffffffffffffffffff19166020820180517bffffffffffffffffffffffffffffffffffffffffffffffffffffffff83818316178352505050506128f5565b505050565b61209e858784846129bc565b6120aa85878686612a64565b505050505050565b6000828211156120f7576040517f08c379a00000000000000000000000000000000000000000000000000000000081526004016120ee906140dc565b60405180910390fd5b818303905092915050565b61210a612d82565b6121126113d6565b6040518060800160405290816000820160009054906101000a900473ffffffffffffffffffffffffffffffffffffffff1673ffffffffffffffffffffffffffffffffffffffff1673ffffffffffffffffffffffffffffffffffffffff1681526020016001820160009054906101000a900473ffffffffffffffffffffffffffffffffffffffff1673ffffffffffffffffffffffffffffffffffffffff1673ffffffffffffffffffffffffffffffffffffffff1681526020016002820160009054906101000a900473ffffffffffffffffffffffffffffffffffffffff1673ffffffffffffffffffffffffffffffffffffffff1673ffffffffffffffffffffffffffffffffffffffff1681526020016003820154815250509050600061225e83612250670de0b6b3a76400008560600151611aa390919063ffffffff16565b611b1390919063ffffffff16565b905060008490506000670de0b6b3a76400008310156122b357670de0b6b3a76400006122938488611aa390919063ffffffff16565b8161229a57fe5b0491506122b082876120b290919063ffffffff16565b90505b6000670de0b6b3a76400006123356122f47f000000000000000000000000000000000000000000000000000000000000000085611aa390919063ffffffff16565b6123277f000000000000000000000000000000000000000000000000000000000000000087611aa390919063ffffffff16565b611f0f90919063ffffffff16565b8161233c57fe5b0490508285606001511115612366578285606001510361235a6113d6565b60030181905550612378565b60006123706113d6565b600301819055505b6123c77f000000000000000000000000000000000000000000000000000000000000000082876020015173ffffffffffffffffffffffffffffffffffffffff1661200c9092919063ffffffff16565b61240f6123d26126e7565b6123e5838a6120b290919063ffffffff16565b876020015173ffffffffffffffffffffffffffffffffffffffff1661200c9092919063ffffffff16565b50505050505050565b60008073ffffffffffffffffffffffffffffffffffffffff166124396113d6565b60000160009054906101000a900473ffffffffffffffffffffffffffffffffffffffff1673ffffffffffffffffffffffffffffffffffffffff161415905090565b61251a634883400d60e01b8383604051602401612498929190613fc7565b604051602081830303815290604052907bffffffffffffffffffffffffffffffffffffffffffffffffffffffff19166020820180517bffffffffffffffffffffffffffffffffffffffffffffffffffffffff83818316178352505050508473ffffffffffffffffffffffffffffffffffffffff166126ba90919063ffffffff16565b50505050565b612528612fb2565b8273ffffffffffffffffffffffffffffffffffffffff168473ffffffffffffffffffffffffffffffffffffffff16111561256757828480945081955050505b60405180606001604052808573ffffffffffffffffffffffffffffffffffffffff1681526020018473ffffffffffffffffffffffffffffffffffffffff1681526020018362ffffff1681525090509392505050565b6000816020015173ffffffffffffffffffffffffffffffffffffffff16826000015173ffffffffffffffffffffffffffffffffffffffff16106125fe57600080fd5b8282600001518360200151846040015160405160200161262093929190613f59565b604051602081830303815290604052805190602001207fe34f199b19b2b4f47f68442619d555527d244f78a3297ea89325f843f87b8b5460001b60405160200161266c93929190613e96565b6040516020818303038152906040528051906020012060001c905092915050565b6000807fc5d5263de37dce81582e28149430e86ed2909cc13d13a50adac77d0d2b2c7d8090508091505090565b60606126df83836040518060600160405280602781526020016145a960279139612b0d565b905092915050565b60006126f1611403565b60040160009054906101000a900473ffffffffffffffffffffffffffffffffffffffff16905090565b61279d846323b872dd60e01b85858560405160240161273b93929190613f90565b604051602081830303815290604052907bffffffffffffffffffffffffffffffffffffffffffffffffffffffff19166020820180517bffffffffffffffffffffffffffffffffffffffffffffffffffffffff83818316178352505050506128f5565b50505050565b612845630c0a769b60e01b8484846040516024016127c393929190613f90565b604051602081830303815290604052907bffffffffffffffffffffffffffffffffffffffffffffffffffffffff19166020820180517bffffffffffffffffffffffffffffffffffffffffffffffffffffffff83818316178352505050508573ffffffffffffffffffffffffffffffffffffffff166126ba90919063ffffffff16565b5050505050565b6128ee635224372c60e01b84848460405160240161286c93929190613f90565b604051602081830303815290604052907bffffffffffffffffffffffffffffffffffffffffffffffffffffffff19166020820180517bffffffffffffffffffffffffffffffffffffffffffffffffffffffff83818316178352505050508573ffffffffffffffffffffffffffffffffffffffff166126ba90919063ffffffff16565b5050505050565b6060612957826040518060400160405280602081526020017f5361666545524332303a206c6f772d6c6576656c2063616c6c206661696c65648152508573ffffffffffffffffffffffffffffffffffffffff16612bdb9092919063ffffffff16565b90506000815111156129b75780806020019051810190612977919061336e565b6129b6576040517f08c379a00000000000000000000000000000000000000000000000000000000081526004016129ad9061429c565b60405180910390fd5b5b505050565b612a5d6220311b60e01b8484846040516024016129db93929190613f90565b604051602081830303815290604052907bffffffffffffffffffffffffffffffffffffffffffffffffffffffff19166020820180517bffffffffffffffffffffffffffffffffffffffffffffffffffffffff83818316178352505050508573ffffffffffffffffffffffffffffffffffffffff166126ba90919063ffffffff16565b5050505050565b612b06631c009d7160e01b848484604051602401612a8493929190613f90565b604051602081830303815290604052907bffffffffffffffffffffffffffffffffffffffffffffffffffffffff19166020820180517bffffffffffffffffffffffffffffffffffffffffffffffffffffffff83818316178352505050508573ffffffffffffffffffffffffffffffffffffffff166126ba90919063ffffffff16565b5050505050565b6060612b1884612bf3565b612b57576040517f08c379a0000000000000000000000000000000000000000000000000000000008152600401612b4e906141dc565b60405180910390fd5b600060608573ffffffffffffffffffffffffffffffffffffffff1685604051612b809190613e7f565b600060405180830381855af49150503d8060008114612bbb576040519150601f19603f3d011682016040523d82523d6000602084013e612bc0565b606091505b5091509150612bd0828286612c06565b925050509392505050565b6060612bea8484600085612c6d565b90509392505050565b600080823b905060008111915050919050565b60608315612c1657829050612c66565b600083511115612c295782518084602001fd5b816040517f08c379a0000000000000000000000000000000000000000000000000000000008152600401612c5d919061407a565b60405180910390fd5b9392505050565b606082471015612cb2576040517f08c379a0000000000000000000000000000000000000000000000000000000008152600401612ca9906140fc565b60405180910390fd5b612cbb85612bf3565b612cfa576040517f08c379a0000000000000000000000000000000000000000000000000000000008152600401612cf19061421c565b60405180910390fd5b600060608673ffffffffffffffffffffffffffffffffffffffff168587604051612d249190613e7f565b60006040518083038185875af1925050503d8060008114612d61576040519150601f19603f3d011682016040523d82523d6000602084013e612d66565b606091505b5091509150612d76828286612c06565b92505050949350505050565b6040518060800160405280600073ffffffffffffffffffffffffffffffffffffffff168152602001600073ffffffffffffffffffffffffffffffffffffffff168152602001600073ffffffffffffffffffffffffffffffffffffffff168152602001600081525090565b6040518061012001604052806000815260200160008152602001600081526020016000815260200160008152602001600073ffffffffffffffffffffffffffffffffffffffff168152602001600073ffffffffffffffffffffffffffffffffffffffff168152602001600073ffffffffffffffffffffffffffffffffffffffff168152602001600073ffffffffffffffffffffffffffffffffffffffff1681525090565b6040518060400160405280600015158152602001606081525090565b6040518060a001604052806000815260200160008152602001600073ffffffffffffffffffffffffffffffffffffffff168152602001600073ffffffffffffffffffffffffffffffffffffffff168152602001600073ffffffffffffffffffffffffffffffffffffffff1681525090565b6040518060e00160405280600081526020016000815260200160008152602001600073ffffffffffffffffffffffffffffffffffffffff168152602001600073ffffffffffffffffffffffffffffffffffffffff168152602001600073ffffffffffffffffffffffffffffffffffffffff168152602001600073ffffffffffffffffffffffffffffffffffffffff1681525090565b6040518060600160405280600073ffffffffffffffffffffffffffffffffffffffff168152602001600073ffffffffffffffffffffffffffffffffffffffff168152602001600062ffffff1681525090565b60008135905061301381614535565b92915050565b60008151905061302881614535565b92915050565b60008135905061303d8161454c565b92915050565b6000815190506130528161454c565b92915050565b60008083601f84011261306a57600080fd5b8235905067ffffffffffffffff81111561308357600080fd5b60208301915083600182028301111561309b57600080fd5b9250929050565b600082601f8301126130b357600080fd5b81356130c66130c182614378565b61434b565b915080825260208301602083018583830111156130e257600080fd5b6130ed8382846144a7565b50505092915050565b60008135905061310581614563565b92915050565b60008151905061311a81614563565b92915050565b600060e0828403121561313257600080fd5b61313c60e061434b565b9050600061314c84828501613307565b600083015250602061316084828501613307565b602083015250604061317484828501613307565b604083015250606061318884828501613019565b606083015250608061319c84828501613019565b60808301525060a06131b084828501613019565b60a08301525060c06131c484828501613019565b60c08301525092915050565b600060e082840312156131e257600080fd5b81905092915050565b600060a082840312156131fd57600080fd5b61320760a061434b565b9050600061321784828501613307565b600083015250602061322b84828501613307565b602083015250604061323f84828501613019565b604083015250606061325384828501613019565b606083015250608061326784828501613019565b60808301525092915050565b600060e0828403121561328557600080fd5b81905092915050565b6000604082840312156132a057600080fd5b6132aa604061434b565b905060006132ba8482850161302e565b600083015250602082013567ffffffffffffffff8111156132da57600080fd5b6132e6848285016130a2565b60208301525092915050565b6000813590506133018161457a565b92915050565b60008151905061331681614591565b92915050565b60006020828403121561332e57600080fd5b600061333c84828501613004565b91505092915050565b60006020828403121561335757600080fd5b600061336584828501613019565b91505092915050565b60006020828403121561338057600080fd5b600061338e84828501613043565b91505092915050565b600080604083850312156133aa57600080fd5b60006133b88582860161310b565b92505060206133c98582860161310b565b9150509250929050565b600080600080606085870312156133e957600080fd5b60006133f7878288016130f6565b9450506020613408878288016130f6565b935050604085013567ffffffffffffffff81111561342557600080fd5b61343187828801613058565b925092505092959194509250565b600060e0828403121561345157600080fd5b600061345f84828501613120565b91505092915050565b600060e0828403121561347a57600080fd5b6000613488848285016131d0565b91505092915050565b600060a082840312156134a357600080fd5b60006134b1848285016131eb565b91505092915050565b600060e082840312156134cc57600080fd5b60006134da84828501613273565b91505092915050565b6000602082840312156134f557600080fd5b600082013567ffffffffffffffff81111561350f57600080fd5b61351b8482850161328e565b91505092915050565b60006020828403121561353657600080fd5b6000613544848285016132f2565b91505092915050565b60006020828403121561355f57600080fd5b600061356d84828501613307565b91505092915050565b6000613582838361358e565b60208301905092915050565b6135978161443c565b82525050565b6135a68161443c565b82525050565b6135bd6135b88261443c565b6144e9565b82525050565b60006135ce826143b4565b6135d881856143e2565b93506135e3836143a4565b8060005b838110156136145781516135fb8882613576565b9750613606836143d5565b9250506001810190506135e7565b5085935050505092915050565b61362a8161444e565b82525050565b6136398161444e565b82525050565b61365061364b8261445a565b6144fb565b82525050565b6000613661826143bf565b61366b81856143f3565b935061367b8185602086016144b6565b61368481614517565b840191505092915050565b600061369a826143bf565b6136a48185614404565b93506136b48185602086016144b6565b6136bd81614517565b840191505092915050565b60006136d3826143bf565b6136dd8185614415565b93506136ed8185602086016144b6565b80840191505092915050565b61370281614464565b82525050565b6000613713826143ca565b61371d8185614420565b935061372d8185602086016144b6565b61373681614517565b840191505092915050565b600061374e600383614420565b91507f46413200000000000000000000000000000000000000000000000000000000006000830152602082019050919050565b600061378e601b83614420565b91507f536166654d6174683a206164646974696f6e206f766572666c6f7700000000006000830152602082019050919050565b60006137ce601e83614420565b91507f536166654d6174683a207375627472616374696f6e206f766572666c6f7700006000830152602082019050919050565b600061380e602683614420565b91507f416464726573733a20696e73756666696369656e742062616c616e636520666f60008301527f722063616c6c00000000000000000000000000000000000000000000000000006020830152604082019050919050565b6000613874601a83614420565b91507f536166654d6174683a206469766973696f6e206279207a65726f0000000000006000830152602082019050919050565b60006138b4600783614420565b91507f4c575633464332000000000000000000000000000000000000000000000000006000830152602082019050919050565b60006138f4600383614420565b91507f53503400000000000000000000000000000000000000000000000000000000006000830152602082019050919050565b6000613934600183614431565b91507fff000000000000000000000000000000000000000000000000000000000000006000830152600182019050919050565b6000613974600383614420565b91507f46413400000000000000000000000000000000000000000000000000000000006000830152602082019050919050565b60006139b4602183614420565b91507f536166654d6174683a206d756c7469706c69636174696f6e206f766572666c6f60008301527f77000000000000000000000000000000000000000000000000000000000000006020830152604082019050919050565b6000613a1a600383614420565b91507f53503300000000000000000000000000000000000000000000000000000000006000830152602082019050919050565b6000613a5a602683614420565b91507f416464726573733a2064656c65676174652063616c6c20746f206e6f6e2d636f60008301527f6e747261637400000000000000000000000000000000000000000000000000006020830152604082019050919050565b6000613ac0600783614420565b91507f4c575633464334000000000000000000000000000000000000000000000000006000830152602082019050919050565b6000613b00601d83614420565b91507f416464726573733a2063616c6c20746f206e6f6e2d636f6e74726163740000006000830152602082019050919050565b6000613b40600783614420565b91507f4c575633464331000000000000000000000000000000000000000000000000006000830152602082019050919050565b6000613b80600383614420565b91507f53503200000000000000000000000000000000000000000000000000000000006000830152602082019050919050565b6000613bc0600783614420565b91507f4c575633464333000000000000000000000000000000000000000000000000006000830152602082019050919050565b6000613c00602a83614420565b91507f5361666545524332303a204552433230206f7065726174696f6e20646964206e60008301527f6f742073756363656564000000000000000000000000000000000000000000006020830152604082019050919050565b60e082016000820151613c6f6000850182613e61565b506020820151613c826020850182613e61565b506040820151613c956040850182613e61565b506060820151613ca8606085018261358e565b506080820151613cbb608085018261358e565b5060a0820151613cce60a085018261358e565b5060c0820151613ce160c085018261358e565b50505050565b60a082016000820151613cfd6000850182613e61565b506020820151613d106020850182613e61565b506040820151613d23604085018261358e565b506060820151613d36606085018261358e565b506080820151613d49608085018261358e565b50505050565b61012082016000820151613d666000850182613e61565b506020820151613d796020850182613e61565b506040820151613d8c6040850182613e61565b506060820151613d9f6060850182613e61565b506080820151613db26080850182613e61565b5060a0820151613dc560a085018261358e565b5060c0820151613dd860c085018261358e565b5060e0820151613deb60e085018261358e565b50610100820151613e0061010085018261358e565b50505050565b6000604083016000830151613e1e6000860182613621565b5060208301518482036020860152613e368282613656565b9150508091505092915050565b613e4c8161446e565b82525050565b613e5b8161448e565b82525050565b613e6a8161449d565b82525050565b613e798161449d565b82525050565b6000613e8b82846136c8565b915081905092915050565b6000613ea182613927565b9150613ead82866135ac565b601482019150613ebd828561363f565b602082019150613ecd828461363f565b602082019150819050949350505050565b6000602082019050613ef3600083018461359d565b92915050565b6000604082019050613f0e600083018561359d565b613f1b602083018461359d565b9392505050565b6000606082019050613f37600083018661359d565b613f44602083018561359d565b613f51604083018461359d565b949350505050565b6000606082019050613f6e600083018661359d565b613f7b602083018561359d565b613f886040830184613e52565b949350505050565b6000606082019050613fa5600083018661359d565b613fb2602083018561359d565b613fbf6040830184613e70565b949350505050565b6000604082019050613fdc600083018561359d565b8181036020830152613fee81846135c3565b90509392505050565b600060a08201905061400c600083018861359d565b6140196020830187613630565b61402660408301866136f9565b6140336060830185613e43565b8181036080830152614045818461368f565b90509695505050505050565b6000604082019050614066600083018561359d565b6140736020830184613e70565b9392505050565b600060208201905081810360008301526140948184613708565b905092915050565b600060208201905081810360008301526140b581613741565b9050919050565b600060208201905081810360008301526140d581613781565b9050919050565b600060208201905081810360008301526140f5816137c1565b9050919050565b6000602082019050818103600083015261411581613801565b9050919050565b6000602082019050818103600083015261413581613867565b9050919050565b60006020820190508181036000830152614155816138a7565b9050919050565b60006020820190508181036000830152614175816138e7565b9050919050565b6000602082019050818103600083015261419581613967565b9050919050565b600060208201905081810360008301526141b5816139a7565b9050919050565b600060208201905081810360008301526141d581613a0d565b9050919050565b600060208201905081810360008301526141f581613a4d565b9050919050565b6000602082019050818103600083015261421581613ab3565b9050919050565b6000602082019050818103600083015261423581613af3565b9050919050565b6000602082019050818103600083015261425581613b33565b9050919050565b6000602082019050818103600083015261427581613b73565b9050919050565b6000602082019050818103600083015261429581613bb3565b9050919050565b600060208201905081810360008301526142b581613bf3565b9050919050565b600060e0820190506142d16000830184613c59565b92915050565b600060a0820190506142ec6000830184613ce7565b92915050565b6000610120820190506143086000830184613d4f565b92915050565b600060208201905081810360008301526143288184613e06565b905092915050565b60006020820190506143456000830184613e70565b92915050565b6000604051905081810181811067ffffffffffffffff8211171561436e57600080fd5b8060405250919050565b600067ffffffffffffffff82111561438f57600080fd5b601f19601f8301169050602081019050919050565b6000819050602082019050919050565b600081519050919050565b600081519050919050565b600081519050919050565b6000602082019050919050565b600082825260208201905092915050565b600082825260208201905092915050565b600082825260208201905092915050565b600081905092915050565b600082825260208201905092915050565b600081905092915050565b60006144478261446e565b9050919050565b60008115159050919050565b6000819050919050565b6000819050919050565b600073ffffffffffffffffffffffffffffffffffffffff82169050919050565b600062ffffff82169050919050565b6000819050919050565b82818337600083830152505050565b60005b838110156144d45780820151818401526020810190506144b9565b838111156144e3576000848401525b50505050565b60006144f482614505565b9050919050565b6000819050919050565b600061451082614528565b9050919050565b6000601f19601f8301169050919050565b60008160601b9050919050565b61453e8161443c565b811461454957600080fd5b50565b6145558161444e565b811461456057600080fd5b50565b61456c81614464565b811461457757600080fd5b50565b6145838161448e565b811461458e57600080fd5b50565b61459a8161449d565b81146145a557600080fd5b5056fe416464726573733a206c6f772d6c6576656c2064656c65676174652063616c6c206661696c6564a2646970667358221220d91c902618188417afa5d4b7cdadffd32042e15dfdbcdca51ed0fdb4691ded1164736f6c634300060c0033",
  "devdoc": {
    "kind": "dev",
    "methods": {},
    "version": 1
  },
  "userdoc": {
    "kind": "user",
    "methods": {},
    "version": 1
  },
  "storageLayout": {
    "storage": [],
    "types": null
  }
}