{
  "address": "0x8e039371b4b604000dE50ee5600C29E758446C48",
  "abi": [
    {
      "inputs": [
        {
          "internalType": "contract LPStakingAutomationResumeV2",
          "name": "previousInstance",
          "type": "address"
        }
      ],
      "stateMutability": "nonpayable",
      "type": "constructor"
    },
    {
      "anonymous": false,
      "inputs": [
        {
          "indexed": true,
          "internalType": "address",
          "name": "previousOwner",
          "type": "address"
        },
        {
          "indexed": true,
          "internalType": "address",
          "name": "newOwner",
          "type": "address"
        }
      ],
      "name": "OwnershipTransferred",
      "type": "event"
    },
    {
      "inputs": [
        {
          "internalType": "address",
          "name": "newTreasury",
          "type": "address"
        }
      ],
      "name": "changeTreasury",
      "outputs": [],
      "stateMutability": "nonpayable",
      "type": "function"
    },
    {
      "inputs": [],
      "name": "fodlEthSLPStaking",
      "outputs": [
        {
          "internalType": "contract LPStaking",
          "name": "",
          "type": "address"
        }
      ],
      "stateMutability": "view",
      "type": "function"
    },
    {
      "inputs": [],
      "name": "fodlToken",
      "outputs": [
        {
          "internalType": "contract IERC20",
          "name": "",
          "type": "address"
        }
      ],
      "stateMutability": "view",
      "type": "function"
    },
    {
      "inputs": [],
      "name": "fodlUsdcSLPStaking",
      "outputs": [
        {
          "internalType": "contract LPStaking",
          "name": "",
          "type": "address"
        }
      ],
      "stateMutability": "view",
      "type": "function"
    },
    {
      "inputs": [],
      "name": "notifyRewards",
      "outputs": [],
      "stateMutability": "nonpayable",
      "type": "function"
    },
    {
      "inputs": [],
      "name": "owner",
      "outputs": [
        {
          "internalType": "address",
          "name": "",
          "type": "address"
        }
      ],
      "stateMutability": "view",
      "type": "function"
    },
    {
      "inputs": [],
      "name": "renounceOwnership",
      "outputs": [],
      "stateMutability": "nonpayable",
      "type": "function"
    },
    {
      "inputs": [],
      "name": "rewardNumber",
      "outputs": [
        {
          "internalType": "uint256",
          "name": "",
          "type": "uint256"
        }
      ],
      "stateMutability": "view",
      "type": "function"
    },
    {
      "inputs": [
        {
          "internalType": "contract LPStaking",
          "name": "stakingContract",
          "type": "address"
        },
        {
          "internalType": "address",
          "name": "newOwner",
          "type": "address"
        }
      ],
      "name": "transferLPStakingOwnership",
      "outputs": [],
      "stateMutability": "nonpayable",
      "type": "function"
    },
    {
      "inputs": [
        {
          "internalType": "address",
          "name": "newOwner",
          "type": "address"
        }
      ],
      "name": "transferOwnership",
      "outputs": [],
      "stateMutability": "nonpayable",
      "type": "function"
    },
    {
      "inputs": [],
      "name": "treasury",
      "outputs": [
        {
          "internalType": "address",
          "name": "",
          "type": "address"
        }
      ],
      "stateMutability": "view",
      "type": "function"
    }
  ],
  "transactionHash": "0xb37e8ff6fbb2f03f8e0aea19c36792d7faf91b9bdf5e2ab822bb11ae59a179af",
  "args": [
    "0x91891D478a42AB18F70dA3ecD7C342891Dba3235"
  ],
  "numDeployments": 1,
  "solcInputHash": "411670937add82994bdbe060e68c4d90",
  "bytecode": "0x60e06040523480156200001157600080fd5b50604051620025c3380380620025c3833981810160405260208110156200003757600080fd5b810190808051906020019092919050505060006200005a6200047b60201b60201c565b9050806000806101000a81548173ffffffffffffffffffffffffffffffffffffffff021916908373ffffffffffffffffffffffffffffffffffffffff1602179055508073ffffffffffffffffffffffffffffffffffffffff16600073ffffffffffffffffffffffffffffffffffffffff167f8be0079c531659141344cd1fd0a4f28419497f9722a3daafe3b4186f6b6457e060405160405180910390a3508073ffffffffffffffffffffffffffffffffffffffff16638fdd169c6040518163ffffffff1660e01b815260040160206040518083038186803b1580156200013f57600080fd5b505afa15801562000154573d6000803e3d6000fd5b505050506040513d60208110156200016b57600080fd5b810190808051906020019092919050505073ffffffffffffffffffffffffffffffffffffffff1660808173ffffffffffffffffffffffffffffffffffffffff1660601b815250508073ffffffffffffffffffffffffffffffffffffffff166361d027b36040518163ffffffff1660e01b815260040160206040518083038186803b158015620001f957600080fd5b505afa1580156200020e573d6000803e3d6000fd5b505050506040513d60208110156200022557600080fd5b8101908080519060200190929190505050600160006101000a81548173ffffffffffffffffffffffffffffffffffffffff021916908373ffffffffffffffffffffffffffffffffffffffff1602179055508073ffffffffffffffffffffffffffffffffffffffff1663c4b8a5016040518163ffffffff1660e01b815260040160206040518083038186803b158015620002bd57600080fd5b505afa158015620002d2573d6000803e3d6000fd5b505050506040513d6020811015620002e957600080fd5b810190808051906020019092919050505073ffffffffffffffffffffffffffffffffffffffff1660a08173ffffffffffffffffffffffffffffffffffffffff1660601b815250508073ffffffffffffffffffffffffffffffffffffffff1663e95a090c6040518163ffffffff1660e01b815260040160206040518083038186803b1580156200037757600080fd5b505afa1580156200038c573d6000803e3d6000fd5b505050506040513d6020811015620003a357600080fd5b810190808051906020019092919050505073ffffffffffffffffffffffffffffffffffffffff1660c08173ffffffffffffffffffffffffffffffffffffffff1660601b815250508073ffffffffffffffffffffffffffffffffffffffff16636673f7236040518163ffffffff1660e01b815260040160206040518083038186803b1580156200043157600080fd5b505afa15801562000446573d6000803e3d6000fd5b505050506040513d60208110156200045d57600080fd5b81019080805190602001909291905050506002819055505062000483565b600033905090565b60805160601c60a05160601c60c05160601c6120fb620004c86000398061041352806108ba5250806103e9528061089652508061076b5280611e7652506120fb6000f3fe608060405234801561001057600080fd5b50600436106100a95760003560e01c80638da5cb5b116100715780638da5cb5b146101785780638fdd169c146101ac578063b14f2a39146101e0578063c4b8a50114610224578063e95a090c14610258578063f2fde38b1461028c576100a9565b80633be52fc4146100ae57806360641ae3146100b857806361d027b31461011c5780636673f72314610150578063715018a61461016e575b600080fd5b6100b66102d0565b005b61011a600480360360408110156100ce57600080fd5b81019080803573ffffffffffffffffffffffffffffffffffffffff169060200190929190803573ffffffffffffffffffffffffffffffffffffffff169060200190929190505050610473565b005b6101246105a7565b604051808273ffffffffffffffffffffffffffffffffffffffff16815260200191505060405180910390f35b6101586105cd565b6040518082815260200191505060405180910390f35b6101766105d3565b005b610180610740565b604051808273ffffffffffffffffffffffffffffffffffffffff16815260200191505060405180910390f35b6101b4610769565b604051808273ffffffffffffffffffffffffffffffffffffffff16815260200191505060405180910390f35b610222600480360360208110156101f657600080fd5b81019080803573ffffffffffffffffffffffffffffffffffffffff16906020019092919050505061078d565b005b61022c610894565b604051808273ffffffffffffffffffffffffffffffffffffffff16815260200191505060405180910390f35b6102606108b8565b604051808273ffffffffffffffffffffffffffffffffffffffff16815260200191505060405180910390f35b6102ce600480360360208110156102a257600080fd5b81019080803573ffffffffffffffffffffffffffffffffffffffff1690602001909291905050506108dc565b005b60a460025410610348576040517f08c379a000000000000000000000000000000000000000000000000000000000815260040180806020018281038252600e8152602001807f5265776172647320656e6465642100000000000000000000000000000000000081525060200191505060405180910390fd5b6000610355600254610ace565b9050428111156103cd576040517f08c379a00000000000000000000000000000000000000000000000000000000081526004018080602001828103825260118152602001807f546f6f206561726c7920746f2063616c6c00000000000000000000000000000081525060200191505060405180910390fd5b5b42811161046f5760006103e2600254611537565b905061040e7f000000000000000000000000000000000000000000000000000000000000000082611e74565b6104387f000000000000000000000000000000000000000000000000000000000000000082611e74565b60026000815480929190600101919050555060a4600254141561045c575050610471565b610467600254610ace565b9150506103ce565b505b565b61047b611ff0565b73ffffffffffffffffffffffffffffffffffffffff16610499610740565b73ffffffffffffffffffffffffffffffffffffffff1614610522576040517f08c379a00000000000000000000000000000000000000000000000000000000081526004018080602001828103825260208152602001807f4f776e61626c653a2063616c6c6572206973206e6f7420746865206f776e657281525060200191505060405180910390fd5b8173ffffffffffffffffffffffffffffffffffffffff1663f2fde38b826040518263ffffffff1660e01b8152600401808273ffffffffffffffffffffffffffffffffffffffff168152602001915050600060405180830381600087803b15801561058b57600080fd5b505af115801561059f573d6000803e3d6000fd5b505050505050565b600160009054906101000a900473ffffffffffffffffffffffffffffffffffffffff1681565b60025481565b6105db611ff0565b73ffffffffffffffffffffffffffffffffffffffff166105f9610740565b73ffffffffffffffffffffffffffffffffffffffff1614610682576040517f08c379a00000000000000000000000000000000000000000000000000000000081526004018080602001828103825260208152602001807f4f776e61626c653a2063616c6c6572206973206e6f7420746865206f776e657281525060200191505060405180910390fd5b600073ffffffffffffffffffffffffffffffffffffffff1660008054906101000a900473ffffffffffffffffffffffffffffffffffffffff1673ffffffffffffffffffffffffffffffffffffffff167f8be0079c531659141344cd1fd0a4f28419497f9722a3daafe3b4186f6b6457e060405160405180910390a360008060006101000a81548173ffffffffffffffffffffffffffffffffffffffff021916908373ffffffffffffffffffffffffffffffffffffffff160217905550565b60008060009054906101000a900473ffffffffffffffffffffffffffffffffffffffff16905090565b7f000000000000000000000000000000000000000000000000000000000000000081565b600160009054906101000a900473ffffffffffffffffffffffffffffffffffffffff1673ffffffffffffffffffffffffffffffffffffffff163373ffffffffffffffffffffffffffffffffffffffff1614610850576040517f08c379a000000000000000000000000000000000000000000000000000000000815260040180806020018281038252601e8152602001807f4f6e6c7920747265617375727920616c6c6f77656420746f2063616c6c21000081525060200191505060405180910390fd5b80600160006101000a81548173ffffffffffffffffffffffffffffffffffffffff021916908373ffffffffffffffffffffffffffffffffffffffff16021790555050565b7f000000000000000000000000000000000000000000000000000000000000000081565b7f000000000000000000000000000000000000000000000000000000000000000081565b6108e4611ff0565b73ffffffffffffffffffffffffffffffffffffffff16610902610740565b73ffffffffffffffffffffffffffffffffffffffff161461098b576040517f08c379a00000000000000000000000000000000000000000000000000000000081526004018080602001828103825260208152602001807f4f776e61626c653a2063616c6c6572206973206e6f7420746865206f776e657281525060200191505060405180910390fd5b600073ffffffffffffffffffffffffffffffffffffffff168173ffffffffffffffffffffffffffffffffffffffff161415610a11576040517f08c379a000000000000000000000000000000000000000000000000000000000815260040180806020018281038252602681526020018061207f6026913960400191505060405180910390fd5b8073ffffffffffffffffffffffffffffffffffffffff1660008054906101000a900473ffffffffffffffffffffffffffffffffffffffff1673ffffffffffffffffffffffffffffffffffffffff167f8be0079c531659141344cd1fd0a4f28419497f9722a3daafe3b4186f6b6457e060405160405180910390a3806000806101000a81548173ffffffffffffffffffffffffffffffffffffffff021916908373ffffffffffffffffffffffffffffffffffffffff16021790555050565b6000604051806114800160405280636179e80063ffffffff168152602001636183228063ffffffff16815260200163618c5d0063ffffffff168152602001636195978063ffffffff16815260200163619ed20063ffffffff1681526020016361a80c8063ffffffff1681526020016361b1470063ffffffff1681526020016361ba818063ffffffff1681526020016361c3bc0063ffffffff1681526020016361ccf68063ffffffff1681526020016361d6310063ffffffff1681526020016361df6b8063ffffffff1681526020016361e8a60063ffffffff1681526020016361f1e08063ffffffff1681526020016361fb1b0063ffffffff168152602001636204558063ffffffff16815260200163620d900063ffffffff168152602001636216ca8063ffffffff168152602001636220050063ffffffff1681526020016362293f8063ffffffff1681526020016362327a0063ffffffff16815260200163623bb48063ffffffff168152602001636244ef0063ffffffff16815260200163624e298063ffffffff168152602001636257640063ffffffff1681526020016362609e8063ffffffff168152602001636269d90063ffffffff168152602001636273138063ffffffff16815260200163627c4e0063ffffffff168152602001636285888063ffffffff16815260200163628ec30063ffffffff168152602001636297fd8063ffffffff1681526020016362a1380063ffffffff1681526020016362aa728063ffffffff1681526020016362b3ad0063ffffffff1681526020016362bce78063ffffffff1681526020016362c6220063ffffffff1681526020016362cf5c8063ffffffff1681526020016362d8970063ffffffff1681526020016362e1d18063ffffffff1681526020016362eb0c0063ffffffff1681526020016362f4468063ffffffff1681526020016362fd810063ffffffff168152602001636306bb8063ffffffff16815260200163630ff60063ffffffff168152602001636319308063ffffffff1681526020016363226b0063ffffffff16815260200163632ba58063ffffffff168152602001636334e00063ffffffff16815260200163633e1a8063ffffffff168152602001636347550063ffffffff1681526020016363508f8063ffffffff168152602001636359ca0063ffffffff168152602001636363048063ffffffff16815260200163636c3f0063ffffffff168152602001636375798063ffffffff16815260200163637eb40063ffffffff168152602001636387ee8063ffffffff168152602001636391290063ffffffff16815260200163639a638063ffffffff1681526020016363a39e0063ffffffff1681526020016363acd88063ffffffff1681526020016363b6130063ffffffff1681526020016363bf4d8063ffffffff1681526020016363c8880063ffffffff1681526020016363d1c28063ffffffff1681526020016363dafd0063ffffffff1681526020016363e4378063ffffffff1681526020016363ed720063ffffffff1681526020016363f6ac8063ffffffff1681526020016363ffe70063ffffffff168152602001636409218063ffffffff1681526020016364125c0063ffffffff16815260200163641b968063ffffffff168152602001636424d10063ffffffff16815260200163642e0b8063ffffffff168152602001636437460063ffffffff168152602001636440808063ffffffff168152602001636449bb0063ffffffff168152602001636452f58063ffffffff16815260200163645c300063ffffffff1681526020016364656a8063ffffffff16815260200163646ea50063ffffffff168152602001636477df8063ffffffff1681526020016364811a0063ffffffff16815260200163648a548063ffffffff1681526020016364938f0063ffffffff16815260200163649cc98063ffffffff1681526020016364a6040063ffffffff1681526020016364af3e8063ffffffff1681526020016364b8790063ffffffff1681526020016364c1b38063ffffffff1681526020016364caee0063ffffffff1681526020016364d4288063ffffffff1681526020016364dd630063ffffffff1681526020016364e69d8063ffffffff1681526020016364efd80063ffffffff1681526020016364f9128063ffffffff1681526020016365024d0063ffffffff16815260200163650b878063ffffffff168152602001636514c20063ffffffff16815260200163651dfc8063ffffffff168152602001636527370063ffffffff168152602001636530718063ffffffff168152602001636539ac0063ffffffff168152602001636542e68063ffffffff16815260200163654c210063ffffffff1681526020016365555b8063ffffffff16815260200163655e960063ffffffff168152602001636567d08063ffffffff1681526020016365710b0063ffffffff16815260200163657a458063ffffffff168152602001636583800063ffffffff16815260200163658cba8063ffffffff168152602001636595f50063ffffffff16815260200163659f2f8063ffffffff1681526020016365a86a0063ffffffff1681526020016365b1a48063ffffffff1681526020016365badf0063ffffffff1681526020016365c4198063ffffffff1681526020016365cd540063ffffffff1681526020016365d68e8063ffffffff1681526020016365dfc90063ffffffff1681526020016365e9038063ffffffff1681526020016365f23e0063ffffffff1681526020016365fb788063ffffffff168152602001636604b30063ffffffff16815260200163660ded8063ffffffff168152602001636617280063ffffffff168152602001636620628063ffffffff1681526020016366299d0063ffffffff168152602001636632d78063ffffffff16815260200163663c120063ffffffff1681526020016366454c8063ffffffff16815260200163664e870063ffffffff168152602001636657c18063ffffffff168152602001636660fc0063ffffffff16815260200163666a368063ffffffff168152602001636673710063ffffffff16815260200163667cab8063ffffffff168152602001636685e60063ffffffff16815260200163668f208063ffffffff1681526020016366985b0063ffffffff1681526020016366a1958063ffffffff1681526020016366aad00063ffffffff1681526020016366b40a8063ffffffff1681526020016366bd450063ffffffff1681526020016366c67f8063ffffffff1681526020016366cfba0063ffffffff1681526020016366d8f48063ffffffff1681526020016366e22f0063ffffffff1681526020016366eb698063ffffffff1681526020016366f4a40063ffffffff1681526020016366fdde8063ffffffff168152602001636707190063ffffffff168152602001636710538063ffffffff1681526020016367198e0063ffffffff168152602001636722c88063ffffffff16815260200163672c030063ffffffff1681526020016367353d8063ffffffff16815260200163673e780063ffffffff168152602001636747b28063ffffffff168152602001636750ed0063ffffffff16815260200163675a278063ffffffff168152508260a4811061152557fe5b602002015163ffffffff169050919050565b60006040518061148001604052806205a89362ffffff1681526020016205105262ffffff1681526020016204adcf62ffffff1681526020016204665f62ffffff16815260200162042f0362ffffff1681526020016204023462ffffff1681526020016203dccb62ffffff1681526020016203bcd562ffffff1681526020016203a10a62ffffff1681526020016203888562ffffff168152602001620372a262ffffff16815260200162035ee962ffffff16815260200162034cfd62ffffff16815260200162033c9762ffffff16815260200162032d7f62ffffff16815260200162031f8662ffffff1681526020016203128862ffffff1681526020016203066762ffffff1681526020016202fb0862ffffff1681526020016202f05862ffffff1681526020016202e64262ffffff1681526020016202dcb962ffffff1681526020016202d3ae62ffffff1681526020016202cb1662ffffff1681526020016202c2e762ffffff1681526020016202bb1762ffffff1681526020016202b3a062ffffff1681526020016202ac7962ffffff1681526020016202a59e62ffffff16815260200162029f0862ffffff168152602001620298b262ffffff1681526020016202929862ffffff16815260200162028cb662ffffff1681526020016202870962ffffff1681526020016202818c62ffffff16815260200162027c3e62ffffff1681526020016202771a62ffffff1681526020016202722062ffffff16815260200162026d4b62ffffff1681526020016202689b62ffffff1681526020016202640d62ffffff16815260200162025fa062ffffff16815260200162025b5262ffffff1681526020016202572062ffffff1681526020016202530b62ffffff16815260200162024f1062ffffff16815260200162024b2e62ffffff1681526020016202476462ffffff168152602001620243b162ffffff1681526020016202401462ffffff16815260200162023c8c62ffffff1681526020016202391862ffffff168152602001620235b862ffffff1681526020016202326a62ffffff16815260200162022f2d62ffffff16815260200162022c0262ffffff168152602001620228e762ffffff168152602001620225db62ffffff168152602001620222df62ffffff16815260200162021ff162ffffff16815260200162021d1162ffffff16815260200162021a3f62ffffff1681526020016202177a62ffffff168152602001620214c162ffffff1681526020016202121562ffffff16815260200162020f7462ffffff16815260200162020cdf62ffffff16815260200162020a5562ffffff168152602001620207d562ffffff1681526020016202056062ffffff168152602001620202f462ffffff1681526020016202009362ffffff1681526020016201fe3a62ffffff1681526020016201fbeb62ffffff1681526020016201f9a562ffffff1681526020016201f76762ffffff1681526020016201f53162ffffff1681526020016201f30462ffffff1681526020016201f0df62ffffff1681526020016201eec162ffffff1681526020016201ecaa62ffffff1681526020016201ea9b62ffffff1681526020016201e89362ffffff1681526020016201e69262ffffff1681526020016201e49762ffffff1681526020016201e2a362ffffff1681526020016201e0b562ffffff1681526020016201decd62ffffff1681526020016201dcec62ffffff1681526020016201db1062ffffff1681526020016201d93a62ffffff1681526020016201d76a62ffffff1681526020016201d59f62ffffff1681526020016201d3d962ffffff1681526020016201d21962ffffff1681526020016201d05d62ffffff1681526020016201cea762ffffff1681526020016201ccf562ffffff1681526020016201cb4962ffffff1681526020016201c9a162ffffff1681526020016201c7fd62ffffff1681526020016201c65e62ffffff1681526020016201c4c362ffffff1681526020016201c32d62ffffff1681526020016201c19a62ffffff1681526020016201c00c62ffffff1681526020016201be8262ffffff1681526020016201bcfb62ffffff1681526020016201bb7962ffffff1681526020016201b9fa62ffffff1681526020016201b87f62ffffff1681526020016201b70862ffffff1681526020016201b59462ffffff1681526020016201b42362ffffff1681526020016201b2b662ffffff1681526020016201b14d62ffffff1681526020016201afe662ffffff1681526020016201ae8362ffffff1681526020016201ad2362ffffff1681526020016201abc662ffffff1681526020016201aa6c62ffffff1681526020016201a91562ffffff1681526020016201a7c162ffffff1681526020016201a67062ffffff1681526020016201a52262ffffff1681526020016201a3d662ffffff1681526020016201a28e62ffffff1681526020016201a14862ffffff1681526020016201a00462ffffff16815260200162019ec362ffffff16815260200162019d8562ffffff16815260200162019c4962ffffff16815260200162019b1062ffffff168152602001620199d962ffffff168152602001620198a562ffffff1681526020016201977262ffffff1681526020016201964362ffffff1681526020016201951562ffffff168152602001620193ea62ffffff168152602001620192c162ffffff1681526020016201919a62ffffff1681526020016201907562ffffff16815260200162018f5262ffffff16815260200162018e3162ffffff16815260200162018d1362ffffff16815260200162018bf662ffffff16815260200162018adb62ffffff168152602001620189c362ffffff168152602001620188ac62ffffff1681526020016201879762ffffff1681526020016201868462ffffff1681526020016201857362ffffff1681526020016201846462ffffff1681526020016201835662ffffff1681526020016201824a62ffffff1681526020016201814062ffffff1681526020016201803862ffffff16815260200162017f3162ffffff16815260200162017e2c62ffffff16815260200162017d2962ffffff16815260200162017c2762ffffff16815260200162017b2762ffffff16815260200162017a2862ffffff1681526020016201792b62ffffff168152508260a48110611e4657fe5b602002015162ffffff169050611e6d670de0b6b3a764000082611ff890919063ffffffff16565b9050919050565b7f000000000000000000000000000000000000000000000000000000000000000073ffffffffffffffffffffffffffffffffffffffff166323b872dd600160009054906101000a900473ffffffffffffffffffffffffffffffffffffffff1684846040518463ffffffff1660e01b8152600401808473ffffffffffffffffffffffffffffffffffffffff1681526020018373ffffffffffffffffffffffffffffffffffffffff1681526020018281526020019350505050602060405180830381600087803b158015611f4557600080fd5b505af1158015611f59573d6000803e3d6000fd5b505050506040513d6020811015611f6f57600080fd5b8101908080519060200190929190505050508173ffffffffffffffffffffffffffffffffffffffff16633c6b16ab826040518263ffffffff1660e01b815260040180828152602001915050600060405180830381600087803b158015611fd457600080fd5b505af1158015611fe8573d6000803e3d6000fd5b505050505050565b600033905090565b60008083141561200b5760009050612078565b600082840290508284828161201c57fe5b0414612073576040517f08c379a00000000000000000000000000000000000000000000000000000000081526004018080602001828103825260218152602001806120a56021913960400191505060405180910390fd5b809150505b9291505056fe4f776e61626c653a206e6577206f776e657220697320746865207a65726f2061646472657373536166654d6174683a206d756c7469706c69636174696f6e206f766572666c6f77a2646970667358221220b93b99cda8b78da0303f1d5a9f11d362e08aaf7331701d365f69839c4948d23f64736f6c634300060c0033",
  "devdoc": {
    "kind": "dev",
    "methods": {
      "owner()": {
        "details": "Returns the address of the current owner."
      },
      "renounceOwnership()": {
        "details": "Leaves the contract without owner. It will not be possible to call `onlyOwner` functions anymore. Can only be called by the current owner. NOTE: Renouncing ownership will leave the contract without an owner, thereby removing any functionality that is only available to the owner."
      },
      "transferOwnership(address)": {
        "details": "Transfers ownership of the contract to a new account (`newOwner`). Can only be called by the current owner."
      }
    },
    "version": 1
  },
  "userdoc": {
    "kind": "user",
    "methods": {
      "constructor": "This contract continues the constant emmission started by `previousInstance` and allows for rewards to be called with delay."
    },
    "version": 1
  },
  "storageLayout": {
    "storage": [
      {
        "astId": 7,
        "contract": "contracts/Staking/LPStakingAutomationResumeV2.sol:LPStakingAutomationResumeV2",
        "label": "_owner",
        "offset": 0,
        "slot": "0",
        "type": "t_address"
      },
      {
        "astId": 1820,
        "contract": "contracts/Staking/LPStakingAutomationResumeV2.sol:LPStakingAutomationResumeV2",
        "label": "treasury",
        "offset": 0,
        "slot": "1",
        "type": "t_address"
      },
      {
        "astId": 1822,
        "contract": "contracts/Staking/LPStakingAutomationResumeV2.sol:LPStakingAutomationResumeV2",
        "label": "rewardNumber",
        "offset": 0,
        "slot": "2",
        "type": "t_uint256"
      }
    ],
    "types": {
      "t_address": {
        "encoding": "inplace",
        "label": "address",
        "numberOfBytes": "20"
      },
      "t_uint256": {
        "encoding": "inplace",
        "label": "uint256",
        "numberOfBytes": "32"
      }
    }
  }
}