{
  "address": "0x3a5BE45fB114c7c5eBfCe1462eaa140f53892f0A",
  "abi": [
    {
      "inputs": [
        {
          "internalType": "address",
          "name": "soloAddress",
          "type": "address"
        },
        {
          "internalType": "uint256",
          "name": "_principal",
          "type": "uint256"
        },
        {
          "internalType": "uint256",
          "name": "_profit",
          "type": "uint256"
        },
        {
          "internalType": "address",
          "name": "_holder",
          "type": "address"
        }
      ],
      "stateMutability": "nonpayable",
      "type": "constructor"
    },
    {
      "inputs": [],
      "name": "SELF_ADDRESS",
      "outputs": [
        {
          "internalType": "address",
          "name": "",
          "type": "address"
        }
      ],
      "stateMutability": "view",
      "type": "function"
    },
    {
      "inputs": [],
      "name": "SOLO",
      "outputs": [
        {
          "internalType": "address",
          "name": "",
          "type": "address"
        }
      ],
      "stateMutability": "view",
      "type": "function"
    },
    {
      "inputs": [
        {
          "internalType": "address",
          "name": "sender",
          "type": "address"
        },
        {
          "components": [
            {
              "internalType": "address",
              "name": "owner",
              "type": "address"
            },
            {
              "internalType": "uint256",
              "name": "number",
              "type": "uint256"
            }
          ],
          "internalType": "struct Account.Info",
          "name": "",
          "type": "tuple"
        },
        {
          "internalType": "bytes",
          "name": "data",
          "type": "bytes"
        }
      ],
      "name": "callFunction",
      "outputs": [],
      "stateMutability": "nonpayable",
      "type": "function"
    },
    {
      "inputs": [
        {
          "internalType": "address",
          "name": "flashLoanToken",
          "type": "address"
        },
        {
          "internalType": "uint256",
          "name": "flashLoanAmount",
          "type": "uint256"
        },
        {
          "internalType": "address",
          "name": "platform",
          "type": "address"
        },
        {
          "internalType": "address",
          "name": "redeemToken",
          "type": "address"
        },
        {
          "internalType": "uint256",
          "name": "redeemPrincipal",
          "type": "uint256"
        },
        {
          "internalType": "uint256",
          "name": "redeemAmount",
          "type": "uint256"
        },
        {
          "internalType": "address",
          "name": "repayToken",
          "type": "address"
        },
        {
          "internalType": "uint256",
          "name": "repayAmount",
          "type": "uint256"
        },
        {
          "internalType": "bytes",
          "name": "exchangeDataBeforePosition",
          "type": "bytes"
        },
        {
          "internalType": "bytes",
          "name": "exchangeDataAfterPosition",
          "type": "bytes"
        }
      ],
      "name": "decreaseSimplePositionWithFlashLoan",
      "outputs": [],
      "stateMutability": "nonpayable",
      "type": "function"
    },
    {
      "inputs": [],
      "name": "getBorrowBalance",
      "outputs": [
        {
          "internalType": "uint256",
          "name": "",
          "type": "uint256"
        }
      ],
      "stateMutability": "nonpayable",
      "type": "function"
    },
    {
      "inputs": [],
      "name": "getCollateralUsageFactor",
      "outputs": [
        {
          "internalType": "uint256",
          "name": "",
          "type": "uint256"
        }
      ],
      "stateMutability": "nonpayable",
      "type": "function"
    },
    {
      "inputs": [],
      "name": "getPositionMetadata",
      "outputs": [
        {
          "components": [
            {
              "internalType": "uint256",
              "name": "supplyAmount",
              "type": "uint256"
            },
            {
              "internalType": "uint256",
              "name": "borrowAmount",
              "type": "uint256"
            },
            {
              "internalType": "uint256",
              "name": "collateralUsageFactor",
              "type": "uint256"
            },
            {
              "internalType": "uint256",
              "name": "principalValue",
              "type": "uint256"
            },
            {
              "internalType": "uint256",
              "name": "positionValue",
              "type": "uint256"
            },
            {
              "internalType": "address",
              "name": "positionAddress",
              "type": "address"
            },
            {
              "internalType": "address",
              "name": "platformAddress",
              "type": "address"
            },
            {
              "internalType": "address",
              "name": "supplyTokenAddress",
              "type": "address"
            },
            {
              "internalType": "address",
              "name": "borrowTokenAddress",
              "type": "address"
            }
          ],
          "internalType": "struct SimplePositionMetadata",
          "name": "metadata",
          "type": "tuple"
        }
      ],
      "stateMutability": "nonpayable",
      "type": "function"
    },
    {
      "inputs": [],
      "name": "getPositionValue",
      "outputs": [
        {
          "internalType": "uint256",
          "name": "positionValue",
          "type": "uint256"
        }
      ],
      "stateMutability": "nonpayable",
      "type": "function"
    },
    {
      "inputs": [],
      "name": "getPrincipalValue",
      "outputs": [
        {
          "internalType": "uint256",
          "name": "",
          "type": "uint256"
        }
      ],
      "stateMutability": "nonpayable",
      "type": "function"
    },
    {
      "inputs": [],
      "name": "getSimplePositionDetails",
      "outputs": [
        {
          "internalType": "address",
          "name": "",
          "type": "address"
        },
        {
          "internalType": "address",
          "name": "",
          "type": "address"
        },
        {
          "internalType": "address",
          "name": "",
          "type": "address"
        }
      ],
      "stateMutability": "view",
      "type": "function"
    },
    {
      "inputs": [],
      "name": "getSupplyBalance",
      "outputs": [
        {
          "internalType": "uint256",
          "name": "",
          "type": "uint256"
        }
      ],
      "stateMutability": "nonpayable",
      "type": "function"
    },
    {
      "inputs": [],
      "name": "holder",
      "outputs": [
        {
          "internalType": "address",
          "name": "",
          "type": "address"
        }
      ],
      "stateMutability": "view",
      "type": "function"
    },
    {
      "inputs": [
        {
          "internalType": "address",
          "name": "flashLoanToken",
          "type": "address"
        },
        {
          "internalType": "uint256",
          "name": "flashLoanAmount",
          "type": "uint256"
        },
        {
          "internalType": "address",
          "name": "platform",
          "type": "address"
        },
        {
          "internalType": "address",
          "name": "supplyToken",
          "type": "address"
        },
        {
          "internalType": "uint256",
          "name": "principalAmount",
          "type": "uint256"
        },
        {
          "internalType": "uint256",
          "name": "supplyAmount",
          "type": "uint256"
        },
        {
          "internalType": "address",
          "name": "borrowToken",
          "type": "address"
        },
        {
          "internalType": "uint256",
          "name": "borrowAmount",
          "type": "uint256"
        },
        {
          "internalType": "bytes",
          "name": "exchangeDataBeforePosition",
          "type": "bytes"
        },
        {
          "internalType": "bytes",
          "name": "exchangeDataAfterPosition",
          "type": "bytes"
        }
      ],
      "name": "increaseSimplePositionWithFlashLoan",
      "outputs": [],
      "stateMutability": "nonpayable",
      "type": "function"
    },
    {
      "inputs": [],
      "name": "principal",
      "outputs": [
        {
          "internalType": "uint256",
          "name": "",
          "type": "uint256"
        }
      ],
      "stateMutability": "view",
      "type": "function"
    },
    {
      "inputs": [],
      "name": "profit",
      "outputs": [
        {
          "internalType": "uint256",
          "name": "",
          "type": "uint256"
        }
      ],
      "stateMutability": "view",
      "type": "function"
    }
  ],
  "transactionHash": "0xbabe7761ffaa11c7d0c34b87eab781ad9c6c9cdecc7a3afe741c28836c660d04",
  "args": [
    "0x1E0447b19BB6EcFdAe1e4AE1694b0C3659614e4e",
    "1000000000000000",
    "25000000000000000",
    "0xfF6062AAc9A6367Ce2F02C826C544a130baBCf32"
  ],
  "solcInputHash": "52a2d5c26a8dcef59265603bf75f9b43",
  "bytecode": "0x6101206040523480156200001257600080fd5b5060405162005a8738038062005a878339818101604052810190620000389190620002ae565b83838383670de0b6b3a7640000831062000089576040517f08c379a00000000000000000000000000000000000000000000000000000000081526004016200008090620003c0565b60405180910390fd5b670de0b6b3a76400008210620000d6576040517f08c379a0000000000000000000000000000000000000000000000000000000008152600401620000cd90620003c0565b60405180910390fd5b600073ffffffffffffffffffffffffffffffffffffffff168173ffffffffffffffffffffffffffffffffffffffff16141562000149576040517f08c379a000000000000000000000000000000000000000000000000000000000815260040162000140906200039e565b60405180910390fd5b82608081815250508160a081815250508073ffffffffffffffffffffffffffffffffffffffff1660c08173ffffffffffffffffffffffffffffffffffffffff1660601b81525050505050600073ffffffffffffffffffffffffffffffffffffffff168173ffffffffffffffffffffffffffffffffffffffff16141562000206576040517f08c379a0000000000000000000000000000000000000000000000000000000008152600401620001fd906200039e565b60405180910390fd5b3073ffffffffffffffffffffffffffffffffffffffff1660e08173ffffffffffffffffffffffffffffffffffffffff1660601b815250508073ffffffffffffffffffffffffffffffffffffffff166101008173ffffffffffffffffffffffffffffffffffffffff1660601b81525050505050505062000465565b600081519050620002918162000431565b92915050565b600081519050620002a8816200044b565b92915050565b60008060008060808587031215620002c557600080fd5b6000620002d58782880162000280565b9450506020620002e88782880162000297565b9350506040620002fb8782880162000297565b92505060606200030e8782880162000280565b91505092959194509250565b600062000329600483620003e2565b91507f49435030000000000000000000000000000000000000000000000000000000006000830152602082019050919050565b60006200036b600483620003e2565b91507f49435031000000000000000000000000000000000000000000000000000000006000830152602082019050919050565b60006020820190508181036000830152620003b9816200031a565b9050919050565b60006020820190508181036000830152620003db816200035c565b9050919050565b600082825260208201905092915050565b6000620004008262000407565b9050919050565b600073ffffffffffffffffffffffffffffffffffffffff82169050919050565b6000819050919050565b6200043c81620003f3565b81146200044857600080fd5b50565b620004568162000427565b81146200046257600080fd5b50565b60805160a05160c05160601c60e05160601c6101005160601c6155a7620004e06000398061075f528061099c52806118a55280611b175280611b5f5280611bef52508061085b5280610d345280611a6352508061102452806134ac52508061035852806133f5525080610d10528061342852506155a76000f3fe608060405234801561001057600080fd5b50600436106100f55760003560e01c8063b44b3a8f11610097578063ce2576b211610066578063ce2576b214610240578063d71f89ac1461025e578063e534155d1461027c578063e8c944e61461029a576100f5565b8063b44b3a8f146101c8578063ba5d3078146101e6578063be4d4e7a14610204578063ca20659114610222576100f5565b80637df98851116100d35780637df98851146101565780638b418713146101725780638fad00921461018e578063a4ffa8c2146101ac576100f5565b806302fa5a02146100fa578063040e6b671461011a57806366d16cc314610138575b600080fd5b6101026102b8565b60405161011193929190614da6565b60405180910390f35b610122610343565b60405161012f9190615246565b60405180910390f35b610140610356565b60405161014d9190615246565b60405180910390f35b610170600480360381019061016b9190613f88565b61037a565b005b61018c60048036038101906101879190613f1c565b61075d565b005b61019661099a565b6040516101a39190614d62565b60405180910390f35b6101c660048036038101906101c19190613f88565b6109be565b005b6101d0610b3c565b6040516101dd9190615246565b60405180910390f35b6101ee610d0e565b6040516101fb9190615246565b60405180910390f35b61020c610d32565b6040516102199190614d62565b60405180910390f35b61022a610d56565b6040516102379190615246565b60405180910390f35b610248610df1565b604051610255919061522a565b60405180910390f35b610266610fb3565b6040516102739190615246565b60405180910390f35b610284611022565b6040516102919190614d62565b60405180910390f35b6102a2611046565b6040516102af9190615246565b60405180910390f35b6000806000806102c66110e1565b90508060000160009054906101000a900473ffffffffffffffffffffffffffffffffffffffff168160010160009054906101000a900473ffffffffffffffffffffffffffffffffffffffff168260020160009054906101000a900473ffffffffffffffffffffffffffffffffffffffff1693509350935050909192565b600061034d6110e1565b60030154905090565b7f000000000000000000000000000000000000000000000000000000000000000081565b600061038461110e565b90508060040160009054906101000a900473ffffffffffffffffffffffffffffffffffffffff1673ffffffffffffffffffffffffffffffffffffffff168160000160009054906101000a900473ffffffffffffffffffffffffffffffffffffffff1673ffffffffffffffffffffffffffffffffffffffff16148061047b57508060020160009054906101000a900473ffffffffffffffffffffffffffffffffffffffff1673ffffffffffffffffffffffffffffffffffffffff168160000160009054906101000a900473ffffffffffffffffffffffffffffffffffffffff1673ffffffffffffffffffffffffffffffffffffffff16145b6104ba576040517f08c379a00000000000000000000000000000000000000000000000000000000081526004016104b190615026565b60405180910390fd5b60006104c58a61113b565b90506104cf6111f8565b156104e4576104df8a8a8861125a565b6106ab565b896104ed6110e1565b60000160006101000a81548173ffffffffffffffffffffffffffffffffffffffff021916908373ffffffffffffffffffffffffffffffffffffffff160217905550886105376110e1565b60010160006101000a81548173ffffffffffffffffffffffffffffffffffffffff021916908373ffffffffffffffffffffffffffffffffffffffff160217905550856105816110e1565b60020160006101000a81548173ffffffffffffffffffffffffffffffffffffffff021916908373ffffffffffffffffffffffffffffffffffffffff1602179055506060600267ffffffffffffffff811180156105dc57600080fd5b5060405190808252806020026020018201604052801561060b5781602001602082028036833780820191505090505b509050898160008151811061061c57fe5b602002602001019073ffffffffffffffffffffffffffffffffffffffff16908173ffffffffffffffffffffffffffffffffffffffff1681525050868160018151811061066457fe5b602002602001019073ffffffffffffffffffffffffffffffffffffffff16908173ffffffffffffffffffffffffffffffffffffffff16815250506106a9828c8361142a565b505b60008b14156106f5576106f0896000806040518060c001604052808d81526020018c81526020018a8152602001600115158152602001898152602001888152506114d0565b61074f565b61074e8c8c6040518060c001604052808c81526020018b81526020018981526020016001151581526020018881526020018781525060405160200161073a91906151e6565b60405160208183030381529060405261189e565b5b505050505050505050505050565b7f000000000000000000000000000000000000000000000000000000000000000073ffffffffffffffffffffffffffffffffffffffff163373ffffffffffffffffffffffffffffffffffffffff16146107eb576040517f08c379a00000000000000000000000000000000000000000000000000000000081526004016107e290614fe6565b60405180910390fd5b3073ffffffffffffffffffffffffffffffffffffffff168473ffffffffffffffffffffffffffffffffffffffff1614610859576040517f08c379a000000000000000000000000000000000000000000000000000000000815260040161085090615186565b60405180910390fd5b7f000000000000000000000000000000000000000000000000000000000000000073ffffffffffffffffffffffffffffffffffffffff1661089861110e565b60010160009054906101000a900473ffffffffffffffffffffffffffffffffffffffff1673ffffffffffffffffffffffffffffffffffffffff1614610912576040517f08c379a000000000000000000000000000000000000000000000000000000000815260040161090990614f66565b60405180910390fd5b61091a61110e565b60010160006101000a81549073ffffffffffffffffffffffffffffffffffffffff021916905561094861110e565b60010160146101000a81549063ffffffff02191690556109666139c5565b828281019061097591906140fd565b90506109938160000151826020015183604001518460600151611c3f565b5050505050565b7f000000000000000000000000000000000000000000000000000000000000000081565b60006109c861110e565b90508060040160009054906101000a900473ffffffffffffffffffffffffffffffffffffffff1673ffffffffffffffffffffffffffffffffffffffff168160000160009054906101000a900473ffffffffffffffffffffffffffffffffffffffff1673ffffffffffffffffffffffffffffffffffffffff1614610a80576040517f08c379a0000000000000000000000000000000000000000000000000000000008152600401610a7790614f26565b60405180910390fd5b610a8b89898761125a565b60008a1415610ad557610ad0886000806040518060c001604052808c81526020018b815260200189815260200160001515815260200188815260200187815250611c8c565b610b2f565b610b2e8b8b6040518060c001604052808b81526020018a815260200188815260200160001515815260200187815260200186815250604051602001610b1a91906151e6565b60405160208183030381529060405261189e565b5b5050505050505050505050565b6000610b46613a03565b610b4e6110e1565b6040518060800160405290816000820160009054906101000a900473ffffffffffffffffffffffffffffffffffffffff1673ffffffffffffffffffffffffffffffffffffffff1673ffffffffffffffffffffffffffffffffffffffff1681526020016001820160009054906101000a900473ffffffffffffffffffffffffffffffffffffffff1673ffffffffffffffffffffffffffffffffffffffff1673ffffffffffffffffffffffffffffffffffffffff1681526020016002820160009054906101000a900473ffffffffffffffffffffffffffffffffffffffff1673ffffffffffffffffffffffffffffffffffffffff1673ffffffffffffffffffffffffffffffffffffffff16815260200160038201548152505090506000610c76826000015161113b565b90506000610c8d82846000015185604001516120ac565b90506000610ca48385600001518660200151612170565b9050610cef610cbc8486600001518760200151612234565b610ce1610cd28688600001518960400151612234565b856122f890919063ffffffff16565b61236890919063ffffffff16565b9150818110610d02578181039450610d07565b600094505b5050505090565b7f000000000000000000000000000000000000000000000000000000000000000081565b7f000000000000000000000000000000000000000000000000000000000000000081565b6000610dec610d8f610d666110e1565b60000160009054906101000a900473ffffffffffffffffffffffffffffffffffffffff1661113b565b610d976110e1565b60000160009054906101000a900473ffffffffffffffffffffffffffffffffffffffff16610dc36110e1565b60020160009054906101000a900473ffffffffffffffffffffffffffffffffffffffff166120ac565b905090565b610df9613a6d565b308160a0019073ffffffffffffffffffffffffffffffffffffffff16908173ffffffffffffffffffffffffffffffffffffffff1681525050610e396110e1565b60000160009054906101000a900473ffffffffffffffffffffffffffffffffffffffff168160c0019073ffffffffffffffffffffffffffffffffffffffff16908173ffffffffffffffffffffffffffffffffffffffff1681525050610e9c6110e1565b60010160009054906101000a900473ffffffffffffffffffffffffffffffffffffffff168160e0019073ffffffffffffffffffffffffffffffffffffffff16908173ffffffffffffffffffffffffffffffffffffffff1681525050610eff6110e1565b60020160009054906101000a900473ffffffffffffffffffffffffffffffffffffffff1681610100019073ffffffffffffffffffffffffffffffffffffffff16908173ffffffffffffffffffffffffffffffffffffffff1681525050610f63611046565b816000018181525050610f74610d56565b816020018181525050610f85610fb3565b816040018181525050610f96610343565b816060018181525050610fa7610b3c565b81608001818152505090565b600061101d610fec610fc36110e1565b60000160009054906101000a900473ffffffffffffffffffffffffffffffffffffffff1661113b565b610ff46110e1565b60000160009054906101000a900473ffffffffffffffffffffffffffffffffffffffff166123be565b905090565b7f000000000000000000000000000000000000000000000000000000000000000081565b60006110dc61107f6110566110e1565b60000160009054906101000a900473ffffffffffffffffffffffffffffffffffffffff1661113b565b6110876110e1565b60000160009054906101000a900473ffffffffffffffffffffffffffffffffffffffff166110b36110e1565b60010160009054906101000a900473ffffffffffffffffffffffffffffffffffffffff16612170565b905090565b6000807f8278faaeed8149083abb50630b1bee29cf32152ad9a9c9145fe4b38fa3f9c4e890508091505090565b6000807fadbb89e904f74d44d0d104c851da4f2fa24de8f1dee64f038923bb940f37d53a90508091505090565b600061114561110e565b60020160009054906101000a900473ffffffffffffffffffffffffffffffffffffffff1673ffffffffffffffffffffffffffffffffffffffff166342dfa789836040518263ffffffff1660e01b81526004016111a19190614d62565b60206040518083038186803b1580156111b957600080fd5b505afa1580156111cd573d6000803e3d6000fd5b505050506040513d601f19601f820116820180604052508101906111f19190613ef3565b9050919050565b60008073ffffffffffffffffffffffffffffffffffffffff166112196110e1565b60000160009054906101000a900473ffffffffffffffffffffffffffffffffffffffff1673ffffffffffffffffffffffffffffffffffffffff161415905090565b8273ffffffffffffffffffffffffffffffffffffffff166112796110e1565b60000160009054906101000a900473ffffffffffffffffffffffffffffffffffffffff1673ffffffffffffffffffffffffffffffffffffffff16146112f3576040517f08c379a00000000000000000000000000000000000000000000000000000000081526004016112ea90615126565b60405180910390fd5b8173ffffffffffffffffffffffffffffffffffffffff166113126110e1565b60010160009054906101000a900473ffffffffffffffffffffffffffffffffffffffff1673ffffffffffffffffffffffffffffffffffffffff161461138c576040517f08c379a000000000000000000000000000000000000000000000000000000000815260040161138390615086565b60405180910390fd5b8073ffffffffffffffffffffffffffffffffffffffff166113ab6110e1565b60020160009054906101000a900473ffffffffffffffffffffffffffffffffffffffff1673ffffffffffffffffffffffffffffffffffffffff1614611425576040517f08c379a000000000000000000000000000000000000000000000000000000000815260040161141c90615006565b60405180910390fd5b505050565b6114ca634883400d60e01b8383604051602401611448929190614e59565b604051602081830303815290604052907bffffffffffffffffffffffffffffffffffffffffffffffffffffffff19166020820180517bffffffffffffffffffffffffffffffffffffffffffffffffffffffff83818316178352505050508473ffffffffffffffffffffffffffffffffffffffff1661247f90919063ffffffff16565b50505050565b6114d8613a03565b6114e06110e1565b6040518060800160405290816000820160009054906101000a900473ffffffffffffffffffffffffffffffffffffffff1673ffffffffffffffffffffffffffffffffffffffff1673ffffffffffffffffffffffffffffffffffffffff1681526020016001820160009054906101000a900473ffffffffffffffffffffffffffffffffffffffff1673ffffffffffffffffffffffffffffffffffffffff1673ffffffffffffffffffffffffffffffffffffffff1681526020016002820160009054906101000a900473ffffffffffffffffffffffffffffffffffffffff1673ffffffffffffffffffffffffffffffffffffffff1673ffffffffffffffffffffffffffffffffffffffff16815260200160038201548152505090506000611608826000015161113b565b90506000836000015111156116255761162483600001516124ac565b5b60008673ffffffffffffffffffffffffffffffffffffffff16836020015173ffffffffffffffffffffffffffffffffffffffff1614156116c45761167684600001518761252790919063ffffffff16565b905083602001518110156116bf576040517f08c379a00000000000000000000000000000000000000000000000000000000081526004016116b690615166565b60405180910390fd5b61172b565b611728846000015161171a6116f387608001516000815181106116e357fe5b602001015160f81c60f81b61257c565b8a87602001518b6117158b600001518c6020015161263990919063ffffffff16565b612689565b61252790919063ffffffff16565b90505b61173f828460000151856020015184612753565b600085141561175057505050611898565b8673ffffffffffffffffffffffffffffffffffffffff16836040015173ffffffffffffffffffffffffffffffffffffffff1614156117e85784846040015110156117cf576040517f08c379a00000000000000000000000000000000000000000000000000000000081526004016117c6906150a6565b60405180910390fd5b6117e38284600001518560400151886127fc565b611894565b600061180e8560a001516000815181106117fe57fe5b602001015160f81c60f81b61257c565b905060006118228286604001518b8a6128a5565b9050808660400151101561186b576040517f08c379a0000000000000000000000000000000000000000000000000000000008152600401611862906150a6565b60405180910390fd5b61187f8486600001518760400151846127fc565b6118908286604001518b848b61296c565b5050505b5050505b50505050565b60006118ca7f000000000000000000000000000000000000000000000000000000000000000085612a36565b905060006118d784612be8565b90506060600367ffffffffffffffff811180156118f357600080fd5b5060405190808252806020026020018201604052801561192d57816020015b61191a613b11565b8152602001906001900390816119125790505b50905061193a8386612c05565b8160008151811061194757fe5b60200260200101819052506119b060405180608001604052808873ffffffffffffffffffffffffffffffffffffffff1681526020018781526020018481526020018681525060405160200161199c9190615208565b604051602081830303815290604052612cbe565b816001815181106119bd57fe5b60200260200101819052506119d28383612d68565b816002815181106119df57fe5b60200260200101819052506060600167ffffffffffffffff81118015611a0457600080fd5b50604051908082528060200260200182016040528015611a3e57816020015b611a2b613b7d565b815260200190600190039081611a235790505b509050611a49612e21565b81600081518110611a5657fe5b60200260200101819052507f0000000000000000000000000000000000000000000000000000000000000000611a8a61110e565b60010160006101000a81548173ffffffffffffffffffffffffffffffffffffffff021916908373ffffffffffffffffffffffffffffffffffffffff1602179055507f8b4187137e74560326c61e3961da9bacad9e2e3b9e684d6425487907d72fc04c611af461110e565b60010160146101000a81548163ffffffff021916908360e01c0217905550611b5d7f0000000000000000000000000000000000000000000000000000000000000000848973ffffffffffffffffffffffffffffffffffffffff16612e5a9092919063ffffffff16565b7f000000000000000000000000000000000000000000000000000000000000000073ffffffffffffffffffffffffffffffffffffffff1663a67a6a4582846040518363ffffffff1660e01b8152600401611bb8929190614eb2565b600060405180830381600087803b158015611bd257600080fd5b505af1158015611be6573d6000803e3d6000fd5b50505050611c367f000000000000000000000000000000000000000000000000000000000000000060008973ffffffffffffffffffffffffffffffffffffffff16612f829092919063ffffffff16565b50505050505050565b611c47613bad565b81806020019051810190611c5b91906140bc565b9050806060015115611c7857611c73858585846114d0565b611c85565b611c8485858584611c8c565b5b5050505050565b611c94613a03565b611c9c6110e1565b6040518060800160405290816000820160009054906101000a900473ffffffffffffffffffffffffffffffffffffffff1673ffffffffffffffffffffffffffffffffffffffff1673ffffffffffffffffffffffffffffffffffffffff1681526020016001820160009054906101000a900473ffffffffffffffffffffffffffffffffffffffff1673ffffffffffffffffffffffffffffffffffffffff1673ffffffffffffffffffffffffffffffffffffffff1681526020016002820160009054906101000a900473ffffffffffffffffffffffffffffffffffffffff1673ffffffffffffffffffffffffffffffffffffffff1673ffffffffffffffffffffffffffffffffffffffff16815260200160038201548152505090506000611dc4826000015161113b565b90506000611ddb82846000015185604001516120ac565b90506000611df28385600001518660200151612170565b90506000611e51611e42611e0f8688600001518960200151612234565b611e34611e25888a600001518b60400151612234565b876122f890919063ffffffff16565b61236890919063ffffffff16565b8361263990919063ffffffff16565b90508560400151831115611e6757856040015192505b6000831115611f6d578873ffffffffffffffffffffffffffffffffffffffff16856040015173ffffffffffffffffffffffffffffffffffffffff161415611f075782881015611eeb576040517f08c379a0000000000000000000000000000000000000000000000000000000008152600401611ee290615146565b60405180910390fd5b611f008389038861263990919063ffffffff16565b9650611f58565b6000611f3d611f308860800151600081518110611f2057fe5b602001015160f81c60f81b61257c565b8b88604001518c8861296c565b9050611f54818a038961263990919063ffffffff16565b9750505b611f6c8486600001518760400151866130e0565b5b8186602001511115611f8457818660200181815250505b611f9c84866000015187602001518960200151613188565b60008973ffffffffffffffffffffffffffffffffffffffff16866020015173ffffffffffffffffffffffffffffffffffffffff161415611ff457611fed88886020015161263990919063ffffffff16565b9050612045565b61204261202f61201e8960a0015160008151811061200e57fe5b602001015160f81c60f81b61257c565b88602001518d8b602001518d61296c565b886020015161263990919063ffffffff16565b90505b866000015181101561208c576040517f08c379a0000000000000000000000000000000000000000000000000000000008152600401612083906150e6565b60405180910390fd5b60008111156120a05761209f8183613231565b5b50505050505050505050565b6000606061215063118e31b760e01b85856040516024016120ce929190614d7d565b604051602081830303815290604052907bffffffffffffffffffffffffffffffffffffffffffffffffffffffff19166020820180517bffffffffffffffffffffffffffffffffffffffffffffffffffffffff83818316178352505050508673ffffffffffffffffffffffffffffffffffffffff1661247f90919063ffffffff16565b905080806020019051810190612166919061413e565b9150509392505050565b6000606061221463ba37773160e01b8585604051602401612192929190614d7d565b604051602081830303815290604052907bffffffffffffffffffffffffffffffffffffffffffffffffffffffff19166020820180517bffffffffffffffffffffffffffffffffffffffffffffffffffffffff83818316178352505050508673ffffffffffffffffffffffffffffffffffffffff1661247f90919063ffffffff16565b90508080602001905181019061222a919061413e565b9150509392505050565b600060606122d863b84c743b60e01b8585604051602401612256929190614d7d565b604051602081830303815290604052907bffffffffffffffffffffffffffffffffffffffffffffffffffffffff19166020820180517bffffffffffffffffffffffffffffffffffffffffffffffffffffffff83818316178352505050508673ffffffffffffffffffffffffffffffffffffffff1661247f90919063ffffffff16565b9050808060200190518101906122ee919061413e565b9150509392505050565b60008083141561230b5760009050612362565b600082840290508284828161231c57fe5b041461235d576040517f08c379a000000000000000000000000000000000000000000000000000000000815260040161235490615046565b60405180910390fd5b809150505b92915050565b60008082116123ac576040517f08c379a00000000000000000000000000000000000000000000000000000000081526004016123a390614fc6565b60405180910390fd5b8183816123b557fe5b04905092915050565b6000606061246063ef84867060e01b846040516024016123de9190614d62565b604051602081830303815290604052907bffffffffffffffffffffffffffffffffffffffffffffffffffffffff19166020820180517bffffffffffffffffffffffffffffffffffffffffffffffffffffffff83818316178352505050508573ffffffffffffffffffffffffffffffffffffffff1661247f90919063ffffffff16565b905080806020019051810190612476919061413e565b91505092915050565b60606124a4838360405180606001604052806027815260200161554b60279139613547565b905092915050565b61250b6124b7613615565b30836124c16110e1565b60010160009054906101000a900473ffffffffffffffffffffffffffffffffffffffff1673ffffffffffffffffffffffffffffffffffffffff16613648909392919063ffffffff16565b806125146110e1565b6003016000828254019250508190555050565b600080828401905083811015612572576040517f08c379a000000000000000000000000000000000000000000000000000000000815260040161256990614f46565b60405180910390fd5b8091505092915050565b600061258661110e565b60020160009054906101000a900473ffffffffffffffffffffffffffffffffffffffff1673ffffffffffffffffffffffffffffffffffffffff16639cad82d1836040518263ffffffff1660e01b81526004016125e29190614ee9565b60206040518083038186803b1580156125fa57600080fd5b505afa15801561260e573d6000803e3d6000fd5b505050506040513d601f19601f820116820180604052508101906126329190613ef3565b9050919050565b60008282111561267e576040517f08c379a000000000000000000000000000000000000000000000000000000000815260040161267590614f86565b60405180910390fd5b818303905092915050565b6000606061273163705e12e860e01b878787876040516024016126af9493929190614e14565b604051602081830303815290604052907bffffffffffffffffffffffffffffffffffffffffffffffffffffffff19166020820180517bffffffffffffffffffffffffffffffffffffffffffffffffffffffff83818316178352505050508873ffffffffffffffffffffffffffffffffffffffff1661247f90919063ffffffff16565b905080806020019051810190612747919061413e565b91505095945050505050565b6127f5630c0a769b60e01b84848460405160240161277393929190614ddd565b604051602081830303815290604052907bffffffffffffffffffffffffffffffffffffffffffffffffffffffff19166020820180517bffffffffffffffffffffffffffffffffffffffffffffffffffffffff83818316178352505050508573ffffffffffffffffffffffffffffffffffffffff1661247f90919063ffffffff16565b5050505050565b61289e635224372c60e01b84848460405160240161281c93929190614ddd565b604051602081830303815290604052907bffffffffffffffffffffffffffffffffffffffffffffffffffffffff19166020820180517bffffffffffffffffffffffffffffffffffffffffffffffffffffffff83818316178352505050508573ffffffffffffffffffffffffffffffffffffffff1661247f90919063ffffffff16565b5050505050565b6000606061294b6353b609b560e01b8686866040516024016128c993929190614ddd565b604051602081830303815290604052907bffffffffffffffffffffffffffffffffffffffffffffffffffffffff19166020820180517bffffffffffffffffffffffffffffffffffffffffffffffffffffffff83818316178352505050508773ffffffffffffffffffffffffffffffffffffffff1661247f90919063ffffffff16565b905080806020019051810190612961919061413e565b915050949350505050565b60006060612a1463ba5cdd3b60e01b878787876040516024016129929493929190614e14565b604051602081830303815290604052907bffffffffffffffffffffffffffffffffffffffffffffffffffffffff19166020820180517bffffffffffffffffffffffffffffffffffffffffffffffffffffffff83818316178352505050508873ffffffffffffffffffffffffffffffffffffffff1661247f90919063ffffffff16565b905080806020019051810190612a2a919061413e565b91505095945050505050565b60008083905060008173ffffffffffffffffffffffffffffffffffffffff1663295c39a56040518163ffffffff1660e01b815260040160206040518083038186803b158015612a8457600080fd5b505afa158015612a98573d6000803e3d6000fd5b505050506040513d601f19601f82011682018060405250810190612abc919061413e565b9050600080600090505b82811015612ba6578373ffffffffffffffffffffffffffffffffffffffff1663062bd3e9826040518263ffffffff1660e01b8152600401612b079190615246565b60206040518083038186803b158015612b1f57600080fd5b505afa158015612b33573d6000803e3d6000fd5b505050506040513d601f19601f82011682018060405250810190612b579190613ef3565b91508573ffffffffffffffffffffffffffffffffffffffff168273ffffffffffffffffffffffffffffffffffffffff161415612b995780945050505050612be2565b8080600101915050612ac6565b506040517f08c379a0000000000000000000000000000000000000000000000000000000008152600401612bd990615066565b60405180910390fd5b92915050565b6000612bfe60028361252790919063ffffffff16565b9050919050565b612c0d613b11565b60405180610100016040528060016008811115612c2657fe5b815260200160008152602001604051806080016040528060001515815260200160006001811115612c5357fe5b815260200160006001811115612c6557fe5b8152602001858152508152602001848152602001600081526020013073ffffffffffffffffffffffffffffffffffffffff1681526020016000815260200160405180602001604052806000815250815250905092915050565b612cc6613b11565b604051806101000160405280600880811115612cde57fe5b815260200160008152602001604051806080016040528060001515815260200160006001811115612d0b57fe5b815260200160006001811115612d1d57fe5b81526020016000815250815260200160008152602001600081526020013073ffffffffffffffffffffffffffffffffffffffff16815260200160008152602001838152509050919050565b612d70613b11565b60405180610100016040528060006008811115612d8957fe5b815260200160008152602001604051806080016040528060011515815260200160006001811115612db657fe5b815260200160006001811115612dc857fe5b8152602001858152508152602001848152602001600081526020013073ffffffffffffffffffffffffffffffffffffffff1681526020016000815260200160405180602001604052806000815250815250905092915050565b612e29613b7d565b60405180604001604052803073ffffffffffffffffffffffffffffffffffffffff1681526020016001815250905090565b6000612ef9828573ffffffffffffffffffffffffffffffffffffffff1663dd62ed3e30876040518363ffffffff1660e01b8152600401612e9b929190614d7d565b60206040518083038186803b158015612eb357600080fd5b505afa158015612ec7573d6000803e3d6000fd5b505050506040513d601f19601f82011682018060405250810190612eeb919061413e565b61252790919063ffffffff16565b9050612f7c8463095ea7b360e01b8584604051602401612f1a929190614e89565b604051602081830303815290604052907bffffffffffffffffffffffffffffffffffffffffffffffffffffffff19166020820180517bffffffffffffffffffffffffffffffffffffffffffffffffffffffff83818316178352505050506136d1565b50505050565b600081148061301b575060008373ffffffffffffffffffffffffffffffffffffffff1663dd62ed3e30856040518363ffffffff1660e01b8152600401612fc9929190614d7d565b60206040518083038186803b158015612fe157600080fd5b505afa158015612ff5573d6000803e3d6000fd5b505050506040513d601f19601f82011682018060405250810190613019919061413e565b145b61305a576040517f08c379a0000000000000000000000000000000000000000000000000000000008152600401613051906151c6565b60405180910390fd5b6130db8363095ea7b360e01b8484604051602401613079929190614e89565b604051602081830303815290604052907bffffffffffffffffffffffffffffffffffffffffffffffffffffffff19166020820180517bffffffffffffffffffffffffffffffffffffffffffffffffffffffff83818316178352505050506136d1565b505050565b6131816220311b60e01b8484846040516024016130ff93929190614ddd565b604051602081830303815290604052907bffffffffffffffffffffffffffffffffffffffffffffffffffffffff19166020820180517bffffffffffffffffffffffffffffffffffffffffffffffffffffffff83818316178352505050508573ffffffffffffffffffffffffffffffffffffffff1661247f90919063ffffffff16565b5050505050565b61322a631c009d7160e01b8484846040516024016131a893929190614ddd565b604051602081830303815290604052907bffffffffffffffffffffffffffffffffffffffffffffffffffffffff19166020820180517bffffffffffffffffffffffffffffffffffffffffffffffffffffffff83818316178352505050508573ffffffffffffffffffffffffffffffffffffffff1661247f90919063ffffffff16565b5050505050565b613239613a03565b6132416110e1565b6040518060800160405290816000820160009054906101000a900473ffffffffffffffffffffffffffffffffffffffff1673ffffffffffffffffffffffffffffffffffffffff1673ffffffffffffffffffffffffffffffffffffffff1681526020016001820160009054906101000a900473ffffffffffffffffffffffffffffffffffffffff1673ffffffffffffffffffffffffffffffffffffffff1673ffffffffffffffffffffffffffffffffffffffff1681526020016002820160009054906101000a900473ffffffffffffffffffffffffffffffffffffffff1673ffffffffffffffffffffffffffffffffffffffff1673ffffffffffffffffffffffffffffffffffffffff1681526020016003820154815250509050600061338d8361337f670de0b6b3a764000085606001516122f890919063ffffffff16565b61236890919063ffffffff16565b905060008490506000670de0b6b3a76400008310156133e257670de0b6b3a76400006133c284886122f890919063ffffffff16565b816133c957fe5b0491506133df828761263990919063ffffffff16565b90505b6000670de0b6b3a76400006134646134237f0000000000000000000000000000000000000000000000000000000000000000856122f890919063ffffffff16565b6134567f0000000000000000000000000000000000000000000000000000000000000000876122f890919063ffffffff16565b61252790919063ffffffff16565b8161346b57fe5b049050828560600151111561349557828560600151036134896110e1565b600301819055506134a7565b600061349f6110e1565b600301819055505b6134f67f000000000000000000000000000000000000000000000000000000000000000082876020015173ffffffffffffffffffffffffffffffffffffffff166137989092919063ffffffff16565b61353e613501613615565b613514838a61263990919063ffffffff16565b876020015173ffffffffffffffffffffffffffffffffffffffff166137989092919063ffffffff16565b50505050505050565b60606135528461381e565b613591576040517f08c379a0000000000000000000000000000000000000000000000000000000008152600401613588906150c6565b60405180910390fd5b600060608573ffffffffffffffffffffffffffffffffffffffff16856040516135ba9190614d4b565b600060405180830381855af49150503d80600081146135f5576040519150601f19603f3d011682016040523d82523d6000602084013e6135fa565b606091505b509150915061360a828286613831565b925050509392505050565b600061361f61110e565b60040160009054906101000a900473ffffffffffffffffffffffffffffffffffffffff16905090565b6136cb846323b872dd60e01b85858560405160240161366993929190614ddd565b604051602081830303815290604052907bffffffffffffffffffffffffffffffffffffffffffffffffffffffff19166020820180517bffffffffffffffffffffffffffffffffffffffffffffffffffffffff83818316178352505050506136d1565b50505050565b6060613733826040518060400160405280602081526020017f5361666545524332303a206c6f772d6c6576656c2063616c6c206661696c65648152508573ffffffffffffffffffffffffffffffffffffffff166138989092919063ffffffff16565b905060008151111561379357808060200190518101906137539190614093565b613792576040517f08c379a0000000000000000000000000000000000000000000000000000000008152600401613789906151a6565b60405180910390fd5b5b505050565b6138198363a9059cbb60e01b84846040516024016137b7929190614e89565b604051602081830303815290604052907bffffffffffffffffffffffffffffffffffffffffffffffffffffffff19166020820180517bffffffffffffffffffffffffffffffffffffffffffffffffffffffff83818316178352505050506136d1565b505050565b600080823b905060008111915050919050565b6060831561384157829050613891565b6000835111156138545782518084602001fd5b816040517f08c379a00000000000000000000000000000000000000000000000000000000081526004016138889190614f04565b60405180910390fd5b9392505050565b60606138a784846000856138b0565b90509392505050565b6060824710156138f5576040517f08c379a00000000000000000000000000000000000000000000000000000000081526004016138ec90614fa6565b60405180910390fd5b6138fe8561381e565b61393d576040517f08c379a000000000000000000000000000000000000000000000000000000000815260040161393490615106565b60405180910390fd5b600060608673ffffffffffffffffffffffffffffffffffffffff1685876040516139679190614d4b565b60006040518083038185875af1925050503d80600081146139a4576040519150601f19603f3d011682016040523d82523d6000602084013e6139a9565b606091505b50915091506139b9828286613831565b92505050949350505050565b6040518060800160405280600073ffffffffffffffffffffffffffffffffffffffff1681526020016000815260200160008152602001606081525090565b6040518060800160405280600073ffffffffffffffffffffffffffffffffffffffff168152602001600073ffffffffffffffffffffffffffffffffffffffff168152602001600073ffffffffffffffffffffffffffffffffffffffff168152602001600081525090565b6040518061012001604052806000815260200160008152602001600081526020016000815260200160008152602001600073ffffffffffffffffffffffffffffffffffffffff168152602001600073ffffffffffffffffffffffffffffffffffffffff168152602001600073ffffffffffffffffffffffffffffffffffffffff168152602001600073ffffffffffffffffffffffffffffffffffffffff1681525090565b60405180610100016040528060006008811115613b2a57fe5b815260200160008152602001613b3e613be5565b81526020016000815260200160008152602001600073ffffffffffffffffffffffffffffffffffffffff16815260200160008152602001606081525090565b6040518060400160405280600073ffffffffffffffffffffffffffffffffffffffff168152602001600081525090565b6040518060c0016040528060008152602001600081526020016000815260200160001515815260200160608152602001606081525090565b604051806080016040528060001515815260200160006001811115613c0657fe5b815260200160006001811115613c1857fe5b8152602001600081525090565b600081359050613c3481615505565b92915050565b600081519050613c4981615505565b92915050565b600081519050613c5e8161551c565b92915050565b60008083601f840112613c7657600080fd5b8235905067ffffffffffffffff811115613c8f57600080fd5b602083019150836001820283011115613ca757600080fd5b9250929050565b600082601f830112613cbf57600080fd5b8135613cd2613ccd8261528e565b615261565b91508082526020830160208301858383011115613cee57600080fd5b613cf983828461548b565b50505092915050565b600082601f830112613d1357600080fd5b8151613d26613d218261528e565b615261565b91508082526020830160208301858383011115613d4257600080fd5b613d4d83828461549a565b50505092915050565b600060c08284031215613d6857600080fd5b613d7260c0615261565b90506000613d8284828501613ede565b6000830152506020613d9684828501613ede565b6020830152506040613daa84828501613ede565b6040830152506060613dbe84828501613c4f565b606083015250608082015167ffffffffffffffff811115613dde57600080fd5b613dea84828501613d02565b60808301525060a082015167ffffffffffffffff811115613e0a57600080fd5b613e1684828501613d02565b60a08301525092915050565b600060408284031215613e3457600080fd5b81905092915050565b600060808284031215613e4f57600080fd5b613e596080615261565b90506000613e6984828501613c25565b6000830152506020613e7d84828501613ec9565b6020830152506040613e9184828501613ec9565b604083015250606082013567ffffffffffffffff811115613eb157600080fd5b613ebd84828501613cae565b60608301525092915050565b600081359050613ed881615533565b92915050565b600081519050613eed81615533565b92915050565b600060208284031215613f0557600080fd5b6000613f1384828501613c3a565b91505092915050565b60008060008060808587031215613f3257600080fd5b6000613f4087828801613c25565b9450506020613f5187828801613e22565b935050606085013567ffffffffffffffff811115613f6e57600080fd5b613f7a87828801613c64565b925092505092959194509250565b6000806000806000806000806000806101408b8d031215613fa857600080fd5b6000613fb68d828e01613c25565b9a50506020613fc78d828e01613ec9565b9950506040613fd88d828e01613c25565b9850506060613fe98d828e01613c25565b9750506080613ffa8d828e01613ec9565b96505060a061400b8d828e01613ec9565b95505060c061401c8d828e01613c25565b94505060e061402d8d828e01613ec9565b9350506101008b013567ffffffffffffffff81111561404b57600080fd5b6140578d828e01613cae565b9250506101208b013567ffffffffffffffff81111561407557600080fd5b6140818d828e01613cae565b9150509295989b9194979a5092959850565b6000602082840312156140a557600080fd5b60006140b384828501613c4f565b91505092915050565b6000602082840312156140ce57600080fd5b600082015167ffffffffffffffff8111156140e857600080fd5b6140f484828501613d56565b91505092915050565b60006020828403121561410f57600080fd5b600082013567ffffffffffffffff81111561412957600080fd5b61413584828501613e3d565b91505092915050565b60006020828403121561415057600080fd5b600061415e84828501613ede565b91505092915050565b600061417383836141ab565b60208301905092915050565b600061418b8383614a4c565b905092915050565b600061419f8383614be4565b60408301905092915050565b6141b4816153a8565b82525050565b6141c3816153a8565b82525050565b60006141d4826152ea565b6141de8185615348565b93506141e9836152ba565b8060005b8381101561421a5781516142018882614167565b975061420c83615321565b9250506001810190506141ed565b5085935050505092915050565b6000614232826152f5565b61423c8185615359565b93508360208202850161424e856152ca565b8060005b8581101561428a578484038952815161426b858261417f565b94506142768361532e565b925060208a01995050600181019050614252565b50829750879550505050505092915050565b60006142a782615300565b6142b1818561536a565b93506142bc836152da565b8060005b838110156142ed5781516142d48882614193565b97506142df8361533b565b9250506001810190506142c0565b5085935050505092915050565b614303816153ba565b82525050565b614312816153c6565b82525050565b60006143238261530b565b61432d818561537b565b935061433d81856020860161549a565b614346816154cd565b840191505092915050565b600061435c8261530b565b614366818561538c565b935061437681856020860161549a565b80840191505092915050565b61438b81615455565b82525050565b61439a81615467565b82525050565b6143a981615479565b82525050565b60006143ba82615316565b6143c48185615397565b93506143d481856020860161549a565b6143dd816154cd565b840191505092915050565b60006143f5600383615397565b91507f46413200000000000000000000000000000000000000000000000000000000006000830152602082019050919050565b6000614435601b83615397565b91507f536166654d6174683a206164646974696f6e206f766572666c6f7700000000006000830152602082019050919050565b6000614475600483615397565b91507f44464d33000000000000000000000000000000000000000000000000000000006000830152602082019050919050565b60006144b5601e83615397565b91507f536166654d6174683a207375627472616374696f6e206f766572666c6f7700006000830152602082019050919050565b60006144f5602683615397565b91507f416464726573733a20696e73756666696369656e742062616c616e636520666f60008301527f722063616c6c00000000000000000000000000000000000000000000000000006020830152604082019050919050565b600061455b601a83615397565b91507f536166654d6174683a206469766973696f6e206279207a65726f0000000000006000830152602082019050919050565b600061459b600483615397565b91507f44464d31000000000000000000000000000000000000000000000000000000006000830152602082019050919050565b60006145db600383615397565b91507f53503400000000000000000000000000000000000000000000000000000000006000830152602082019050919050565b600061461b600383615397565b91507f46413400000000000000000000000000000000000000000000000000000000006000830152602082019050919050565b600061465b602183615397565b91507f536166654d6174683a206d756c7469706c69636174696f6e206f766572666c6f60008301527f77000000000000000000000000000000000000000000000000000000000000006020830152604082019050919050565b60006146c1602483615397565b91507f4e6f206d61726b6574496420666f756e6420666f722070726f7669646564207460008301527f6f6b656e000000000000000000000000000000000000000000000000000000006020830152604082019050919050565b6000614727600383615397565b91507f53503300000000000000000000000000000000000000000000000000000000006000830152602082019050919050565b6000614767600683615397565b91507f53504c4c433200000000000000000000000000000000000000000000000000006000830152602082019050919050565b60006147a7602683615397565b91507f416464726573733a2064656c65676174652063616c6c20746f206e6f6e2d636f60008301527f6e747261637400000000000000000000000000000000000000000000000000006020830152604082019050919050565b600061480d600683615397565b91507f53504c4c433500000000000000000000000000000000000000000000000000006000830152602082019050919050565b600061484d601d83615397565b91507f416464726573733a2063616c6c20746f206e6f6e2d636f6e74726163740000006000830152602082019050919050565b600061488d600383615397565b91507f53503200000000000000000000000000000000000000000000000000000000006000830152602082019050919050565b60006148cd600683615397565b91507f53504c4c433300000000000000000000000000000000000000000000000000006000830152602082019050919050565b600061490d600683615397565b91507f53504c4c433100000000000000000000000000000000000000000000000000006000830152602082019050919050565b600061494d600483615397565b91507f44464d32000000000000000000000000000000000000000000000000000000006000830152602082019050919050565b600061498d602a83615397565b91507f5361666545524332303a204552433230206f7065726174696f6e20646964206e60008301527f6f742073756363656564000000000000000000000000000000000000000000006020830152604082019050919050565b60006149f3603683615397565b91507f5361666545524332303a20617070726f76652066726f6d206e6f6e2d7a65726f60008301527f20746f206e6f6e2d7a65726f20616c6c6f77616e6365000000000000000000006020830152604082019050919050565b600061016083016000830151614a656000860182614382565b506020830151614a786020860182614d2d565b506040830151614a8b6040860182614aff565b506060830151614a9e60c0860182614d2d565b506080830151614ab160e0860182614d2d565b5060a0830151614ac56101008601826141ab565b5060c0830151614ad9610120860182614d2d565b5060e0830151848203610140860152614af28282614318565b9150508091505092915050565b608082016000820151614b1560008501826142fa565b506020820151614b286020850182614391565b506040820151614b3b60408501826143a0565b506060820151614b4e6060850182614d2d565b50505050565b600060c083016000830151614b6c6000860182614d2d565b506020830151614b7f6020860182614d2d565b506040830151614b926040860182614d2d565b506060830151614ba560608601826142fa565b5060808301518482036080860152614bbd8282614318565b91505060a083015184820360a0860152614bd78282614318565b9150508091505092915050565b604082016000820151614bfa60008501826141ab565b506020820151614c0d6020850182614d2d565b50505050565b6000608083016000830151614c2b60008601826141ab565b506020830151614c3e6020860182614d2d565b506040830151614c516040860182614d2d565b5060608301518482036060860152614c698282614318565b9150508091505092915050565b61012082016000820151614c8d6000850182614d2d565b506020820151614ca06020850182614d2d565b506040820151614cb36040850182614d2d565b506060820151614cc66060850182614d2d565b506080820151614cd96080850182614d2d565b5060a0820151614cec60a08501826141ab565b5060c0820151614cff60c08501826141ab565b5060e0820151614d1260e08501826141ab565b50610100820151614d276101008501826141ab565b50505050565b614d368161544b565b82525050565b614d458161544b565b82525050565b6000614d578284614351565b915081905092915050565b6000602082019050614d7760008301846141ba565b92915050565b6000604082019050614d9260008301856141ba565b614d9f60208301846141ba565b9392505050565b6000606082019050614dbb60008301866141ba565b614dc860208301856141ba565b614dd560408301846141ba565b949350505050565b6000606082019050614df260008301866141ba565b614dff60208301856141ba565b614e0c6040830184614d3c565b949350505050565b6000608082019050614e2960008301876141ba565b614e3660208301866141ba565b614e436040830185614d3c565b614e506060830184614d3c565b95945050505050565b6000604082019050614e6e60008301856141ba565b8181036020830152614e8081846141c9565b90509392505050565b6000604082019050614e9e60008301856141ba565b614eab6020830184614d3c565b9392505050565b60006040820190508181036000830152614ecc818561429c565b90508181036020830152614ee08184614227565b90509392505050565b6000602082019050614efe6000830184614309565b92915050565b60006020820190508181036000830152614f1e81846143af565b905092915050565b60006020820190508181036000830152614f3f816143e8565b9050919050565b60006020820190508181036000830152614f5f81614428565b9050919050565b60006020820190508181036000830152614f7f81614468565b9050919050565b60006020820190508181036000830152614f9f816144a8565b9050919050565b60006020820190508181036000830152614fbf816144e8565b9050919050565b60006020820190508181036000830152614fdf8161454e565b9050919050565b60006020820190508181036000830152614fff8161458e565b9050919050565b6000602082019050818103600083015261501f816145ce565b9050919050565b6000602082019050818103600083015261503f8161460e565b9050919050565b6000602082019050818103600083015261505f8161464e565b9050919050565b6000602082019050818103600083015261507f816146b4565b9050919050565b6000602082019050818103600083015261509f8161471a565b9050919050565b600060208201905081810360008301526150bf8161475a565b9050919050565b600060208201905081810360008301526150df8161479a565b9050919050565b600060208201905081810360008301526150ff81614800565b9050919050565b6000602082019050818103600083015261511f81614840565b9050919050565b6000602082019050818103600083015261513f81614880565b9050919050565b6000602082019050818103600083015261515f816148c0565b9050919050565b6000602082019050818103600083015261517f81614900565b9050919050565b6000602082019050818103600083015261519f81614940565b9050919050565b600060208201905081810360008301526151bf81614980565b9050919050565b600060208201905081810360008301526151df816149e6565b9050919050565b600060208201905081810360008301526152008184614b54565b905092915050565b600060208201905081810360008301526152228184614c13565b905092915050565b6000610120820190506152406000830184614c76565b92915050565b600060208201905061525b6000830184614d3c565b92915050565b6000604051905081810181811067ffffffffffffffff8211171561528457600080fd5b8060405250919050565b600067ffffffffffffffff8211156152a557600080fd5b601f19601f8301169050602081019050919050565b6000819050602082019050919050565b6000819050602082019050919050565b6000819050602082019050919050565b600081519050919050565b600081519050919050565b600081519050919050565b600081519050919050565b600081519050919050565b6000602082019050919050565b6000602082019050919050565b6000602082019050919050565b600082825260208201905092915050565b600082825260208201905092915050565b600082825260208201905092915050565b600082825260208201905092915050565b600081905092915050565b600082825260208201905092915050565b60006153b38261542b565b9050919050565b60008115159050919050565b60007fff0000000000000000000000000000000000000000000000000000000000000082169050919050565b6000819050615400826154de565b919050565b6000819050615413826154eb565b919050565b6000819050615426826154f8565b919050565b600073ffffffffffffffffffffffffffffffffffffffff82169050919050565b6000819050919050565b6000615460826153f2565b9050919050565b600061547282615405565b9050919050565b600061548482615418565b9050919050565b82818337600083830152505050565b60005b838110156154b857808201518184015260208101905061549d565b838111156154c7576000848401525b50505050565b6000601f19601f8301169050919050565b600981106154e857fe5b50565b600281106154f557fe5b50565b6002811061550257fe5b50565b61550e816153a8565b811461551957600080fd5b50565b615525816153ba565b811461553057600080fd5b50565b61553c8161544b565b811461554757600080fd5b5056fe416464726573733a206c6f772d6c6576656c2064656c65676174652063616c6c206661696c6564a2646970667358221220d1883f12409cfddfe5a885e4307e7811d6b28dd3e027b97a7a6e89ae9676083464736f6c634300060c0033",
  "devdoc": {
    "kind": "dev",
    "methods": {},
    "version": 1
  },
  "userdoc": {
    "kind": "user",
    "methods": {},
    "version": 1
  },
  "storageLayout": {
    "storage": [],
    "types": null
  }
}