{
  "address": "0x450dB06e802eE13dc1711855E6AC3b351114903C",
  "abi": [
    {
      "inputs": [
        {
          "internalType": "address",
          "name": "_router",
          "type": "address"
        }
      ],
      "stateMutability": "nonpayable",
      "type": "constructor"
    },
    {
      "inputs": [],
      "name": "ROUTER",
      "outputs": [
        {
          "internalType": "address",
          "name": "",
          "type": "address"
        }
      ],
      "stateMutability": "view",
      "type": "function"
    },
    {
      "inputs": [
        {
          "internalType": "address",
          "name": "fromToken",
          "type": "address"
        },
        {
          "internalType": "address",
          "name": "toToken",
          "type": "address"
        },
        {
          "internalType": "uint256",
          "name": "fromAmount",
          "type": "uint256"
        },
        {
          "internalType": "uint256",
          "name": "minToAmount",
          "type": "uint256"
        },
        {
          "internalType": "bytes",
          "name": "",
          "type": "bytes"
        }
      ],
      "name": "exchange",
      "outputs": [
        {
          "internalType": "uint256",
          "name": "",
          "type": "uint256"
        }
      ],
      "stateMutability": "nonpayable",
      "type": "function"
    },
    {
      "inputs": [
        {
          "internalType": "address",
          "name": "fromToken",
          "type": "address"
        },
        {
          "internalType": "address",
          "name": "toToken",
          "type": "address"
        },
        {
          "internalType": "uint256",
          "name": "toAmount",
          "type": "uint256"
        }
      ],
      "name": "getAmountIn",
      "outputs": [
        {
          "internalType": "uint256",
          "name": "fromAmount",
          "type": "uint256"
        }
      ],
      "stateMutability": "view",
      "type": "function"
    },
    {
      "inputs": [
        {
          "internalType": "address",
          "name": "fromToken",
          "type": "address"
        },
        {
          "internalType": "address",
          "name": "toToken",
          "type": "address"
        },
        {
          "internalType": "uint256",
          "name": "fromAmount",
          "type": "uint256"
        }
      ],
      "name": "getAmountOut",
      "outputs": [
        {
          "internalType": "uint256",
          "name": "toAmount",
          "type": "uint256"
        }
      ],
      "stateMutability": "view",
      "type": "function"
    },
    {
      "inputs": [
        {
          "internalType": "address",
          "name": "fromToken",
          "type": "address"
        },
        {
          "internalType": "address",
          "name": "toToken",
          "type": "address"
        },
        {
          "internalType": "uint256",
          "name": "fromAmount",
          "type": "uint256"
        },
        {
          "internalType": "uint256",
          "name": "minToAmount",
          "type": "uint256"
        }
      ],
      "name": "swapFromExact",
      "outputs": [
        {
          "internalType": "uint256",
          "name": "toAmount",
          "type": "uint256"
        }
      ],
      "stateMutability": "nonpayable",
      "type": "function"
    },
    {
      "inputs": [
        {
          "internalType": "address",
          "name": "fromToken",
          "type": "address"
        },
        {
          "internalType": "address",
          "name": "toToken",
          "type": "address"
        },
        {
          "internalType": "uint256",
          "name": "maxFromAmount",
          "type": "uint256"
        },
        {
          "internalType": "uint256",
          "name": "toAmount",
          "type": "uint256"
        }
      ],
      "name": "swapToExact",
      "outputs": [
        {
          "internalType": "uint256",
          "name": "fromAmount",
          "type": "uint256"
        }
      ],
      "stateMutability": "nonpayable",
      "type": "function"
    }
  ],
  "transactionHash": "0xf1f0e3076fb8a3e2c2a25f1b54d43d6950e201cfc0c38b371baf84f2a851c4de",
  "args": [
    "0xd9e1cE17f2641f24aE83637ab66a2cca9C378B9F"
  ],
  "solcInputHash": "52a2d5c26a8dcef59265603bf75f9b43",
  "bytecode": "0x60a060405234801561001057600080fd5b506040516119573803806119578339818101604052602081101561003357600080fd5b810190808051906020019092919050505080600073ffffffffffffffffffffffffffffffffffffffff168173ffffffffffffffffffffffffffffffffffffffff1614156100e8576040517f08c379a00000000000000000000000000000000000000000000000000000000081526004018080602001828103825260048152602001807f494350300000000000000000000000000000000000000000000000000000000081525060200191505060405180910390fd5b8073ffffffffffffffffffffffffffffffffffffffff1660808173ffffffffffffffffffffffffffffffffffffffff1660601b81525050505060805160601c6117f16101666000398061039a5280610498528061071f52806109a952806109f15280610cac5280610cf45280610faf5280610ff952506117f16000f3fe608060405234801561001057600080fd5b50600436106100625760003560e01c806332fe7b26146100675780634aa066521461009b57806353b609b51461011d578063705e12e81461019f578063ba5cdd3b1461022b578063d9e3be1c146102b7575b600080fd5b61006f610398565b604051808273ffffffffffffffffffffffffffffffffffffffff16815260200191505060405180910390f35b610107600480360360608110156100b157600080fd5b81019080803573ffffffffffffffffffffffffffffffffffffffff169060200190929190803573ffffffffffffffffffffffffffffffffffffffff169060200190929190803590602001909291905050506103bc565b6040518082815260200191505060405180910390f35b6101896004803603606081101561013357600080fd5b81019080803573ffffffffffffffffffffffffffffffffffffffff169060200190929190803573ffffffffffffffffffffffffffffffffffffffff16906020019092919080359060200190929190505050610643565b6040518082815260200191505060405180910390f35b610215600480360360808110156101b557600080fd5b81019080803573ffffffffffffffffffffffffffffffffffffffff169060200190929190803573ffffffffffffffffffffffffffffffffffffffff16906020019092919080359060200190929190803590602001909291905050506108ca565b6040518082815260200191505060405180910390f35b6102a16004803603608081101561024157600080fd5b81019080803573ffffffffffffffffffffffffffffffffffffffff169060200190929190803573ffffffffffffffffffffffffffffffffffffffff1690602001909291908035906020019092919080359060200190929190505050610bcd565b6040518082815260200191505060405180910390f35b610382600480360360a08110156102cd57600080fd5b81019080803573ffffffffffffffffffffffffffffffffffffffff169060200190929190803573ffffffffffffffffffffffffffffffffffffffff16906020019092919080359060200190929190803590602001909291908035906020019064010000000081111561033e57600080fd5b82018360208201111561035057600080fd5b8035906020019184600183028401116401000000008311171561037257600080fd5b9091929391929390505050610ed0565b6040518082815260200191505060405180910390f35b7f000000000000000000000000000000000000000000000000000000000000000081565b60006060600267ffffffffffffffff811180156103d857600080fd5b506040519080825280602002602001820160405280156104075781602001602082028036833780820191505090505b50905084848260008151811061041957fe5b602002602001018360018151811061042d57fe5b602002602001018273ffffffffffffffffffffffffffffffffffffffff1673ffffffffffffffffffffffffffffffffffffffff168152508273ffffffffffffffffffffffffffffffffffffffff1673ffffffffffffffffffffffffffffffffffffffff1681525050507f000000000000000000000000000000000000000000000000000000000000000073ffffffffffffffffffffffffffffffffffffffff1663d06ca61f84836040518363ffffffff1660e01b81526004018083815260200180602001828103825283818151815260200191508051906020019060200280838360005b8381101561052c578082015181840152602081019050610511565b50505050905001935050505060006040518083038186803b15801561055057600080fd5b505afa158015610564573d6000803e3d6000fd5b505050506040513d6000823e3d601f19601f82011682018060405250602081101561058e57600080fd5b81019080805160405193929190846401000000008211156105ae57600080fd5b838201915060208201858111156105c457600080fd5b82518660208202830111640100000000821117156105e157600080fd5b8083526020830192505050908051906020019060200280838360005b838110156106185780820151818401526020810190506105fd565b5050505090500160405250505060018151811061063157fe5b60200260200101519150509392505050565b60006060600267ffffffffffffffff8111801561065f57600080fd5b5060405190808252806020026020018201604052801561068e5781602001602082028036833780820191505090505b5090508484826000815181106106a057fe5b60200260200101836001815181106106b457fe5b602002602001018273ffffffffffffffffffffffffffffffffffffffff1673ffffffffffffffffffffffffffffffffffffffff168152508273ffffffffffffffffffffffffffffffffffffffff1673ffffffffffffffffffffffffffffffffffffffff1681525050507f000000000000000000000000000000000000000000000000000000000000000073ffffffffffffffffffffffffffffffffffffffff16631f00ca7484836040518363ffffffff1660e01b81526004018083815260200180602001828103825283818151815260200191508051906020019060200280838360005b838110156107b3578082015181840152602081019050610798565b50505050905001935050505060006040518083038186803b1580156107d757600080fd5b505afa1580156107eb573d6000803e3d6000fd5b505050506040513d6000823e3d601f19601f82011682018060405250602081101561081557600080fd5b810190808051604051939291908464010000000082111561083557600080fd5b8382019150602082018581111561084b57600080fd5b825186602082028301116401000000008211171561086857600080fd5b8083526020830192505050908051906020019060200280838360005b8381101561089f578082015181840152602081019050610884565b505050509050016040525050506000815181106108b857fe5b60200260200101519150509392505050565b60006060600267ffffffffffffffff811180156108e657600080fd5b506040519080825280602002602001820160405280156109155781602001602082028036833780820191505090505b50905085858260008151811061092757fe5b602002602001018360018151811061093b57fe5b602002602001018273ffffffffffffffffffffffffffffffffffffffff1673ffffffffffffffffffffffffffffffffffffffff168152508273ffffffffffffffffffffffffffffffffffffffff1673ffffffffffffffffffffffffffffffffffffffff1681525050506109ef7f0000000000000000000000000000000000000000000000000000000000000000858873ffffffffffffffffffffffffffffffffffffffff166111db9092919063ffffffff16565b7f000000000000000000000000000000000000000000000000000000000000000073ffffffffffffffffffffffffffffffffffffffff166338ed173985858430426040518663ffffffff1660e01b815260040180868152602001858152602001806020018473ffffffffffffffffffffffffffffffffffffffff168152602001838152602001828103825285818151815260200191508051906020019060200280838360005b83811015610ab0578082015181840152602081019050610a95565b505050509050019650505050505050600060405180830381600087803b158015610ad957600080fd5b505af1158015610aed573d6000803e3d6000fd5b505050506040513d6000823e3d601f19601f820116820180604052506020811015610b1757600080fd5b8101908080516040519392919084640100000000821115610b3757600080fd5b83820191506020820185811115610b4d57600080fd5b8251866020820283011164010000000082111715610b6a57600080fd5b8083526020830192505050908051906020019060200280838360005b83811015610ba1578082015181840152602081019050610b86565b50505050905001604052505050600181518110610bba57fe5b6020026020010151915050949350505050565b60006060600267ffffffffffffffff81118015610be957600080fd5b50604051908082528060200260200182016040528015610c185781602001602082028036833780820191505090505b509050858582600081518110610c2a57fe5b6020026020010183600181518110610c3e57fe5b602002602001018273ffffffffffffffffffffffffffffffffffffffff1673ffffffffffffffffffffffffffffffffffffffff168152508273ffffffffffffffffffffffffffffffffffffffff1673ffffffffffffffffffffffffffffffffffffffff168152505050610cf27f0000000000000000000000000000000000000000000000000000000000000000858873ffffffffffffffffffffffffffffffffffffffff166111db9092919063ffffffff16565b7f000000000000000000000000000000000000000000000000000000000000000073ffffffffffffffffffffffffffffffffffffffff16638803dbee84868430426040518663ffffffff1660e01b815260040180868152602001858152602001806020018473ffffffffffffffffffffffffffffffffffffffff168152602001838152602001828103825285818151815260200191508051906020019060200280838360005b83811015610db3578082015181840152602081019050610d98565b505050509050019650505050505050600060405180830381600087803b158015610ddc57600080fd5b505af1158015610df0573d6000803e3d6000fd5b505050506040513d6000823e3d601f19601f820116820180604052506020811015610e1a57600080fd5b8101908080516040519392919084640100000000821115610e3a57600080fd5b83820191506020820185811115610e5057600080fd5b8251866020820283011164010000000082111715610e6d57600080fd5b8083526020830192505050908051906020019060200280838360005b83811015610ea4578082015181840152602081019050610e89565b50505050905001604052505050600081518110610ebd57fe5b6020026020010151915050949350505050565b60006060600267ffffffffffffffff81118015610eec57600080fd5b50604051908082528060200260200182016040528015610f1b5781602001602082028036833780820191505090505b509050878782600081518110610f2d57fe5b6020026020010183600181518110610f4157fe5b602002602001018273ffffffffffffffffffffffffffffffffffffffff1673ffffffffffffffffffffffffffffffffffffffff168152508273ffffffffffffffffffffffffffffffffffffffff1673ffffffffffffffffffffffffffffffffffffffff168152505050610ff57f0000000000000000000000000000000000000000000000000000000000000000878a73ffffffffffffffffffffffffffffffffffffffff166111db9092919063ffffffff16565b60607f000000000000000000000000000000000000000000000000000000000000000073ffffffffffffffffffffffffffffffffffffffff166338ed173988888530426040518663ffffffff1660e01b815260040180868152602001858152602001806020018473ffffffffffffffffffffffffffffffffffffffff168152602001838152602001828103825285818151815260200191508051906020019060200280838360005b838110156110b857808201518184015260208101905061109d565b505050509050019650505050505050600060405180830381600087803b1580156110e157600080fd5b505af11580156110f5573d6000803e3d6000fd5b505050506040513d6000823e3d601f19601f82011682018060405250602081101561111f57600080fd5b810190808051604051939291908464010000000082111561113f57600080fd5b8382019150602082018581111561115557600080fd5b825186602082028301116401000000008211171561117257600080fd5b8083526020830192505050908051906020019060200280838360005b838110156111a957808201518184015260208101905061118e565b505050509050016040525050509050806001815181106111c557fe5b6020026020010151925050509695505050505050565b60006112af828573ffffffffffffffffffffffffffffffffffffffff1663dd62ed3e30876040518363ffffffff1660e01b8152600401808373ffffffffffffffffffffffffffffffffffffffff1681526020018273ffffffffffffffffffffffffffffffffffffffff1681526020019250505060206040518083038186803b15801561126657600080fd5b505afa15801561127a573d6000803e3d6000fd5b505050506040513d602081101561129057600080fd5b810190808051906020019092919050505061135490919063ffffffff16565b905061134e8463095ea7b360e01b8584604051602401808373ffffffffffffffffffffffffffffffffffffffff16815260200182815260200192505050604051602081830303815290604052907bffffffffffffffffffffffffffffffffffffffffffffffffffffffff19166020820180517bffffffffffffffffffffffffffffffffffffffffffffffffffffffff83818316178352505050506113dc565b50505050565b6000808284019050838110156113d2576040517f08c379a000000000000000000000000000000000000000000000000000000000815260040180806020018281038252601b8152602001807f536166654d6174683a206164646974696f6e206f766572666c6f77000000000081525060200191505060405180910390fd5b8091505092915050565b606061143e826040518060400160405280602081526020017f5361666545524332303a206c6f772d6c6576656c2063616c6c206661696c65648152508573ffffffffffffffffffffffffffffffffffffffff166114cb9092919063ffffffff16565b90506000815111156114c65780806020019051602081101561145f57600080fd5b81019080805190602001909291905050506114c5576040517f08c379a000000000000000000000000000000000000000000000000000000000815260040180806020018281038252602a815260200180611792602a913960400191505060405180910390fd5b5b505050565b60606114da84846000856114e3565b90509392505050565b60608247101561153e576040517f08c379a000000000000000000000000000000000000000000000000000000000815260040180806020018281038252602681526020018061176c6026913960400191505060405180910390fd5b6115478561168c565b6115b9576040517f08c379a000000000000000000000000000000000000000000000000000000000815260040180806020018281038252601d8152602001807f416464726573733a2063616c6c20746f206e6f6e2d636f6e747261637400000081525060200191505060405180910390fd5b600060608673ffffffffffffffffffffffffffffffffffffffff1685876040518082805190602001908083835b6020831061160957805182526020820191506020810190506020830392506115e6565b6001836020036101000a03801982511681845116808217855250505050505090500191505060006040518083038185875af1925050503d806000811461166b576040519150601f19603f3d011682016040523d82523d6000602084013e611670565b606091505b509150915061168082828661169f565b92505050949350505050565b600080823b905060008111915050919050565b606083156116af57829050611764565b6000835111156116c25782518084602001fd5b816040517f08c379a00000000000000000000000000000000000000000000000000000000081526004018080602001828103825283818151815260200191508051906020019080838360005b8381101561172957808201518184015260208101905061170e565b50505050905090810190601f1680156117565780820380516001836020036101000a031916815260200191505b509250505060405180910390fd5b939250505056fe416464726573733a20696e73756666696369656e742062616c616e636520666f722063616c6c5361666545524332303a204552433230206f7065726174696f6e20646964206e6f742073756363656564a264697066735822122096b6cac363bd3f37bfdf3f42a13105283b24d015b0bcd180cc510f6a323259d964736f6c634300060c0033",
  "devdoc": {
    "kind": "dev",
    "methods": {},
    "version": 1
  },
  "userdoc": {
    "kind": "user",
    "methods": {},
    "version": 1
  },
  "storageLayout": {
    "storage": [],
    "types": null
  }
}